{"abi":[{"type":"constructor","inputs":[],"stateMutability":"nonpayable"},{"type":"function","name":"allowance","inputs":[{"name":"owner","type":"address","internalType":"address"},{"name":"spender","type":"address","internalType":"address"}],"outputs":[{"name":"","type":"uint256","internalType":"uint256"}],"stateMutability":"view"},{"type":"function","name":"approve","inputs":[{"name":"spender","type":"address","internalType":"address"},{"name":"value","type":"uint256","internalType":"uint256"}],"outputs":[{"name":"","type":"bool","internalType":"bool"}],"stateMutability":"nonpayable"},{"type":"function","name":"balanceOf","inputs":[{"name":"account","type":"address","internalType":"address"}],"outputs":[{"name":"","type":"uint256","internalType":"uint256"}],"stateMutability":"view"},{"type":"function","name":"decimals","inputs":[],"outputs":[{"name":"","type":"uint8","internalType":"uint8"}],"stateMutability":"view"},{"type":"function","name":"initialize","inputs":[{"name":"name_","type":"string","internalType":"string"},{"name":"symbol_","type":"string","internalType":"string"}],"outputs":[],"stateMutability":"nonpayable"},{"type":"function","name":"mint","inputs":[{"name":"to","type":"address","internalType":"address"},{"name":"amount","type":"uint256","internalType":"uint256"}],"outputs":[],"stateMutability":"nonpayable"},{"type":"function","name":"name","inputs":[],"outputs":[{"name":"","type":"string","internalType":"string"}],"stateMutability":"view"},{"type":"function","name":"symbol","inputs":[],"outputs":[{"name":"","type":"string","internalType":"string"}],"stateMutability":"view"},{"type":"function","name":"totalSupply","inputs":[],"outputs":[{"name":"","type":"uint256","internalType":"uint256"}],"stateMutability":"view"},{"type":"function","name":"transfer","inputs":[{"name":"to","type":"address","internalType":"address"},{"name":"value","type":"uint256","internalType":"uint256"}],"outputs":[{"name":"","type":"bool","internalType":"bool"}],"stateMutability":"nonpayable"},{"type":"function","name":"transferFrom","inputs":[{"name":"from","type":"address","internalType":"address"},{"name":"to","type":"address","internalType":"address"},{"name":"value","type":"uint256","internalType":"uint256"}],"outputs":[{"name":"","type":"bool","internalType":"bool"}],"stateMutability":"nonpayable"},{"type":"event","name":"Approval","inputs":[{"name":"owner","type":"address","indexed":true,"internalType":"address"},{"name":"spender","type":"address","indexed":true,"internalType":"address"},{"name":"value","type":"uint256","indexed":false,"internalType":"uint256"}],"anonymous":false},{"type":"event","name":"Transfer","inputs":[{"name":"from","type":"address","indexed":true,"internalType":"address"},{"name":"to","type":"address","indexed":true,"internalType":"address"},{"name":"value","type":"uint256","indexed":false,"internalType":"uint256"}],"anonymous":false},{"type":"error","name":"ERC20InsufficientAllowance","inputs":[{"name":"spender","type":"address","internalType":"address"},{"name":"allowance","type":"uint256","internalType":"uint256"},{"name":"needed","type":"uint256","internalType":"uint256"}]},{"type":"error","name":"ERC20InsufficientBalance","inputs":[{"name":"sender","type":"address","internalType":"address"},{"name":"balance","type":"uint256","internalType":"uint256"},{"name":"needed","type":"uint256","internalType":"uint256"}]},{"type":"error","name":"ERC20InvalidApprover","inputs":[{"name":"approver","type":"address","internalType":"address"}]},{"type":"error","name":"ERC20InvalidReceiver","inputs":[{"name":"receiver","type":"address","internalType":"address"}]},{"type":"error","name":"ERC20InvalidSender","inputs":[{"name":"sender","type":"address","internalType":"address"}]},{"type":"error","name":"ERC20InvalidSpender","inputs":[{"name":"spender","type":"address","internalType":"address"}]}],"bytecode":{"object":"0x6080604052346102c4576100116102c8565b6100196102c8565b81516001600160401b0381116101d757600354600181811c911680156102ba575b60208210146101b957601f8111610257575b50602092601f82116001146101f657928192935f926101eb575b50508160011b915f199060031b1c1916176003555b80516001600160401b0381116101d757600454600181811c911680156101cd575b60208210146101b957601f8111610156575b50602091601f82116001146100f6579181925f926100eb575b50508160011b915f199060031b1c1916176004555b604051610eae90816102eb8239f35b015190505f806100c7565b601f1982169260045f52805f20915f5b85811061013e57508360019510610126575b505050811b016004556100dc565b01515f1960f88460031b161c191690555f8080610118565b91926020600181928685015181550194019201610106565b60045f527f8a35acfbc15ff81a39ae7d344fd709f28e8600b4aa8c65c6b64bfe7fe36bd19b601f830160051c810191602084106101af575b601f0160051c01905b8181106101a457506100ae565b5f8155600101610197565b909150819061018e565b634e487b7160e01b5f52602260045260245ffd5b90607f169061009c565b634e487b7160e01b5f52604160045260245ffd5b015190505f80610066565b601f1982169360035f52805f20915f5b86811061023f5750836001959610610227575b505050811b0160035561007b565b01515f1960f88460031b161c191690555f8080610219565b91926020600181928685015181550194019201610206565b60035f527fc2575a0e9e593c00f959f8c92f12db2869c3395a3b0502d05e2516446f71f85b601f830160051c810191602084106102b0575b601f0160051c01905b8181106102a5575061004c565b5f8155600101610298565b909150819061028f565b90607f169061003a565b5f80fd5b60405190602082016001600160401b038111838210176101d7576040525f825256fe6080806040526004361015610012575f80fd5b5f3560e01c90816306fdde0314610a9857508063095ea7b314610a0957806318160ddd146109ec57806323b872dd14610895578063313ce5671461087a57806340c10f19146107015780634cd88b761461027457806370a082311461023057806395d89b4114610138578063a9059cbb146101075763dd62ed3e14610095575f80fd5b34610103576040600319360112610103576100ae610b82565b73ffffffffffffffffffffffffffffffffffffffff6100cb610ba5565b91165f52600160205273ffffffffffffffffffffffffffffffffffffffff60405f2091165f52602052602060405f2054604051908152f35b5f80fd5b346101035760406003193601126101035761012d610123610b82565b6024359033610d08565b602060405160018152f35b34610103575f600319360112610103576040515f60075461015881610c7d565b80845290600181169081156101ee5750600114610190575b61018c8361018081850382610bc8565b60405191829182610b3a565b0390f35b91905060075f527fa66cc928b5edb82af9bd49922954155ab7b0942694bea4ce44661d9a8736c688915f905b8082106101d457509091508101602001610180610170565b9192600181602092548385880101520191019092916101bc565b7fffffffffffffffffffffffffffffffffffffffffffffffffffffffffffffff001660208086019190915291151560051b840190910191506101809050610170565b346101035760206003193601126101035773ffffffffffffffffffffffffffffffffffffffff61025e610b82565b165f525f602052602060405f2054604051908152f35b346101035760406003193601126101035760043567ffffffffffffffff8111610103576102a5903690600401610c09565b60243567ffffffffffffffff8111610103576102c5903690600401610c09565b60055460ff81166106a3577fffffffffffffffffffffffffffffffffffffffffffffffffffffffffffffff0016600117600555815167ffffffffffffffff811161052d57610314600654610c7d565b601f8111610602575b50602092601f821160011461056557928192935f9261055a575b50505f198260011b9260031b1c1916176006555b805167ffffffffffffffff811161052d57610367600754610c7d565b601f811161048c575b50602091601f82116001146103f0579181925f926103e5575b50505f198260011b9260031b1c1916176007555b33156103b9576103b769d3c21bcecceda100000033610dfe565b005b7fec442f05000000000000000000000000000000000000000000000000000000005f525f60045260245ffd5b015190508280610389565b7fffffffffffffffffffffffffffffffffffffffffffffffffffffffffffffffe082169260075f527fa66cc928b5edb82af9bd49922954155ab7b0942694bea4ce44661d9a8736c688915f5b8581106104745750836001951061045c575b505050811b0160075561039d565b01515f1960f88460031b161c1916905582808061044e565b9192602060018192868501518155019401920161043c565b60075f52601f820160051c7fa66cc928b5edb82af9bd49922954155ab7b0942694bea4ce44661d9a8736c688019060208310610505575b601f0160051c7fa66cc928b5edb82af9bd49922954155ab7b0942694bea4ce44661d9a8736c68801905b8181106104fa5750610370565b5f81556001016104ed565b7fa66cc928b5edb82af9bd49922954155ab7b0942694bea4ce44661d9a8736c68891506104c3565b7f4e487b71000000000000000000000000000000000000000000000000000000005f52604160045260245ffd5b015190508380610337565b7fffffffffffffffffffffffffffffffffffffffffffffffffffffffffffffffe082169360065f527ff652222313e28459528d920b65115c16c04f3efc82aaedc97be59f3f377c0d3f915f5b8681106105ea57508360019596106105d2575b505050811b0160065561034b565b01515f1960f88460031b161c191690558380806105c4565b919260206001819286850151815501940192016105b1565b60065f52601f820160051c7ff652222313e28459528d920b65115c16c04f3efc82aaedc97be59f3f377c0d3f01906020831061067b575b601f0160051c7ff652222313e28459528d920b65115c16c04f3efc82aaedc97be59f3f377c0d3f01905b818110610670575061031d565b5f8155600101610663565b7ff652222313e28459528d920b65115c16c04f3efc82aaedc97be59f3f377c0d3f9150610639565b60646040517f08c379a000000000000000000000000000000000000000000000000000000000815260206004820152601360248201527f416c726561647920696e697469616c697a6564000000000000000000000000006044820152fd5b346101035760406003193601126101035761071a610b82565b6024356a084595161401484a00000081116107f6576b033b2e3c9fd0803ce800000061074882600254610cce565b116107725773ffffffffffffffffffffffffffffffffffffffff8216156103b9576103b791610dfe565b60846040517f08c379a000000000000000000000000000000000000000000000000000000000815260206004820152602160248201527f4d6f636b45524332303a20746f74616c20737570706c7920746f6f206c61726760448201527f65000000000000000000000000000000000000000000000000000000000000006064820152fd5b60846040517f08c379a000000000000000000000000000000000000000000000000000000000815260206004820152602760248201527f4d6f636b45524332303a20616d6f756e7420746f6f206c6172676520666f722060448201527f74657374696e67000000000000000000000000000000000000000000000000006064820152fd5b34610103575f60031936011261010357602060405160128152f35b34610103576060600319360112610103576108ae610b82565b6108b6610ba5565b6044359073ffffffffffffffffffffffffffffffffffffffff831692835f52600160205260405f2073ffffffffffffffffffffffffffffffffffffffff33165f5260205260405f20545f198110610913575b5061012d9350610d08565b8381106109b857841561098c5733156109605761012d945f52600160205260405f2073ffffffffffffffffffffffffffffffffffffffff33165f526020528360405f209103905584610908565b7f94280d62000000000000000000000000000000000000000000000000000000005f525f60045260245ffd5b7fe602df05000000000000000000000000000000000000000000000000000000005f525f60045260245ffd5b83907ffb8f41b2000000000000000000000000000000000000000000000000000000005f523360045260245260445260645ffd5b34610103575f600319360112610103576020600254604051908152f35b3461010357604060031936011261010357610a22610b82565b60243590331561098c5773ffffffffffffffffffffffffffffffffffffffff1690811561096057335f52600160205260405f20825f526020528060405f20556040519081527f8c5be1e5ebec7d5bd14f71427d1e84f3dd0314c0f7b2291e5b200ac8c7c3b92560203392a3602060405160018152f35b34610103575f600319360112610103575f600654610ab581610c7d565b80845290600181169081156101ee5750600114610adc5761018c8361018081850382610bc8565b91905060065f527ff652222313e28459528d920b65115c16c04f3efc82aaedc97be59f3f377c0d3f915f905b808210610b2057509091508101602001610180610170565b919260018160209254838588010152019101909291610b08565b7fffffffffffffffffffffffffffffffffffffffffffffffffffffffffffffffe0601f602060409481855280519182918282880152018686015e5f8582860101520116010190565b6004359073ffffffffffffffffffffffffffffffffffffffff8216820361010357565b6024359073ffffffffffffffffffffffffffffffffffffffff8216820361010357565b90601f7fffffffffffffffffffffffffffffffffffffffffffffffffffffffffffffffe0910116810190811067ffffffffffffffff82111761052d57604052565b81601f820112156101035780359067ffffffffffffffff821161052d5760405192610c5c60207fffffffffffffffffffffffffffffffffffffffffffffffffffffffffffffffe0601f8601160185610bc8565b8284526020838301011161010357815f926020809301838601378301015290565b90600182811c92168015610cc4575b6020831014610c9757565b7f4e487b71000000000000000000000000000000000000000000000000000000005f52602260045260245ffd5b91607f1691610c8c565b91908201809211610cdb57565b7f4e487b71000000000000000000000000000000000000000000000000000000005f52601160045260245ffd5b73ffffffffffffffffffffffffffffffffffffffff16908115610dd25773ffffffffffffffffffffffffffffffffffffffff169182156103b957815f525f60205260405f2054818110610da057817fddf252ad1be2c89b69c2b068fc378daa952ba7f163c4a11628f55a4df523b3ef92602092855f525f84520360405f2055845f525f825260405f20818154019055604051908152a3565b827fe450d38c000000000000000000000000000000000000000000000000000000005f5260045260245260445260645ffd5b7f96c6fd1e000000000000000000000000000000000000000000000000000000005f525f60045260245ffd5b7fddf252ad1be2c89b69c2b068fc378daa952ba7f163c4a11628f55a4df523b3ef602073ffffffffffffffffffffffffffffffffffffffff5f93610e4486600254610cce565b600255169384158414610e635780600254036002555b604051908152a3565b84845283825260408420818154019055610e5a56fea2646970667358221220e7c16bde4fb5a6f8d03bb03df5b79a209866cf06973cb72f8b9cefffcc96843364736f6c634300081e0033","linkReferences":{}},"methodIdentifiers":{"allowance(address,address)":"dd62ed3e","approve(address,uint256)":"095ea7b3","balanceOf(address)":"70a08231","decimals()":"313ce567","initialize(string,string)":"4cd88b76","mint(address,uint256)":"40c10f19","name()":"06fdde03","symbol()":"95d89b41","totalSupply()":"18160ddd","transfer(address,uint256)":"a9059cbb","transferFrom(address,address,uint256)":"23b872dd"},"id":11}