{"abi":[{"type":"function","name":"executeSwap","inputs":[{"name":"tokenA","type":"address","internalType":"address"},{"name":"tokenB","type":"address","internalType":"address"},{"name":"inputAmount","type":"uint256","internalType":"uint256"},{"name":"minimumOutput","type":"uint256","internalType":"uint256"},{"name":"receiver","type":"address","internalType":"address"},{"name":"additionalData","type":"bytes","internalType":"bytes"}],"outputs":[{"name":"","type":"uint256","internalType":"uint256"}],"stateMutability":"nonpayable"}],"bytecode":{"object":"0x6080806040523460155761035a908161001a8239f35b5f80fdfe6080806040526004361015610012575f80fd5b5f3560e01c635c7dc8d514610025575f80fd5b3461029a5760c07ffffffffffffffffffffffffffffffffffffffffffffffffffffffffffffffffc36011261029a5760043573ffffffffffffffffffffffffffffffffffffffff811680910361029a576024359173ffffffffffffffffffffffffffffffffffffffff831680930361029a57604435906084359273ffffffffffffffffffffffffffffffffffffffff841680940361029a5760a43567ffffffffffffffff811161029a573660238201121561029a57806004013567ffffffffffffffff811161029a573691016024011161029a57816064815f6020947f23b872dd0000000000000000000000000000000000000000000000000000000083523360048401523060248401528760448401525af180156101e75761027d575b50605a810290808204605a149015171561025057606490049060643582106101f2575f92604460209260405195869384927fa9059cbb00000000000000000000000000000000000000000000000000000000845260048401528660248401525af19182156101e7576020926101bc575b50604051908152f35b6101db90833d85116101e0575b6101d3818361029e565b81019061030c565b6101b3565b503d6101c9565b6040513d5f823e3d90fd5b60646040517f08c379a000000000000000000000000000000000000000000000000000000000815260206004820152601360248201527f496e73756666696369656e74206f7574707574000000000000000000000000006044820152fd5b7f4e487b71000000000000000000000000000000000000000000000000000000005f52601160045260245ffd5b6102959060203d6020116101e0576101d3818361029e565b610143565b5f80fd5b90601f7fffffffffffffffffffffffffffffffffffffffffffffffffffffffffffffffe0910116810190811067ffffffffffffffff8211176102df57604052565b7f4e487b71000000000000000000000000000000000000000000000000000000005f52604160045260245ffd5b9081602091031261029a5751801515810361029a579056fea26469706673582212204425839ec7f362bb31ba958a13deaefc561f4ca0d083eec2698dcf03b42a82d264736f6c634300081e0033","linkReferences":{}},"methodIdentifiers":{"executeSwap(address,address,uint256,uint256,address,bytes)":"5c7dc8d5"},"id":9}