{"abi":[{"type":"constructor","inputs":[],"stateMutability":"nonpayable"},{"type":"function","name":"approve","inputs":[{"name":"to","type":"address","internalType":"address"},{"name":"tokenId","type":"uint256","internalType":"uint256"}],"outputs":[],"stateMutability":"nonpayable"},{"type":"function","name":"balanceOf","inputs":[{"name":"owner","type":"address","internalType":"address"}],"outputs":[{"name":"","type":"uint256","internalType":"uint256"}],"stateMutability":"view"},{"type":"function","name":"getApproved","inputs":[{"name":"tokenId","type":"uint256","internalType":"uint256"}],"outputs":[{"name":"","type":"address","internalType":"address"}],"stateMutability":"view"},{"type":"function","name":"isApprovedForAll","inputs":[{"name":"owner","type":"address","internalType":"address"},{"name":"operator","type":"address","internalType":"address"}],"outputs":[{"name":"","type":"bool","internalType":"bool"}],"stateMutability":"view"},{"type":"function","name":"mint","inputs":[{"name":"to","type":"address","internalType":"address"},{"name":"id","type":"uint256","internalType":"uint256"}],"outputs":[],"stateMutability":"nonpayable"},{"type":"function","name":"name","inputs":[],"outputs":[{"name":"","type":"string","internalType":"string"}],"stateMutability":"view"},{"type":"function","name":"ownerOf","inputs":[{"name":"tokenId","type":"uint256","internalType":"uint256"}],"outputs":[{"name":"","type":"address","internalType":"address"}],"stateMutability":"view"},{"type":"function","name":"safeTransferFrom","inputs":[{"name":"from","type":"address","internalType":"address"},{"name":"to","type":"address","internalType":"address"},{"name":"tokenId","type":"uint256","internalType":"uint256"}],"outputs":[],"stateMutability":"nonpayable"},{"type":"function","name":"safeTransferFrom","inputs":[{"name":"from","type":"address","internalType":"address"},{"name":"to","type":"address","internalType":"address"},{"name":"tokenId","type":"uint256","internalType":"uint256"},{"name":"data","type":"bytes","internalType":"bytes"}],"outputs":[],"stateMutability":"nonpayable"},{"type":"function","name":"setApprovalForAll","inputs":[{"name":"operator","type":"address","internalType":"address"},{"name":"approved","type":"bool","internalType":"bool"}],"outputs":[],"stateMutability":"nonpayable"},{"type":"function","name":"supportsInterface","inputs":[{"name":"interfaceId","type":"bytes4","internalType":"bytes4"}],"outputs":[{"name":"","type":"bool","internalType":"bool"}],"stateMutability":"view"},{"type":"function","name":"symbol","inputs":[],"outputs":[{"name":"","type":"string","internalType":"string"}],"stateMutability":"view"},{"type":"function","name":"tokenId","inputs":[],"outputs":[{"name":"","type":"uint256","internalType":"uint256"}],"stateMutability":"view"},{"type":"function","name":"tokenURI","inputs":[{"name":"tokenId","type":"uint256","internalType":"uint256"}],"outputs":[{"name":"","type":"string","internalType":"string"}],"stateMutability":"view"},{"type":"function","name":"transferFrom","inputs":[{"name":"from","type":"address","internalType":"address"},{"name":"to","type":"address","internalType":"address"},{"name":"tokenId","type":"uint256","internalType":"uint256"}],"outputs":[],"stateMutability":"nonpayable"},{"type":"event","name":"Approval","inputs":[{"name":"owner","type":"address","indexed":true,"internalType":"address"},{"name":"approved","type":"address","indexed":true,"internalType":"address"},{"name":"tokenId","type":"uint256","indexed":true,"internalType":"uint256"}],"anonymous":false},{"type":"event","name":"ApprovalForAll","inputs":[{"name":"owner","type":"address","indexed":true,"internalType":"address"},{"name":"operator","type":"address","indexed":true,"internalType":"address"},{"name":"approved","type":"bool","indexed":false,"internalType":"bool"}],"anonymous":false},{"type":"event","name":"Transfer","inputs":[{"name":"from","type":"address","indexed":true,"internalType":"address"},{"name":"to","type":"address","indexed":true,"internalType":"address"},{"name":"tokenId","type":"uint256","indexed":true,"internalType":"uint256"}],"anonymous":false},{"type":"error","name":"ERC721IncorrectOwner","inputs":[{"name":"sender","type":"address","internalType":"address"},{"name":"tokenId","type":"uint256","internalType":"uint256"},{"name":"owner","type":"address","internalType":"address"}]},{"type":"error","name":"ERC721InsufficientApproval","inputs":[{"name":"operator","type":"address","internalType":"address"},{"name":"tokenId","type":"uint256","internalType":"uint256"}]},{"type":"error","name":"ERC721InvalidApprover","inputs":[{"name":"approver","type":"address","internalType":"address"}]},{"type":"error","name":"ERC721InvalidOperator","inputs":[{"name":"operator","type":"address","internalType":"address"}]},{"type":"error","name":"ERC721InvalidOwner","inputs":[{"name":"owner","type":"address","internalType":"address"}]},{"type":"error","name":"ERC721InvalidReceiver","inputs":[{"name":"receiver","type":"address","internalType":"address"}]},{"type":"error","name":"ERC721InvalidSender","inputs":[{"name":"sender","type":"address","internalType":"address"}]},{"type":"error","name":"ERC721NonexistentToken","inputs":[{"name":"tokenId","type":"uint256","internalType":"uint256"}]}],"bytecode":{"object":"0x60806040523461041f57604080519081016001600160401b038111828210176103355760409081526008825267135bd8dac813919560c21b602083015280519081016001600160401b038111828210176103355760405260048152631353919560e21b602082015281516001600160401b038111610335575f54600181811c91168015610415575b602082101461031757601f81116103b3575b50602092601f821160011461035457928192935f92610349575b50508160011b915f199060031b1c1916175f555b80516001600160401b03811161033557600154600181811c9116801561032b575b602082101461031757601f81116102b4575b50602091601f8211600114610254579181925f92610249575b50508160011b915f199060031b1c1916176001555b600160065533156102365760015f5260026020527fe90b7bceb6e7df5418fb78d8ee546e97c83a08bbccc01a0644d599ccd2a7c2e0546001600160a01b0316801515806101ee575b335f52600360205260405f206001815401905560015f52600260205260405f203360018060a01b031982541617905560016040519233907fddf252ad1be2c89b69c2b068fc378daa952ba7f163c4a11628f55a4df523b3ef5f80a46101db5761106290816104248239f35b6339e3563760e11b5f525f60045260245ffd5b7fabd6e7cb50984ff9c2f3e18a2660c3353dadf4e3291deeb275dae2cd1e44fe0580546001600160a01b03191690555f82815260036020526040902080545f19019055610170565b633250574960e11b5f525f60045260245ffd5b015190505f80610113565b601f1982169260015f52805f20915f5b85811061029c57508360019510610284575b505050811b01600155610128565b01515f1960f88460031b161c191690555f8080610276565b91926020600181928685015181550194019201610264565b60015f527fb10e2d527612073b26eecdfd717e6a320cf44b4afac2b0732d9fcbe2b7fa0cf6601f830160051c8101916020841061030d575b601f0160051c01905b81811061030257506100fa565b5f81556001016102f5565b90915081906102ec565b634e487b7160e01b5f52602260045260245ffd5b90607f16906100e8565b634e487b7160e01b5f52604160045260245ffd5b015190505f806100b3565b601f198216935f8052805f20915f5b86811061039b5750836001959610610383575b505050811b015f556100c7565b01515f1960f88460031b161c191690555f8080610376565b91926020600181928685015181550194019201610363565b5f80527f290decd9548b62a8d60345a988386fc84ba6bc95484008f6362f93160ef3e563601f830160051c8101916020841061040b575b601f0160051c01905b8181106104005750610099565b5f81556001016103f3565b90915081906103ea565b90607f1690610087565b5f80fdfe6080806040526004361015610012575f80fd5b5f905f3560e01c90816301ffc9a7146109395750806306fdde0314610881578063081812fc14610837578063095ea7b3146106d957806317d70f7c146106bc57806323b872dd146106a557806340c10f191461050657806342842e0e146104dd5780636352211e146104a157806370a082311461042a57806395d89b41146102eb578063a22cb4651461020c578063b88d4fde14610182578063c87b56dd146101255763e985e9c5146100c3575f80fd5b346101225760406003193601126101225773ffffffffffffffffffffffffffffffffffffffff60406100f3610a4b565b92826100fd610a6e565b9416815260056020522091165f52602052602060ff60405f2054166040519015158152f35b80fd5b3461017e57602060031936011261017e57610141600435610fd3565b505f604051610151602082610ae5565b5261017a604051610163602082610ae5565b5f8152604051918291602083526020830190610a08565b0390f35b5f80fd5b3461017e57608060031936011261017e5761019b610a4b565b6101a3610a6e565b6064359167ffffffffffffffff831161017e573660238401121561017e578260040135916101d083610b53565b926101de6040519485610ae5565b808452366024828701011161017e576020815f92602461020a9801838801378501015260443591610df7565b005b3461017e57604060031936011261017e57610225610a4b565b6024359081151580920361017e5773ffffffffffffffffffffffffffffffffffffffff169081156102bf57335f52600560205260405f20825f5260205260405f207fffffffffffffffffffffffffffffffffffffffffffffffffffffffffffffff0081541660ff83161790556040519081527f17307eab39ab6107e8899845ad3d59bd9653f200f220920489ca2b5937696c3160203392a3005b507f5b08ba18000000000000000000000000000000000000000000000000000000005f5260045260245ffd5b3461017e575f60031936011261017e576040515f6001548060011c90600181168015610420575b6020831081146103f3578285529081156103b15750600114610353575b61017a8361033f81850382610ae5565b604051918291602083526020830190610a08565b91905060015f527fb10e2d527612073b26eecdfd717e6a320cf44b4afac2b0732d9fcbe2b7fa0cf6915f905b8082106103975750909150810160200161033f61032f565b91926001816020925483858801015201910190929161037f565b7fffffffffffffffffffffffffffffffffffffffffffffffffffffffffffffff001660208086019190915291151560051b8401909101915061033f905061032f565b7f4e487b71000000000000000000000000000000000000000000000000000000005f52602260045260245ffd5b91607f1691610312565b3461017e57602060031936011261017e5773ffffffffffffffffffffffffffffffffffffffff610458610a4b565b168015610475575f526003602052602060405f2054604051908152f35b7f89c62b64000000000000000000000000000000000000000000000000000000005f525f60045260245ffd5b3461017e57602060031936011261017e5760206104bf600435610fd3565b73ffffffffffffffffffffffffffffffffffffffff60405191168152f35b3461017e5761020a6104ee36610a91565b90604051926104fe602085610ae5565b5f8452610df7565b3461017e57604060031936011261017e5761051f610a4b565b73ffffffffffffffffffffffffffffffffffffffff16602435811561067957805f52600260205273ffffffffffffffffffffffffffffffffffffffff60405f20541690811515928361060b575b805f52600360205260405f2060018154019055815f52600260205260405f20817fffffffffffffffffffffffff0000000000000000000000000000000000000000825416179055827fddf252ad1be2c89b69c2b068fc378daa952ba7f163c4a11628f55a4df523b3ef5f80a4506105df57005b7f73c6ac6e000000000000000000000000000000000000000000000000000000005f525f60045260245ffd5b610642825f52600460205260405f207fffffffffffffffffffffffff00000000000000000000000000000000000000008154169055565b825f52600360205260405f207fffffffffffffffffffffffffffffffffffffffffffffffffffffffffffffffff815401905561056c565b7f64a0ae92000000000000000000000000000000000000000000000000000000005f525f60045260245ffd5b3461017e5761020a6106b636610a91565b91610b8d565b3461017e575f60031936011261017e576020600654604051908152f35b3461017e57604060031936011261017e576106f2610a4b565b6024356106fe81610fd3565b33151580610817575b806107ca575b61079e57819073ffffffffffffffffffffffffffffffffffffffff80851691167f8c5be1e5ebec7d5bd14f71427d1e84f3dd0314c0f7b2291e5b200ac8c7c3b9255f80a45f52600460205273ffffffffffffffffffffffffffffffffffffffff60405f2091167fffffffffffffffffffffffff00000000000000000000000000000000000000008254161790555f80f35b7fa9fbf51f000000000000000000000000000000000000000000000000000000005f523360045260245ffd5b5073ffffffffffffffffffffffffffffffffffffffff81165f52600560205260405f2073ffffffffffffffffffffffffffffffffffffffff33165f5260205260ff60405f2054161561070d565b503373ffffffffffffffffffffffffffffffffffffffff82161415610707565b3461017e57602060031936011261017e5760043561085481610fd3565b505f526004602052602073ffffffffffffffffffffffffffffffffffffffff60405f205416604051908152f35b3461017e575f60031936011261017e576040515f5f548060011c9060018116801561092f575b6020831081146103f3578285529081156103b157506001146108d35761017a8361033f81850382610ae5565b5f8080527f290decd9548b62a8d60345a988386fc84ba6bc95484008f6362f93160ef3e563939250905b8082106109155750909150810160200161033f61032f565b9192600181602092548385880101520191019092916108fd565b91607f16916108a7565b3461017e57602060031936011261017e57600435907fffffffff00000000000000000000000000000000000000000000000000000000821680920361017e57817f80ac58cd00000000000000000000000000000000000000000000000000000000602093149081156109de575b81156109b4575b5015158152f35b7f01ffc9a700000000000000000000000000000000000000000000000000000000915014836109ad565b7f5b5e139f00000000000000000000000000000000000000000000000000000000811491506109a6565b907fffffffffffffffffffffffffffffffffffffffffffffffffffffffffffffffe0601f602080948051918291828752018686015e5f8582860101520116010190565b6004359073ffffffffffffffffffffffffffffffffffffffff8216820361017e57565b6024359073ffffffffffffffffffffffffffffffffffffffff8216820361017e57565b600319606091011261017e5760043573ffffffffffffffffffffffffffffffffffffffff8116810361017e579060243573ffffffffffffffffffffffffffffffffffffffff8116810361017e579060443590565b90601f7fffffffffffffffffffffffffffffffffffffffffffffffffffffffffffffffe0910116810190811067ffffffffffffffff821117610b2657604052565b7f4e487b71000000000000000000000000000000000000000000000000000000005f52604160045260245ffd5b67ffffffffffffffff8111610b2657601f017fffffffffffffffffffffffffffffffffffffffffffffffffffffffffffffffe01660200190565b919073ffffffffffffffffffffffffffffffffffffffff16801561067957815f52600260205273ffffffffffffffffffffffffffffffffffffffff60405f20541692823315159283610d0f575b73ffffffffffffffffffffffffffffffffffffffff935085610ca1575b805f52600360205260405f2060018154019055815f52600260205260405f20817fffffffffffffffffffffffff0000000000000000000000000000000000000000825416179055857fddf252ad1be2c89b69c2b068fc378daa952ba7f163c4a11628f55a4df523b3ef5f80a416808303610c7057505050565b7f64283d7b000000000000000000000000000000000000000000000000000000005f5260045260245260445260645ffd5b610cd8825f52600460205260405f207fffffffffffffffffffffffff00000000000000000000000000000000000000008154169055565b855f52600360205260405f207fffffffffffffffffffffffffffffffffffffffffffffffffffffffffffffffff8154019055610bf7565b9192905080610d86575b15610d2657828291610bda565b8284610d57577f7e273289000000000000000000000000000000000000000000000000000000005f5260045260245ffd5b7f177e802f000000000000000000000000000000000000000000000000000000005f523360045260245260445ffd5b503384148015610dc1575b80610d195750825f5260046020523373ffffffffffffffffffffffffffffffffffffffff60405f20541614610d19565b50835f52600560205260405f2073ffffffffffffffffffffffffffffffffffffffff33165f5260205260ff60405f205416610d91565b90610e03838284610b8d565b803b610e10575b50505050565b602091610e7c73ffffffffffffffffffffffffffffffffffffffff8093169560405195869485947f150b7a020000000000000000000000000000000000000000000000000000000086523360048701521660248501526044840152608060648401526084830190610a08565b03815f865af15f9181610f76575b50610ef857503d15610ef1573d610ea081610b53565b90610eae6040519283610ae5565b81523d5f602083013e5b80519081610eec57827f64a0ae92000000000000000000000000000000000000000000000000000000005f5260045260245ffd5b602001fd5b6060610eb8565b7fffffffff000000000000000000000000000000000000000000000000000000007f150b7a0200000000000000000000000000000000000000000000000000000000911603610f4b57505f808080610e0a565b7f64a0ae92000000000000000000000000000000000000000000000000000000005f5260045260245ffd5b9091506020813d602011610fcb575b81610f9260209383610ae5565b8101031261017e57517fffffffff000000000000000000000000000000000000000000000000000000008116810361017e57905f610e8a565b3d9150610f85565b805f52600260205273ffffffffffffffffffffffffffffffffffffffff60405f205416908115611001575090565b7f7e273289000000000000000000000000000000000000000000000000000000005f5260045260245ffdfea26469706673582212209671adfc23aef2eccd437b615d861fac3f42bc178108c0c4601ea8b7a648626c64736f6c634300081e0033","linkReferences":{}},"methodIdentifiers":{"approve(address,uint256)":"095ea7b3","balanceOf(address)":"70a08231","getApproved(uint256)":"081812fc","isApprovedForAll(address,address)":"e985e9c5","mint(address,uint256)":"40c10f19","name()":"06fdde03","ownerOf(uint256)":"6352211e","safeTransferFrom(address,address,uint256)":"42842e0e","safeTransferFrom(address,address,uint256,bytes)":"b88d4fde","setApprovalForAll(address,bool)":"a22cb465","supportsInterface(bytes4)":"01ffc9a7","symbol()":"95d89b41","tokenId()":"17d70f7c","tokenURI(uint256)":"c87b56dd","transferFrom(address,address,uint256)":"23b872dd"},"id":6}