{"abi":[{"type":"constructor","inputs":[],"stateMutability":"nonpayable"},{"type":"function","name":"approve","inputs":[{"name":"to","type":"address","internalType":"address"},{"name":"tokenId","type":"uint256","internalType":"uint256"}],"outputs":[],"stateMutability":"nonpayable"},{"type":"function","name":"balanceOf","inputs":[{"name":"owner","type":"address","internalType":"address"}],"outputs":[{"name":"","type":"uint256","internalType":"uint256"}],"stateMutability":"view"},{"type":"function","name":"getApproved","inputs":[{"name":"tokenId","type":"uint256","internalType":"uint256"}],"outputs":[{"name":"","type":"address","internalType":"address"}],"stateMutability":"view"},{"type":"function","name":"initialize","inputs":[{"name":"name_","type":"string","internalType":"string"},{"name":"symbol_","type":"string","internalType":"string"}],"outputs":[],"stateMutability":"nonpayable"},{"type":"function","name":"isApprovedForAll","inputs":[{"name":"owner","type":"address","internalType":"address"},{"name":"operator","type":"address","internalType":"address"}],"outputs":[{"name":"","type":"bool","internalType":"bool"}],"stateMutability":"view"},{"type":"function","name":"mint","inputs":[{"name":"to","type":"address","internalType":"address"},{"name":"id","type":"uint256","internalType":"uint256"}],"outputs":[],"stateMutability":"nonpayable"},{"type":"function","name":"name","inputs":[],"outputs":[{"name":"","type":"string","internalType":"string"}],"stateMutability":"view"},{"type":"function","name":"ownerOf","inputs":[{"name":"tokenId","type":"uint256","internalType":"uint256"}],"outputs":[{"name":"","type":"address","internalType":"address"}],"stateMutability":"view"},{"type":"function","name":"safeTransferFrom","inputs":[{"name":"from","type":"address","internalType":"address"},{"name":"to","type":"address","internalType":"address"},{"name":"tokenId","type":"uint256","internalType":"uint256"}],"outputs":[],"stateMutability":"nonpayable"},{"type":"function","name":"safeTransferFrom","inputs":[{"name":"from","type":"address","internalType":"address"},{"name":"to","type":"address","internalType":"address"},{"name":"tokenId","type":"uint256","internalType":"uint256"},{"name":"data","type":"bytes","internalType":"bytes"}],"outputs":[],"stateMutability":"nonpayable"},{"type":"function","name":"setApprovalForAll","inputs":[{"name":"operator","type":"address","internalType":"address"},{"name":"approved","type":"bool","internalType":"bool"}],"outputs":[],"stateMutability":"nonpayable"},{"type":"function","name":"supportsInterface","inputs":[{"name":"interfaceId","type":"bytes4","internalType":"bytes4"}],"outputs":[{"name":"","type":"bool","internalType":"bool"}],"stateMutability":"view"},{"type":"function","name":"symbol","inputs":[],"outputs":[{"name":"","type":"string","internalType":"string"}],"stateMutability":"view"},{"type":"function","name":"tokenId","inputs":[],"outputs":[{"name":"","type":"uint256","internalType":"uint256"}],"stateMutability":"view"},{"type":"function","name":"tokenURI","inputs":[{"name":"tokenId","type":"uint256","internalType":"uint256"}],"outputs":[{"name":"","type":"string","internalType":"string"}],"stateMutability":"view"},{"type":"function","name":"transferFrom","inputs":[{"name":"from","type":"address","internalType":"address"},{"name":"to","type":"address","internalType":"address"},{"name":"tokenId","type":"uint256","internalType":"uint256"}],"outputs":[],"stateMutability":"nonpayable"},{"type":"event","name":"Approval","inputs":[{"name":"owner","type":"address","indexed":true,"internalType":"address"},{"name":"approved","type":"address","indexed":true,"internalType":"address"},{"name":"tokenId","type":"uint256","indexed":true,"internalType":"uint256"}],"anonymous":false},{"type":"event","name":"ApprovalForAll","inputs":[{"name":"owner","type":"address","indexed":true,"internalType":"address"},{"name":"operator","type":"address","indexed":true,"internalType":"address"},{"name":"approved","type":"bool","indexed":false,"internalType":"bool"}],"anonymous":false},{"type":"event","name":"Transfer","inputs":[{"name":"from","type":"address","indexed":true,"internalType":"address"},{"name":"to","type":"address","indexed":true,"internalType":"address"},{"name":"tokenId","type":"uint256","indexed":true,"internalType":"uint256"}],"anonymous":false},{"type":"error","name":"ERC721IncorrectOwner","inputs":[{"name":"sender","type":"address","internalType":"address"},{"name":"tokenId","type":"uint256","internalType":"uint256"},{"name":"owner","type":"address","internalType":"address"}]},{"type":"error","name":"ERC721InsufficientApproval","inputs":[{"name":"operator","type":"address","internalType":"address"},{"name":"tokenId","type":"uint256","internalType":"uint256"}]},{"type":"error","name":"ERC721InvalidApprover","inputs":[{"name":"approver","type":"address","internalType":"address"}]},{"type":"error","name":"ERC721InvalidOperator","inputs":[{"name":"operator","type":"address","internalType":"address"}]},{"type":"error","name":"ERC721InvalidOwner","inputs":[{"name":"owner","type":"address","internalType":"address"}]},{"type":"error","name":"ERC721InvalidReceiver","inputs":[{"name":"receiver","type":"address","internalType":"address"}]},{"type":"error","name":"ERC721InvalidSender","inputs":[{"name":"sender","type":"address","internalType":"address"}]},{"type":"error","name":"ERC721NonexistentToken","inputs":[{"name":"tokenId","type":"uint256","internalType":"uint256"}]}],"bytecode":{"object":"0x6080604052346102bf576100116102c3565b6100196102c3565b81516001600160401b0381116101d5575f54600181811c911680156102b5575b60208210146101b757601f8111610253575b50602092601f82116001146101f457928192935f926101e9575b50508160011b915f199060031b1c1916175f555b80516001600160401b0381116101d557600154600181811c911680156101cb575b60208210146101b757601f8111610154575b50602091601f82116001146100f4579181925f926100e9575b50508160011b915f199060031b1c1916176001555b60405161147490816102e68239f35b015190505f806100c5565b601f1982169260015f52805f20915f5b85811061013c57508360019510610124575b505050811b016001556100da565b01515f1960f88460031b161c191690555f8080610116565b91926020600181928685015181550194019201610104565b60015f527fb10e2d527612073b26eecdfd717e6a320cf44b4afac2b0732d9fcbe2b7fa0cf6601f830160051c810191602084106101ad575b601f0160051c01905b8181106101a257506100ac565b5f8155600101610195565b909150819061018c565b634e487b7160e01b5f52602260045260245ffd5b90607f169061009a565b634e487b7160e01b5f52604160045260245ffd5b015190505f80610065565b601f198216935f8052805f20915f5b86811061023b5750836001959610610223575b505050811b015f55610079565b01515f1960f88460031b161c191690555f8080610216565b91926020600181928685015181550194019201610203565b5f80527f290decd9548b62a8d60345a988386fc84ba6bc95484008f6362f93160ef3e563601f830160051c810191602084106102ab575b601f0160051c01905b8181106102a0575061004b565b5f8155600101610293565b909150819061028a565b90607f1690610039565b5f80fd5b60405190602082016001600160401b038111838210176101d5576040525f825256fe6080806040526004361015610012575f80fd5b5f905f3560e01c90816301ffc9a714610cf25750806306fdde0314610c4d578063081812fc14610c03578063095ea7b314610aa557806317d70f7c14610a8857806323b872dd14610a7157806340c10f19146108f157806342842e0e146108c85780634cd88b761461047d5780636352211e1461044157806370a08231146103ca57806395d89b41146102ce578063a22cb465146101ef578063b88d4fde1461018d578063c87b56dd146101305763e985e9c5146100ce575f80fd5b3461012d57604060031936011261012d5773ffffffffffffffffffffffffffffffffffffffff60406100fe610e04565b9282610108610e27565b9416815260056020522091165f52602052602060ff60405f2054166040519015158152f35b80fd5b346101895760206003193601126101895761014c6004356113e5565b505f60405161015c602082610e9e565b5261018560405161016e602082610e9e565b5f8152604051918291602083526020830190610dc1565b0390f35b5f80fd5b34610189576080600319360112610189576101a6610e04565b6101ae610e27565b6064359167ffffffffffffffff83116101895736602384011215610189576101e36101ed933690602481600401359101610f19565b9160443591611209565b005b3461018957604060031936011261018957610208610e04565b602435908115158092036101895773ffffffffffffffffffffffffffffffffffffffff169081156102a257335f52600560205260405f20825f5260205260405f207fffffffffffffffffffffffffffffffffffffffffffffffffffffffffffffff0081541660ff83161790556040519081527f17307eab39ab6107e8899845ad3d59bd9653f200f220920489ca2b5937696c3160203392a3005b507f5b08ba18000000000000000000000000000000000000000000000000000000005f5260045260245ffd5b34610189575f600319360112610189576040515f6009546102ee81610f6d565b8084529060018116908115610388575060011461032a575b6101858361031681850382610e9e565b604051918291602083526020830190610dc1565b91905060095f527f6e1540171b6c0c960b71a7020d9f60077f6af931a8bbf590da0223dacf75c7af915f905b80821061036e57509091508101602001610316610306565b919260018160209254838588010152019101909291610356565b7fffffffffffffffffffffffffffffffffffffffffffffffffffffffffffffff001660208086019190915291151560051b840190910191506103169050610306565b346101895760206003193601126101895773ffffffffffffffffffffffffffffffffffffffff6103f8610e04565b168015610415575f526003602052602060405f2054604051908152f35b7f89c62b64000000000000000000000000000000000000000000000000000000005f525f60045260245ffd5b3461018957602060031936011261018957602061045f6004356113e5565b73ffffffffffffffffffffffffffffffffffffffff60405191168152f35b346101895760406003193601126101895760043567ffffffffffffffff8111610189576104ae903690600401610f4f565b60243567ffffffffffffffff8111610189576104ce903690600401610f4f565b60075460ff811661086a577fffffffffffffffffffffffffffffffffffffffffffffffffffffffffffffff0060019116176007556001600655815167ffffffffffffffff81116106f457610523600854610f6d565b601f81116107c9575b50602092601f821160011461072c57928192935f92610721575b50505f198260011b9260031b1c1916176008555b805167ffffffffffffffff81116106f457610576600954610f6d565b601f8111610653575b50602091601f82116001146105ba579181925f926105af575b50505f198260011b9260031b1c1916176009555f80f35b015190508280610598565b7fffffffffffffffffffffffffffffffffffffffffffffffffffffffffffffffe082169260095f527f6e1540171b6c0c960b71a7020d9f60077f6af931a8bbf590da0223dacf75c7af915f5b85811061063b57508360019510610623575b505050811b01600955005b01515f1960f88460031b161c19169055828080610618565b91926020600181928685015181550194019201610606565b60095f52601f820160051c7f6e1540171b6c0c960b71a7020d9f60077f6af931a8bbf590da0223dacf75c7af0190602083106106cc575b601f0160051c7f6e1540171b6c0c960b71a7020d9f60077f6af931a8bbf590da0223dacf75c7af01905b8181106106c1575061057f565b5f81556001016106b4565b7f6e1540171b6c0c960b71a7020d9f60077f6af931a8bbf590da0223dacf75c7af915061068a565b7f4e487b71000000000000000000000000000000000000000000000000000000005f52604160045260245ffd5b015190508380610546565b7fffffffffffffffffffffffffffffffffffffffffffffffffffffffffffffffe082169360085f527ff3f7a9fe364faab93b216da50a3214154f22a0a2b415b23a84c8169e8b636ee3915f5b8681106107b15750836001959610610799575b505050811b0160085561055a565b01515f1960f88460031b161c1916905583808061078b565b91926020600181928685015181550194019201610778565b60085f52601f820160051c7ff3f7a9fe364faab93b216da50a3214154f22a0a2b415b23a84c8169e8b636ee3019060208310610842575b601f0160051c7ff3f7a9fe364faab93b216da50a3214154f22a0a2b415b23a84c8169e8b636ee301905b818110610837575061052c565b5f815560010161082a565b7ff3f7a9fe364faab93b216da50a3214154f22a0a2b415b23a84c8169e8b636ee39150610800565b60646040517f08c379a000000000000000000000000000000000000000000000000000000000815260206004820152601360248201527f416c726561647920696e697469616c697a6564000000000000000000000000006044820152fd5b34610189576101ed6108d936610e4a565b90604051926108e9602085610e9e565b5f8452611209565b346101895760406003193601126101895761090a610e04565b73ffffffffffffffffffffffffffffffffffffffff166024358115610a4557805f52600260205273ffffffffffffffffffffffffffffffffffffffff60405f2054169081151592836109f6575b805f52600360205260405f2060018154019055815f52600260205260405f20817fffffffffffffffffffffffff0000000000000000000000000000000000000000825416179055827fddf252ad1be2c89b69c2b068fc378daa952ba7f163c4a11628f55a4df523b3ef5f80a4506109ca57005b7f73c6ac6e000000000000000000000000000000000000000000000000000000005f525f60045260245ffd5b610a2d825f52600460205260405f207fffffffffffffffffffffffff00000000000000000000000000000000000000008154169055565b825f52600360205260405f205f198154019055610957565b7f64a0ae92000000000000000000000000000000000000000000000000000000005f525f60045260245ffd5b34610189576101ed610a8236610e4a565b91610fbe565b34610189575f600319360112610189576020600654604051908152f35b3461018957604060031936011261018957610abe610e04565b602435610aca816113e5565b33151580610be3575b80610b96575b610b6a57819073ffffffffffffffffffffffffffffffffffffffff80851691167f8c5be1e5ebec7d5bd14f71427d1e84f3dd0314c0f7b2291e5b200ac8c7c3b9255f80a45f52600460205273ffffffffffffffffffffffffffffffffffffffff60405f2091167fffffffffffffffffffffffff00000000000000000000000000000000000000008254161790555f80f35b7fa9fbf51f000000000000000000000000000000000000000000000000000000005f523360045260245ffd5b5073ffffffffffffffffffffffffffffffffffffffff81165f52600560205260405f2073ffffffffffffffffffffffffffffffffffffffff33165f5260205260ff60405f20541615610ad9565b503373ffffffffffffffffffffffffffffffffffffffff82161415610ad3565b3461018957602060031936011261018957600435610c20816113e5565b505f526004602052602073ffffffffffffffffffffffffffffffffffffffff60405f205416604051908152f35b34610189575f600319360112610189576040515f600854610c6d81610f6d565b80845290600181169081156103885750600114610c94576101858361031681850382610e9e565b91905060085f527ff3f7a9fe364faab93b216da50a3214154f22a0a2b415b23a84c8169e8b636ee3915f905b808210610cd857509091508101602001610316610306565b919260018160209254838588010152019101909291610cc0565b3461018957602060031936011261018957600435907fffffffff00000000000000000000000000000000000000000000000000000000821680920361018957817f80ac58cd0000000000000000000000000000000000000000000000000000000060209314908115610d97575b8115610d6d575b5015158152f35b7f01ffc9a70000000000000000000000000000000000000000000000000000000091501483610d66565b7f5b5e139f0000000000000000000000000000000000000000000000000000000081149150610d5f565b907fffffffffffffffffffffffffffffffffffffffffffffffffffffffffffffffe0601f602080948051918291828752018686015e5f8582860101520116010190565b6004359073ffffffffffffffffffffffffffffffffffffffff8216820361018957565b6024359073ffffffffffffffffffffffffffffffffffffffff8216820361018957565b60031960609101126101895760043573ffffffffffffffffffffffffffffffffffffffff81168103610189579060243573ffffffffffffffffffffffffffffffffffffffff81168103610189579060443590565b90601f7fffffffffffffffffffffffffffffffffffffffffffffffffffffffffffffffe0910116810190811067ffffffffffffffff8211176106f457604052565b67ffffffffffffffff81116106f457601f017fffffffffffffffffffffffffffffffffffffffffffffffffffffffffffffffe01660200190565b929192610f2582610edf565b91610f336040519384610e9e565b829481845281830111610189578281602093845f960137010152565b9080601f8301121561018957816020610f6a93359101610f19565b90565b90600182811c92168015610fb4575b6020831014610f8757565b7f4e487b71000000000000000000000000000000000000000000000000000000005f52602260045260245ffd5b91607f1691610f7c565b919073ffffffffffffffffffffffffffffffffffffffff168015610a4557815f52600260205273ffffffffffffffffffffffffffffffffffffffff60405f20541692823315159283611121575b73ffffffffffffffffffffffffffffffffffffffff9350856110d2575b805f52600360205260405f2060018154019055815f52600260205260405f20817fffffffffffffffffffffffff0000000000000000000000000000000000000000825416179055857fddf252ad1be2c89b69c2b068fc378daa952ba7f163c4a11628f55a4df523b3ef5f80a4168083036110a157505050565b7f64283d7b000000000000000000000000000000000000000000000000000000005f5260045260245260445260645ffd5b611109825f52600460205260405f207fffffffffffffffffffffffff00000000000000000000000000000000000000008154169055565b855f52600360205260405f205f198154019055611028565b9192905080611198575b156111385782829161100b565b8284611169577f7e273289000000000000000000000000000000000000000000000000000000005f5260045260245ffd5b7f177e802f000000000000000000000000000000000000000000000000000000005f523360045260245260445ffd5b5033841480156111d3575b8061112b5750825f5260046020523373ffffffffffffffffffffffffffffffffffffffff60405f2054161461112b565b50835f52600560205260405f2073ffffffffffffffffffffffffffffffffffffffff33165f5260205260ff60405f2054166111a3565b90611215838284610fbe565b803b611222575b50505050565b60209161128e73ffffffffffffffffffffffffffffffffffffffff8093169560405195869485947f150b7a020000000000000000000000000000000000000000000000000000000086523360048701521660248501526044840152608060648401526084830190610dc1565b03815f865af15f9181611388575b5061130a57503d15611303573d6112b281610edf565b906112c06040519283610e9e565b81523d5f602083013e5b805190816112fe57827f64a0ae92000000000000000000000000000000000000000000000000000000005f5260045260245ffd5b602001fd5b60606112ca565b7fffffffff000000000000000000000000000000000000000000000000000000007f150b7a020000000000000000000000000000000000000000000000000000000091160361135d57505f80808061121c565b7f64a0ae92000000000000000000000000000000000000000000000000000000005f5260045260245ffd5b9091506020813d6020116113dd575b816113a460209383610e9e565b8101031261018957517fffffffff000000000000000000000000000000000000000000000000000000008116810361018957905f61129c565b3d9150611397565b805f52600260205273ffffffffffffffffffffffffffffffffffffffff60405f205416908115611413575090565b7f7e273289000000000000000000000000000000000000000000000000000000005f5260045260245ffdfea264697066735822122054b3a784fa42a93db8cfc55a63d841018d35aa8af5f27573a77568a39083d50564736f6c634300081e0033","linkReferences":{}},"methodIdentifiers":{"approve(address,uint256)":"095ea7b3","balanceOf(address)":"70a08231","getApproved(uint256)":"081812fc","initialize(string,string)":"4cd88b76","isApprovedForAll(address,address)":"e985e9c5","mint(address,uint256)":"40c10f19","name()":"06fdde03","ownerOf(uint256)":"6352211e","safeTransferFrom(address,address,uint256)":"42842e0e","safeTransferFrom(address,address,uint256,bytes)":"b88d4fde","setApprovalForAll(address,bool)":"a22cb465","supportsInterface(bytes4)":"01ffc9a7","symbol()":"95d89b41","tokenId()":"17d70f7c","tokenURI(uint256)":"c87b56dd","transferFrom(address,address,uint256)":"23b872dd"},"id":12}