{"abi":[{"type":"constructor","inputs":[],"stateMutability":"nonpayable"},{"type":"function","name":"approve","inputs":[{"name":"to","type":"address","internalType":"address"},{"name":"tokenId","type":"uint256","internalType":"uint256"}],"outputs":[],"stateMutability":"nonpayable"},{"type":"function","name":"balanceOf","inputs":[{"name":"owner","type":"address","internalType":"address"}],"outputs":[{"name":"","type":"uint256","internalType":"uint256"}],"stateMutability":"view"},{"type":"function","name":"eip712Domain","inputs":[],"outputs":[{"name":"fields","type":"bytes1","internalType":"bytes1"},{"name":"name","type":"string","internalType":"string"},{"name":"version","type":"string","internalType":"string"},{"name":"chainId","type":"uint256","internalType":"uint256"},{"name":"verifyingContract","type":"address","internalType":"address"},{"name":"salt","type":"bytes32","internalType":"bytes32"},{"name":"extensions","type":"uint256[]","internalType":"uint256[]"}],"stateMutability":"view"},{"type":"function","name":"getActiveLockboxPublicKeyForToken","inputs":[{"name":"tokenId","type":"uint256","internalType":"uint256"}],"outputs":[{"name":"","type":"address","internalType":"address"}],"stateMutability":"view"},{"type":"function","name":"getApproved","inputs":[{"name":"tokenId","type":"uint256","internalType":"uint256"}],"outputs":[{"name":"","type":"address","internalType":"address"}],"stateMutability":"view"},{"type":"function","name":"getNonce","inputs":[{"name":"tokenId","type":"uint256","internalType":"uint256"}],"outputs":[{"name":"","type":"uint256","internalType":"uint256"}],"stateMutability":"view"},{"type":"function","name":"isApprovedForAll","inputs":[{"name":"owner","type":"address","internalType":"address"},{"name":"operator","type":"address","internalType":"address"}],"outputs":[{"name":"","type":"bool","internalType":"bool"}],"stateMutability":"view"},{"type":"function","name":"mint","inputs":[{"name":"to","type":"address","internalType":"address"},{"name":"tokenId","type":"uint256","internalType":"uint256"}],"outputs":[],"stateMutability":"nonpayable"},{"type":"function","name":"name","inputs":[],"outputs":[{"name":"","type":"string","internalType":"string"}],"stateMutability":"view"},{"type":"function","name":"ownerOf","inputs":[{"name":"tokenId","type":"uint256","internalType":"uint256"}],"outputs":[{"name":"","type":"address","internalType":"address"}],"stateMutability":"view"},{"type":"function","name":"safeTransferFrom","inputs":[{"name":"from","type":"address","internalType":"address"},{"name":"to","type":"address","internalType":"address"},{"name":"tokenId","type":"uint256","internalType":"uint256"}],"outputs":[],"stateMutability":"nonpayable"},{"type":"function","name":"safeTransferFrom","inputs":[{"name":"from","type":"address","internalType":"address"},{"name":"to","type":"address","internalType":"address"},{"name":"tokenId","type":"uint256","internalType":"uint256"},{"name":"data","type":"bytes","internalType":"bytes"}],"outputs":[],"stateMutability":"nonpayable"},{"type":"function","name":"setApprovalForAll","inputs":[{"name":"operator","type":"address","internalType":"address"},{"name":"approved","type":"bool","internalType":"bool"}],"outputs":[],"stateMutability":"nonpayable"},{"type":"function","name":"supportsInterface","inputs":[{"name":"interfaceId","type":"bytes4","internalType":"bytes4"}],"outputs":[{"name":"","type":"bool","internalType":"bool"}],"stateMutability":"view"},{"type":"function","name":"symbol","inputs":[],"outputs":[{"name":"","type":"string","internalType":"string"}],"stateMutability":"view"},{"type":"function","name":"testInitialize","inputs":[{"name":"tokenId","type":"uint256","internalType":"uint256"},{"name":"lockboxPublicKey","type":"address","internalType":"address"}],"outputs":[],"stateMutability":"nonpayable"},{"type":"function","name":"tokenURI","inputs":[{"name":"tokenId","type":"uint256","internalType":"uint256"}],"outputs":[{"name":"","type":"string","internalType":"string"}],"stateMutability":"view"},{"type":"function","name":"transferFrom","inputs":[{"name":"from","type":"address","internalType":"address"},{"name":"to","type":"address","internalType":"address"},{"name":"tokenId","type":"uint256","internalType":"uint256"}],"outputs":[],"stateMutability":"nonpayable"},{"type":"event","name":"Approval","inputs":[{"name":"owner","type":"address","indexed":true,"internalType":"address"},{"name":"approved","type":"address","indexed":true,"internalType":"address"},{"name":"tokenId","type":"uint256","indexed":true,"internalType":"uint256"}],"anonymous":false},{"type":"event","name":"ApprovalForAll","inputs":[{"name":"owner","type":"address","indexed":true,"internalType":"address"},{"name":"operator","type":"address","indexed":true,"internalType":"address"},{"name":"approved","type":"bool","indexed":false,"internalType":"bool"}],"anonymous":false},{"type":"event","name":"EIP712DomainChanged","inputs":[],"anonymous":false},{"type":"event","name":"Transfer","inputs":[{"name":"from","type":"address","indexed":true,"internalType":"address"},{"name":"to","type":"address","indexed":true,"internalType":"address"},{"name":"tokenId","type":"uint256","indexed":true,"internalType":"uint256"}],"anonymous":false},{"type":"error","name":"AlreadyInitialized","inputs":[]},{"type":"error","name":"ERC721IncorrectOwner","inputs":[{"name":"sender","type":"address","internalType":"address"},{"name":"tokenId","type":"uint256","internalType":"uint256"},{"name":"owner","type":"address","internalType":"address"}]},{"type":"error","name":"ERC721InsufficientApproval","inputs":[{"name":"operator","type":"address","internalType":"address"},{"name":"tokenId","type":"uint256","internalType":"uint256"}]},{"type":"error","name":"ERC721InvalidApprover","inputs":[{"name":"approver","type":"address","internalType":"address"}]},{"type":"error","name":"ERC721InvalidOperator","inputs":[{"name":"operator","type":"address","internalType":"address"}]},{"type":"error","name":"ERC721InvalidOwner","inputs":[{"name":"owner","type":"address","internalType":"address"}]},{"type":"error","name":"ERC721InvalidReceiver","inputs":[{"name":"receiver","type":"address","internalType":"address"}]},{"type":"error","name":"ERC721InvalidSender","inputs":[{"name":"sender","type":"address","internalType":"address"}]},{"type":"error","name":"ERC721NonexistentToken","inputs":[{"name":"tokenId","type":"uint256","internalType":"uint256"}]},{"type":"error","name":"InvalidMessageHash","inputs":[]},{"type":"error","name":"InvalidShortString","inputs":[]},{"type":"error","name":"InvalidSignature","inputs":[]},{"type":"error","name":"NotOwner","inputs":[]},{"type":"error","name":"StringTooLong","inputs":[{"name":"str","type":"string","internalType":"string"}]},{"type":"error","name":"ZeroKey","inputs":[]}],"bytecode":{"object":"0x610180604052346104075760405161001860408261040b565b600481526315195cdd60e21b602082015260405161003760408261040b565b6004815263151154d560e21b602082015260405161005660408261040b565b60058152602081019064098dec6d6f60db1b82526040519161007960408461040b565b600183526020830191603360f81b83526100928161042e565b6101205261009f846105b0565b61014052519020918260e05251902080610100524660a0526040519060208201927f8b73c3c69bb8fe3d512ecc4cf759cc79239f7b179b0ffacaa9a75d522b39400f8452604083015260608201524660808201523060a082015260a0815261010860c08261040b565b5190206080523060c08190526101605281516001600160401b03811161031a57600354600181811c911680156103fd575b60208210146102fc57601f811161039a575b50602092601f821160011461033957928192935f9261032e575b50508160011b915f199060031b1c1916176003555b80516001600160401b03811161031a57600454600181811c91168015610310575b60208210146102fc57601f8111610299575b50602091601f8211600114610239579181925f9261022e575b50508160011b915f199060031b1c1916176004555b60405161160490816106e9823960805181505060a05181505060c05181505060e05181505061010051815050610120518161064e0152610140518161067701526101605181818161037f0152610a220152f35b015190505f806101c6565b601f1982169260045f52805f20915f5b85811061028157508360019510610269575b505050811b016004556101db565b01515f1960f88460031b161c191690555f808061025b565b91926020600181928685015181550194019201610249565b60045f527f8a35acfbc15ff81a39ae7d344fd709f28e8600b4aa8c65c6b64bfe7fe36bd19b601f830160051c810191602084106102f2575b601f0160051c01905b8181106102e757506101ad565b5f81556001016102da565b90915081906102d1565b634e487b7160e01b5f52602260045260245ffd5b90607f169061019b565b634e487b7160e01b5f52604160045260245ffd5b015190505f80610165565b601f1982169360035f52805f20915f5b868110610382575083600195961061036a575b505050811b0160035561017a565b01515f1960f88460031b161c191690555f808061035c565b91926020600181928685015181550194019201610349565b60035f527fc2575a0e9e593c00f959f8c92f12db2869c3395a3b0502d05e2516446f71f85b601f830160051c810191602084106103f3575b601f0160051c01905b8181106103e8575061014b565b5f81556001016103db565b90915081906103d2565b90607f1690610139565b5f80fd5b601f909101601f19168101906001600160401b0382119082101761031a57604052565b908151602081105f146104a8575090601f815111610468576020815191015160208210610459571790565b5f198260200360031b1b161790565b604460209160405192839163305a27a960e01b83528160048401528051918291826024860152018484015e5f828201840152601f01601f19168101030190fd5b6001600160401b03811161031a575f54600181811c911680156105a6575b60208210146102fc57601f8111610574575b50602092601f821160011461051557928192935f9261050a575b50508160011b915f199060031b1c1916175f5560ff90565b015190505f806104f2565b601f198216935f8052805f20915f5b86811061055c5750836001959610610544575b505050811b015f5560ff90565b01515f1960f88460031b161c191690555f8080610537565b91926020600181928685015181550194019201610524565b5f8052601f60205f20910160051c810190601f830160051c015b81811061059b57506104d8565b5f815560010161058e565b90607f16906104c6565b908151602081105f146105db575090601f815111610468576020815191015160208210610459571790565b6001600160401b03811161031a57600154600181811c911680156106de575b60208210146102fc57601f81116106ab575b50602092601f821160011461064a57928192935f9261063f575b50508160011b915f199060031b1c19161760015560ff90565b015190505f80610626565b601f1982169360015f52805f20915f5b868110610693575083600195961061067b575b505050811b0160015560ff90565b01515f1960f88460031b161c191690555f808061066d565b9192602060018192868501518155019401920161065a565b60015f52601f60205f20910160051c810190601f830160051c015b8181106106d3575061060c565b5f81556001016106c6565b90607f16906105fa56fe6080806040526004361015610012575f80fd5b5f905f3560e01c90816301ffc9a714610d0c5750806306fdde0314610c67578063081812fc14610c1d578063095ea7b314610abf57806323b872dd14610aa85780633d46b819146109c557806340c10f191461082657806342842e0e146107fd5780636352211e146107c157806370a082311461074a57806384b0196e1461063657806395d89b411461053a578063a22cb4651461045b578063aea5cf3014610322578063b88d4fde14610298578063c87b56dd1461023b578063e985e9c5146101db5763ee14979c146100e4575f80fd5b346101d85760406003193601126101d857600435610100610e41565b818352600260205273ffffffffffffffffffffffffffffffffffffffff6040842054166101b057818352600260205273ffffffffffffffffffffffffffffffffffffffff6040842091167fffffffffffffffffffffffff000000000000000000000000000000000000000082541617905581526002602052604081207401000000000000000000000000000000000000000073ffffffffffffffffffffffffffffffffffffffff82541617905580f35b6004837f0dc149f0000000000000000000000000000000000000000000000000000000008152fd5b80fd5b50346101d85760406003193601126101d85773ffffffffffffffffffffffffffffffffffffffff604061020c610e1e565b9282610216610e41565b9416815260086020522091165f52602052602060ff60405f2054166040519015158152f35b34610294576020600319360112610294576102576004356114c3565b505f604051610267602082610eb8565b52610290604051610279602082610eb8565b5f8152604051918291602083526020830190610ddb565b0390f35b5f80fd5b34610294576080600319360112610294576102b1610e1e565b6102b9610e41565b6064359167ffffffffffffffff83116102945736602384011215610294578260040135916102e683610f26565b926102f46040519485610eb8565b8084523660248287010111610294576020815f92602461032098018388013785010152604435916112e7565b005b34610294576020600319360112610294576004356040517f6352211e00000000000000000000000000000000000000000000000000000000815281600482015260208160248173ffffffffffffffffffffffffffffffffffffffff7f0000000000000000000000000000000000000000000000000000000000000000165afa908115610450575f91610421575b5073ffffffffffffffffffffffffffffffffffffffff339116036103f9575f526002602052602073ffffffffffffffffffffffffffffffffffffffff60405f205416604051908152f35b7f30cd7471000000000000000000000000000000000000000000000000000000005f5260045ffd5b610443915060203d602011610449575b61043b8183610eb8565b8101906112bb565b826103af565b503d610431565b6040513d5f823e3d90fd5b3461029457604060031936011261029457610474610e1e565b602435908115158092036102945773ffffffffffffffffffffffffffffffffffffffff1690811561050e57335f52600860205260405f20825f5260205260405f207fffffffffffffffffffffffffffffffffffffffffffffffffffffffffffffff0081541660ff83161790556040519081527f17307eab39ab6107e8899845ad3d59bd9653f200f220920489ca2b5937696c3160203392a3005b507f5b08ba18000000000000000000000000000000000000000000000000000000005f5260045260245ffd5b34610294575f600319360112610294576040515f60045461055a81610f60565b80845290600181169081156105f45750600114610596575b6102908361058281850382610eb8565b604051918291602083526020830190610ddb565b60045f9081527f8a35acfbc15ff81a39ae7d344fd709f28e8600b4aa8c65c6b64bfe7fe36bd19b939250905b8082106105da57509091508101602001610582610572565b9192600181602092548385880101520191019092916105c2565b7fffffffffffffffffffffffffffffffffffffffffffffffffffffffffffffff001660208086019190915291151560051b840190910191506105829050610572565b34610294575f600319360112610294576106ee6106727f000000000000000000000000000000000000000000000000000000000000000061151c565b61069b7f0000000000000000000000000000000000000000000000000000000000000000611597565b60206106fc604051926106ae8385610eb8565b5f84525f3681376040519586957f0f00000000000000000000000000000000000000000000000000000000000000875260e08588015260e0870190610ddb565b908582036040870152610ddb565b4660608501523060808501525f60a085015283810360c08501528180845192838152019301915f5b82811061073357505050500390f35b835185528695509381019392810192600101610724565b346102945760206003193601126102945773ffffffffffffffffffffffffffffffffffffffff610778610e1e565b168015610795575f526006602052602060405f2054604051908152f35b7f89c62b64000000000000000000000000000000000000000000000000000000005f525f60045260245ffd5b346102945760206003193601126102945760206107df6004356114c3565b73ffffffffffffffffffffffffffffffffffffffff60405191168152f35b346102945761032061080e36610e64565b906040519261081e602085610eb8565b5f84526112e7565b346102945760406003193601126102945761083f610e1e565b73ffffffffffffffffffffffffffffffffffffffff16602435811561099957805f52600560205273ffffffffffffffffffffffffffffffffffffffff60405f20541690811515928361092b575b805f52600660205260405f2060018154019055815f52600560205260405f20817fffffffffffffffffffffffff0000000000000000000000000000000000000000825416179055827fddf252ad1be2c89b69c2b068fc378daa952ba7f163c4a11628f55a4df523b3ef5f80a4506108ff57005b7f73c6ac6e000000000000000000000000000000000000000000000000000000005f525f60045260245ffd5b610962825f52600760205260405f207fffffffffffffffffffffffff00000000000000000000000000000000000000008154169055565b825f52600660205260405f207fffffffffffffffffffffffffffffffffffffffffffffffffffffffffffffffff815401905561088c565b7f64a0ae92000000000000000000000000000000000000000000000000000000005f525f60045260245ffd5b34610294576020600319360112610294576004356040517f6352211e00000000000000000000000000000000000000000000000000000000815281600482015260208160248173ffffffffffffffffffffffffffffffffffffffff7f0000000000000000000000000000000000000000000000000000000000000000165afa908115610450575f91610a89575b5073ffffffffffffffffffffffffffffffffffffffff339116036103f9575f526002602052602060405f205460a01c604051908152f35b610aa2915060203d6020116104495761043b8183610eb8565b82610a52565b3461029457610320610ab936610e64565b91611051565b3461029457604060031936011261029457610ad8610e1e565b602435610ae4816114c3565b33151580610bfd575b80610bb0575b610b8457819073ffffffffffffffffffffffffffffffffffffffff80851691167f8c5be1e5ebec7d5bd14f71427d1e84f3dd0314c0f7b2291e5b200ac8c7c3b9255f80a45f52600760205273ffffffffffffffffffffffffffffffffffffffff60405f2091167fffffffffffffffffffffffff00000000000000000000000000000000000000008254161790555f80f35b7fa9fbf51f000000000000000000000000000000000000000000000000000000005f523360045260245ffd5b5073ffffffffffffffffffffffffffffffffffffffff81165f52600860205260405f2073ffffffffffffffffffffffffffffffffffffffff33165f5260205260ff60405f20541615610af3565b503373ffffffffffffffffffffffffffffffffffffffff82161415610aed565b3461029457602060031936011261029457600435610c3a816114c3565b505f526007602052602073ffffffffffffffffffffffffffffffffffffffff60405f205416604051908152f35b34610294575f600319360112610294576040515f600354610c8781610f60565b80845290600181169081156105f45750600114610cae576102908361058281850382610eb8565b60035f9081527fc2575a0e9e593c00f959f8c92f12db2869c3395a3b0502d05e2516446f71f85b939250905b808210610cf257509091508101602001610582610572565b919260018160209254838588010152019101909291610cda565b3461029457602060031936011261029457600435907fffffffff00000000000000000000000000000000000000000000000000000000821680920361029457817f80ac58cd0000000000000000000000000000000000000000000000000000000060209314908115610db1575b8115610d87575b5015158152f35b7f01ffc9a70000000000000000000000000000000000000000000000000000000091501483610d80565b7f5b5e139f0000000000000000000000000000000000000000000000000000000081149150610d79565b907fffffffffffffffffffffffffffffffffffffffffffffffffffffffffffffffe0601f602080948051918291828752018686015e5f8582860101520116010190565b6004359073ffffffffffffffffffffffffffffffffffffffff8216820361029457565b6024359073ffffffffffffffffffffffffffffffffffffffff8216820361029457565b60031960609101126102945760043573ffffffffffffffffffffffffffffffffffffffff81168103610294579060243573ffffffffffffffffffffffffffffffffffffffff81168103610294579060443590565b90601f7fffffffffffffffffffffffffffffffffffffffffffffffffffffffffffffffe0910116810190811067ffffffffffffffff821117610ef957604052565b7f4e487b71000000000000000000000000000000000000000000000000000000005f52604160045260245ffd5b67ffffffffffffffff8111610ef957601f017fffffffffffffffffffffffffffffffffffffffffffffffffffffffffffffffe01660200190565b90600182811c92168015610fa7575b6020831014610f7a57565b7f4e487b71000000000000000000000000000000000000000000000000000000005f52602260045260245ffd5b91607f1691610f6f565b5f9291815491610fc083610f60565b80835292600181169081156110155750600114610fdc57505050565b5f9081526020812093945091925b838310610ffb575060209250010190565b600181602092949394548385870101520191019190610fea565b905060209495507fffffffffffffffffffffffffffffffffffffffffffffffffffffffffffffff0091509291921683830152151560051b010190565b919073ffffffffffffffffffffffffffffffffffffffff16801561099957815f52600560205273ffffffffffffffffffffffffffffffffffffffff60405f205416928233151592836111d3575b73ffffffffffffffffffffffffffffffffffffffff935085611165575b805f52600660205260405f2060018154019055815f52600560205260405f20817fffffffffffffffffffffffff0000000000000000000000000000000000000000825416179055857fddf252ad1be2c89b69c2b068fc378daa952ba7f163c4a11628f55a4df523b3ef5f80a41680830361113457505050565b7f64283d7b000000000000000000000000000000000000000000000000000000005f5260045260245260445260645ffd5b61119c825f52600760205260405f207fffffffffffffffffffffffff00000000000000000000000000000000000000008154169055565b855f52600660205260405f207fffffffffffffffffffffffffffffffffffffffffffffffffffffffffffffffff81540190556110bb565b919290508061124a575b156111ea5782829161109e565b828461121b577f7e273289000000000000000000000000000000000000000000000000000000005f5260045260245ffd5b7f177e802f000000000000000000000000000000000000000000000000000000005f523360045260245260445ffd5b503384148015611285575b806111dd5750825f5260076020523373ffffffffffffffffffffffffffffffffffffffff60405f205416146111dd565b50835f52600860205260405f2073ffffffffffffffffffffffffffffffffffffffff33165f5260205260ff60405f205416611255565b90816020910312610294575173ffffffffffffffffffffffffffffffffffffffff811681036102945790565b906112f3838284611051565b803b611300575b50505050565b60209161136c73ffffffffffffffffffffffffffffffffffffffff8093169560405195869485947f150b7a020000000000000000000000000000000000000000000000000000000086523360048701521660248501526044840152608060648401526084830190610ddb565b03815f865af15f9181611466575b506113e857503d156113e1573d61139081610f26565b9061139e6040519283610eb8565b81523d5f602083013e5b805190816113dc57827f64a0ae92000000000000000000000000000000000000000000000000000000005f5260045260245ffd5b602001fd5b60606113a8565b7fffffffff000000000000000000000000000000000000000000000000000000007f150b7a020000000000000000000000000000000000000000000000000000000091160361143b57505f8080806112fa565b7f64a0ae92000000000000000000000000000000000000000000000000000000005f5260045260245ffd5b9091506020813d6020116114bb575b8161148260209383610eb8565b8101031261029457517fffffffff000000000000000000000000000000000000000000000000000000008116810361029457905f61137a565b3d9150611475565b805f52600560205273ffffffffffffffffffffffffffffffffffffffff60405f2054169081156114f1575090565b7f7e273289000000000000000000000000000000000000000000000000000000005f5260045260245ffd5b60ff811461157b5760ff811690601f82116115535760405191611540604084610eb8565b6020808452838101919036833783525290565b7fb3512b0c000000000000000000000000000000000000000000000000000000005f5260045ffd5b506040516115948161158d815f610fb1565b0382610eb8565b90565b60ff81146115bb5760ff811690601f82116115535760405191611540604084610eb8565b506040516115948161158d816001610fb156fea26469706673582212207a250b36e17b698734755fa690554ca09b6427f102deca97ddf7dbda55076d9564736f6c634300081e0033","linkReferences":{}},"methodIdentifiers":{"approve(address,uint256)":"095ea7b3","balanceOf(address)":"70a08231","eip712Domain()":"84b0196e","getActiveLockboxPublicKeyForToken(uint256)":"aea5cf30","getApproved(uint256)":"081812fc","getNonce(uint256)":"3d46b819","isApprovedForAll(address,address)":"e985e9c5","mint(address,uint256)":"40c10f19","name()":"06fdde03","ownerOf(uint256)":"6352211e","safeTransferFrom(address,address,uint256)":"42842e0e","safeTransferFrom(address,address,uint256,bytes)":"b88d4fde","setApprovalForAll(address,bool)":"a22cb465","supportsInterface(bytes4)":"01ffc9a7","symbol()":"95d89b41","testInitialize(uint256,address)":"ee14979c","tokenURI(uint256)":"c87b56dd","transferFrom(address,address,uint256)":"23b872dd"},"id":18}