{"abi":[{"type":"constructor","inputs":[],"stateMutability":"nonpayable"},{"type":"fallback","stateMutability":"nonpayable"},{"type":"receive","stateMutability":"payable"},{"type":"function","name":"SWAP_FEE_BP","inputs":[],"outputs":[{"name":"","type":"uint256","internalType":"uint256"}],"stateMutability":"view"},{"type":"function","name":"TREASURY_LOCKBOX_ID","inputs":[],"outputs":[{"name":"","type":"uint256","internalType":"uint256"}],"stateMutability":"view"},{"type":"function","name":"approve","inputs":[{"name":"to","type":"address","internalType":"address"},{"name":"tokenId","type":"uint256","internalType":"uint256"}],"outputs":[],"stateMutability":"nonpayable"},{"type":"function","name":"balanceOf","inputs":[{"name":"owner","type":"address","internalType":"address"}],"outputs":[{"name":"","type":"uint256","internalType":"uint256"}],"stateMutability":"view"},{"type":"function","name":"batchDeposit","inputs":[{"name":"tokenId","type":"uint256","internalType":"uint256"},{"name":"amountETH","type":"uint256","internalType":"uint256"},{"name":"tokenAddresses","type":"address[]","internalType":"address[]"},{"name":"tokenAmounts","type":"uint256[]","internalType":"uint256[]"},{"name":"nftContracts","type":"address[]","internalType":"address[]"},{"name":"nftTokenIds","type":"uint256[]","internalType":"uint256[]"},{"name":"referenceId","type":"bytes32","internalType":"bytes32"}],"outputs":[],"stateMutability":"payable"},{"type":"function","name":"batchWithdraw","inputs":[{"name":"tokenId","type":"uint256","internalType":"uint256"},{"name":"messageHash","type":"bytes32","internalType":"bytes32"},{"name":"signature","type":"bytes","internalType":"bytes"},{"name":"amountETH","type":"uint256","internalType":"uint256"},{"name":"tokenAddresses","type":"address[]","internalType":"address[]"},{"name":"tokenAmounts","type":"uint256[]","internalType":"uint256[]"},{"name":"nftContracts","type":"address[]","internalType":"address[]"},{"name":"nftTokenIds","type":"uint256[]","internalType":"uint256[]"},{"name":"recipient","type":"address","internalType":"address"},{"name":"referenceId","type":"bytes32","internalType":"bytes32"},{"name":"signatureExpiry","type":"uint256","internalType":"uint256"}],"outputs":[],"stateMutability":"nonpayable"},{"type":"function","name":"burnLockbox","inputs":[{"name":"tokenId","type":"uint256","internalType":"uint256"},{"name":"messageHash","type":"bytes32","internalType":"bytes32"},{"name":"signature","type":"bytes","internalType":"bytes"},{"name":"referenceId","type":"bytes32","internalType":"bytes32"},{"name":"signatureExpiry","type":"uint256","internalType":"uint256"}],"outputs":[],"stateMutability":"nonpayable"},{"type":"function","name":"createLockboxWithBatch","inputs":[{"name":"to","type":"address","internalType":"address"},{"name":"lockboxPublicKey","type":"address","internalType":"address"},{"name":"amountETH","type":"uint256","internalType":"uint256"},{"name":"tokenAddresses","type":"address[]","internalType":"address[]"},{"name":"tokenAmounts","type":"uint256[]","internalType":"uint256[]"},{"name":"nftContracts","type":"address[]","internalType":"address[]"},{"name":"nftTokenIds","type":"uint256[]","internalType":"uint256[]"},{"name":"referenceId","type":"bytes32","internalType":"bytes32"}],"outputs":[],"stateMutability":"payable"},{"type":"function","name":"createLockboxWithERC20","inputs":[{"name":"to","type":"address","internalType":"address"},{"name":"lockboxPublicKey","type":"address","internalType":"address"},{"name":"tokenAddress","type":"address","internalType":"address"},{"name":"amount","type":"uint256","internalType":"uint256"},{"name":"referenceId","type":"bytes32","internalType":"bytes32"}],"outputs":[],"stateMutability":"nonpayable"},{"type":"function","name":"createLockboxWithERC721","inputs":[{"name":"to","type":"address","internalType":"address"},{"name":"lockboxPublicKey","type":"address","internalType":"address"},{"name":"nftContract","type":"address","internalType":"address"},{"name":"externalNftTokenId","type":"uint256","internalType":"uint256"},{"name":"referenceId","type":"bytes32","internalType":"bytes32"}],"outputs":[],"stateMutability":"nonpayable"},{"type":"function","name":"createLockboxWithETH","inputs":[{"name":"to","type":"address","internalType":"address"},{"name":"lockboxPublicKey","type":"address","internalType":"address"},{"name":"referenceId","type":"bytes32","internalType":"bytes32"}],"outputs":[],"stateMutability":"payable"},{"type":"function","name":"depositERC20","inputs":[{"name":"tokenId","type":"uint256","internalType":"uint256"},{"name":"tokenAddress","type":"address","internalType":"address"},{"name":"amount","type":"uint256","internalType":"uint256"},{"name":"referenceId","type":"bytes32","internalType":"bytes32"}],"outputs":[],"stateMutability":"nonpayable"},{"type":"function","name":"depositERC721","inputs":[{"name":"tokenId","type":"uint256","internalType":"uint256"},{"name":"nftContract","type":"address","internalType":"address"},{"name":"nftTokenId","type":"uint256","internalType":"uint256"},{"name":"referenceId","type":"bytes32","internalType":"bytes32"}],"outputs":[],"stateMutability":"nonpayable"},{"type":"function","name":"depositETH","inputs":[{"name":"tokenId","type":"uint256","internalType":"uint256"},{"name":"referenceId","type":"bytes32","internalType":"bytes32"}],"outputs":[],"stateMutability":"payable"},{"type":"function","name":"eip712Domain","inputs":[],"outputs":[{"name":"fields","type":"bytes1","internalType":"bytes1"},{"name":"name","type":"string","internalType":"string"},{"name":"version","type":"string","internalType":"string"},{"name":"chainId","type":"uint256","internalType":"uint256"},{"name":"verifyingContract","type":"address","internalType":"address"},{"name":"salt","type":"bytes32","internalType":"bytes32"},{"name":"extensions","type":"uint256[]","internalType":"uint256[]"}],"stateMutability":"view"},{"type":"function","name":"getActiveLockboxPublicKeyForToken","inputs":[{"name":"tokenId","type":"uint256","internalType":"uint256"}],"outputs":[{"name":"","type":"address","internalType":"address"}],"stateMutability":"view"},{"type":"function","name":"getApproved","inputs":[{"name":"tokenId","type":"uint256","internalType":"uint256"}],"outputs":[{"name":"","type":"address","internalType":"address"}],"stateMutability":"view"},{"type":"function","name":"getFullLockbox","inputs":[{"name":"tokenId","type":"uint256","internalType":"uint256"}],"outputs":[{"name":"lockboxETH","type":"uint256","internalType":"uint256"},{"name":"erc20Tokens","type":"tuple[]","internalType":"struct Withdrawals.erc20Balances[]","components":[{"name":"tokenAddress","type":"address","internalType":"address"},{"name":"balance","type":"uint256","internalType":"uint256"}]},{"name":"nftContracts","type":"tuple[]","internalType":"struct Deposits.nftBalances[]","components":[{"name":"nftContract","type":"address","internalType":"address"},{"name":"nftTokenId","type":"uint256","internalType":"uint256"}]}],"stateMutability":"view"},{"type":"function","name":"getNonce","inputs":[{"name":"tokenId","type":"uint256","internalType":"uint256"}],"outputs":[{"name":"","type":"uint256","internalType":"uint256"}],"stateMutability":"view"},{"type":"function","name":"isApprovedForAll","inputs":[{"name":"owner","type":"address","internalType":"address"},{"name":"operator","type":"address","internalType":"address"}],"outputs":[{"name":"","type":"bool","internalType":"bool"}],"stateMutability":"view"},{"type":"function","name":"locked","inputs":[{"name":"tokenId","type":"uint256","internalType":"uint256"}],"outputs":[{"name":"","type":"bool","internalType":"bool"}],"stateMutability":"view"},{"type":"function","name":"name","inputs":[],"outputs":[{"name":"","type":"string","internalType":"string"}],"stateMutability":"view"},{"type":"function","name":"onERC721Received","inputs":[{"name":"","type":"address","internalType":"address"},{"name":"","type":"address","internalType":"address"},{"name":"","type":"uint256","internalType":"uint256"},{"name":"","type":"bytes","internalType":"bytes"}],"outputs":[{"name":"","type":"bytes4","internalType":"bytes4"}],"stateMutability":"pure"},{"type":"function","name":"owner","inputs":[],"outputs":[{"name":"","type":"address","internalType":"address"}],"stateMutability":"view"},{"type":"function","name":"ownerOf","inputs":[{"name":"tokenId","type":"uint256","internalType":"uint256"}],"outputs":[{"name":"","type":"address","internalType":"address"}],"stateMutability":"view"},{"type":"function","name":"renounceOwnership","inputs":[],"outputs":[],"stateMutability":"nonpayable"},{"type":"function","name":"rotateLockboxKey","inputs":[{"name":"tokenId","type":"uint256","internalType":"uint256"},{"name":"messageHash","type":"bytes32","internalType":"bytes32"},{"name":"signature","type":"bytes","internalType":"bytes"},{"name":"newPublicKey","type":"address","internalType":"address"},{"name":"referenceId","type":"bytes32","internalType":"bytes32"},{"name":"signatureExpiry","type":"uint256","internalType":"uint256"}],"outputs":[],"stateMutability":"nonpayable"},{"type":"function","name":"safeTransferFrom","inputs":[{"name":"from","type":"address","internalType":"address"},{"name":"to","type":"address","internalType":"address"},{"name":"tokenId","type":"uint256","internalType":"uint256"}],"outputs":[],"stateMutability":"nonpayable"},{"type":"function","name":"safeTransferFrom","inputs":[{"name":"from","type":"address","internalType":"address"},{"name":"to","type":"address","internalType":"address"},{"name":"tokenId","type":"uint256","internalType":"uint256"},{"name":"data","type":"bytes","internalType":"bytes"}],"outputs":[],"stateMutability":"nonpayable"},{"type":"function","name":"setApprovalForAll","inputs":[{"name":"operator","type":"address","internalType":"address"},{"name":"approved","type":"bool","internalType":"bool"}],"outputs":[],"stateMutability":"nonpayable"},{"type":"function","name":"setDefaultMetadataURI","inputs":[{"name":"newDefaultURI","type":"string","internalType":"string"}],"outputs":[],"stateMutability":"nonpayable"},{"type":"function","name":"setTokenMetadataURI","inputs":[{"name":"tokenId","type":"uint256","internalType":"uint256"},{"name":"messageHash","type":"bytes32","internalType":"bytes32"},{"name":"signature","type":"bytes","internalType":"bytes"},{"name":"newMetadataURI","type":"string","internalType":"string"},{"name":"referenceId","type":"bytes32","internalType":"bytes32"},{"name":"signatureExpiry","type":"uint256","internalType":"uint256"}],"outputs":[],"stateMutability":"nonpayable"},{"type":"function","name":"supportsInterface","inputs":[{"name":"interfaceId","type":"bytes4","internalType":"bytes4"}],"outputs":[{"name":"","type":"bool","internalType":"bool"}],"stateMutability":"view"},{"type":"function","name":"swapInLockbox","inputs":[{"name":"tokenId","type":"uint256","internalType":"uint256"},{"name":"messageHash","type":"bytes32","internalType":"bytes32"},{"name":"signature","type":"bytes","internalType":"bytes"},{"name":"tokenIn","type":"address","internalType":"address"},{"name":"tokenOut","type":"address","internalType":"address"},{"name":"amountIn","type":"uint256","internalType":"uint256"},{"name":"minAmountOut","type":"uint256","internalType":"uint256"},{"name":"target","type":"address","internalType":"address"},{"name":"data","type":"bytes","internalType":"bytes"},{"name":"referenceId","type":"bytes32","internalType":"bytes32"},{"name":"signatureExpiry","type":"uint256","internalType":"uint256"},{"name":"recipient","type":"address","internalType":"address"}],"outputs":[],"stateMutability":"nonpayable"},{"type":"function","name":"symbol","inputs":[],"outputs":[{"name":"","type":"string","internalType":"string"}],"stateMutability":"view"},{"type":"function","name":"tokenURI","inputs":[{"name":"tokenId","type":"uint256","internalType":"uint256"}],"outputs":[{"name":"","type":"string","internalType":"string"}],"stateMutability":"view"},{"type":"function","name":"transferFrom","inputs":[{"name":"from","type":"address","internalType":"address"},{"name":"to","type":"address","internalType":"address"},{"name":"tokenId","type":"uint256","internalType":"uint256"}],"outputs":[],"stateMutability":"nonpayable"},{"type":"function","name":"transferOwnership","inputs":[{"name":"newOwner","type":"address","internalType":"address"}],"outputs":[],"stateMutability":"nonpayable"},{"type":"function","name":"withdrawERC20","inputs":[{"name":"tokenId","type":"uint256","internalType":"uint256"},{"name":"messageHash","type":"bytes32","internalType":"bytes32"},{"name":"signature","type":"bytes","internalType":"bytes"},{"name":"tokenAddress","type":"address","internalType":"address"},{"name":"amount","type":"uint256","internalType":"uint256"},{"name":"recipient","type":"address","internalType":"address"},{"name":"referenceId","type":"bytes32","internalType":"bytes32"},{"name":"signatureExpiry","type":"uint256","internalType":"uint256"}],"outputs":[],"stateMutability":"nonpayable"},{"type":"function","name":"withdrawERC721","inputs":[{"name":"tokenId","type":"uint256","internalType":"uint256"},{"name":"messageHash","type":"bytes32","internalType":"bytes32"},{"name":"signature","type":"bytes","internalType":"bytes"},{"name":"nftContract","type":"address","internalType":"address"},{"name":"nftTokenId","type":"uint256","internalType":"uint256"},{"name":"recipient","type":"address","internalType":"address"},{"name":"referenceId","type":"bytes32","internalType":"bytes32"},{"name":"signatureExpiry","type":"uint256","internalType":"uint256"}],"outputs":[],"stateMutability":"nonpayable"},{"type":"function","name":"withdrawETH","inputs":[{"name":"tokenId","type":"uint256","internalType":"uint256"},{"name":"messageHash","type":"bytes32","internalType":"bytes32"},{"name":"signature","type":"bytes","internalType":"bytes"},{"name":"amountETH","type":"uint256","internalType":"uint256"},{"name":"recipient","type":"address","internalType":"address"},{"name":"referenceId","type":"bytes32","internalType":"bytes32"},{"name":"signatureExpiry","type":"uint256","internalType":"uint256"}],"outputs":[],"stateMutability":"nonpayable"},{"type":"event","name":"Approval","inputs":[{"name":"owner","type":"address","indexed":true,"internalType":"address"},{"name":"approved","type":"address","indexed":true,"internalType":"address"},{"name":"tokenId","type":"uint256","indexed":true,"internalType":"uint256"}],"anonymous":false},{"type":"event","name":"ApprovalForAll","inputs":[{"name":"owner","type":"address","indexed":true,"internalType":"address"},{"name":"operator","type":"address","indexed":true,"internalType":"address"},{"name":"approved","type":"bool","indexed":false,"internalType":"bool"}],"anonymous":false},{"type":"event","name":"Deposited","inputs":[{"name":"tokenId","type":"uint256","indexed":true,"internalType":"uint256"},{"name":"referenceId","type":"bytes32","indexed":true,"internalType":"bytes32"}],"anonymous":false},{"type":"event","name":"EIP712DomainChanged","inputs":[],"anonymous":false},{"type":"event","name":"KeyRotated","inputs":[{"name":"tokenId","type":"uint256","indexed":true,"internalType":"uint256"},{"name":"referenceId","type":"bytes32","indexed":true,"internalType":"bytes32"}],"anonymous":false},{"type":"event","name":"LockboxBurned","inputs":[{"name":"tokenId","type":"uint256","indexed":true,"internalType":"uint256"},{"name":"referenceId","type":"bytes32","indexed":true,"internalType":"bytes32"}],"anonymous":false},{"type":"event","name":"Locked","inputs":[{"name":"tokenId","type":"uint256","indexed":false,"internalType":"uint256"}],"anonymous":false},{"type":"event","name":"Minted","inputs":[{"name":"tokenId","type":"uint256","indexed":true,"internalType":"uint256"},{"name":"referenceId","type":"bytes32","indexed":true,"internalType":"bytes32"}],"anonymous":false},{"type":"event","name":"OwnershipTransferred","inputs":[{"name":"previousOwner","type":"address","indexed":true,"internalType":"address"},{"name":"newOwner","type":"address","indexed":true,"internalType":"address"}],"anonymous":false},{"type":"event","name":"SwapExecuted","inputs":[{"name":"tokenId","type":"uint256","indexed":true,"internalType":"uint256"},{"name":"referenceId","type":"bytes32","indexed":true,"internalType":"bytes32"}],"anonymous":false},{"type":"event","name":"TokenMetadataURISet","inputs":[{"name":"tokenId","type":"uint256","indexed":true,"internalType":"uint256"},{"name":"referenceId","type":"bytes32","indexed":true,"internalType":"bytes32"}],"anonymous":false},{"type":"event","name":"Transfer","inputs":[{"name":"from","type":"address","indexed":true,"internalType":"address"},{"name":"to","type":"address","indexed":true,"internalType":"address"},{"name":"tokenId","type":"uint256","indexed":true,"internalType":"uint256"}],"anonymous":false},{"type":"event","name":"Withdrawn","inputs":[{"name":"tokenId","type":"uint256","indexed":true,"internalType":"uint256"},{"name":"referenceId","type":"bytes32","indexed":true,"internalType":"bytes32"}],"anonymous":false},{"type":"error","name":"AlreadyInitialized","inputs":[]},{"type":"error","name":"ArrayLengthMismatch","inputs":[]},{"type":"error","name":"DefaultURIAlreadySet","inputs":[]},{"type":"error","name":"DuplicateEntry","inputs":[]},{"type":"error","name":"ECDSAInvalidSignature","inputs":[]},{"type":"error","name":"ECDSAInvalidSignatureLength","inputs":[{"name":"length","type":"uint256","internalType":"uint256"}]},{"type":"error","name":"ECDSAInvalidSignatureS","inputs":[{"name":"s","type":"bytes32","internalType":"bytes32"}]},{"type":"error","name":"ERC721IncorrectOwner","inputs":[{"name":"sender","type":"address","internalType":"address"},{"name":"tokenId","type":"uint256","internalType":"uint256"},{"name":"owner","type":"address","internalType":"address"}]},{"type":"error","name":"ERC721InsufficientApproval","inputs":[{"name":"operator","type":"address","internalType":"address"},{"name":"tokenId","type":"uint256","internalType":"uint256"}]},{"type":"error","name":"ERC721InvalidApprover","inputs":[{"name":"approver","type":"address","internalType":"address"}]},{"type":"error","name":"ERC721InvalidOperator","inputs":[{"name":"operator","type":"address","internalType":"address"}]},{"type":"error","name":"ERC721InvalidOwner","inputs":[{"name":"owner","type":"address","internalType":"address"}]},{"type":"error","name":"ERC721InvalidReceiver","inputs":[{"name":"receiver","type":"address","internalType":"address"}]},{"type":"error","name":"ERC721InvalidSender","inputs":[{"name":"sender","type":"address","internalType":"address"}]},{"type":"error","name":"ERC721NonexistentToken","inputs":[{"name":"tokenId","type":"uint256","internalType":"uint256"}]},{"type":"error","name":"ETHMismatch","inputs":[]},{"type":"error","name":"EthTransferFailed","inputs":[]},{"type":"error","name":"EthValueMismatch","inputs":[]},{"type":"error","name":"FallbackNotAllowed","inputs":[]},{"type":"error","name":"InsufficientTokenBalance","inputs":[]},{"type":"error","name":"InvalidMessageHash","inputs":[]},{"type":"error","name":"InvalidRecipient","inputs":[]},{"type":"error","name":"InvalidShortString","inputs":[]},{"type":"error","name":"InvalidSignature","inputs":[]},{"type":"error","name":"InvalidSwap","inputs":[]},{"type":"error","name":"LockboxNotEmpty","inputs":[]},{"type":"error","name":"MismatchedInputs","inputs":[]},{"type":"error","name":"NFTNotFound","inputs":[]},{"type":"error","name":"NoETHBalance","inputs":[]},{"type":"error","name":"NoURI","inputs":[]},{"type":"error","name":"NonexistentToken","inputs":[]},{"type":"error","name":"NotOwner","inputs":[]},{"type":"error","name":"OwnableInvalidOwner","inputs":[{"name":"owner","type":"address","internalType":"address"}]},{"type":"error","name":"OwnableUnauthorizedAccount","inputs":[{"name":"account","type":"address","internalType":"address"}]},{"type":"error","name":"ReentrancyGuardReentrantCall","inputs":[]},{"type":"error","name":"RouterOverspent","inputs":[]},{"type":"error","name":"SafeERC20FailedOperation","inputs":[{"name":"token","type":"address","internalType":"address"}]},{"type":"error","name":"SelfMintOnly","inputs":[]},{"type":"error","name":"SignatureExpired","inputs":[]},{"type":"error","name":"SlippageExceeded","inputs":[]},{"type":"error","name":"StringTooLong","inputs":[{"name":"str","type":"string","internalType":"string"}]},{"type":"error","name":"SwapCallFailed","inputs":[]},{"type":"error","name":"TransfersDisabled","inputs":[]},{"type":"error","name":"UseDepositETH","inputs":[]},{"type":"error","name":"ZeroAddress","inputs":[]},{"type":"error","name":"ZeroAmount","inputs":[]},{"type":"error","name":"ZeroKey","inputs":[]},{"type":"error","name":"ZeroTokenAddress","inputs":[]}],"bytecode":{"object":"0x610180604052346104a8576040516100186040826104ac565b60088152674c6f636b782e696f60c01b60208201526040519061003c6040836104ac565b6007825266098dec6d6c4def60cb1b602083015260405161005e6040826104ac565b60058152602081019064098dec6d6f60db1b8252604051936100816040866104ac565b60018552600d60fa1b60208601908152845190946001600160401b0382116103af575f5490600182811c9216801561049e575b60208310146103915781601f849311610431575b50602090601f83116001146103ce575f926103c3575b50508160011b915f199060031b1c1916175f555b8051906001600160401b0382116103af5760015490600182811c921680156103a5575b60208310146103915781601f849311610323575b50602090601f83116001146102bd575f926102b2575b50508160011b915f199060031b1c1916176001555b331561029f5760068054336001600160a01b0319821681179092556001600160a01b03167f8be0079c531659141344cd1fd0a4f28419497f9722a3daafe3b4186f6b6457e05f80a36101a5816104cf565b610120526101b284610656565b61014052519020918260e05251902080610100524660a0526040519060208201927f8b73c3c69bb8fe3d512ecc4cf759cc79239f7b179b0ffacaa9a75d522b39400f8452604083015260608201524660808201523060a082015260a0815261021b60c0826104ac565b5190206080523060c05230610160526001600a556040516159cd908161078f823960805181615720015260a051816157dd015260c051816156f1015260e0518161576f0152610100518161579501526101205181612985015261014051816129ae01526101605181818161061e01528181611b06015281816134240152614bbc0152f35b631e4fbdf760e01b5f525f60045260245ffd5b015190505f8061013f565b60015f9081528281209350601f198516905b81811061030b57509084600195949392106102f3575b505050811b01600155610154565b01515f1960f88460031b161c191690555f80806102e5565b929360206001819287860151815501950193016102cf565b60015f529091507fb10e2d527612073b26eecdfd717e6a320cf44b4afac2b0732d9fcbe2b7fa0cf6601f840160051c81019160208510610387575b90601f859493920160051c01905b8181106103795750610129565b5f815584935060010161036c565b909150819061035e565b634e487b7160e01b5f52602260045260245ffd5b91607f1691610115565b634e487b7160e01b5f52604160045260245ffd5b015190505f806100de565b5f8080528281209350601f198516905b8181106104195750908460019594939210610401575b505050811b015f556100f2565b01515f1960f88460031b161c191690555f80806103f4565b929360206001819287860151815501950193016103de565b5f80529091507f290decd9548b62a8d60345a988386fc84ba6bc95484008f6362f93160ef3e563601f840160051c81019160208510610494575b90601f859493920160051c01905b81811061048657506100c8565b5f8155849350600101610479565b909150819061046b565b91607f16916100b4565b5f80fd5b601f909101601f19168101906001600160401b038211908210176103af57604052565b908151602081105f14610549575090601f8151116105095760208151910151602082106104fa571790565b5f198260200360031b1b161790565b604460209160405192839163305a27a960e01b83528160048401528051918291826024860152018484015e5f828201840152601f01601f19168101030190fd5b6001600160401b0381116103af57600754600181811c9116801561064c575b602082101461039157601f8111610619575b50602092601f82116001146105b857928192935f926105ad575b50508160011b915f199060031b1c19161760075560ff90565b015190505f80610594565b601f1982169360075f52805f20915f5b86811061060157508360019596106105e9575b505050811b0160075560ff90565b01515f1960f88460031b161c191690555f80806105db565b919260206001819286850151815501940192016105c8565b60075f52601f60205f20910160051c810190601f830160051c015b818110610641575061057a565b5f8155600101610634565b90607f1690610568565b908151602081105f14610681575090601f8151116105095760208151910151602082106104fa571790565b6001600160401b0381116103af57600854600181811c91168015610784575b602082101461039157601f8111610751575b50602092601f82116001146106f057928192935f926106e5575b50508160011b915f199060031b1c19161760085560ff90565b015190505f806106cc565b601f1982169360085f52805f20915f5b8681106107395750836001959610610721575b505050811b0160085560ff90565b01515f1960f88460031b161c191690555f8080610713565b91926020600181928685015181550194019201610700565b60085f52601f60205f20910160051c810190601f830160051c015b81811061077957506106b2565b5f815560010161076c565b90607f16906106a056fe6080806040526004361015610049575b5036156100475734610043577fdeab4c30000000000000000000000000000000000000000000000000000000005f5260045ffd5b5f80fd5b005b5f3560e01c90816301ffc9a714613d6c5750806306fdde0314613cca578063081812fc14613c8d578063095ea7b314613b7b5780630db5425614613a2d578063150b7a02146139be57806323b872dd146139a75780632ca7bc801461398d5780632dbf9be6146136595780633b0320b01461349d5780633d46b819146133d457806342842e0e146133ab578063486c4b7f1461336a5780634d8af09e1461330457806352dc033c146130d257806353861f14146130b75780635e4ed95d14612fe45780636267699a14612d9d5780636352211e14612d6e57806365cd69a114612d0057806370a0823114612c96578063715018a614612c30578063748917dd14612bc357806375463c4a14612a8157806384b0196e1461296d5780638da5cb5b146129475780638f93f31b1461229e578063954808791461208c57806395d89b4114611fa45780639b9900a914611c57578063a22cb46514611b85578063aea5cf3014611ab6578063b45a3c0e14611a55578063b88d4fde14611a06578063bb4ffa10146115c9578063bd1ca78514610a5b578063c87b56dd14610a24578063e124a17c146105ce578063e985e9c514610575578063f2fde38b146104ca5763f3eb9a1614610218575f61000f565b346100435760c06003193601126100435760043560443567ffffffffffffffff81116100435761024c903690600401613f62565b90610255613e22565b6084359260a43590610265614b47565b61026e84614b80565b8142116104a257604051926001600160a01b036020850191868352169283604086015286606086015233608086015260a085015260a084526102b160c085613eed565b845f52600960205260405f20935190209083549060428260a01c9360405160208101917f5fd4fde1cb878824d6e96eec97296c9e818ad783a10b7c9ede6e7f27eca7b06b83528960408301528660608301525f608083015260a082015260a0815261031d60c082613eed565b5190206103286156e7565b90604051917f19010000000000000000000000000000000000000000000000000000000000008352600283015260228201522090816024350361047a576103869261037d6001600160a01b0393928493615803565b9095919561583d565b16911603610452576bffffffffffffffffffffffff81146104255782546001600160a01b031660019190910160a01b73ffffffffffffffffffffffffffffffffffffffff191617825580610402575b50507f984cbcf51cba481417bc4c1f7faacf7392a4cbcd6c7fb7888b24ed2e50a0be775f80a36001600a55005b73ffffffffffffffffffffffffffffffffffffffff198254161790555f806103d5565b7f4e487b71000000000000000000000000000000000000000000000000000000005f52601160045260245ffd5b7f8baa579f000000000000000000000000000000000000000000000000000000005f5260045ffd5b7f8b56642d000000000000000000000000000000000000000000000000000000005f5260045ffd5b7f0819bdcd000000000000000000000000000000000000000000000000000000005f5260045ffd5b34610043576020600319360112610043576001600160a01b036104eb613de0565b6104f36153c2565b168015610549576001600160a01b036006548273ffffffffffffffffffffffffffffffffffffffff19821617600655167f8be0079c531659141344cd1fd0a4f28419497f9722a3daafe3b4186f6b6457e05f80a3005b7f1e4fbdf7000000000000000000000000000000000000000000000000000000005f525f60045260245ffd5b346100435760406003193601126100435761058e613de0565b6001600160a01b0361059e613df6565b91165f5260056020526001600160a01b0360405f2091165f52602052602060ff60405f2054166040519015158152f35b34610043576020600319360112610043576004356040517f6352211e0000000000000000000000000000000000000000000000000000000081528160048201526020816024816001600160a01b037f0000000000000000000000000000000000000000000000000000000000000000165afa908115610a19575f916109ea575b506001600160a01b03339116036109c257805f52600b60205260405f2054815f52600d60205260405f209182546106848161452e565b936106926040519586613eed565b818552601f196106a18361452e565b015f5b8181106109965750505f5b82811061090f57505050805f52600f60205260405f205f915f918054925b8381106108b65750601f196106fa6106e48661452e565b956106f26040519788613eed565b80875261452e565b015f5b81811061088a5750505f905f5b8481106107d757878787604051928392606084019084526060602085015281518091526020608085019201905f5b81811061079e575050508281036040840152602080835192838152019201905f5b818110610767575050500390f35b9193509160206040826107906001948851602080916001600160a01b0381511684520151910152565b019401910191849392610759565b919394509160206040826107c86001948851602080916001600160a01b0381511684520151910152565b01940191019185949392610738565b600190845f9997989952601060205260405f206107f482856147c9565b90549060031b1c5f526020526001600160a01b0360405f20541661081d575b019695949661070a565b845f52601060205260405f2061083382856147c9565b90549060031b1c5f5260205261088460405f2094610850816144b8565b95846040519161085f83613ed1565b6001600160a01b0381541683520154602082015261087d828c614b12565b5289614b12565b50610813565b604051969795966020919061089e81613ed1565b5f81525f8382015282828a01015201969594966106fd565b825f9795969752601060205260405f206108d082846147c9565b90549060031b1c5f526020526001600160a01b0360405f2054166108fb575b600101959493956106cd565b946109076001916144b8565b9590506108ef565b806001600160a01b0361092860019385999798996147c9565b90549060031b1c16865f52600c60205260405f206001600160a01b038061094f85886147c9565b90549060031b1c16165f5260205260405f20546040519161096f83613ed1565b825260208201526109808287614b12565b5261098b8186614b12565b5001949392946106af565b60405195969495602091906109aa81613ed1565b5f81525f8382015282828801015201959493956106a4565b7f30cd7471000000000000000000000000000000000000000000000000000000005f5260045ffd5b610a0c915060203d602011610a12575b610a048183613eed565b8101906144c6565b8261064e565b503d6109fa565b6040513d5f823e3d90fd5b3461004357602060031936011261004357610a57610a43600435614827565b604051918291602083526020830190613dbb565b0390f35b34610043576101806003193601126100435760043560443567ffffffffffffffff811161004357610a90903690600401613f62565b90610a99613e22565b91610aa2613e0c565b60a4359060c4359260e435926001600160a01b03841692838503610043576101043567ffffffffffffffff811161004357610ae1903690600401613e69565b9290956101243599610144359061016435976001600160a01b038916998a8a0361004357610b0d614b47565b610b168d614b80565b8342116104a25781156115a1578515611579576001600160a01b038716986001600160a01b038416948a8614611551578f8f908f8f909389928f958f90610b608f9236908c613f2c565b60208151910120916040519860208a019789895260408b015260608a0152608089015260a08801528960c088015260e0870152610100860152336101208601526101408501526101608401526101608352610bbd61018084613eed565b815f52600960205260405f20925190209260428354928360a01c956040519060208201927f5fd4fde1cb878824d6e96eec97296c9e818ad783a10b7c9ede6e7f27eca7b06b845260408301528760608301526007608083015260a082015260a08152610c2a60c082613eed565b519020610c356156e7565b90604051917f19010000000000000000000000000000000000000000000000000000000000008352600283015260228201522090816024350361047a57610c8a9261037d6001600160a01b0393928493615803565b16911603610452576bffffffffffffffffffffffff8214610425576001610cd892016001600160a01b0373ffffffffffffffffffffffffffffffffffffffff1983549260a01b169116179055565b831591821561150a578d5f52600b6020528660405f2054106114e2575b82156114665747955b8a15998a156113e85747935b85159384611239575b505f918291908715611232578b915b81604051928392833781018481520391855af191610d3e6144f2565b50611222575b50156111fa57811561117e5747905b88156110f857610d67610d6d9247976144e5565b956144e5565b94601486028681046014148715171561042557612710610d8f910480976144e5565b9b8c106110d05784116110a85715611036575050885f52600b602052610dba60405f209182546144e5565b90555b80610f01575b508415610e4c575015610e3c5750505f80809381935af1610de26144f2565b5015610e14575b7ffa44886bdf29041e45bda3924c838d5a6ed302e301c579f52acb4c3aa9aef77a5f80a36001600a55005b7f6d963f88000000000000000000000000000000000000000000000000000000005f5260045ffd5b610e47939250615368565b610de9565b92509092505f14610e77575050815f52600b602052610e7060405f20918254614521565b9055610de9565b835f52600e60205260405f20825f5260205260405f205415610eb6575b50825f52600c60205260405f20905f52602052610e7060405f20918254614521565b835f52600d60205260405f2054906001820180921161042557610efb91855f52600e60205260405f20845f5260205260405f2055845f52600d60205260405f206147de565b84610e94565b8215610f27575f8052600b602052610f1e60405f20918254614521565b90555b88610dc3565b5f8481527fe710864318d4a32f37d6ce54cb3fadbef648dd12d8dbdf53973564d56b7f881c602052604090205415610f9a575b5f8481527f13649b2456f1b42fef0f0040b3aaeabcd21a76a0f3f5defd4f583839455116e86020526040902080549091610f9391614521565b9055610f21565b5f8052600d6020527f81955a0a11e65eac625c29e8882660bae4e165a75d72780094acae8ece9a29ee5460018101908110610425575f8581527fe710864318d4a32f37d6ce54cb3fadbef648dd12d8dbdf53973564d56b7f881c602090815260408220929092558052600d9052611031827f81955a0a11e65eac625c29e8882660bae4e165a75d72780094acae8ece9a29ee6147de565b610f5a565b90918a5f52600c60205260405f20835f5260205261105960405f209182546144e5565b9055895f52600c60205260405f20825f5260205260405f20541561107f575b5050610dbd565b6110a1918a5f52600c60205260405f20905f526020525f604081205589615224565b8980611078565b7fdcc0d279000000000000000000000000000000000000000000000000000000005f5260045ffd5b7f8199f5f3000000000000000000000000000000000000000000000000000000005f5260045ffd5b6040517f70a082310000000000000000000000000000000000000000000000000000000081523060048201526020816024818e5afa908115610a19575f9161114a575b50610d6d92610d6791976144e5565b90506020813d602011611176575b8161116560209383613eed565b810103126100435751610d6d61113b565b3d9150611158565b6040517f70a08231000000000000000000000000000000000000000000000000000000008152306004820152602081602481885afa908115610a19575f916111c8575b5090610d53565b90506020813d6020116111f2575b816111e360209383613eed565b8101031261004357518f6111c1565b3d91506111d6565b7f03a40bc4000000000000000000000000000000000000000000000000000000005f5260045ffd5b61122c90866154ec565b8f610d44565b8291610d22565b6040517fdd62ed3e0000000000000000000000000000000000000000000000000000000081523060048201528160248201526020816044818d5afa8015610a19578c86918c935f916113a5575b505f809794819796946112f86112ea95602095611396575b604051968791878301947f095ea7b300000000000000000000000000000000000000000000000000000000865260248401602090939291936001600160a01b0360408201951681520152565b03601f198101875286613eed565b828551925af185513d82611377575b505015611319575b5050925090610d13565b61136a61137092604051907f095ea7b3000000000000000000000000000000000000000000000000000000006020830152602482015286604482015260448152611364606482613eed565b8d6155d1565b8b6155d1565b5f8061130f565b90915015861461138e57508b3b15155b5f80611307565b600114611387565b6113a083856154ec565b61129e565b95949693505050506020833d6020116113e0575b816113c660209383613eed565b8101031261004357915191929091899085908d905f611286565b3d91506113b9565b602460208d604051928380927f70a082310000000000000000000000000000000000000000000000000000000082523060048301525afa908115610a19575f91611434575b5093610d0a565b90506020813d60201161145e575b8161144f60209383613eed565b8101031261004357515f61142d565b3d9150611442565b6040517f70a08231000000000000000000000000000000000000000000000000000000008152306004820152602081602481895afa908115610a19575f916114b0575b5095610cfe565b90506020813d6020116114da575b816114cb60209383613eed565b8101031261004357515f6114a9565b3d91506114be565b7ffcc00b30000000000000000000000000000000000000000000000000000000005f5260045ffd5b8d5f52600c60205260405f20855f526020528660405f20541015610cf5575b7fe4455cae000000000000000000000000000000000000000000000000000000005f5260045ffd5b7f11157667000000000000000000000000000000000000000000000000000000005f5260045ffd5b7f1f2a2005000000000000000000000000000000000000000000000000000000005f5260045ffd5b7fd92e233d000000000000000000000000000000000000000000000000000000005f5260045ffd5b346100435760a06003193601126100435760043560443567ffffffffffffffff8111610043576115fd903690600401613f62565b906064359160843561160d614b47565b61161683614b80565b8042116104a25760405190602082019084825285604084015233606084015260808301526080825261164960a083613eed565b835f52600960205260405f20915190209181549060428260a01c9460405160208101917f5fd4fde1cb878824d6e96eec97296c9e818ad783a10b7c9ede6e7f27eca7b06b83528860408301528760608301526004608083015260a082015260a081526116b660c082613eed565b5190206116c16156e7565b90604051917f19010000000000000000000000000000000000000000000000000000000000008352600283015260228201522090816024350361047a576117169261037d6001600160a01b0393928493615803565b16911603610452576bffffffffffffffffffffffff821461042557600161176492016001600160a01b0373ffffffffffffffffffffffffffffffffffffffff1983549260a01b169116179055565b805f52600b60205260405f20546119de57805f52600d60205260405f20546119de57805f52600f60205260405f20546119de57805f52600b6020525f6040812055805f52600d60205260405f2080545f8255806119c4575b5050805f52600f60205260405f208054905f8155816119a6575b5050805f5260026020526001600160a01b0360405f20541615158061199f575b61197757805f52601460205260405f206118108154614167565b9081611934575b5050805f5260026020526001600160a01b0360405f20541680159081156118f0575b825f52600260205260405f2073ffffffffffffffffffffffffffffffffffffffff198154169055825f827fddf252ad1be2c89b69c2b068fc378daa952ba7f163c4a11628f55a4df523b3ef8280a4506118c557805f5260096020525f60408120557fceed1806179edada6c648f6c52838ceac0b9c18cf04e6fca0712bda6fcf82c185f80a36001600a55005b7f7e273289000000000000000000000000000000000000000000000000000000005f5260045260245ffd5b61191c835f52600460205260405f2073ffffffffffffffffffffffffffffffffffffffff198154169055565b805f52600360205260405f205f198154019055611839565b81601f5f931160011461194b5750555b8280611817565b8183526020832061196791601f0160051c8101906001016144a2565b8082528160208120915555611944565b7f8574adcf000000000000000000000000000000000000000000000000000000005f5260045ffd5b505f6117f6565b5f5260205f20908101905b818110156117d6575f81556001016119b1565b6119d7915f5260205f20908101906144a2565b82806117bc565b7f41963379000000000000000000000000000000000000000000000000000000005f5260045ffd5b3461004357608060031936011261004357611a1f613de0565b611a27613df6565b6064359167ffffffffffffffff831161004357611a4b610047933690600401613f62565b9160443591614621565b34610043576020600319360112610043576004355f5260026020526001600160a01b0360405f20541615611a8e57602060405160018152f35b7fb1d04f08000000000000000000000000000000000000000000000000000000005f5260045ffd5b34610043576020600319360112610043576004356040517f6352211e0000000000000000000000000000000000000000000000000000000081528160048201526020816024816001600160a01b037f0000000000000000000000000000000000000000000000000000000000000000165afa908115610a19575f91611b66575b506001600160a01b03339116036109c2575f52600960205260206001600160a01b0360405f205416604051908152f35b611b7f915060203d602011610a1257610a048183613eed565b82611b36565b3461004357604060031936011261004357611b9e613de0565b60243590811515809203610043576001600160a01b0316908115611c2b57335f52600560205260405f20825f5260205260405f207fffffffffffffffffffffffffffffffffffffffffffffffffffffffffffffff0081541660ff83161790556040519081527f17307eab39ab6107e8899845ad3d59bd9653f200f220920489ca2b5937696c3160203392a3005b507f5b08ba18000000000000000000000000000000000000000000000000000000005f5260045260245ffd5b3461004357611c6536613fae565b90969591939294611c74614b47565b611c7d87614b80565b6001600160a01b03851680156115a1573014611f7c578142116104a25760408051602081018981526001600160a01b038088169383019390935260608201899052918716608082015260a081018a90523360c082015260e0810193909352611cf38361010081015b03601f198101855284613eed565b875f52600960205260405f20925190209282549160428360a01c9560405160208101917f5fd4fde1cb878824d6e96eec97296c9e818ad783a10b7c9ede6e7f27eca7b06b83528c60408301528860608301526003608083015260a082015260a08152611d6060c082613eed565b519020611d6b6156e7565b90604051917f19010000000000000000000000000000000000000000000000000000000000008352600283015260228201522080920361047a57611dbd9261037d6001600160a01b0393928493615803565b16911603610452576bffffffffffffffffffffffff8214610425576001611e0b92016001600160a01b0373ffffffffffffffffffffffffffffffffffffffff1983549260a01b169116179055565b604051606082901b7fffffffffffffffffffffffffffffffffffffffff00000000000000000000000016602082019081526034820185905290611e5b81605481015b03601f198101835282613eed565b51902090845f52601060205260405f20825f526020526001600160a01b0360405f20541615611f5457611eb46001600160a01b0392865f52601060205260405f20815f526020525f600160408220828155015586615402565b1691823b15610043576040517f42842e0e0000000000000000000000000000000000000000000000000000000081523060048201526001600160a01b039290921660248301526044820152905f908290606490829084905af18015610a1957611f44575b507f06f0d08c652a32f118304f762c3f388848b7653f7df433f67a48aa734675f0135f80a36001600a55005b5f611f4e91613eed565b82611f18565b7ff070cb6f000000000000000000000000000000000000000000000000000000005f5260045ffd5b7f9c8d2cd2000000000000000000000000000000000000000000000000000000005f5260045ffd5b34610043575f600319360112610043576040515f600154611fc481614167565b808452906001811690811561204a5750600114611fec575b610a5783610a4381850382613eed565b60015f9081527fb10e2d527612073b26eecdfd717e6a320cf44b4afac2b0732d9fcbe2b7fa0cf6939250905b80821061203057509091508101602001610a43611fdc565b919260018160209254838588010152019101909291612018565b7fffffffffffffffffffffffffffffffffffffffffffffffffffffffffffffff001660208086019190915291151560051b84019091019150610a439050611fdc565b346100435760206003193601126100435760043567ffffffffffffffff8111610043576120bd903690600401613f62565b6120c56153c2565b6013546120d181614167565b6122765781519067ffffffffffffffff8211612249576120f090614167565b601f81116121b2575b50602091601f821160011461213757612127925f918361212c575b50505f198260011b9260031b1c19161790565b601355005b015190508380612114565b601f1982169260135f527f66de8ffda797e3de9c05e8fc57b3bf0ec28a930d40b0d285d93c06501cf6a090915f5b85811061219a57508360019510612182575b505050811b01601355005b01515f1960f88460031b161c19169055828080612177565b91926020600181928685015181550194019201612165565b61221b9060135f52601f830160051c7f66de8ffda797e3de9c05e8fc57b3bf0ec28a930d40b0d285d93c06501cf6a090019060208410612221575b601f0160051c7f66de8ffda797e3de9c05e8fc57b3bf0ec28a930d40b0d285d93c06501cf6a09001906144a2565b826120f9565b7f66de8ffda797e3de9c05e8fc57b3bf0ec28a930d40b0d285d93c06501cf6a09091506121ed565b7f4e487b71000000000000000000000000000000000000000000000000000000005f52604160045260245ffd5b7fe8cba6d8000000000000000000000000000000000000000000000000000000005f5260045ffd5b34610043576101606003193601126100435760443567ffffffffffffffff8111610043576122d0903690600401613f62565b60643560843567ffffffffffffffff8111610043576122f3903690600401613e38565b909160a43567ffffffffffffffff811161004357612315903690600401613e38565b9360c43567ffffffffffffffff811161004357612336903690600401613e38565b92909160e43567ffffffffffffffff811161004357612359903690600401613e38565b96909761010435966001600160a01b0388169081890361004357610124359b61014435612384614b47565b61238f600435614b80565b83156115a1578042116104a25784861480159061293d575b6129155782868f8f938f948b958f8f908f8d6040519a8b9960208b019b6004358d5260408c015260608b0161014090526101608b01906123e692614546565b90898203601f190160808b01526123fc92614593565b90878203601f190160a089015261241292614546565b90858203601f190160c087015261242892614593565b918860e08501526101008401523361012084015261014083015203601f19810183526124549083613eed565b6004355f52600960205260405f2091519020918154908160a01c9360405160208101917f5fd4fde1cb878824d6e96eec97296c9e818ad783a10b7c9ede6e7f27eca7b06b83526004356040830152866060830152608082016006905260a082015260a081526124c460c082613eed565b5190206124cf6156e7565b90604051917f19010000000000000000000000000000000000000000000000000000000000008352600283015260228201526042902090816024350361047a576125279261037d6001600160a01b0393928493615803565b16911603610452576bffffffffffffffffffffffff821461042557600161257592016001600160a01b0373ffffffffffffffffffffffffffffffffffffffff1983549260a01b169116179055565b806128c7575b50506004355f52600c60205260405f20915f5b81811061287657505f5b8181106127e3575050505050505f5b82811061274557505f5b8281106125e757866004357f06f0d08c652a32f118304f762c3f388848b7653f7df433f67a48aa734675f0135f80a36001600a55005b6125fa6125f58285856145d0565b61460d565b611e4d61264d61260b84898b6145d0565b3560405192839160208301958690917fffffffffffffffffffffffffffffffffffffffff00000000000000000000000060349360601b16825260148201520190565b5190206004355f52601060205260405f20815f526020526001600160a01b0360405f20541615611f54576126a3906004355f52601060205260405f20815f526020525f6001604082208281550155600435615402565b6001600160a01b036126b96125f58386866145d0565b16906126c68187896145d0565b3591803b15610043576040517f42842e0e0000000000000000000000000000000000000000000000000000000081523060048201526001600160a01b038716602482015260448101939093525f908390606490829084905af1918215610a1957600192612735575b50016125b1565b5f61273f91613eed565b8861272e565b600181019081811161042557815b8481106127615750506125a7565b61276f6125f58387876145d0565b6001600160a01b03806127866125f5858a8a6145d0565b16911614806127c4575b61279c57600101612753565b7f357d0cc4000000000000000000000000000000000000000000000000000000005f5260045ffd5b506127d082888a6145d0565b356127dc82898b6145d0565b3514612790565b6127f16125f58284886145d0565b906127fd8185896145d0565b356001600160a01b0383165f528560205260405f205490808210611529576001600160a01b038481165f9081526020899052604090208284039055600194612850938e9291908414612856575b16615368565b01612598565b8181165f52896020525f604081205561287181600435615224565b61284a565b600181019081811161042557815b83811061289257505061258e565b6128a06125f583868a6145d0565b6001600160a01b03806128b76125f585898d6145d0565b1691161461279c57600101612884565b6004355f52600b60205260405f2054918183106114e2575f828194926128ef839584956144e5565b6004358452600b60205260408420555af16129086144f2565b5015610e14578a8061257b565b7f469224f0000000000000000000000000000000000000000000000000000000005f5260045ffd5b508b8a14156123a7565b34610043575f6003193601126100435760206001600160a01b0360065416604051908152f35b34610043575f60031936011261004357612a256129a97f000000000000000000000000000000000000000000000000000000000000000061563e565b6129d27f00000000000000000000000000000000000000000000000000000000000000006156b0565b6020612a33604051926129e58385613eed565b5f84525f3681376040519586957f0f00000000000000000000000000000000000000000000000000000000000000875260e08588015260e0870190613dbb565b908582036040870152613dbb565b4660608501523060808501525f60a085015283810360c08501528180845192838152019301915f5b828110612a6a57505050500390f35b835185528695509381019392810192600101612a5b565b3461004357612a8f36614019565b939291612a9a614b47565b336001600160a01b03851603612b9b576001600160a01b03831615612b73576001600160a01b03811615612b4b57612af0612af693612aeb95601254968792612ae2846144b8565b60125583614cc7565b614d3e565b83615062565b7f032bc66be43dbccb7487781d168eb7bda224628a3b2c3388bdf69b532a3a16116020604051838152a17f4fd35fc7cab0142e2b2e81414dbd72945bc0ae0131a46c03bd8c7073234817805f80a36001600a55005b7f6b093aad000000000000000000000000000000000000000000000000000000005f5260045ffd5b7ffbd849c6000000000000000000000000000000000000000000000000000000005f5260045ffd5b7fbaee6e49000000000000000000000000000000000000000000000000000000005f5260045ffd5b3461004357612bd136614019565b939291612bdc614b47565b336001600160a01b03851603612b9b576001600160a01b03831615612b73576001600160a01b03811615612b4b57811561157957612c2a612af693612aeb95601254968792612ae2846144b8565b83614e71565b34610043575f60031936011261004357612c486153c2565b5f6001600160a01b0360065473ffffffffffffffffffffffffffffffffffffffff198116600655167f8be0079c531659141344cd1fd0a4f28419497f9722a3daafe3b4186f6b6457e08280a3005b34610043576020600319360112610043576001600160a01b03612cb7613de0565b168015612cd4575f526003602052602060405f2054604051908152f35b7f89c62b64000000000000000000000000000000000000000000000000000000005f525f60045260245ffd5b604060031936011261004357600435612d17614b47565b612d2081614b80565b341561157957805f52600b60205260405f20612d3d348254614521565b9055602435907f0131d4fe789c9eeb7c2dd7e32aa9393d395bef62f1f67e0ba2a76d33c6dcf5ee5f80a36001600a55005b34610043576020600319360112610043576020612d8c600435614b26565b6001600160a01b0360405191168152f35b3461004357612dab36613fae565b90969591929394612dba614b47565b612dc387614b80565b6001600160a01b038416156115a1578142116104a25760408051602081018981526001600160a01b03808a169383019390935260608201889052918616608082015260a081018a90523360c082015260e0810193909352612e28836101008101611ce5565b875f52600960205260405f20925190209282549160428360a01c9560405160208101917f5fd4fde1cb878824d6e96eec97296c9e818ad783a10b7c9ede6e7f27eca7b06b83528c60408301528860608301526002608083015260a082015260a08152612e9560c082613eed565b519020612ea06156e7565b90604051917f19010000000000000000000000000000000000000000000000000000000000008352600283015260228201522080920361047a57612ef29261037d6001600160a01b0393928493615803565b16911603610452576bffffffffffffffffffffffff8214610425576001612f4092016001600160a01b0373ffffffffffffffffffffffffffffffffffffffff1983549260a01b169116179055565b835f52600c60205260405f20926001600160a01b0381165f528360205260405f205490838210611529576001600160a01b038181165f9081526020879052604090208584039055612f9b9590928514612fc6575b5016615368565b7f06f0d08c652a32f118304f762c3f388848b7653f7df433f67a48aa734675f0135f80a36001600a55005b8282165f526020525f6040812055612fde8187615224565b87612f94565b606060031936011261004357612ff8613de0565b613000613df6565b90613009614b47565b336001600160a01b03821603612b9b576001600160a01b03821615612b7357341561157957612aeb9161304591601254938492612ae2846144b8565b805f52600b60205260405f2061305c348254614521565b90557f032bc66be43dbccb7487781d168eb7bda224628a3b2c3388bdf69b532a3a16116020604051838152a1604435907f4fd35fc7cab0142e2b2e81414dbd72945bc0ae0131a46c03bd8c7073234817805f80a36001600a55005b34610043575f60031936011261004357602060405160148152f35b346100435760e06003193601126100435760043560443567ffffffffffffffff811161004357613106903690600401613f62565b90606435613112613e0c565b9060a435936001600160a01b0360c4359361312b614b47565b61313486614b80565b169283156115a1578042116104a2576040519060208201908682528460408401528560608401528760808401523360a084015260c083015260c0825261317b60e083613eed565b855f52600960205260405f20915190209181549060428260a01c9460405160208101917f5fd4fde1cb878824d6e96eec97296c9e818ad783a10b7c9ede6e7f27eca7b06b83528a60408301528760608301526001608083015260a082015260a081526131e860c082613eed565b5190206131f36156e7565b90604051917f19010000000000000000000000000000000000000000000000000000000000008352600283015260228201522090816024350361047a576132489261037d6001600160a01b0393928493615803565b16911603610452576bffffffffffffffffffffffff821461042557600161329692016001600160a01b0373ffffffffffffffffffffffffffffffffffffffff1983549260a01b169116179055565b825f52600b60205260405f2054918183106114e2575f828194926132bc839584956144e5565b878452600b60205260408420555af16132d36144f2565b5015610e14577f06f0d08c652a32f118304f762c3f388848b7653f7df433f67a48aa734675f0135f80a36001600a55005b346100435761331236613f80565b92919061331d614b47565b61332683614b80565b6001600160a01b038216156115a15761333f9183615062565b7f0131d4fe789c9eeb7c2dd7e32aa9393d395bef62f1f67e0ba2a76d33c6dcf5ee5f80a36001600a55005b346100435761337836613f80565b929190613383614b47565b61338c83614b80565b6001600160a01b038216156115a15780156115795761333f9183614e71565b34610043576100476133bc36613e97565b90604051926133cc602085613eed565b5f8452614621565b34610043576020600319360112610043576004356040517f6352211e0000000000000000000000000000000000000000000000000000000081528160048201526020816024816001600160a01b037f0000000000000000000000000000000000000000000000000000000000000000165afa908115610a19575f9161347e575b506001600160a01b03339116036109c2575f526009602052602060405f205460a01c604051908152f35b613497915060203d602011610a1257610a048183613eed565b82613454565b610100600319360112610043576134b2613de0565b6134ba613df6565b60443560643567ffffffffffffffff8111610043576134dd903690600401613e38565b60849291923567ffffffffffffffff811161004357613500903690600401613e38565b60a49291923567ffffffffffffffff811161004357613523903690600401613e38565b93909260c43567ffffffffffffffff811161004357613546903690600401613e38565b979096613551614b47565b336001600160a01b038c1603612b9b576001600160a01b038a1615612b735784831480159061364f575b613627578034036135ff576135a06135a69a612aeb9c6012549d8e92612ae2846144b8565b8a614c1e565b7f032bc66be43dbccb7487781d168eb7bda224628a3b2c3388bdf69b532a3a16116020604051838152a160e435907f4fd35fc7cab0142e2b2e81414dbd72945bc0ae0131a46c03bd8c7073234817805f80a36001600a55005b7f42c0a68f000000000000000000000000000000000000000000000000000000005f5260045ffd5b7fa24a13a6000000000000000000000000000000000000000000000000000000005f5260045ffd5b508887141561357b565b346100435760c06003193601126100435760043560443567ffffffffffffffff81116100435761368d903690600401613f62565b60643567ffffffffffffffff8111610043576136ad903690600401613f62565b916084359160a4356136bd614b47565b825f5260026020526001600160a01b0360405f20541615611a8e576136e183614b26565b6001600160a01b03339116036109c2578042116104a2576040519061373c82602081019286845260a0604083015261371c60c083018a613dbb565b9088606084015233608084015260a083015203601f198101845283613eed565b835f52600960205260405f20915190209181549060428260a01c9460405160208101917f5fd4fde1cb878824d6e96eec97296c9e818ad783a10b7c9ede6e7f27eca7b06b83528860408301528760608301526005608083015260a082015260a081526137a960c082613eed565b5190206137b46156e7565b90604051917f19010000000000000000000000000000000000000000000000000000000000008352600283015260228201522090816024350361047a576138099261037d6001600160a01b0393928493615803565b16911603610452576bffffffffffffffffffffffff821461042557600161385792016001600160a01b0373ffffffffffffffffffffffffffffffffffffffff1983549260a01b169116179055565b805f52601460205260405f20835167ffffffffffffffff81116122495761387e8254614167565b601f8111613952575b50602094601f82116001146138f1576138b89293949582915f926138e65750505f198260011b9260031b1c19161790565b90555b7fe6b029312a4fe660620d9aac173bc78279912103135fdd45fcb95684efee4bd65f80a36001600a55005b015190508680612114565b601f19821695835f52805f20915f5b88811061393a57508360019596979810613922575b505050811b0190556138bb565b01515f1960f88460031b161c19169055858080613915565b91926020600181928685015181550194019201613900565b61397d90835f5260205f20601f840160051c81019160208510613983575b601f0160051c01906144a2565b85613887565b9091508190613970565b34610043575f6003193601126100435760206040515f8152f35b34610043576100476139b836613e97565b91614258565b34610043576080600319360112610043576139d7613de0565b506139e0613df6565b5060643567ffffffffffffffff811161004357613a01903690600401613e69565b505060206040517f150b7a02000000000000000000000000000000000000000000000000000000008152f35b60e06003193601126100435760043560243560443567ffffffffffffffff811161004357613a5f903690600401613e38565b9060643567ffffffffffffffff811161004357613a80903690600401613e38565b9060843567ffffffffffffffff811161004357613aa1903690600401613e38565b92909160a43567ffffffffffffffff811161004357613ac4903690600401613e38565b969095613acf614b47565b881580613b73575b80613b6b575b61157957613aea8a614b80565b883403613b4357838214801590613b39575b61291557613b0a988a614c1e565b60c435907f0131d4fe789c9eeb7c2dd7e32aa9393d395bef62f1f67e0ba2a76d33c6dcf5ee5f80a36001600a55005b5087861415613afc565b7fcfb73638000000000000000000000000000000000000000000000000000000005f5260045ffd5b508515613add565b508115613ad7565b3461004357604060031936011261004357613b94613de0565b602435613ba081614b26565b33151580613c7a575b80613c47575b613c1b5781906001600160a01b0380851691167f8c5be1e5ebec7d5bd14f71427d1e84f3dd0314c0f7b2291e5b200ac8c7c3b9255f80a45f5260046020526001600160a01b0360405f20911673ffffffffffffffffffffffffffffffffffffffff198254161790555f80f35b7fa9fbf51f000000000000000000000000000000000000000000000000000000005f523360045260245ffd5b506001600160a01b0381165f52600560205260405f206001600160a01b0333165f5260205260ff60405f20541615613baf565b50336001600160a01b0382161415613ba9565b3461004357602060031936011261004357600435613caa81614b26565b505f52600460205260206001600160a01b0360405f205416604051908152f35b34610043575f600319360112610043576040515f5f54613ce981614167565b808452906001811690811561204a5750600114613d1057610a5783610a4381850382613eed565b5f8080527f290decd9548b62a8d60345a988386fc84ba6bc95484008f6362f93160ef3e563939250905b808210613d5257509091508101602001610a43611fdc565b919260018160209254838588010152019101909291613d3a565b3461004357602060031936011261004357600435907fffffffff000000000000000000000000000000000000000000000000000000008216820361004357613db560209261406b565b15158152f35b90601f19601f602080948051918291828752018686015e5f8582860101520116010190565b600435906001600160a01b038216820361004357565b602435906001600160a01b038216820361004357565b608435906001600160a01b038216820361004357565b606435906001600160a01b038216820361004357565b9181601f840112156100435782359167ffffffffffffffff8311610043576020808501948460051b01011161004357565b9181601f840112156100435782359167ffffffffffffffff8311610043576020838186019501011161004357565b6003196060910112610043576004356001600160a01b038116810361004357906024356001600160a01b0381168103610043579060443590565b6040810190811067ffffffffffffffff82111761224957604052565b90601f601f19910116810190811067ffffffffffffffff82111761224957604052565b67ffffffffffffffff811161224957601f01601f191660200190565b929192613f3882613f10565b91613f466040519384613eed565b829481845281830111610043578281602093845f960137010152565b9080601f8301121561004357816020613f7d93359101613f2c565b90565b600319608091011261004357600435906024356001600160a01b038116810361004357906044359060643590565b6101006003198201126100435760043591602435916044359067ffffffffffffffff821161004357613fe291600401613f62565b906064356001600160a01b038116810361004357906084359060a4356001600160a01b0381168103610043579060c4359060e43590565b60031960a0910112610043576004356001600160a01b038116810361004357906024356001600160a01b038116810361004357906044356001600160a01b038116810361004357906064359060843590565b7fffffffff00000000000000000000000000000000000000000000000000000000167fb45a3c0e000000000000000000000000000000000000000000000000000000008114614161577f150b7a02000000000000000000000000000000000000000000000000000000008114614161577f80ac58cd000000000000000000000000000000000000000000000000000000008114908115614137575b8115614110575090565b7f01ffc9a70000000000000000000000000000000000000000000000000000000091501490565b7f5b5e139f0000000000000000000000000000000000000000000000000000000081149150614106565b50600190565b90600182811c921680156141ae575b602083101461418157565b7f4e487b71000000000000000000000000000000000000000000000000000000005f52602260045260245ffd5b91607f1691614176565b5f92918154916141c783614167565b808352926001811690811561421c57506001146141e357505050565b5f9081526020812093945091925b838310614202575060209250010190565b6001816020929493945483858701015201910191906141f1565b905060209495507fffffffffffffffffffffffffffffffffffffffffffffffffffffffffffffff0091509291921683830152151560051b010190565b91906001600160a01b0316801561447657815f5260026020526001600160a01b0360405f20541615158061446e575b61197757815f5260026020526001600160a01b0360405f205416928233151592836143a0575b6001600160a01b0393508561435c575b805f52600360205260405f2060018154019055815f52600260205260405f208173ffffffffffffffffffffffffffffffffffffffff19825416179055857fddf252ad1be2c89b69c2b068fc378daa952ba7f163c4a11628f55a4df523b3ef5f80a41680830361432b57505050565b7f64283d7b000000000000000000000000000000000000000000000000000000005f5260045260245260445260645ffd5b614388825f52600460205260405f2073ffffffffffffffffffffffffffffffffffffffff198154169055565b855f52600360205260405f205f1981540190556142bd565b9192905080614417575b156143b7578282916142ad565b82846143e8577f7e273289000000000000000000000000000000000000000000000000000000005f5260045260245ffd5b7f177e802f000000000000000000000000000000000000000000000000000000005f523360045260245260445ffd5b503384148015614445575b806143aa5750825f526004602052336001600160a01b0360405f205416146143aa565b50835f52600560205260405f206001600160a01b0333165f5260205260ff60405f205416614422565b506001614287565b7f64a0ae92000000000000000000000000000000000000000000000000000000005f525f60045260245ffd5b8181106144ad575050565b5f81556001016144a2565b5f1981146104255760010190565b9081602091031261004357516001600160a01b03811681036100435790565b9190820391821161042557565b3d1561451c573d9061450382613f10565b916145116040519384613eed565b82523d5f602084013e565b606090565b9190820180921161042557565b67ffffffffffffffff81116122495760051b60200190565b916020908281520191905f905b8082106145605750505090565b9091928335906001600160a01b038216820361004357602080916001600160a01b03600194168152019401920190614553565b90918281527f07ffffffffffffffffffffffffffffffffffffffffffffffffffffffffffffff83116100435760209260051b809284830137010190565b91908110156145e05760051b0190565b7f4e487b71000000000000000000000000000000000000000000000000000000005f52603260045260245ffd5b356001600160a01b03811681036100435790565b9061462d838284614258565b803b61463a575b50505050565b6020916146996001600160a01b038093169560405195869485947f150b7a020000000000000000000000000000000000000000000000000000000086523360048701521660248501526044840152608060648401526084830190613dbb565b03815f865af15f918161476c575b506146ee57506146b56144f2565b805190816146e957827f64a0ae92000000000000000000000000000000000000000000000000000000005f5260045260245ffd5b602001fd5b7fffffffff000000000000000000000000000000000000000000000000000000007f150b7a020000000000000000000000000000000000000000000000000000000091160361474157505f808080614634565b7f64a0ae92000000000000000000000000000000000000000000000000000000005f5260045260245ffd5b9091506020813d6020116147c1575b8161478860209383613eed565b8101031261004357517fffffffff000000000000000000000000000000000000000000000000000000008116810361004357905f6146a7565b3d915061477b565b80548210156145e0575f5260205f2001905f90565b90815491680100000000000000008310156122495782614806916001614825950181556147c9565b9091906001600160a01b038084549260031b9316831b921b1916179055565b565b805f5260026020526001600160a01b0360405f20541615611a8e57805f52601460205261486061486760405f20604051928380926141b8565b0382613eed565b8051614b0d575060135461487a81614167565b6148a6577f8714d516000000000000000000000000000000000000000000000000000000005f5260045ffd5b81825f937a184f03e93ff9f4daa797ed6e38ed64bf6a1f010000000000000000811015614ae2575b50806d04ee2d6d415b85acef8100000000600a921015614ac7575b662386f26fc10000811015614ab3575b6305f5e100811015614aa2575b612710811015614a93575b6064811015614a85575b1015614a7b575b6001830190600a5f19602161494f61493986613f10565b956149476040519788613eed565b808752613f10565b96601f196020870198013689378501015b01917f30313233343536373839616263646566000000000000000000000000000000008282061a835304801561499b575f19600a9192614960565b50506040519283915f906149ae85614167565b9460018116908115614a3d57506001146149df575b613f7d9450518092825e015f815203601f198101835282613eed565b905060135f527f66de8ffda797e3de9c05e8fc57b3bf0ec28a930d40b0d285d93c06501cf6a090935f5b818110614a215750613f7d94508301602001906149c3565b8554602082890181019190915260019096019587955001614a09565b6020929350613f7d9691507fffffffffffffffffffffffffffffffffffffffffffffffffffffffffffffff00168286015280151502840101906149c3565b9160010191614922565b60646002910494019361491b565b61271060049104940193614911565b6305f5e10060089104940193614906565b662386f26fc10000601091049401936148f9565b6d04ee2d6d415b85acef8100000000602091049401936148e9565b604094507a184f03e93ff9f4daa797ed6e38ed64bf6a1f01000000000000000090049050600a6148ce565b905090565b80518210156145e05760209160051b010190565b805f5260026020526001600160a01b0360405f2054169081156118c5575090565b6002600a5414614b58576002600a55565b7f3ee5aeb5000000000000000000000000000000000000000000000000000000005f5260045ffd5b604051907f6352211e00000000000000000000000000000000000000000000000000000000825260048201526020816024816001600160a01b037f0000000000000000000000000000000000000000000000000000000000000000165afa908115610a19575f91614bff575b506001600160a01b03339116036109c257565b614c18915060203d602011610a1257610a048183613eed565b5f614bec565b9796949193929098959880614ca8575b505f5b818110614c7b5750505050505f5b818110614c4e57505050505050565b80614c75614c626125f5600194868b6145d0565b614c6d8387896145d0565b359088615062565b01614c3f565b80614ca2614c8f6125f5600194868a6145d0565b614c9a8387896145d0565b35908c614e71565b01614c31565b885f52600b602052614cbf60405f20918254614521565b90555f614c2e565b90815f5260096020526001600160a01b0360405f205416614d16575f918252600960205260409091206001600160a01b0390911674010000000000000000000000000000000000000000179055565b7f0dc149f0000000000000000000000000000000000000000000000000000000005f5260045ffd5b6001600160a01b031690811561447657805f5260026020526001600160a01b0360405f205416151580614e69575b61197757805f5260026020526001600160a01b0360405f205416908115159283614e25575b805f52600360205260405f2060018154019055815f52600260205260405f208173ffffffffffffffffffffffffffffffffffffffff19825416179055827fddf252ad1be2c89b69c2b068fc378daa952ba7f163c4a11628f55a4df523b3ef5f80a450614df957565b7f73c6ac6e000000000000000000000000000000000000000000000000000000005f525f60045260245ffd5b614e51825f52600460205260405f2073ffffffffffffffffffffffffffffffffffffffff198154169055565b825f52600360205260405f205f198154019055614d91565b506001614d6c565b6040517f70a0823100000000000000000000000000000000000000000000000000000000815230600482015291926001600160a01b0384169290602082602481875afa918215610a19575f9261502c575b506040517f23b872dd0000000000000000000000000000000000000000000000000000000060208201523360248201523060448201526064810191909152614f1790614f118160848101611e4d565b846155d1565b604051907f70a08231000000000000000000000000000000000000000000000000000000008252306004830152602082602481875afa8015610a19575f90614ff8575b614f6492506144e5565b92831561157957815f52600e60205260405f20835f5260205260405f205415614fad575b505f52600c60205260405f20905f52602052614fa960405f20918254614521565b9055565b815f52600d60205260405f2054906001820180921161042557614ff291835f52600e60205260405f20855f5260205260405f2055825f52600d60205260405f206147de565b5f614f88565b506020823d602011615024575b8161501260209383613eed565b8101031261004357614f649151614f5a565b3d9150615005565b9091506020813d60201161505a575b8161504860209383613eed565b81010312610043575190611e4d614ec2565b3d915061503b565b9060405160208101906150aa81611e4d87868690917fffffffffffffffffffffffffffffffffffffffff00000000000000000000000060349360601b16825260148201520190565b51902091805f52601060205260405f20835f526020526001600160a01b0360405f205416156151a0575b6001906001600160a01b03604051936150ec85613ed1565b169384845260208401918683525f52601060205260405f20905f526020526001600160a01b038060405f209451161673ffffffffffffffffffffffffffffffffffffffff1984541617835551910155803b15610043576040517f42842e0e00000000000000000000000000000000000000000000000000000000815233600482015230602482015260448101929092525f908290606490829084905af18015610a19576151965750565b5f61482591613eed565b805f52600f60205260405f20546001810180911161042557815f52601160205260405f20845f5260205260405f2055805f52600f60205260405f2090815491680100000000000000008310156122495761521b615205848793600180970181556147c9565b81939154905f199060031b92831b921b19161790565b905590506150d4565b805f52600e60205260405f206001600160a01b0383165f5260205260405f2054801561536357815f52600d60205260405f20548082036152e6575b5050805f52600d60205260405f20805480156152b9575f19019061528382826147c9565b6001600160a01b0382549160031b1b19169055555f52600e6020526001600160a01b0360405f2091165f526020525f6040812055565b7f4e487b71000000000000000000000000000000000000000000000000000000005f52603160045260245ffd5b825f52600d60205260405f205f198201918211610425576001600160a01b039161530f916147c9565b90549060031b1c16825f52600d60205260405f205f19830183811161042557614806839161533c936147c9565b825f52600e6020526001600160a01b0360405f2091165f5260205260405f20555f8061525f565b505050565b6040517fa9059cbb0000000000000000000000000000000000000000000000000000000060208201526001600160a01b03929092166024830152604480830193909352918152614825916153bd606483613eed565b6155d1565b6001600160a01b036006541633036153d657565b7f118cdaa7000000000000000000000000000000000000000000000000000000005f523360045260245ffd5b805f52601160205260405f20825f5260205260405f2054801561536357815f52600f60205260405f205480820361547f575b5050805f52600f60205260405f20805480156152b9575f19019061545882826147c9565b5f1982549160031b1b19169055555f52601160205260405f20905f526020525f6040812055565b825f52600f60205260405f20905f198101908111610425576154a0916147c9565b90549060031b1c825f52600f60205260405f205f198301838111610425576152056154cc9184936147c9565b9055825f52601160205260405f20905f5260205260405f20555f80615434565b6040519060205f6001600160a01b03828501957f095ea7b300000000000000000000000000000000000000000000000000000000875216948560248601528160448601526044855261553f606486613eed565b84519082855af15f513d826155ac575b50501561555b57505050565b6153bd61482593604051907f095ea7b300000000000000000000000000000000000000000000000000000000602083015260248201525f6044820152604481526155a6606482613eed565b826155d1565b9091506155c957506001600160a01b0381163b15155b5f8061554f565b6001146155c2565b905f602091828151910182855af115610a19575f513d61563557506001600160a01b0381163b155b6156005750565b6001600160a01b03907f5274afe7000000000000000000000000000000000000000000000000000000005f521660045260245ffd5b600114156155f9565b60ff811461569d5760ff811690601f82116156755760405191615662604084613eed565b6020808452838101919036833783525290565b7fb3512b0c000000000000000000000000000000000000000000000000000000005f5260045ffd5b50604051613f7d816148608160076141b8565b60ff81146156d45760ff811690601f82116156755760405191615662604084613eed565b50604051613f7d816148608160086141b8565b6001600160a01b037f0000000000000000000000000000000000000000000000000000000000000000163014806157da575b15615742577f000000000000000000000000000000000000000000000000000000000000000090565b60405160208101907f8b73c3c69bb8fe3d512ecc4cf759cc79239f7b179b0ffacaa9a75d522b39400f82527f000000000000000000000000000000000000000000000000000000000000000060408201527f000000000000000000000000000000000000000000000000000000000000000060608201524660808201523060a082015260a081526157d460c082613eed565b51902090565b507f00000000000000000000000000000000000000000000000000000000000000004614615719565b81519190604183036158335761582c9250602082015190606060408401519301515f1a90615915565b9192909190565b50505f9160029190565b60048110156158e8578061584f575050565b6001810361587f577ff645eedf000000000000000000000000000000000000000000000000000000005f5260045ffd5b600281036158b357507ffce698f7000000000000000000000000000000000000000000000000000000005f5260045260245ffd5b6003146158bd5750565b7fd78bce0c000000000000000000000000000000000000000000000000000000005f5260045260245ffd5b7f4e487b71000000000000000000000000000000000000000000000000000000005f52602160045260245ffd5b91907f7fffffffffffffffffffffffffffffff5d576e7357a4501ddfe92f46681b20a0841161598c579160209360809260ff5f9560405194855216868401526040830152606082015282805260015afa15610a19575f516001600160a01b0381161561598257905f905f90565b505f906001905f90565b5050505f916003919056fea2646970667358221220256bbeed109fb8baea2c78670fb79a038511ec764b5898c7e6b9c2eb7f6bcde064736f6c634300081e0033","linkReferences":{}},"methodIdentifiers":{"SWAP_FEE_BP()":"53861f14","TREASURY_LOCKBOX_ID()":"2ca7bc80","approve(address,uint256)":"095ea7b3","balanceOf(address)":"70a08231","batchDeposit(uint256,uint256,address[],uint256[],address[],uint256[],bytes32)":"0db54256","batchWithdraw(uint256,bytes32,bytes,uint256,address[],uint256[],address[],uint256[],address,bytes32,uint256)":"8f93f31b","burnLockbox(uint256,bytes32,bytes,bytes32,uint256)":"bb4ffa10","createLockboxWithBatch(address,address,uint256,address[],uint256[],address[],uint256[],bytes32)":"3b0320b0","createLockboxWithERC20(address,address,address,uint256,bytes32)":"748917dd","createLockboxWithERC721(address,address,address,uint256,bytes32)":"75463c4a","createLockboxWithETH(address,address,bytes32)":"5e4ed95d","depositERC20(uint256,address,uint256,bytes32)":"486c4b7f","depositERC721(uint256,address,uint256,bytes32)":"4d8af09e","depositETH(uint256,bytes32)":"65cd69a1","eip712Domain()":"84b0196e","getActiveLockboxPublicKeyForToken(uint256)":"aea5cf30","getApproved(uint256)":"081812fc","getFullLockbox(uint256)":"e124a17c","getNonce(uint256)":"3d46b819","isApprovedForAll(address,address)":"e985e9c5","locked(uint256)":"b45a3c0e","name()":"06fdde03","onERC721Received(address,address,uint256,bytes)":"150b7a02","owner()":"8da5cb5b","ownerOf(uint256)":"6352211e","renounceOwnership()":"715018a6","rotateLockboxKey(uint256,bytes32,bytes,address,bytes32,uint256)":"f3eb9a16","safeTransferFrom(address,address,uint256)":"42842e0e","safeTransferFrom(address,address,uint256,bytes)":"b88d4fde","setApprovalForAll(address,bool)":"a22cb465","setDefaultMetadataURI(string)":"95480879","setTokenMetadataURI(uint256,bytes32,bytes,string,bytes32,uint256)":"2dbf9be6","supportsInterface(bytes4)":"01ffc9a7","swapInLockbox(uint256,bytes32,bytes,address,address,uint256,uint256,address,bytes,bytes32,uint256,address)":"bd1ca785","symbol()":"95d89b41","tokenURI(uint256)":"c87b56dd","transferFrom(address,address,uint256)":"23b872dd","transferOwnership(address)":"f2fde38b","withdrawERC20(uint256,bytes32,bytes,address,uint256,address,bytes32,uint256)":"6267699a","withdrawERC721(uint256,bytes32,bytes,address,uint256,address,bytes32,uint256)":"9b9900a9","withdrawETH(uint256,bytes32,bytes,uint256,address,bytes32,uint256)":"52dc033c"},"id":1}