{"abi":[{"type":"constructor","inputs":[],"stateMutability":"nonpayable"},{"type":"fallback","stateMutability":"payable"},{"type":"receive","stateMutability":"payable"},{"type":"function","name":"approve","inputs":[{"name":"to","type":"address","internalType":"address"},{"name":"tokenId","type":"uint256","internalType":"uint256"}],"outputs":[],"stateMutability":"nonpayable"},{"type":"function","name":"balanceOf","inputs":[{"name":"owner","type":"address","internalType":"address"}],"outputs":[{"name":"","type":"uint256","internalType":"uint256"}],"stateMutability":"view"},{"type":"function","name":"batchDeposit","inputs":[{"name":"tokenId","type":"uint256","internalType":"uint256"},{"name":"amountETH","type":"uint256","internalType":"uint256"},{"name":"tokenAddresses","type":"address[]","internalType":"address[]"},{"name":"tokenAmounts","type":"uint256[]","internalType":"uint256[]"},{"name":"nftContracts","type":"address[]","internalType":"address[]"},{"name":"nftTokenIds","type":"uint256[]","internalType":"uint256[]"},{"name":"referenceId","type":"bytes32","internalType":"bytes32"}],"outputs":[],"stateMutability":"payable"},{"type":"function","name":"batchWithdraw","inputs":[{"name":"tokenId","type":"uint256","internalType":"uint256"},{"name":"messageHash","type":"bytes32","internalType":"bytes32"},{"name":"signature","type":"bytes","internalType":"bytes"},{"name":"amountETH","type":"uint256","internalType":"uint256"},{"name":"tokenAddresses","type":"address[]","internalType":"address[]"},{"name":"tokenAmounts","type":"uint256[]","internalType":"uint256[]"},{"name":"nftContracts","type":"address[]","internalType":"address[]"},{"name":"nftTokenIds","type":"uint256[]","internalType":"uint256[]"},{"name":"recipient","type":"address","internalType":"address"},{"name":"referenceId","type":"bytes32","internalType":"bytes32"},{"name":"signatureExpiry","type":"uint256","internalType":"uint256"}],"outputs":[],"stateMutability":"nonpayable"},{"type":"function","name":"burnLockbox","inputs":[{"name":"tokenId","type":"uint256","internalType":"uint256"},{"name":"messageHash","type":"bytes32","internalType":"bytes32"},{"name":"signature","type":"bytes","internalType":"bytes"},{"name":"referenceId","type":"bytes32","internalType":"bytes32"},{"name":"signatureExpiry","type":"uint256","internalType":"uint256"}],"outputs":[],"stateMutability":"nonpayable"},{"type":"function","name":"createLockboxWithBatch","inputs":[{"name":"to","type":"address","internalType":"address"},{"name":"lockboxPublicKey","type":"address","internalType":"address"},{"name":"amountETH","type":"uint256","internalType":"uint256"},{"name":"tokenAddresses","type":"address[]","internalType":"address[]"},{"name":"tokenAmounts","type":"uint256[]","internalType":"uint256[]"},{"name":"nftContracts","type":"address[]","internalType":"address[]"},{"name":"nftTokenIds","type":"uint256[]","internalType":"uint256[]"},{"name":"referenceId","type":"bytes32","internalType":"bytes32"}],"outputs":[],"stateMutability":"payable"},{"type":"function","name":"createLockboxWithERC20","inputs":[{"name":"to","type":"address","internalType":"address"},{"name":"lockboxPublicKey","type":"address","internalType":"address"},{"name":"tokenAddress","type":"address","internalType":"address"},{"name":"amount","type":"uint256","internalType":"uint256"},{"name":"referenceId","type":"bytes32","internalType":"bytes32"}],"outputs":[],"stateMutability":"nonpayable"},{"type":"function","name":"createLockboxWithERC721","inputs":[{"name":"to","type":"address","internalType":"address"},{"name":"lockboxPublicKey","type":"address","internalType":"address"},{"name":"nftContract","type":"address","internalType":"address"},{"name":"externalNftTokenId","type":"uint256","internalType":"uint256"},{"name":"referenceId","type":"bytes32","internalType":"bytes32"}],"outputs":[],"stateMutability":"nonpayable"},{"type":"function","name":"createLockboxWithETH","inputs":[{"name":"to","type":"address","internalType":"address"},{"name":"lockboxPublicKey","type":"address","internalType":"address"},{"name":"referenceId","type":"bytes32","internalType":"bytes32"}],"outputs":[],"stateMutability":"payable"},{"type":"function","name":"depositERC20","inputs":[{"name":"tokenId","type":"uint256","internalType":"uint256"},{"name":"tokenAddress","type":"address","internalType":"address"},{"name":"amount","type":"uint256","internalType":"uint256"},{"name":"referenceId","type":"bytes32","internalType":"bytes32"}],"outputs":[],"stateMutability":"nonpayable"},{"type":"function","name":"depositERC721","inputs":[{"name":"tokenId","type":"uint256","internalType":"uint256"},{"name":"nftContract","type":"address","internalType":"address"},{"name":"nftTokenId","type":"uint256","internalType":"uint256"},{"name":"referenceId","type":"bytes32","internalType":"bytes32"}],"outputs":[],"stateMutability":"nonpayable"},{"type":"function","name":"depositETH","inputs":[{"name":"tokenId","type":"uint256","internalType":"uint256"},{"name":"referenceId","type":"bytes32","internalType":"bytes32"}],"outputs":[],"stateMutability":"payable"},{"type":"function","name":"eip712Domain","inputs":[],"outputs":[{"name":"fields","type":"bytes1","internalType":"bytes1"},{"name":"name","type":"string","internalType":"string"},{"name":"version","type":"string","internalType":"string"},{"name":"chainId","type":"uint256","internalType":"uint256"},{"name":"verifyingContract","type":"address","internalType":"address"},{"name":"salt","type":"bytes32","internalType":"bytes32"},{"name":"extensions","type":"uint256[]","internalType":"uint256[]"}],"stateMutability":"view"},{"type":"function","name":"getActiveLockboxPublicKeyForToken","inputs":[{"name":"tokenId","type":"uint256","internalType":"uint256"}],"outputs":[{"name":"","type":"address","internalType":"address"}],"stateMutability":"view"},{"type":"function","name":"getApproved","inputs":[{"name":"tokenId","type":"uint256","internalType":"uint256"}],"outputs":[{"name":"","type":"address","internalType":"address"}],"stateMutability":"view"},{"type":"function","name":"getFullLockbox","inputs":[{"name":"tokenId","type":"uint256","internalType":"uint256"}],"outputs":[{"name":"lockboxETH","type":"uint256","internalType":"uint256"},{"name":"erc20Tokens","type":"tuple[]","internalType":"struct Withdrawals.Erc20Balances[]","components":[{"name":"tokenAddress","type":"address","internalType":"address"},{"name":"balance","type":"uint256","internalType":"uint256"}]},{"name":"nftContracts","type":"tuple[]","internalType":"struct Deposits.nftBalances[]","components":[{"name":"nftContract","type":"address","internalType":"address"},{"name":"nftTokenId","type":"uint256","internalType":"uint256"}]}],"stateMutability":"view"},{"type":"function","name":"getNonce","inputs":[{"name":"tokenId","type":"uint256","internalType":"uint256"}],"outputs":[{"name":"","type":"uint256","internalType":"uint256"}],"stateMutability":"view"},{"type":"function","name":"isApprovedForAll","inputs":[{"name":"owner","type":"address","internalType":"address"},{"name":"operator","type":"address","internalType":"address"}],"outputs":[{"name":"","type":"bool","internalType":"bool"}],"stateMutability":"view"},{"type":"function","name":"locked","inputs":[{"name":"tokenId","type":"uint256","internalType":"uint256"}],"outputs":[{"name":"","type":"bool","internalType":"bool"}],"stateMutability":"view"},{"type":"function","name":"name","inputs":[],"outputs":[{"name":"","type":"string","internalType":"string"}],"stateMutability":"view"},{"type":"function","name":"onERC721Received","inputs":[{"name":"","type":"address","internalType":"address"},{"name":"","type":"address","internalType":"address"},{"name":"","type":"uint256","internalType":"uint256"},{"name":"","type":"bytes","internalType":"bytes"}],"outputs":[{"name":"","type":"bytes4","internalType":"bytes4"}],"stateMutability":"pure"},{"type":"function","name":"owner","inputs":[],"outputs":[{"name":"","type":"address","internalType":"address"}],"stateMutability":"view"},{"type":"function","name":"ownerOf","inputs":[{"name":"tokenId","type":"uint256","internalType":"uint256"}],"outputs":[{"name":"","type":"address","internalType":"address"}],"stateMutability":"view"},{"type":"function","name":"renounceOwnership","inputs":[],"outputs":[],"stateMutability":"nonpayable"},{"type":"function","name":"rotateLockboxKey","inputs":[{"name":"tokenId","type":"uint256","internalType":"uint256"},{"name":"messageHash","type":"bytes32","internalType":"bytes32"},{"name":"signature","type":"bytes","internalType":"bytes"},{"name":"newPublicKey","type":"address","internalType":"address"},{"name":"referenceId","type":"bytes32","internalType":"bytes32"},{"name":"signatureExpiry","type":"uint256","internalType":"uint256"}],"outputs":[],"stateMutability":"nonpayable"},{"type":"function","name":"safeTransferFrom","inputs":[{"name":"from","type":"address","internalType":"address"},{"name":"to","type":"address","internalType":"address"},{"name":"tokenId","type":"uint256","internalType":"uint256"}],"outputs":[],"stateMutability":"nonpayable"},{"type":"function","name":"safeTransferFrom","inputs":[{"name":"from","type":"address","internalType":"address"},{"name":"to","type":"address","internalType":"address"},{"name":"tokenId","type":"uint256","internalType":"uint256"},{"name":"data","type":"bytes","internalType":"bytes"}],"outputs":[],"stateMutability":"nonpayable"},{"type":"function","name":"setApprovalForAll","inputs":[{"name":"operator","type":"address","internalType":"address"},{"name":"approved","type":"bool","internalType":"bool"}],"outputs":[],"stateMutability":"nonpayable"},{"type":"function","name":"setDefaultMetadataURI","inputs":[{"name":"newDefaultURI","type":"string","internalType":"string"}],"outputs":[],"stateMutability":"nonpayable"},{"type":"function","name":"setTokenMetadataURI","inputs":[{"name":"tokenId","type":"uint256","internalType":"uint256"},{"name":"messageHash","type":"bytes32","internalType":"bytes32"},{"name":"signature","type":"bytes","internalType":"bytes"},{"name":"newMetadataURI","type":"string","internalType":"string"},{"name":"referenceId","type":"bytes32","internalType":"bytes32"},{"name":"signatureExpiry","type":"uint256","internalType":"uint256"}],"outputs":[],"stateMutability":"nonpayable"},{"type":"function","name":"supportsInterface","inputs":[{"name":"interfaceId","type":"bytes4","internalType":"bytes4"}],"outputs":[{"name":"","type":"bool","internalType":"bool"}],"stateMutability":"view"},{"type":"function","name":"swapInLockbox","inputs":[{"name":"tokenId","type":"uint256","internalType":"uint256"},{"name":"messageHash","type":"bytes32","internalType":"bytes32"},{"name":"signature","type":"bytes","internalType":"bytes"},{"name":"tokenIn","type":"address","internalType":"address"},{"name":"tokenOut","type":"address","internalType":"address"},{"name":"amountIn","type":"uint256","internalType":"uint256"},{"name":"minAmountOut","type":"uint256","internalType":"uint256"},{"name":"target","type":"address","internalType":"address"},{"name":"data","type":"bytes","internalType":"bytes"},{"name":"referenceId","type":"bytes32","internalType":"bytes32"},{"name":"signatureExpiry","type":"uint256","internalType":"uint256"}],"outputs":[],"stateMutability":"nonpayable"},{"type":"function","name":"symbol","inputs":[],"outputs":[{"name":"","type":"string","internalType":"string"}],"stateMutability":"view"},{"type":"function","name":"tokenURI","inputs":[{"name":"tokenId","type":"uint256","internalType":"uint256"}],"outputs":[{"name":"","type":"string","internalType":"string"}],"stateMutability":"view"},{"type":"function","name":"transferFrom","inputs":[{"name":"from","type":"address","internalType":"address"},{"name":"to","type":"address","internalType":"address"},{"name":"tokenId","type":"uint256","internalType":"uint256"}],"outputs":[],"stateMutability":"nonpayable"},{"type":"function","name":"transferOwnership","inputs":[{"name":"newOwner","type":"address","internalType":"address"}],"outputs":[],"stateMutability":"nonpayable"},{"type":"function","name":"withdrawERC20","inputs":[{"name":"tokenId","type":"uint256","internalType":"uint256"},{"name":"messageHash","type":"bytes32","internalType":"bytes32"},{"name":"signature","type":"bytes","internalType":"bytes"},{"name":"tokenAddress","type":"address","internalType":"address"},{"name":"amount","type":"uint256","internalType":"uint256"},{"name":"recipient","type":"address","internalType":"address"},{"name":"referenceId","type":"bytes32","internalType":"bytes32"},{"name":"signatureExpiry","type":"uint256","internalType":"uint256"}],"outputs":[],"stateMutability":"nonpayable"},{"type":"function","name":"withdrawERC721","inputs":[{"name":"tokenId","type":"uint256","internalType":"uint256"},{"name":"messageHash","type":"bytes32","internalType":"bytes32"},{"name":"signature","type":"bytes","internalType":"bytes"},{"name":"nftContract","type":"address","internalType":"address"},{"name":"nftTokenId","type":"uint256","internalType":"uint256"},{"name":"recipient","type":"address","internalType":"address"},{"name":"referenceId","type":"bytes32","internalType":"bytes32"},{"name":"signatureExpiry","type":"uint256","internalType":"uint256"}],"outputs":[],"stateMutability":"nonpayable"},{"type":"function","name":"withdrawETH","inputs":[{"name":"tokenId","type":"uint256","internalType":"uint256"},{"name":"messageHash","type":"bytes32","internalType":"bytes32"},{"name":"signature","type":"bytes","internalType":"bytes"},{"name":"amountETH","type":"uint256","internalType":"uint256"},{"name":"recipient","type":"address","internalType":"address"},{"name":"referenceId","type":"bytes32","internalType":"bytes32"},{"name":"signatureExpiry","type":"uint256","internalType":"uint256"}],"outputs":[],"stateMutability":"nonpayable"},{"type":"event","name":"Approval","inputs":[{"name":"owner","type":"address","indexed":true,"internalType":"address"},{"name":"approved","type":"address","indexed":true,"internalType":"address"},{"name":"tokenId","type":"uint256","indexed":true,"internalType":"uint256"}],"anonymous":false},{"type":"event","name":"ApprovalForAll","inputs":[{"name":"owner","type":"address","indexed":true,"internalType":"address"},{"name":"operator","type":"address","indexed":true,"internalType":"address"},{"name":"approved","type":"bool","indexed":false,"internalType":"bool"}],"anonymous":false},{"type":"event","name":"Deposited","inputs":[{"name":"tokenId","type":"uint256","indexed":true,"internalType":"uint256"},{"name":"referenceId","type":"bytes32","indexed":true,"internalType":"bytes32"}],"anonymous":false},{"type":"event","name":"EIP712DomainChanged","inputs":[],"anonymous":false},{"type":"event","name":"ExcessSpent","inputs":[{"name":"tokenId","type":"uint256","indexed":true,"internalType":"uint256"},{"name":"token","type":"address","indexed":true,"internalType":"address"},{"name":"excessAmount","type":"uint256","indexed":false,"internalType":"uint256"}],"anonymous":false},{"type":"event","name":"KeyRotated","inputs":[{"name":"tokenId","type":"uint256","indexed":true,"internalType":"uint256"},{"name":"referenceId","type":"bytes32","indexed":true,"internalType":"bytes32"}],"anonymous":false},{"type":"event","name":"LockboxBurned","inputs":[{"name":"tokenId","type":"uint256","indexed":true,"internalType":"uint256"},{"name":"referenceId","type":"bytes32","indexed":true,"internalType":"bytes32"}],"anonymous":false},{"type":"event","name":"Locked","inputs":[{"name":"tokenId","type":"uint256","indexed":false,"internalType":"uint256"}],"anonymous":false},{"type":"event","name":"Minted","inputs":[{"name":"tokenId","type":"uint256","indexed":true,"internalType":"uint256"},{"name":"referenceId","type":"bytes32","indexed":true,"internalType":"bytes32"}],"anonymous":false},{"type":"event","name":"OwnershipTransferred","inputs":[{"name":"previousOwner","type":"address","indexed":true,"internalType":"address"},{"name":"newOwner","type":"address","indexed":true,"internalType":"address"}],"anonymous":false},{"type":"event","name":"SwapExecuted","inputs":[{"name":"tokenId","type":"uint256","indexed":true,"internalType":"uint256"},{"name":"referenceId","type":"bytes32","indexed":true,"internalType":"bytes32"}],"anonymous":false},{"type":"event","name":"TokenMetadataURISet","inputs":[{"name":"tokenId","type":"uint256","indexed":true,"internalType":"uint256"},{"name":"referenceId","type":"bytes32","indexed":true,"internalType":"bytes32"}],"anonymous":false},{"type":"event","name":"Transfer","inputs":[{"name":"from","type":"address","indexed":true,"internalType":"address"},{"name":"to","type":"address","indexed":true,"internalType":"address"},{"name":"tokenId","type":"uint256","indexed":true,"internalType":"uint256"}],"anonymous":false},{"type":"event","name":"Withdrawn","inputs":[{"name":"tokenId","type":"uint256","indexed":true,"internalType":"uint256"},{"name":"referenceId","type":"bytes32","indexed":true,"internalType":"bytes32"}],"anonymous":false},{"type":"error","name":"AlreadyInitialized","inputs":[]},{"type":"error","name":"ArrayLengthMismatch","inputs":[]},{"type":"error","name":"DefaultURIAlreadySet","inputs":[]},{"type":"error","name":"ECDSAInvalidSignature","inputs":[]},{"type":"error","name":"ECDSAInvalidSignatureLength","inputs":[{"name":"length","type":"uint256","internalType":"uint256"}]},{"type":"error","name":"ECDSAInvalidSignatureS","inputs":[{"name":"s","type":"bytes32","internalType":"bytes32"}]},{"type":"error","name":"ERC721IncorrectOwner","inputs":[{"name":"sender","type":"address","internalType":"address"},{"name":"tokenId","type":"uint256","internalType":"uint256"},{"name":"owner","type":"address","internalType":"address"}]},{"type":"error","name":"ERC721InsufficientApproval","inputs":[{"name":"operator","type":"address","internalType":"address"},{"name":"tokenId","type":"uint256","internalType":"uint256"}]},{"type":"error","name":"ERC721InvalidApprover","inputs":[{"name":"approver","type":"address","internalType":"address"}]},{"type":"error","name":"ERC721InvalidOperator","inputs":[{"name":"operator","type":"address","internalType":"address"}]},{"type":"error","name":"ERC721InvalidOwner","inputs":[{"name":"owner","type":"address","internalType":"address"}]},{"type":"error","name":"ERC721InvalidReceiver","inputs":[{"name":"receiver","type":"address","internalType":"address"}]},{"type":"error","name":"ERC721InvalidSender","inputs":[{"name":"sender","type":"address","internalType":"address"}]},{"type":"error","name":"ERC721NonexistentToken","inputs":[{"name":"tokenId","type":"uint256","internalType":"uint256"}]},{"type":"error","name":"ETHMismatch","inputs":[]},{"type":"error","name":"EthTransferFailed","inputs":[]},{"type":"error","name":"EthValueMismatch","inputs":[]},{"type":"error","name":"FallbackNotAllowed","inputs":[]},{"type":"error","name":"InsufficientTokenBalance","inputs":[]},{"type":"error","name":"InvalidMessageHash","inputs":[]},{"type":"error","name":"InvalidShortString","inputs":[]},{"type":"error","name":"InvalidSignature","inputs":[]},{"type":"error","name":"InvalidSwap","inputs":[]},{"type":"error","name":"MismatchedInputs","inputs":[]},{"type":"error","name":"NFTNotFound","inputs":[]},{"type":"error","name":"NoETHBalance","inputs":[]},{"type":"error","name":"NoURI","inputs":[]},{"type":"error","name":"NonexistentToken","inputs":[]},{"type":"error","name":"NotOwner","inputs":[]},{"type":"error","name":"OwnableInvalidOwner","inputs":[{"name":"owner","type":"address","internalType":"address"}]},{"type":"error","name":"OwnableUnauthorizedAccount","inputs":[{"name":"account","type":"address","internalType":"address"}]},{"type":"error","name":"ReentrancyGuardReentrantCall","inputs":[]},{"type":"error","name":"SafeERC20FailedOperation","inputs":[{"name":"token","type":"address","internalType":"address"}]},{"type":"error","name":"SelfMintOnly","inputs":[]},{"type":"error","name":"SignatureExpired","inputs":[]},{"type":"error","name":"SlippageExceeded","inputs":[]},{"type":"error","name":"StringTooLong","inputs":[{"name":"str","type":"string","internalType":"string"}]},{"type":"error","name":"SwapCallFailed","inputs":[]},{"type":"error","name":"TransfersDisabled","inputs":[]},{"type":"error","name":"UseDepositETH","inputs":[]},{"type":"error","name":"ZeroAddress","inputs":[]},{"type":"error","name":"ZeroAmount","inputs":[]},{"type":"error","name":"ZeroKey","inputs":[]},{"type":"error","name":"ZeroTokenAddress","inputs":[]}],"bytecode":{"object":"0x610180604052346104a8576040516100186040826104ac565b60088152674c6f636b782e696f60c01b60208201526040519061003c6040836104ac565b6007825266098dec6d6c4def60cb1b602083015260405161005e6040826104ac565b60058152602081019064098dec6d6f60db1b8252604051936100816040866104ac565b60018552601960f91b60208601908152845190946001600160401b0382116103af575f5490600182811c9216801561049e575b60208310146103915781601f849311610431575b50602090601f83116001146103ce575f926103c3575b50508160011b915f199060031b1c1916175f555b8051906001600160401b0382116103af5760015490600182811c921680156103a5575b60208310146103915781601f849311610323575b50602090601f83116001146102bd575f926102b2575b50508160011b915f199060031b1c1916176001555b331561029f5760068054336001600160a01b0319821681179092556001600160a01b03167f8be0079c531659141344cd1fd0a4f28419497f9722a3daafe3b4186f6b6457e05f80a36101a5816104cf565b610120526101b284610656565b61014052519020918260e05251902080610100524660a0526040519060208201927f8b73c3c69bb8fe3d512ecc4cf759cc79239f7b179b0ffacaa9a75d522b39400f8452604083015260608201524660808201523060a082015260a0815261021b60c0826104ac565b5190206080523060c05230610160526001600a55604051615839908161078f82396080518161558c015260a05181615649015260c0518161555d015260e051816155db0152610100518161560101526101205181611ed501526101405181611efe0152610160518181816105d1015281816110c4015281816129a001526149ee0152f35b631e4fbdf760e01b5f525f60045260245ffd5b015190505f8061013f565b60015f9081528281209350601f198516905b81811061030b57509084600195949392106102f3575b505050811b01600155610154565b01515f1960f88460031b161c191690555f80806102e5565b929360206001819287860151815501950193016102cf565b60015f529091507fb10e2d527612073b26eecdfd717e6a320cf44b4afac2b0732d9fcbe2b7fa0cf6601f840160051c81019160208510610387575b90601f859493920160051c01905b8181106103795750610129565b5f815584935060010161036c565b909150819061035e565b634e487b7160e01b5f52602260045260245ffd5b91607f1691610115565b634e487b7160e01b5f52604160045260245ffd5b015190505f806100de565b5f8080528281209350601f198516905b8181106104195750908460019594939210610401575b505050811b015f556100f2565b01515f1960f88460031b161c191690555f80806103f4565b929360206001819287860151815501950193016103de565b5f80529091507f290decd9548b62a8d60345a988386fc84ba6bc95484008f6362f93160ef3e563601f840160051c81019160208510610494575b90601f859493920160051c01905b81811061048657506100c8565b5f8155849350600101610479565b909150819061046b565b91607f16916100b4565b5f80fd5b601f909101601f19168101906001600160401b038211908210176103af57604052565b908151602081105f14610549575090601f8151116105095760208151910151602082106104fa571790565b5f198260200360031b1b161790565b604460209160405192839163305a27a960e01b83528160048401528051918291826024860152018484015e5f828201840152601f01601f19168101030190fd5b6001600160401b0381116103af57600754600181811c9116801561064c575b602082101461039157601f8111610619575b50602092601f82116001146105b857928192935f926105ad575b50508160011b915f199060031b1c19161760075560ff90565b015190505f80610594565b601f1982169360075f52805f20915f5b86811061060157508360019596106105e9575b505050811b0160075560ff90565b01515f1960f88460031b161c191690555f80806105db565b919260206001819286850151815501940192016105c8565b60075f52601f60205f20910160051c810190601f830160051c015b818110610641575061057a565b5f8155600101610634565b90607f1690610568565b908151602081105f14610681575090601f8151116105095760208151910151602082106104fa571790565b6001600160401b0381116103af57600854600181811c91168015610784575b602082101461039157601f8111610751575b50602092601f82116001146106f057928192935f926106e5575b50508160011b915f199060031b1c19161760085560ff90565b015190505f806106cc565b601f1982169360085f52805f20915f5b8681106107395750836001959610610721575b505050811b0160085560ff90565b01515f1960f88460031b161c191690555f8080610713565b91926020600181928685015181550194019201610700565b60085f52601f60205f20910160051c810190601f830160051c015b81811061077957506106b2565b5f815560010161076c565b90607f16906106a056fe6080806040526004361015610040575b50361561003e577fdeab4c30000000000000000000000000000000000000000000000000000000005f5260045ffd5b005b5f3560e01c90816301ffc9a714613d775750806306fdde0314613cd5578063081812fc14613c98578063095ea7b314613b865780630db5425614613a38578063150b7a02146139c9578063218e631d14612f2457806323b872dd14612f0d5780632dbf9be614612bd95780633b0320b014612a195780633d46b8191461295057806342842e0e14612927578063486c4b7f146128e65780634d8af09e1461288057806352dc033c1461264e5780635e4ed95d146125785780636267699a146123115780636352211e146122e257806365cd69a11461227457806370a082311461220a578063715018a6146121a4578063748917dd1461211157806375463c4a14611fd157806384b0196e14611ebd5780638da5cb5b14611e975780638f93f31b1461183d578063954808791461161f57806395d89b41146115555780639b9900a9146111f7578063a22cb46514611143578063aea5cf3014611074578063b45a3c0e1461103b578063b88d4fde14610fec578063bb4ffa1014610af8578063c87b56dd14610ac1578063e124a17c146105b3578063e985e9c51461055a578063f2fde38b146104af5763f3eb9a16146101f9575f61000f565b346104ab5760c06003193601126104ab5760043560443567ffffffffffffffff81116104ab5761022d903690600401613f33565b90610236613e17565b6084359260a43590610246614979565b61024f846149b2565b81421161048357604051926001600160a01b036020850191868352169283604086015286606086015233608086015260a085015260a0845261029260c085613ebe565b845f52600960205260405f20935190209083549060428260a01c9360405160208101917f5fd4fde1cb878824d6e96eec97296c9e818ad783a10b7c9ede6e7f27eca7b06b83528960408301528660608301525f608083015260a082015260a081526102fe60c082613ebe565b519020610309615553565b90604051917f19010000000000000000000000000000000000000000000000000000000000008352600283015260228201522090816024350361045b576103679261035e6001600160a01b039392849361566f565b909591956156a9565b16911603610433576bffffffffffffffffffffffff81146104065782546001600160a01b031660019190910160a01b73ffffffffffffffffffffffffffffffffffffffff1916178255806103e3575b50507f984cbcf51cba481417bc4c1f7faacf7392a4cbcd6c7fb7888b24ed2e50a0be775f80a36001600a55005b73ffffffffffffffffffffffffffffffffffffffff198254161790555f806103b6565b7f4e487b71000000000000000000000000000000000000000000000000000000005f52601160045260245ffd5b7f8baa579f000000000000000000000000000000000000000000000000000000005f5260045ffd5b7f8b56642d000000000000000000000000000000000000000000000000000000005f5260045ffd5b7f0819bdcd000000000000000000000000000000000000000000000000000000005f5260045ffd5b5f80fd5b346104ab5760206003193601126104ab576001600160a01b036104d0613deb565b6104d8615313565b16801561052e576001600160a01b036006548273ffffffffffffffffffffffffffffffffffffffff19821617600655167f8be0079c531659141344cd1fd0a4f28419497f9722a3daafe3b4186f6b6457e05f80a3005b7f1e4fbdf7000000000000000000000000000000000000000000000000000000005f525f60045260245ffd5b346104ab5760406003193601126104ab57610573613deb565b6001600160a01b03610583613e01565b91165f5260056020526001600160a01b0360405f2091165f52602052602060ff60405f2054166040519015158152f35b346104ab5760206003193601126104ab576004356001600160a01b037f0000000000000000000000000000000000000000000000000000000000000000166040517f6352211e000000000000000000000000000000000000000000000000000000008152826004820152602081602481855afa5f9181610aa0575b5061065b577fb1d04f08000000000000000000000000000000000000000000000000000000005f5260045ffd5b6001600160a01b031615610a78576020602491604051928380927f6352211e0000000000000000000000000000000000000000000000000000000082528660048301525afa908115610a6d575f91610a3e575b506001600160a01b0333911603610a1657805f52600b60205260405f2054815f52600d60205260405f209182546106e4816145a6565b936106f26040519586613ebe565b818552601f19610701836145a6565b015f5b8181106109ea5750505f5b82811061096357505050805f52601060205260405f205f915f918054925b8381106109105750601f1961075a610744866145a6565b956107526040519788613ebe565b8087526145a6565b015f5b8181106108e45750505f905f5b84811061083757878787604051928392606084019084526060602085015281518091526020608085019201905f5b8181106107fe575050508281036040840152602080835192838152019201905f5b8181106107c7575050500390f35b9193509160206040826107f06001948851602080916001600160a01b0381511684520151910152565b0194019101918493926107b9565b919394509160206040826108286001948851602080916001600160a01b0381511684520151910152565b01940191019185949392610798565b600190845f9997989952601260205260405f20610854828561428e565b90549060031b1c5f5260205260ff60405f205416610877575b019695949661076a565b845f52601160205260405f2061088d828561428e565b90549060031b1c5f526020526108de60405f20946108aa81614579565b9584604051916108b983613ea2565b6001600160a01b038154168352015460208201526108d7828c614944565b5289614944565b5061086d565b60405196979596602091906108f881613ea2565b5f81525f8382015282828a010152019695949661075d565b825f9795969752601260205260405f2061092a828461428e565b90549060031b1c5f5260205260ff60405f20541661094f575b6001019594939561072d565b9461095b600191614579565b959050610943565b806001600160a01b0361097c600193859997989961428e565b90549060031b1c16865f52600c60205260405f206001600160a01b03806109a3858861428e565b90549060031b1c16165f5260205260405f2054604051916109c383613ea2565b825260208201526109d48287614944565b526109df8186614944565b50019493929461070f565b60405195969495602091906109fe81613ea2565b5f81525f838201528282880101520195949395610704565b7f30cd7471000000000000000000000000000000000000000000000000000000005f5260045ffd5b610a60915060203d602011610a66575b610a588183613ebe565b810190614587565b826106ae565b503d610a4e565b6040513d5f823e3d90fd5b7fb1d04f08000000000000000000000000000000000000000000000000000000005f5260045ffd5b610aba91925060203d602011610a6657610a588183613ebe565b908461062e565b346104ab5760206003193601126104ab57610af4610ae0600435614814565b604051918291602083526020830190613dc6565b0390f35b346104ab5760a06003193601126104ab5760043560443567ffffffffffffffff81116104ab57610b2c903690600401613f33565b60643590608435610b3b614979565b610b44846149b2565b80421161048357604051906020820190858252846040840152336060840152608083015260808252610b7760a083613ebe565b845f52600960205260405f20915190209181549060428260a01c9460405160208101917f5fd4fde1cb878824d6e96eec97296c9e818ad783a10b7c9ede6e7f27eca7b06b83528960408301528760608301526004608083015260a082015260a08152610be460c082613ebe565b519020610bef615553565b90604051917f19010000000000000000000000000000000000000000000000000000000000008352600283015260228201522090816024350361045b57610c449261035e6001600160a01b039392849361566f565b16911603610433576bffffffffffffffffffffffff8214610406576001610c9292016001600160a01b0373ffffffffffffffffffffffffffffffffffffffff1983549260a01b169116179055565b815f52600b6020525f6040812055815f52600d60205260405f205f5b8154811015610d4357806001600160a01b03610ccc6001938561428e565b90549060031b1c16855f52600c60205260405f206001600160a01b0382165f526020525f6040812055855f52600e60205260405f206001600160a01b0382165f5260205260405f2060ff198154169055855f52600f6020526001600160a01b0360405f2091165f526020525f604081205501610cae565b5050815f52600d60205260405f2080545f825580610fd2575b5050815f52601060205260405f20915f5b8354811015610dcb5780610d836001928661428e565b90549060031b1c835f52601160205260405f20815f526020525f83604082208281550155835f52601260205260405f20905f5260205260405f2060ff19815416905501610d6d565b50805f52601060205260405f208054905f815581610fb4575b5050805f5260026020526001600160a01b0360405f205416151580610fad575b610f8557805f52601760205260405f20610e1e8154614172565b9081610f42575b5050805f5260026020526001600160a01b0360405f2054168015908115610efe575b825f52600260205260405f2073ffffffffffffffffffffffffffffffffffffffff198154169055825f827fddf252ad1be2c89b69c2b068fc378daa952ba7f163c4a11628f55a4df523b3ef8280a450610ed357805f5260096020525f60408120557fceed1806179edada6c648f6c52838ceac0b9c18cf04e6fca0712bda6fcf82c185f80a36001600a55005b7f7e273289000000000000000000000000000000000000000000000000000000005f5260045260245ffd5b610f2a835f52600460205260405f2073ffffffffffffffffffffffffffffffffffffffff198154169055565b805f52600360205260405f205f198154019055610e47565b81601f5f9311600114610f595750555b8280610e25565b81835260208320610f7591601f0160051c810190600101614563565b8082528160208120915555610f52565b7f8574adcf000000000000000000000000000000000000000000000000000000005f5260045ffd5b505f610e04565b5f5260205f20908101905b81811015610de4575f8155600101610fbf565b610fe5915f5260205f2090810190614563565b8280610d5c565b346104ab5760806003193601126104ab57611005613deb565b61100d613e01565b6064359167ffffffffffffffff83116104ab5761103161003e933690600401613f33565b916044359161466c565b346104ab5760206003193601126104ab576004355f5260026020526001600160a01b0360405f20541615610a7857602060405160018152f35b346104ab5760206003193601126104ab576004356040517f6352211e0000000000000000000000000000000000000000000000000000000081528160048201526020816024816001600160a01b037f0000000000000000000000000000000000000000000000000000000000000000165afa908115610a6d575f91611124575b506001600160a01b0333911603610a16575f52600960205260206001600160a01b0360405f205416604051908152f35b61113d915060203d602011610a6657610a588183613ebe565b826110f4565b346104ab5760406003193601126104ab5761115c613deb565b602435908115158092036104ab576001600160a01b03169081156111cb57335f52600560205260405f20825f5260205260405f2060ff1981541660ff83161790556040519081527f17307eab39ab6107e8899845ad3d59bd9653f200f220920489ca2b5937696c3160203392a3005b507f5b08ba18000000000000000000000000000000000000000000000000000000005f5260045260245ffd5b346104ab5761120536613fb9565b90969591939294611214614979565b61121d876149b2565b6001600160a01b0385161561152d578142116104835760408051602081018981526001600160a01b038088169383019390935260608201899052918716608082015260a081018a90523360c082015260e081019390935261128c8361010081015b03601f198101855284613ebe565b875f52600960205260405f20925190209282549160428360a01c9560405160208101917f5fd4fde1cb878824d6e96eec97296c9e818ad783a10b7c9ede6e7f27eca7b06b83528c60408301528860608301526003608083015260a082015260a081526112f960c082613ebe565b519020611304615553565b90604051917f19010000000000000000000000000000000000000000000000000000000000008352600283015260228201522080920361045b576113569261035e6001600160a01b039392849361566f565b16911603610433576bffffffffffffffffffffffff82146104065760016113a492016001600160a01b0373ffffffffffffffffffffffffffffffffffffffff1983549260a01b169116179055565b604051606082901b7fffffffffffffffffffffffffffffffffffffffff000000000000000000000000166020820190815260348201859052906113f481605481015b03601f198101835282613ebe565b51902090845f52601260205260405f20825f5260205260ff60405f20541615611505576114656001600160a01b0392865f52601160205260405f20815f526020525f6001604082208281550155865f52601260205260405f20815f5260205260405f2060ff19815416905586615353565b1691823b156104ab576040517f42842e0e0000000000000000000000000000000000000000000000000000000081523060048201526001600160a01b039290921660248301526044820152905f908290606490829084905af18015610a6d576114f5575b507f06f0d08c652a32f118304f762c3f388848b7653f7df433f67a48aa734675f0135f80a36001600a55005b5f6114ff91613ebe565b826114c9565b7ff070cb6f000000000000000000000000000000000000000000000000000000005f5260045ffd5b7fd92e233d000000000000000000000000000000000000000000000000000000005f5260045ffd5b346104ab575f6003193601126104ab576040515f60015461157581614172565b80845290600181169081156115fb575060011461159d575b610af483610ae081850382613ebe565b60015f9081527fb10e2d527612073b26eecdfd717e6a320cf44b4afac2b0732d9fcbe2b7fa0cf6939250905b8082106115e157509091508101602001610ae061158d565b9192600181602092548385880101520191019092916115c9565b60ff191660208086019190915291151560051b84019091019150610ae0905061158d565b346104ab5760206003193601126104ab5760043567ffffffffffffffff81116104ab57611650903690600401613f33565b611658615313565b60ff6016541661181557805167ffffffffffffffff81116117e85761167e601554614172565b601f8111611751575b50602091601f82116001146116d3576116b5925f91836116c8575b50505f198260011b9260031b1c19161790565b6015555b6016805460ff19166001179055005b0151905083806116a2565b601f1982169260155f527f55f448fdea98c4d29eb340757ef0a66cd03dbb9538908a6a81d96026b71ec475915f5b85811061173957508360019510611721575b505050811b016015556116b9565b01515f1960f88460031b161c19169055828080611713565b91926020600181928685015181550194019201611701565b6117ba9060155f52601f830160051c7f55f448fdea98c4d29eb340757ef0a66cd03dbb9538908a6a81d96026b71ec4750190602084106117c0575b601f0160051c7f55f448fdea98c4d29eb340757ef0a66cd03dbb9538908a6a81d96026b71ec4750190614563565b82611687565b7f55f448fdea98c4d29eb340757ef0a66cd03dbb9538908a6a81d96026b71ec475915061178c565b7f4e487b71000000000000000000000000000000000000000000000000000000005f52604160045260245ffd5b7fe8cba6d8000000000000000000000000000000000000000000000000000000005f5260045ffd5b346104ab576101606003193601126104ab5760443567ffffffffffffffff81116104ab5761186f903690600401613f33565b60643560843567ffffffffffffffff81116104ab57611892903690600401613e43565b909160a43567ffffffffffffffff81116104ab576118b4903690600401613e43565b9360c43567ffffffffffffffff81116104ab576118d5903690600401613e43565b92909160e43567ffffffffffffffff81116104ab576118f8903690600401613e43565b96909761010435966001600160a01b038816908189036104ab57610124359b61014435611923614979565b61192e6004356149b2565b831561152d5780421161048357848614801590611e8d575b611e655782868f8f938f948b958f8f908f8d6040519a8b9960208b019b6004358d5260408c015260608b0161014090526101608b0190611985926145be565b90898203601f190160808b015261199b9261460b565b90878203601f190160a08901526119b1926145be565b90858203601f190160c08701526119c79261460b565b918860e08501526101008401523361012084015261014083015203601f19810183526119f39083613ebe565b6004355f52600960205260405f2091519020918154908160a01c9360405160208101917f5fd4fde1cb878824d6e96eec97296c9e818ad783a10b7c9ede6e7f27eca7b06b83526004356040830152866060830152608082016006905260a082015260a08152611a6360c082613ebe565b519020611a6e615553565b90604051917f19010000000000000000000000000000000000000000000000000000000000008352600283015260228201526042902090816024350361045b57611ac69261035e6001600160a01b039392849361566f565b16911603610433576bffffffffffffffffffffffff8214610406576001611b1492016001600160a01b0373ffffffffffffffffffffffffffffffffffffffff1983549260a01b169116179055565b80611dc7575b50506004355f52600c60205260405f20915f5b818110611cea575050505050505f5b828110611b7257866004357f06f0d08c652a32f118304f762c3f388848b7653f7df433f67a48aa734675f0135f80a36001600a55005b611b85611b80828585614648565b614658565b6113e6611bd8611b9684898b614648565b3560405192839160208301958690917fffffffffffffffffffffffffffffffffffffffff00000000000000000000000060349360601b16825260148201520190565b5190206004355f52601260205260405f20815f5260205260ff60405f2054161561150557611c48906004355f52601160205260405f20815f526020525f60016040822082815501556004355f52601260205260405f20815f5260205260405f2060ff198154169055600435615353565b6001600160a01b03611c5e611b80838686614648565b1690611c6b818789614648565b3591803b156104ab576040517f42842e0e0000000000000000000000000000000000000000000000000000000081523060048201526001600160a01b038716602482015260448101939093525f908390606490829084905af1918215610a6d57600192611cda575b5001611b3c565b5f611ce491613ebe565b88611cd3565b611cf8611b80828488614648565b90611d04818589614648565b356001600160a01b0383165f528560205260405f205490808210611d9f576001600160a01b038481165f9081526020899052604090208284039055600194611d57938e9291908414611d5d575b166152be565b01611b2d565b8181165f52896020525f6040812055611d7881600435614af9565b6004355f52600e60205260405f208282165f5260205260405f2060ff198154169055611d51565b7fe4455cae000000000000000000000000000000000000000000000000000000005f5260045ffd5b6004355f52600b60205260405f205491818310611e3d575f82819492611def83958495614245565b6004358452600b60205260408420555af1611e08614252565b5015611e15578a80611b1a565b7f6d963f88000000000000000000000000000000000000000000000000000000005f5260045ffd5b7ffcc00b30000000000000000000000000000000000000000000000000000000005f5260045ffd5b7f469224f0000000000000000000000000000000000000000000000000000000005f5260045ffd5b508b8a1415611946565b346104ab575f6003193601126104ab5760206001600160a01b0360065416604051908152f35b346104ab575f6003193601126104ab57611f75611ef97f00000000000000000000000000000000000000000000000000000000000000006154aa565b611f227f000000000000000000000000000000000000000000000000000000000000000061551c565b6020611f8360405192611f358385613ebe565b5f84525f3681376040519586957f0f00000000000000000000000000000000000000000000000000000000000000875260e08588015260e0870190613dc6565b908582036040870152613dc6565b4660608501523060808501525f60a085015283810360c08501528180845192838152019301915f5b828110611fba57505050500390f35b835185528695509381019392810192600101611fab565b346104ab57611fdf36614024565b939291611fea614979565b336001600160a01b038516036120e9576001600160a01b038316156120c1576001600160a01b038116156120995761203e61204493612038601454809761203082614579565b601455614d22565b85614e55565b836150e1565b7f032bc66be43dbccb7487781d168eb7bda224628a3b2c3388bdf69b532a3a16116020604051838152a17f4fd35fc7cab0142e2b2e81414dbd72945bc0ae0131a46c03bd8c7073234817805f80a36001600a55005b7f6b093aad000000000000000000000000000000000000000000000000000000005f5260045ffd5b7ffbd849c6000000000000000000000000000000000000000000000000000000005f5260045ffd5b7fbaee6e49000000000000000000000000000000000000000000000000000000005f5260045ffd5b346104ab5761211f36614024565b93929161212a614979565b336001600160a01b038516036120e9576001600160a01b038316156120c1576001600160a01b0381161561209957811561217c5761217661204493612038601454809761203082614579565b83614ecc565b7f1f2a2005000000000000000000000000000000000000000000000000000000005f5260045ffd5b346104ab575f6003193601126104ab576121bc615313565b5f6001600160a01b0360065473ffffffffffffffffffffffffffffffffffffffff198116600655167f8be0079c531659141344cd1fd0a4f28419497f9722a3daafe3b4186f6b6457e08280a3005b346104ab5760206003193601126104ab576001600160a01b0361222b613deb565b168015612248575f526003602052602060405f2054604051908152f35b7f89c62b64000000000000000000000000000000000000000000000000000000005f525f60045260245ffd5b60406003193601126104ab5760043561228b614979565b612294816149b2565b341561217c57805f52600b60205260405f206122b1348254614281565b9055602435907f0131d4fe789c9eeb7c2dd7e32aa9393d395bef62f1f67e0ba2a76d33c6dcf5ee5f80a36001600a55005b346104ab5760206003193601126104ab576020612300600435614958565b6001600160a01b0360405191168152f35b346104ab5761231f36613fb9565b9096959192939461232e614979565b612337876149b2565b6001600160a01b0384161561152d578142116104835760408051602081018981526001600160a01b03808a169383019390935260608201889052918616608082015260a081018a90523360c082015260e081019390935261239c83610100810161127e565b875f52600960205260405f20925190209282549160428360a01c9560405160208101917f5fd4fde1cb878824d6e96eec97296c9e818ad783a10b7c9ede6e7f27eca7b06b83528c60408301528860608301526002608083015260a082015260a0815261240960c082613ebe565b519020612414615553565b90604051917f19010000000000000000000000000000000000000000000000000000000000008352600283015260228201522080920361045b576124669261035e6001600160a01b039392849361566f565b16911603610433576bffffffffffffffffffffffff82146104065760016124b492016001600160a01b0373ffffffffffffffffffffffffffffffffffffffff1983549260a01b169116179055565b835f52600c60205260405f20926001600160a01b0381165f528360205260405f205490838210611d9f576001600160a01b038181165f908152602087905260409020858403905561250f959092851461253a575b50166152be565b7f06f0d08c652a32f118304f762c3f388848b7653f7df433f67a48aa734675f0135f80a36001600a55005b8282165f526020525f60408120556125528187614af9565b855f52600e60205260405f208282165f5260205260405f2060ff19815416905587612508565b60606003193601126104ab5761258c613deb565b612594613e01565b61259c614979565b336001600160a01b038316036120e9576001600160a01b038116156120c157341561217c576125dc906125d6601454809461203082614579565b82614e55565b805f52600b60205260405f206125f3348254614281565b90557f032bc66be43dbccb7487781d168eb7bda224628a3b2c3388bdf69b532a3a16116020604051838152a1604435907f4fd35fc7cab0142e2b2e81414dbd72945bc0ae0131a46c03bd8c7073234817805f80a36001600a55005b346104ab5760e06003193601126104ab5760043560443567ffffffffffffffff81116104ab57612682903690600401613f33565b9060643561268e613e2d565b9060a435936001600160a01b0360c435936126a7614979565b6126b0866149b2565b1692831561152d57804211610483576040519060208201908682528460408401528560608401528760808401523360a084015260c083015260c082526126f760e083613ebe565b855f52600960205260405f20915190209181549060428260a01c9460405160208101917f5fd4fde1cb878824d6e96eec97296c9e818ad783a10b7c9ede6e7f27eca7b06b83528a60408301528760608301526001608083015260a082015260a0815261276460c082613ebe565b51902061276f615553565b90604051917f19010000000000000000000000000000000000000000000000000000000000008352600283015260228201522090816024350361045b576127c49261035e6001600160a01b039392849361566f565b16911603610433576bffffffffffffffffffffffff821461040657600161281292016001600160a01b0373ffffffffffffffffffffffffffffffffffffffff1983549260a01b169116179055565b825f52600b60205260405f205491818310611e3d575f8281949261283883958495614245565b878452600b60205260408420555af161284f614252565b5015611e15577f06f0d08c652a32f118304f762c3f388848b7653f7df433f67a48aa734675f0135f80a36001600a55005b346104ab5761288e36613f8b565b929190612899614979565b6128a2836149b2565b6001600160a01b0382161561152d576128bb91836150e1565b7f0131d4fe789c9eeb7c2dd7e32aa9393d395bef62f1f67e0ba2a76d33c6dcf5ee5f80a36001600a55005b346104ab576128f436613f8b565b9291906128ff614979565b612908836149b2565b6001600160a01b0382161561152d57801561217c576128bb9183614ecc565b346104ab5761003e61293836613f51565b9060405192612948602085613ebe565b5f845261466c565b346104ab5760206003193601126104ab576004356040517f6352211e0000000000000000000000000000000000000000000000000000000081528160048201526020816024816001600160a01b037f0000000000000000000000000000000000000000000000000000000000000000165afa908115610a6d575f916129fa575b506001600160a01b0333911603610a16575f526009602052602060405f205460a01c604051908152f35b612a13915060203d602011610a6657610a588183613ebe565b826129d0565b6101006003193601126104ab57612a2e613deb565b612a36613e01565b60443560643567ffffffffffffffff81116104ab57612a59903690600401613e43565b60849291923567ffffffffffffffff81116104ab57612a7c903690600401613e43565b60a49291923567ffffffffffffffff81116104ab57612a9f903690600401613e43565b93909260c43567ffffffffffffffff81116104ab57612ac2903690600401613e43565b979096612acd614979565b336001600160a01b038c16036120e9576001600160a01b038a16156120c157848314801590612bcf575b612ba757803403612b7f57612b20612b269a612b1a601454809e61203082614579565b8c614e55565b8a614a50565b7f032bc66be43dbccb7487781d168eb7bda224628a3b2c3388bdf69b532a3a16116020604051838152a160e435907f4fd35fc7cab0142e2b2e81414dbd72945bc0ae0131a46c03bd8c7073234817805f80a36001600a55005b7f42c0a68f000000000000000000000000000000000000000000000000000000005f5260045ffd5b7fa24a13a6000000000000000000000000000000000000000000000000000000005f5260045ffd5b5088871415612af7565b346104ab5760c06003193601126104ab5760043560443567ffffffffffffffff81116104ab57612c0d903690600401613f33565b60643567ffffffffffffffff81116104ab57612c2d903690600401613f33565b916084359160a435612c3d614979565b825f5260026020526001600160a01b0360405f20541615610a7857612c6183614958565b6001600160a01b0333911603610a16578042116104835760405190612cbc82602081019286845260a06040830152612c9c60c083018a613dc6565b9088606084015233608084015260a083015203601f198101845283613ebe565b835f52600960205260405f20915190209181549060428260a01c9460405160208101917f5fd4fde1cb878824d6e96eec97296c9e818ad783a10b7c9ede6e7f27eca7b06b83528860408301528760608301526005608083015260a082015260a08152612d2960c082613ebe565b519020612d34615553565b90604051917f19010000000000000000000000000000000000000000000000000000000000008352600283015260228201522090816024350361045b57612d899261035e6001600160a01b039392849361566f565b16911603610433576bffffffffffffffffffffffff8214610406576001612dd792016001600160a01b0373ffffffffffffffffffffffffffffffffffffffff1983549260a01b169116179055565b805f52601760205260405f20835167ffffffffffffffff81116117e857612dfe8254614172565b601f8111612ed2575b50602094601f8211600114612e7157612e389293949582915f92612e665750505f198260011b9260031b1c19161790565b90555b7fe6b029312a4fe660620d9aac173bc78279912103135fdd45fcb95684efee4bd65f80a36001600a55005b0151905086806116a2565b601f19821695835f52805f20915f5b888110612eba57508360019596979810612ea2575b505050811b019055612e3b565b01515f1960f88460031b161c19169055858080612e95565b91926020600181928685015181550194019201612e80565b612efd90835f5260205f20601f840160051c81019160208510612f03575b601f0160051c0190614563565b85612e07565b9091508190612ef0565b346104ab5761003e612f1e36613f51565b91614319565b346104ab576101606003193601126104ab5760043560443567ffffffffffffffff81116104ab57612f59903690600401613f33565b90612f62613e17565b91612f6b613e2d565b9060a4359160c4359260e4356001600160a01b038116918282036104ab576101043567ffffffffffffffff81116104ab57612faa903690600401613e74565b9161012435996101443594612fbd614979565b612fc68b6149b2565b8542101561048357861561152d57821561217c576001600160a01b038816986001600160a01b038316968a88146139a1578c888f928d938f613009368d8d613efd565b6020815191012090604051966020880195878752604089015260608801528a608088015260a08701528d60c087015260e086015261010085015233610120850152610140840152610140835261306161016084613ebe565b815f52600960205260405f20925190209260428354928360a01c956040519060208201927f5fd4fde1cb878824d6e96eec97296c9e818ad783a10b7c9ede6e7f27eca7b06b845260408301528760608301526007608083015260a082015260a081526130ce60c082613ebe565b5190206130d9615553565b90604051917f19010000000000000000000000000000000000000000000000000000000000008352600283015260228201522090816024350361045b5761312e9261035e6001600160a01b039392849361566f565b16911603610433576bffffffffffffffffffffffff821461040657600161317c92016001600160a01b0373ffffffffffffffffffffffffffffffffffffffff1983549260a01b169116179055565b8515938415613929578b5f52600b60205260405f2054848110611e3d57846131a391614245565b8c5f52600b60205260405f20555b84156138ad5747915b8a1598891561382f5747975b87159384613739575b61c3505a111561372a575a907fffffffffffffffffffffffffffffffffffffffffffffffffffffffffffff3cb08201918211610406575f928392915b8b841461372257868b915b83604051948592833781018681520393f192613230614252565b5061368b575b5050156135525783156136015761324e904790614245565b935b861561357a576132609047614245565b985b891561355257891061352a578992156133f257509091818111156133b6576132ad7f260ac65ac41e6ea2416d18ddc4d2fa8175b7feaa9819898b16b43c0ea139fbce92602092614245565b604051908152a35b15613301575050815f52600b6020526132d360405f20918254614281565b90555b7ffa44886bdf29041e45bda3924c838d5a6ed302e301c579f52acb4c3aa9aef77a5f80a36001600a55005b835f52600e60205260405f20825f5260205260ff60405f2054161561334a575b50825f52600c60205260405f20905f5260205261334360405f20918254614281565b90556132d6565b835f52600e60205260405f20825f5260205260405f20600160ff19825416179055835f52600d60205260405f20549060018201809211610406576133b091855f52600f60205260405f20845f5260205260405f2055845f52600d60205260405f206142d0565b84613321565b819350809250106133c9575b50506132b5565b6133d291614245565b855f52600b6020526133e960405f20918254614281565b905586806133c2565b825f52600c60205260405f208285115f146134435750506134376020917f260ac65ac41e6ea2416d18ddc4d2fa8175b7feaa9819898b16b43c0ea139fbce9394614245565b604051908152a36132b5565b925092818110613458575b50505050506132b5565b61346191614245565b835f528160205261347760405f20918254614281565b9055875f52600e60205260405f20835f5260205260ff60405f205416159081613515575b506134a9575b80808061344e565b865f52600e60205260405f20825f5260205260405f20600160ff19825416179055865f52600d60205260405f2054600181018091116104065761350e92885f52600f60205260405f20905f5260205260405f2055865f52600d60205260405f206142d0565b86806134a1565b9050825f5260205260405f205415158961349b565b7f8199f5f3000000000000000000000000000000000000000000000000000000005f5260045ffd5b7f03a40bc4000000000000000000000000000000000000000000000000000000005f5260045ffd5b604051907f70a082310000000000000000000000000000000000000000000000000000000082523060048301526020826024818d5afa8015610a6d575f906135cd575b6135c79250614245565b98613262565b506020823d6020116135f9575b816135e760209383613ebe565b810103126104ab576135c791516135bd565b3d91506135da565b604051907f70a082310000000000000000000000000000000000000000000000000000000082523060048301526020826024818a5afa908115610a6d575f91613655575b61364f9250614245565b93613250565b90506020823d602011613683575b8161367060209383613ebe565b810103126104ab5761364f915190613645565b3d9150613663565b604051907fdd62ed3e00000000000000000000000000000000000000000000000000000000825230600483015260248201526020816044818c5afa908115610a6d575f916136f0575b506136e0575b80613236565b6136ea9088614c3d565b8d6136da565b90506020813d60201161371a575b8161370b60209383613ebe565b810103126104ab57518f6136d4565b3d91506136fe565b868491613216565b5f919082915a60011c9161320b565b613743848c614c3d565b6040517f095ea7b30000000000000000000000000000000000000000000000000000000060208083019182526001600160a01b038716602484015260448084018c90528352905f908e90613798606486613ebe565b828551925af15f513d82613813575b5050156137b5575b506131cf565b61380d906138078d604051907f095ea7b30000000000000000000000000000000000000000000000000000000060208301528760248301525f604483015260448252613802606483613ebe565b61543d565b8c61543d565b5f6137af565b90915061382757508b3b15155b5f806137a7565b600114613820565b602460208d604051928380927f70a082310000000000000000000000000000000000000000000000000000000082523060048301525afa908115610a6d575f9161387b575b50976131c6565b90506020813d6020116138a5575b8161389660209383613ebe565b810103126104ab57515f613874565b3d9150613889565b6040517f70a082310000000000000000000000000000000000000000000000000000000081523060048201526020816024818b5afa908115610a6d575f916138f7575b50916131ba565b90506020813d602011613921575b8161391260209383613ebe565b810103126104ab57518e6138f0565b3d9150613905565b8b5f52600c60205260405f20875f528060205260405f2054858110611d9f575f89815260208390526040902086820390558514613967575b506131b1565b875f526020525f604081205561397d838d614af9565b8b5f52600e60205260405f20875f5260205260405f2060ff1981541690558d613961565b7f11157667000000000000000000000000000000000000000000000000000000005f5260045ffd5b346104ab5760806003193601126104ab576139e2613deb565b506139eb613e01565b5060643567ffffffffffffffff81116104ab57613a0c903690600401613e74565b505060206040517f150b7a02000000000000000000000000000000000000000000000000000000008152f35b60e06003193601126104ab5760043560243560443567ffffffffffffffff81116104ab57613a6a903690600401613e43565b9060643567ffffffffffffffff81116104ab57613a8b903690600401613e43565b9060843567ffffffffffffffff81116104ab57613aac903690600401613e43565b92909160a43567ffffffffffffffff81116104ab57613acf903690600401613e43565b969095613ada614979565b881580613b7e575b80613b76575b61217c57613af58a6149b2565b883403613b4e57838214801590613b44575b611e6557613b15988a614a50565b60c435907f0131d4fe789c9eeb7c2dd7e32aa9393d395bef62f1f67e0ba2a76d33c6dcf5ee5f80a36001600a55005b5087861415613b07565b7fcfb73638000000000000000000000000000000000000000000000000000000005f5260045ffd5b508515613ae8565b508115613ae2565b346104ab5760406003193601126104ab57613b9f613deb565b602435613bab81614958565b33151580613c85575b80613c52575b613c265781906001600160a01b0380851691167f8c5be1e5ebec7d5bd14f71427d1e84f3dd0314c0f7b2291e5b200ac8c7c3b9255f80a45f5260046020526001600160a01b0360405f20911673ffffffffffffffffffffffffffffffffffffffff198254161790555f80f35b7fa9fbf51f000000000000000000000000000000000000000000000000000000005f523360045260245ffd5b506001600160a01b0381165f52600560205260405f206001600160a01b0333165f5260205260ff60405f20541615613bba565b50336001600160a01b0382161415613bb4565b346104ab5760206003193601126104ab57600435613cb581614958565b505f52600460205260206001600160a01b0360405f205416604051908152f35b346104ab575f6003193601126104ab576040515f5f54613cf481614172565b80845290600181169081156115fb5750600114613d1b57610af483610ae081850382613ebe565b5f8080527f290decd9548b62a8d60345a988386fc84ba6bc95484008f6362f93160ef3e563939250905b808210613d5d57509091508101602001610ae061158d565b919260018160209254838588010152019101909291613d45565b346104ab5760206003193601126104ab57600435907fffffffff00000000000000000000000000000000000000000000000000000000821682036104ab57613dc0602092614076565b15158152f35b90601f19601f602080948051918291828752018686015e5f8582860101520116010190565b600435906001600160a01b03821682036104ab57565b602435906001600160a01b03821682036104ab57565b606435906001600160a01b03821682036104ab57565b608435906001600160a01b03821682036104ab57565b9181601f840112156104ab5782359167ffffffffffffffff83116104ab576020808501948460051b0101116104ab57565b9181601f840112156104ab5782359167ffffffffffffffff83116104ab57602083818601950101116104ab57565b6040810190811067ffffffffffffffff8211176117e857604052565b90601f601f19910116810190811067ffffffffffffffff8211176117e857604052565b67ffffffffffffffff81116117e857601f01601f191660200190565b929192613f0982613ee1565b91613f176040519384613ebe565b8294818452818301116104ab578281602093845f960137010152565b9080601f830112156104ab57816020613f4e93359101613efd565b90565b60031960609101126104ab576004356001600160a01b03811681036104ab57906024356001600160a01b03811681036104ab579060443590565b60031960809101126104ab57600435906024356001600160a01b03811681036104ab57906044359060643590565b6101006003198201126104ab5760043591602435916044359067ffffffffffffffff82116104ab57613fed91600401613f33565b906064356001600160a01b03811681036104ab57906084359060a4356001600160a01b03811681036104ab579060c4359060e43590565b60031960a09101126104ab576004356001600160a01b03811681036104ab57906024356001600160a01b03811681036104ab57906044356001600160a01b03811681036104ab57906064359060843590565b7fffffffff00000000000000000000000000000000000000000000000000000000167fb45a3c0e00000000000000000000000000000000000000000000000000000000811461416c577f150b7a0200000000000000000000000000000000000000000000000000000000811461416c577f80ac58cd000000000000000000000000000000000000000000000000000000008114908115614142575b811561411b575090565b7f01ffc9a70000000000000000000000000000000000000000000000000000000091501490565b7f5b5e139f0000000000000000000000000000000000000000000000000000000081149150614111565b50600190565b90600182811c921680156141b9575b602083101461418c57565b7f4e487b71000000000000000000000000000000000000000000000000000000005f52602260045260245ffd5b91607f1691614181565b5f92918154916141d283614172565b808352926001811690811561422757506001146141ee57505050565b5f9081526020812093945091925b83831061420d575060209250010190565b6001816020929493945483858701015201910191906141fc565b9050602094955060ff1991509291921683830152151560051b010190565b9190820391821161040657565b3d1561427c573d9061426382613ee1565b916142716040519384613ebe565b82523d5f602084013e565b606090565b9190820180921161040657565b80548210156142a3575f5260205f2001905f90565b7f4e487b71000000000000000000000000000000000000000000000000000000005f52603260045260245ffd5b90815491680100000000000000008310156117e857826142f89160016143179501815561428e565b9091906001600160a01b038084549260031b9316831b921b1916179055565b565b91906001600160a01b0316801561453757815f5260026020526001600160a01b0360405f20541615158061452f575b610f8557815f5260026020526001600160a01b0360405f20541692823315159283614461575b6001600160a01b0393508561441d575b805f52600360205260405f2060018154019055815f52600260205260405f208173ffffffffffffffffffffffffffffffffffffffff19825416179055857fddf252ad1be2c89b69c2b068fc378daa952ba7f163c4a11628f55a4df523b3ef5f80a4168083036143ec57505050565b7f64283d7b000000000000000000000000000000000000000000000000000000005f5260045260245260445260645ffd5b614449825f52600460205260405f2073ffffffffffffffffffffffffffffffffffffffff198154169055565b855f52600360205260405f205f19815401905561437e565b91929050806144d8575b156144785782829161436e565b82846144a9577f7e273289000000000000000000000000000000000000000000000000000000005f5260045260245ffd5b7f177e802f000000000000000000000000000000000000000000000000000000005f523360045260245260445ffd5b503384148015614506575b8061446b5750825f526004602052336001600160a01b0360405f2054161461446b565b50835f52600560205260405f206001600160a01b0333165f5260205260ff60405f2054166144e3565b506001614348565b7f64a0ae92000000000000000000000000000000000000000000000000000000005f525f60045260245ffd5b81811061456e575050565b5f8155600101614563565b5f1981146104065760010190565b908160209103126104ab57516001600160a01b03811681036104ab5790565b67ffffffffffffffff81116117e85760051b60200190565b916020908281520191905f905b8082106145d85750505090565b9091928335906001600160a01b03821682036104ab57602080916001600160a01b036001941681520194019201906145cb565b90918281527f07ffffffffffffffffffffffffffffffffffffffffffffffffffffffffffffff83116104ab5760209260051b809284830137010190565b91908110156142a35760051b0190565b356001600160a01b03811681036104ab5790565b90614678838284614319565b803b614685575b50505050565b6020916146e46001600160a01b038093169560405195869485947f150b7a020000000000000000000000000000000000000000000000000000000086523360048701521660248501526044840152608060648401526084830190613dc6565b03815f865af15f91816147b7575b506147395750614700614252565b8051908161473457827f64a0ae92000000000000000000000000000000000000000000000000000000005f5260045260245ffd5b602001fd5b7fffffffff000000000000000000000000000000000000000000000000000000007f150b7a020000000000000000000000000000000000000000000000000000000091160361478c57505f80808061467f565b7f64a0ae92000000000000000000000000000000000000000000000000000000005f5260045260245ffd5b9091506020813d60201161480c575b816147d360209383613ebe565b810103126104ab57517fffffffff00000000000000000000000000000000000000000000000000000000811681036104ab57905f6146f2565b3d91506147c6565b805f5260026020526001600160a01b0360405f20541615610a78575f52601760205261484c61485360405f20604051928380926141c3565b0382613ebe565b8051613f4e5750614865601554614172565b614891577f8714d516000000000000000000000000000000000000000000000000000000005f5260045ffd5b604051601554815f6148a283614172565b808352926001811690811561492557506001146148c6575b613f4e92500382613ebe565b5060155f90815290917f55f448fdea98c4d29eb340757ef0a66cd03dbb9538908a6a81d96026b71ec4755b818310614909575050906020613f4e928201016148ba565b60209193508060019154838588010152019101909183926148f1565b60209250613f4e94915060ff191682840152151560051b8201016148ba565b80518210156142a35760209160051b010190565b805f5260026020526001600160a01b0360405f205416908115610ed3575090565b6002600a541461498a576002600a55565b7f3ee5aeb5000000000000000000000000000000000000000000000000000000005f5260045ffd5b604051907f6352211e00000000000000000000000000000000000000000000000000000000825260048201526020816024816001600160a01b037f0000000000000000000000000000000000000000000000000000000000000000165afa908115610a6d575f91614a31575b506001600160a01b0333911603610a1657565b614a4a915060203d602011610a6657610a588183613ebe565b5f614a1e565b9796949193929098959880614ada575b505f5b818110614aad5750505050505f5b818110614a8057505050505050565b80614aa7614a94611b80600194868b614648565b614a9f838789614648565b3590886150e1565b01614a71565b80614ad4614ac1611b80600194868a614648565b614acc838789614648565b35908c614ecc565b01614a63565b885f52600b602052614af160405f20918254614281565b90555f614a60565b805f52600f60205260405f206001600160a01b0383165f5260205260405f20548015614c3857815f52600d60205260405f2054808203614bbb575b5050805f52600d60205260405f2080548015614b8e575f190190614b58828261428e565b6001600160a01b0382549160031b1b19169055555f52600f6020526001600160a01b0360405f2091165f526020525f6040812055565b7f4e487b71000000000000000000000000000000000000000000000000000000005f52603160045260245ffd5b825f52600d60205260405f205f198201918211610406576001600160a01b0391614be49161428e565b90549060031b1c16825f52600d60205260405f205f198301838111610406576142f88391614c119361428e565b825f52600f6020526001600160a01b0360405f2091165f5260205260405f20555f80614b34565b505050565b6040519060205f6001600160a01b03828501957f095ea7b3000000000000000000000000000000000000000000000000000000008752169485602486015281604486015260448552614c90606486613ebe565b84519082855af15f513d82614cfd575b505015614cac57505050565b61380261431793604051907f095ea7b300000000000000000000000000000000000000000000000000000000602083015260248201525f604482015260448152614cf7606482613ebe565b8261543d565b909150614d1a57506001600160a01b0381163b15155b5f80614ca0565b600114614d13565b6001600160a01b031690811561453757805f5260026020526001600160a01b0360405f205416151580614e4d575b610f8557805f5260026020526001600160a01b0360405f205416908115159283614e09575b805f52600360205260405f2060018154019055815f52600260205260405f208173ffffffffffffffffffffffffffffffffffffffff19825416179055827fddf252ad1be2c89b69c2b068fc378daa952ba7f163c4a11628f55a4df523b3ef5f80a450614ddd57565b7f73c6ac6e000000000000000000000000000000000000000000000000000000005f525f60045260245ffd5b614e35825f52600460205260405f2073ffffffffffffffffffffffffffffffffffffffff198154169055565b825f52600360205260405f205f198154019055614d75565b506001614d50565b90815f5260096020526001600160a01b0360405f205416614ea4575f918252600960205260409091206001600160a01b0390911674010000000000000000000000000000000000000000179055565b7f0dc149f0000000000000000000000000000000000000000000000000000000005f5260045ffd5b6040517f70a0823100000000000000000000000000000000000000000000000000000000815230600482015291926001600160a01b0384169290602082602481875afa918215610a6d575f926150ab575b506040517f23b872dd0000000000000000000000000000000000000000000000000000000060208201523360248201523060448201526064810191909152614f7290614f6c81608481016113e6565b8461543d565b604051907f70a08231000000000000000000000000000000000000000000000000000000008252306004830152602082602481875afa8015610a6d575f90615077575b614fbf9250614245565b92831561217c57815f52600e60205260405f20835f5260205260ff60405f2054161561500b575b505f52600c60205260405f20905f5260205261500760405f20918254614281565b9055565b815f52600e60205260405f20835f5260205260405f20600160ff19825416179055815f52600d60205260405f205490600182018092116104065761507191835f52600f60205260405f20855f5260205260405f2055825f52600d60205260405f206142d0565b5f614fe6565b506020823d6020116150a3575b8161509160209383613ebe565b810103126104ab57614fbf9151614fb5565b3d9150615084565b9091506020813d6020116150d9575b816150c760209383613ebe565b810103126104ab5751906113e6614f1d565b3d91506150ba565b906040516020810190615129816113e687868690917fffffffffffffffffffffffffffffffffffffffff00000000000000000000000060349360601b16825260148201520190565b51902091805f52601260205260405f20835f5260205260ff60405f20541615615219575b6001906001600160a01b036040519361516585613ea2565b169384845260208401918683525f52601160205260405f20905f526020526001600160a01b038060405f209451161673ffffffffffffffffffffffffffffffffffffffff1984541617835551910155803b156104ab576040517f42842e0e00000000000000000000000000000000000000000000000000000000815233600482015230602482015260448101929092525f908290606490829084905af18015610a6d5761520f5750565b5f61431791613ebe565b805f52601260205260405f20835f5260205260405f20600160ff19825416179055805f52601060205260405f20546001810180911161040657815f52601360205260405f20845f5260205260405f2055805f52601060205260405f2090815491680100000000000000008310156117e8576152b561529f8487936001809701815561428e565b81939154905f199060031b92831b921b19161790565b9055905061514d565b6040517fa9059cbb0000000000000000000000000000000000000000000000000000000060208201526001600160a01b0392909216602483015260448083019390935291815261431791613802606483613ebe565b6001600160a01b0360065416330361532757565b7f118cdaa7000000000000000000000000000000000000000000000000000000005f523360045260245ffd5b805f52601360205260405f20825f5260205260405f20548015614c3857815f52601060205260405f20548082036153d0575b5050805f52601060205260405f2080548015614b8e575f1901906153a9828261428e565b5f1982549160031b1b19169055555f52601360205260405f20905f526020525f6040812055565b825f52601060205260405f20905f198101908111610406576153f19161428e565b90549060031b1c825f52601060205260405f205f1983018381116104065761529f61541d91849361428e565b9055825f52601360205260405f20905f5260205260405f20555f80615385565b905f602091828151910182855af115610a6d575f513d6154a157506001600160a01b0381163b155b61546c5750565b6001600160a01b03907f5274afe7000000000000000000000000000000000000000000000000000000005f521660045260245ffd5b60011415615465565b60ff81146155095760ff811690601f82116154e157604051916154ce604084613ebe565b6020808452838101919036833783525290565b7fb3512b0c000000000000000000000000000000000000000000000000000000005f5260045ffd5b50604051613f4e8161484c8160076141c3565b60ff81146155405760ff811690601f82116154e157604051916154ce604084613ebe565b50604051613f4e8161484c8160086141c3565b6001600160a01b037f000000000000000000000000000000000000000000000000000000000000000016301480615646575b156155ae577f000000000000000000000000000000000000000000000000000000000000000090565b60405160208101907f8b73c3c69bb8fe3d512ecc4cf759cc79239f7b179b0ffacaa9a75d522b39400f82527f000000000000000000000000000000000000000000000000000000000000000060408201527f000000000000000000000000000000000000000000000000000000000000000060608201524660808201523060a082015260a0815261564060c082613ebe565b51902090565b507f00000000000000000000000000000000000000000000000000000000000000004614615585565b815191906041830361569f576156989250602082015190606060408401519301515f1a90615781565b9192909190565b50505f9160029190565b600481101561575457806156bb575050565b600181036156eb577ff645eedf000000000000000000000000000000000000000000000000000000005f5260045ffd5b6002810361571f57507ffce698f7000000000000000000000000000000000000000000000000000000005f5260045260245ffd5b6003146157295750565b7fd78bce0c000000000000000000000000000000000000000000000000000000005f5260045260245ffd5b7f4e487b71000000000000000000000000000000000000000000000000000000005f52602160045260245ffd5b91907f7fffffffffffffffffffffffffffffff5d576e7357a4501ddfe92f46681b20a084116157f8579160209360809260ff5f9560405194855216868401526040830152606082015282805260015afa15610a6d575f516001600160a01b038116156157ee57905f905f90565b505f906001905f90565b5050505f916003919056fea264697066735822122024a822aa25b78df08f1f5b946b14c6071cde10600e3b5624075ab800bc427c0d64736f6c634300081e0033","linkReferences":{}},"methodIdentifiers":{"approve(address,uint256)":"095ea7b3","balanceOf(address)":"70a08231","batchDeposit(uint256,uint256,address[],uint256[],address[],uint256[],bytes32)":"0db54256","batchWithdraw(uint256,bytes32,bytes,uint256,address[],uint256[],address[],uint256[],address,bytes32,uint256)":"8f93f31b","burnLockbox(uint256,bytes32,bytes,bytes32,uint256)":"bb4ffa10","createLockboxWithBatch(address,address,uint256,address[],uint256[],address[],uint256[],bytes32)":"3b0320b0","createLockboxWithERC20(address,address,address,uint256,bytes32)":"748917dd","createLockboxWithERC721(address,address,address,uint256,bytes32)":"75463c4a","createLockboxWithETH(address,address,bytes32)":"5e4ed95d","depositERC20(uint256,address,uint256,bytes32)":"486c4b7f","depositERC721(uint256,address,uint256,bytes32)":"4d8af09e","depositETH(uint256,bytes32)":"65cd69a1","eip712Domain()":"84b0196e","getActiveLockboxPublicKeyForToken(uint256)":"aea5cf30","getApproved(uint256)":"081812fc","getFullLockbox(uint256)":"e124a17c","getNonce(uint256)":"3d46b819","isApprovedForAll(address,address)":"e985e9c5","locked(uint256)":"b45a3c0e","name()":"06fdde03","onERC721Received(address,address,uint256,bytes)":"150b7a02","owner()":"8da5cb5b","ownerOf(uint256)":"6352211e","renounceOwnership()":"715018a6","rotateLockboxKey(uint256,bytes32,bytes,address,bytes32,uint256)":"f3eb9a16","safeTransferFrom(address,address,uint256)":"42842e0e","safeTransferFrom(address,address,uint256,bytes)":"b88d4fde","setApprovalForAll(address,bool)":"a22cb465","setDefaultMetadataURI(string)":"95480879","setTokenMetadataURI(uint256,bytes32,bytes,string,bytes32,uint256)":"2dbf9be6","supportsInterface(bytes4)":"01ffc9a7","swapInLockbox(uint256,bytes32,bytes,address,address,uint256,uint256,address,bytes,bytes32,uint256)":"218e631d","symbol()":"95d89b41","tokenURI(uint256)":"c87b56dd","transferFrom(address,address,uint256)":"23b872dd","transferOwnership(address)":"f2fde38b","withdrawERC20(uint256,bytes32,bytes,address,uint256,address,bytes32,uint256)":"6267699a","withdrawERC721(uint256,bytes32,bytes,address,uint256,address,bytes32,uint256)":"9b9900a9","withdrawETH(uint256,bytes32,bytes,uint256,address,bytes32,uint256)":"52dc033c"},"id":1}