{"abi":[{"type":"constructor","inputs":[],"stateMutability":"nonpayable"},{"type":"fallback","stateMutability":"payable"},{"type":"receive","stateMutability":"payable"},{"type":"function","name":"approve","inputs":[{"name":"to","type":"address","internalType":"address"},{"name":"tokenId","type":"uint256","internalType":"uint256"}],"outputs":[],"stateMutability":"nonpayable"},{"type":"function","name":"balanceOf","inputs":[{"name":"owner","type":"address","internalType":"address"}],"outputs":[{"name":"","type":"uint256","internalType":"uint256"}],"stateMutability":"view"},{"type":"function","name":"batchDeposit","inputs":[{"name":"tokenId","type":"uint256","internalType":"uint256"},{"name":"amountETH","type":"uint256","internalType":"uint256"},{"name":"tokenAddresses","type":"address[]","internalType":"address[]"},{"name":"tokenAmounts","type":"uint256[]","internalType":"uint256[]"},{"name":"nftContracts","type":"address[]","internalType":"address[]"},{"name":"nftTokenIds","type":"uint256[]","internalType":"uint256[]"},{"name":"referenceId","type":"bytes32","internalType":"bytes32"}],"outputs":[],"stateMutability":"payable"},{"type":"function","name":"batchWithdraw","inputs":[{"name":"tokenId","type":"uint256","internalType":"uint256"},{"name":"messageHash","type":"bytes32","internalType":"bytes32"},{"name":"signature","type":"bytes","internalType":"bytes"},{"name":"amountETH","type":"uint256","internalType":"uint256"},{"name":"tokenAddresses","type":"address[]","internalType":"address[]"},{"name":"tokenAmounts","type":"uint256[]","internalType":"uint256[]"},{"name":"nftContracts","type":"address[]","internalType":"address[]"},{"name":"nftTokenIds","type":"uint256[]","internalType":"uint256[]"},{"name":"recipient","type":"address","internalType":"address"},{"name":"referenceId","type":"bytes32","internalType":"bytes32"},{"name":"signatureExpiry","type":"uint256","internalType":"uint256"}],"outputs":[],"stateMutability":"nonpayable"},{"type":"function","name":"burnLockbox","inputs":[{"name":"tokenId","type":"uint256","internalType":"uint256"},{"name":"messageHash","type":"bytes32","internalType":"bytes32"},{"name":"signature","type":"bytes","internalType":"bytes"},{"name":"referenceId","type":"bytes32","internalType":"bytes32"},{"name":"signatureExpiry","type":"uint256","internalType":"uint256"}],"outputs":[],"stateMutability":"nonpayable"},{"type":"function","name":"createLockboxWithBatch","inputs":[{"name":"to","type":"address","internalType":"address"},{"name":"lockboxPublicKey","type":"address","internalType":"address"},{"name":"amountETH","type":"uint256","internalType":"uint256"},{"name":"tokenAddresses","type":"address[]","internalType":"address[]"},{"name":"tokenAmounts","type":"uint256[]","internalType":"uint256[]"},{"name":"nftContracts","type":"address[]","internalType":"address[]"},{"name":"nftTokenIds","type":"uint256[]","internalType":"uint256[]"},{"name":"referenceId","type":"bytes32","internalType":"bytes32"}],"outputs":[],"stateMutability":"payable"},{"type":"function","name":"createLockboxWithERC20","inputs":[{"name":"to","type":"address","internalType":"address"},{"name":"lockboxPublicKey","type":"address","internalType":"address"},{"name":"tokenAddress","type":"address","internalType":"address"},{"name":"amount","type":"uint256","internalType":"uint256"},{"name":"referenceId","type":"bytes32","internalType":"bytes32"}],"outputs":[],"stateMutability":"nonpayable"},{"type":"function","name":"createLockboxWithERC721","inputs":[{"name":"to","type":"address","internalType":"address"},{"name":"lockboxPublicKey","type":"address","internalType":"address"},{"name":"nftContract","type":"address","internalType":"address"},{"name":"externalNftTokenId","type":"uint256","internalType":"uint256"},{"name":"referenceId","type":"bytes32","internalType":"bytes32"}],"outputs":[],"stateMutability":"nonpayable"},{"type":"function","name":"createLockboxWithETH","inputs":[{"name":"to","type":"address","internalType":"address"},{"name":"lockboxPublicKey","type":"address","internalType":"address"},{"name":"referenceId","type":"bytes32","internalType":"bytes32"}],"outputs":[],"stateMutability":"payable"},{"type":"function","name":"depositERC20","inputs":[{"name":"tokenId","type":"uint256","internalType":"uint256"},{"name":"tokenAddress","type":"address","internalType":"address"},{"name":"amount","type":"uint256","internalType":"uint256"},{"name":"referenceId","type":"bytes32","internalType":"bytes32"}],"outputs":[],"stateMutability":"nonpayable"},{"type":"function","name":"depositERC721","inputs":[{"name":"tokenId","type":"uint256","internalType":"uint256"},{"name":"nftContract","type":"address","internalType":"address"},{"name":"nftTokenId","type":"uint256","internalType":"uint256"},{"name":"referenceId","type":"bytes32","internalType":"bytes32"}],"outputs":[],"stateMutability":"nonpayable"},{"type":"function","name":"depositETH","inputs":[{"name":"tokenId","type":"uint256","internalType":"uint256"},{"name":"referenceId","type":"bytes32","internalType":"bytes32"}],"outputs":[],"stateMutability":"payable"},{"type":"function","name":"eip712Domain","inputs":[],"outputs":[{"name":"fields","type":"bytes1","internalType":"bytes1"},{"name":"name","type":"string","internalType":"string"},{"name":"version","type":"string","internalType":"string"},{"name":"chainId","type":"uint256","internalType":"uint256"},{"name":"verifyingContract","type":"address","internalType":"address"},{"name":"salt","type":"bytes32","internalType":"bytes32"},{"name":"extensions","type":"uint256[]","internalType":"uint256[]"}],"stateMutability":"view"},{"type":"function","name":"getActiveLockboxPublicKeyForToken","inputs":[{"name":"tokenId","type":"uint256","internalType":"uint256"}],"outputs":[{"name":"","type":"address","internalType":"address"}],"stateMutability":"view"},{"type":"function","name":"getApproved","inputs":[{"name":"tokenId","type":"uint256","internalType":"uint256"}],"outputs":[{"name":"","type":"address","internalType":"address"}],"stateMutability":"view"},{"type":"function","name":"getFullLockbox","inputs":[{"name":"tokenId","type":"uint256","internalType":"uint256"}],"outputs":[{"name":"lockboxETH","type":"uint256","internalType":"uint256"},{"name":"erc20Tokens","type":"tuple[]","internalType":"struct Withdrawals.erc20Balances[]","components":[{"name":"tokenAddress","type":"address","internalType":"address"},{"name":"balance","type":"uint256","internalType":"uint256"}]},{"name":"nftContracts","type":"tuple[]","internalType":"struct Deposits.nftBalances[]","components":[{"name":"nftContract","type":"address","internalType":"address"},{"name":"nftTokenId","type":"uint256","internalType":"uint256"}]}],"stateMutability":"view"},{"type":"function","name":"getNonce","inputs":[{"name":"tokenId","type":"uint256","internalType":"uint256"}],"outputs":[{"name":"","type":"uint256","internalType":"uint256"}],"stateMutability":"view"},{"type":"function","name":"isApprovedForAll","inputs":[{"name":"owner","type":"address","internalType":"address"},{"name":"operator","type":"address","internalType":"address"}],"outputs":[{"name":"","type":"bool","internalType":"bool"}],"stateMutability":"view"},{"type":"function","name":"locked","inputs":[{"name":"tokenId","type":"uint256","internalType":"uint256"}],"outputs":[{"name":"","type":"bool","internalType":"bool"}],"stateMutability":"view"},{"type":"function","name":"name","inputs":[],"outputs":[{"name":"","type":"string","internalType":"string"}],"stateMutability":"view"},{"type":"function","name":"onERC721Received","inputs":[{"name":"","type":"address","internalType":"address"},{"name":"","type":"address","internalType":"address"},{"name":"","type":"uint256","internalType":"uint256"},{"name":"","type":"bytes","internalType":"bytes"}],"outputs":[{"name":"","type":"bytes4","internalType":"bytes4"}],"stateMutability":"pure"},{"type":"function","name":"owner","inputs":[],"outputs":[{"name":"","type":"address","internalType":"address"}],"stateMutability":"view"},{"type":"function","name":"ownerOf","inputs":[{"name":"tokenId","type":"uint256","internalType":"uint256"}],"outputs":[{"name":"","type":"address","internalType":"address"}],"stateMutability":"view"},{"type":"function","name":"renounceOwnership","inputs":[],"outputs":[],"stateMutability":"nonpayable"},{"type":"function","name":"rotateLockboxKey","inputs":[{"name":"tokenId","type":"uint256","internalType":"uint256"},{"name":"messageHash","type":"bytes32","internalType":"bytes32"},{"name":"signature","type":"bytes","internalType":"bytes"},{"name":"newPublicKey","type":"address","internalType":"address"},{"name":"referenceId","type":"bytes32","internalType":"bytes32"},{"name":"signatureExpiry","type":"uint256","internalType":"uint256"}],"outputs":[],"stateMutability":"nonpayable"},{"type":"function","name":"safeTransferFrom","inputs":[{"name":"from","type":"address","internalType":"address"},{"name":"to","type":"address","internalType":"address"},{"name":"tokenId","type":"uint256","internalType":"uint256"}],"outputs":[],"stateMutability":"nonpayable"},{"type":"function","name":"safeTransferFrom","inputs":[{"name":"from","type":"address","internalType":"address"},{"name":"to","type":"address","internalType":"address"},{"name":"tokenId","type":"uint256","internalType":"uint256"},{"name":"data","type":"bytes","internalType":"bytes"}],"outputs":[],"stateMutability":"nonpayable"},{"type":"function","name":"setApprovalForAll","inputs":[{"name":"operator","type":"address","internalType":"address"},{"name":"approved","type":"bool","internalType":"bool"}],"outputs":[],"stateMutability":"nonpayable"},{"type":"function","name":"setDefaultMetadataURI","inputs":[{"name":"newDefaultURI","type":"string","internalType":"string"}],"outputs":[],"stateMutability":"nonpayable"},{"type":"function","name":"setTokenMetadataURI","inputs":[{"name":"tokenId","type":"uint256","internalType":"uint256"},{"name":"messageHash","type":"bytes32","internalType":"bytes32"},{"name":"signature","type":"bytes","internalType":"bytes"},{"name":"newMetadataURI","type":"string","internalType":"string"},{"name":"referenceId","type":"bytes32","internalType":"bytes32"},{"name":"signatureExpiry","type":"uint256","internalType":"uint256"}],"outputs":[],"stateMutability":"nonpayable"},{"type":"function","name":"supportsInterface","inputs":[{"name":"interfaceId","type":"bytes4","internalType":"bytes4"}],"outputs":[{"name":"","type":"bool","internalType":"bool"}],"stateMutability":"view"},{"type":"function","name":"symbol","inputs":[],"outputs":[{"name":"","type":"string","internalType":"string"}],"stateMutability":"view"},{"type":"function","name":"tokenURI","inputs":[{"name":"tokenId","type":"uint256","internalType":"uint256"}],"outputs":[{"name":"","type":"string","internalType":"string"}],"stateMutability":"view"},{"type":"function","name":"transferFrom","inputs":[{"name":"from","type":"address","internalType":"address"},{"name":"to","type":"address","internalType":"address"},{"name":"tokenId","type":"uint256","internalType":"uint256"}],"outputs":[],"stateMutability":"nonpayable"},{"type":"function","name":"transferOwnership","inputs":[{"name":"newOwner","type":"address","internalType":"address"}],"outputs":[],"stateMutability":"nonpayable"},{"type":"function","name":"withdrawERC20","inputs":[{"name":"tokenId","type":"uint256","internalType":"uint256"},{"name":"messageHash","type":"bytes32","internalType":"bytes32"},{"name":"signature","type":"bytes","internalType":"bytes"},{"name":"tokenAddress","type":"address","internalType":"address"},{"name":"amount","type":"uint256","internalType":"uint256"},{"name":"recipient","type":"address","internalType":"address"},{"name":"referenceId","type":"bytes32","internalType":"bytes32"},{"name":"signatureExpiry","type":"uint256","internalType":"uint256"}],"outputs":[],"stateMutability":"nonpayable"},{"type":"function","name":"withdrawERC721","inputs":[{"name":"tokenId","type":"uint256","internalType":"uint256"},{"name":"messageHash","type":"bytes32","internalType":"bytes32"},{"name":"signature","type":"bytes","internalType":"bytes"},{"name":"nftContract","type":"address","internalType":"address"},{"name":"nftTokenId","type":"uint256","internalType":"uint256"},{"name":"recipient","type":"address","internalType":"address"},{"name":"referenceId","type":"bytes32","internalType":"bytes32"},{"name":"signatureExpiry","type":"uint256","internalType":"uint256"}],"outputs":[],"stateMutability":"nonpayable"},{"type":"function","name":"withdrawETH","inputs":[{"name":"tokenId","type":"uint256","internalType":"uint256"},{"name":"messageHash","type":"bytes32","internalType":"bytes32"},{"name":"signature","type":"bytes","internalType":"bytes"},{"name":"amountETH","type":"uint256","internalType":"uint256"},{"name":"recipient","type":"address","internalType":"address"},{"name":"referenceId","type":"bytes32","internalType":"bytes32"},{"name":"signatureExpiry","type":"uint256","internalType":"uint256"}],"outputs":[],"stateMutability":"nonpayable"},{"type":"event","name":"Approval","inputs":[{"name":"owner","type":"address","indexed":true,"internalType":"address"},{"name":"approved","type":"address","indexed":true,"internalType":"address"},{"name":"tokenId","type":"uint256","indexed":true,"internalType":"uint256"}],"anonymous":false},{"type":"event","name":"ApprovalForAll","inputs":[{"name":"owner","type":"address","indexed":true,"internalType":"address"},{"name":"operator","type":"address","indexed":true,"internalType":"address"},{"name":"approved","type":"bool","indexed":false,"internalType":"bool"}],"anonymous":false},{"type":"event","name":"Deposited","inputs":[{"name":"tokenId","type":"uint256","indexed":true,"internalType":"uint256"},{"name":"referenceId","type":"bytes32","indexed":true,"internalType":"bytes32"}],"anonymous":false},{"type":"event","name":"EIP712DomainChanged","inputs":[],"anonymous":false},{"type":"event","name":"KeyRotated","inputs":[{"name":"tokenId","type":"uint256","indexed":true,"internalType":"uint256"},{"name":"referenceId","type":"bytes32","indexed":true,"internalType":"bytes32"}],"anonymous":false},{"type":"event","name":"LockboxBurned","inputs":[{"name":"tokenId","type":"uint256","indexed":true,"internalType":"uint256"},{"name":"referenceId","type":"bytes32","indexed":true,"internalType":"bytes32"}],"anonymous":false},{"type":"event","name":"Locked","inputs":[{"name":"tokenId","type":"uint256","indexed":false,"internalType":"uint256"}],"anonymous":false},{"type":"event","name":"Minted","inputs":[{"name":"tokenId","type":"uint256","indexed":true,"internalType":"uint256"},{"name":"referenceId","type":"bytes32","indexed":true,"internalType":"bytes32"}],"anonymous":false},{"type":"event","name":"OwnershipTransferred","inputs":[{"name":"previousOwner","type":"address","indexed":true,"internalType":"address"},{"name":"newOwner","type":"address","indexed":true,"internalType":"address"}],"anonymous":false},{"type":"event","name":"TokenMetadataURISet","inputs":[{"name":"tokenId","type":"uint256","indexed":true,"internalType":"uint256"},{"name":"referenceId","type":"bytes32","indexed":true,"internalType":"bytes32"}],"anonymous":false},{"type":"event","name":"Transfer","inputs":[{"name":"from","type":"address","indexed":true,"internalType":"address"},{"name":"to","type":"address","indexed":true,"internalType":"address"},{"name":"tokenId","type":"uint256","indexed":true,"internalType":"uint256"}],"anonymous":false},{"type":"event","name":"Withdrawn","inputs":[{"name":"tokenId","type":"uint256","indexed":true,"internalType":"uint256"},{"name":"referenceId","type":"bytes32","indexed":true,"internalType":"bytes32"}],"anonymous":false},{"type":"error","name":"AlreadyInitialized","inputs":[]},{"type":"error","name":"ArrayLengthMismatch","inputs":[]},{"type":"error","name":"DefaultURIAlreadySet","inputs":[]},{"type":"error","name":"ECDSAInvalidSignature","inputs":[]},{"type":"error","name":"ECDSAInvalidSignatureLength","inputs":[{"name":"length","type":"uint256","internalType":"uint256"}]},{"type":"error","name":"ECDSAInvalidSignatureS","inputs":[{"name":"s","type":"bytes32","internalType":"bytes32"}]},{"type":"error","name":"ERC721IncorrectOwner","inputs":[{"name":"sender","type":"address","internalType":"address"},{"name":"tokenId","type":"uint256","internalType":"uint256"},{"name":"owner","type":"address","internalType":"address"}]},{"type":"error","name":"ERC721InsufficientApproval","inputs":[{"name":"operator","type":"address","internalType":"address"},{"name":"tokenId","type":"uint256","internalType":"uint256"}]},{"type":"error","name":"ERC721InvalidApprover","inputs":[{"name":"approver","type":"address","internalType":"address"}]},{"type":"error","name":"ERC721InvalidOperator","inputs":[{"name":"operator","type":"address","internalType":"address"}]},{"type":"error","name":"ERC721InvalidOwner","inputs":[{"name":"owner","type":"address","internalType":"address"}]},{"type":"error","name":"ERC721InvalidReceiver","inputs":[{"name":"receiver","type":"address","internalType":"address"}]},{"type":"error","name":"ERC721InvalidSender","inputs":[{"name":"sender","type":"address","internalType":"address"}]},{"type":"error","name":"ERC721NonexistentToken","inputs":[{"name":"tokenId","type":"uint256","internalType":"uint256"}]},{"type":"error","name":"ETHMismatch","inputs":[]},{"type":"error","name":"EthTransferFailed","inputs":[]},{"type":"error","name":"EthValueMismatch","inputs":[]},{"type":"error","name":"FallbackNotAllowed","inputs":[]},{"type":"error","name":"InsufficientTokenBalance","inputs":[]},{"type":"error","name":"InvalidMessageHash","inputs":[]},{"type":"error","name":"InvalidShortString","inputs":[]},{"type":"error","name":"InvalidSignature","inputs":[]},{"type":"error","name":"MismatchedInputs","inputs":[]},{"type":"error","name":"NFTNotFound","inputs":[]},{"type":"error","name":"NoETHBalance","inputs":[]},{"type":"error","name":"NoURI","inputs":[]},{"type":"error","name":"NonexistentToken","inputs":[]},{"type":"error","name":"NotOwner","inputs":[]},{"type":"error","name":"OwnableInvalidOwner","inputs":[{"name":"owner","type":"address","internalType":"address"}]},{"type":"error","name":"OwnableUnauthorizedAccount","inputs":[{"name":"account","type":"address","internalType":"address"}]},{"type":"error","name":"ReentrancyGuardReentrantCall","inputs":[]},{"type":"error","name":"SafeERC20FailedOperation","inputs":[{"name":"token","type":"address","internalType":"address"}]},{"type":"error","name":"SelfMintOnly","inputs":[]},{"type":"error","name":"SignatureExpired","inputs":[]},{"type":"error","name":"StringTooLong","inputs":[{"name":"str","type":"string","internalType":"string"}]},{"type":"error","name":"TransfersDisabled","inputs":[]},{"type":"error","name":"UseDepositETH","inputs":[]},{"type":"error","name":"ZeroAddress","inputs":[]},{"type":"error","name":"ZeroAmount","inputs":[]},{"type":"error","name":"ZeroKey","inputs":[]},{"type":"error","name":"ZeroTokenAddress","inputs":[]}],"bytecode":{"object":"0x610180604052346104a8576040516100186040826104ac565b60088152674c6f636b782e696f60c01b60208201526040519061003c6040836104ac565b6007825266098dec6d6c4def60cb1b602083015260405161005e6040826104ac565b60058152602081019064098dec6d6f60db1b8252604051936100816040866104ac565b60018552601960f91b60208601908152845190946001600160401b0382116103af575f5490600182811c9216801561049e575b60208310146103915781601f849311610431575b50602090601f83116001146103ce575f926103c3575b50508160011b915f199060031b1c1916175f555b8051906001600160401b0382116103af5760015490600182811c921680156103a5575b60208310146103915781601f849311610323575b50602090601f83116001146102bd575f926102b2575b50508160011b915f199060031b1c1916176001555b331561029f5760068054336001600160a01b0319821681179092556001600160a01b03167f8be0079c531659141344cd1fd0a4f28419497f9722a3daafe3b4186f6b6457e05f80a36101a5816104cf565b610120526101b284610656565b61014052519020918260e05251902080610100524660a0526040519060208201927f8b73c3c69bb8fe3d512ecc4cf759cc79239f7b179b0ffacaa9a75d522b39400f8452604083015260608201524660808201523060a082015260a0815261021b60c0826104ac565b5190206080523060c05230610160526001600a55604051614c58908161078f8239608051816149ab015260a05181614a68015260c0518161497c015260e051816149fa01526101005181614a2001526101205181611ed401526101405181611efd0152610160518181816105ef015281816110c3015281816129a00152613eb30152f35b631e4fbdf760e01b5f525f60045260245ffd5b015190505f8061013f565b60015f9081528281209350601f198516905b81811061030b57509084600195949392106102f3575b505050811b01600155610154565b01515f1960f88460031b161c191690555f80806102e5565b929360206001819287860151815501950193016102cf565b60015f529091507fb10e2d527612073b26eecdfd717e6a320cf44b4afac2b0732d9fcbe2b7fa0cf6601f840160051c81019160208510610387575b90601f859493920160051c01905b8181106103795750610129565b5f815584935060010161036c565b909150819061035e565b634e487b7160e01b5f52602260045260245ffd5b91607f1691610115565b634e487b7160e01b5f52604160045260245ffd5b015190505f806100de565b5f8080528281209350601f198516905b8181106104195750908460019594939210610401575b505050811b015f556100f2565b01515f1960f88460031b161c191690555f80806103f4565b929360206001819287860151815501950193016103de565b5f80529091507f290decd9548b62a8d60345a988386fc84ba6bc95484008f6362f93160ef3e563601f840160051c81019160208510610494575b90601f859493920160051c01905b81811061048657506100c8565b5f8155849350600101610479565b909150819061046b565b91607f16916100b4565b5f80fd5b601f909101601f19168101906001600160401b038211908210176103af57604052565b908151602081105f14610549575090601f8151116105095760208151910151602082106104fa571790565b5f198260200360031b1b161790565b604460209160405192839163305a27a960e01b83528160048401528051918291826024860152018484015e5f828201840152601f01601f19168101030190fd5b6001600160401b0381116103af57600754600181811c9116801561064c575b602082101461039157601f8111610619575b50602092601f82116001146105b857928192935f926105ad575b50508160011b915f199060031b1c19161760075560ff90565b015190505f80610594565b601f1982169360075f52805f20915f5b86811061060157508360019596106105e9575b505050811b0160075560ff90565b01515f1960f88460031b161c191690555f80806105db565b919260206001819286850151815501940192016105c8565b60075f52601f60205f20910160051c810190601f830160051c015b818110610641575061057a565b5f8155600101610634565b90607f1690610568565b908151602081105f14610681575090601f8151116105095760208151910151602082106104fa571790565b6001600160401b0381116103af57600854600181811c91168015610784575b602082101461039157601f8111610751575b50602092601f82116001146106f057928192935f926106e5575b50508160011b915f199060031b1c19161760085560ff90565b015190505f806106cc565b601f1982169360085f52805f20915f5b8681106107395750836001959610610721575b505050811b0160085560ff90565b01515f1960f88460031b161c191690555f8080610713565b91926020600181928685015181550194019201610700565b60085f52601f60205f20910160051c810190601f830160051c015b81811061077957506106b2565b5f815560010161076c565b90607f16906106a056fe6080806040526004361015610066575b50361561003e577fdeab4c30000000000000000000000000000000000000000000000000000000005f5260045ffd5b7f491fe534000000000000000000000000000000000000000000000000000000005f5260045ffd5b5f3560e01c90816301ffc9a7146132ec5750806306fdde031461324a578063081812fc1461320d578063095ea7b3146130fb5780630db5425614612fad578063150b7a0214612f2457806323b872dd14612f0d5780632dbf9be614612bd95780633b0320b014612a195780633d46b8191461295057806342842e0e14612927578063486c4b7f146128e65780634d8af09e1461288057806352dc033c1461264d5780635e4ed95d146125775780636267699a146123105780636352211e146122e157806365cd69a11461227357806370a0823114612209578063715018a6146121a3578063748917dd1461211057806375463c4a14611fd057806384b0196e14611ebc5780638da5cb5b14611e965780638f93f31b1461183c578063954808791461161e57806395d89b41146115545780639b9900a9146111f6578063a22cb46514611142578063aea5cf3014611073578063b45a3c0e1461103a578063b88d4fde14610fe9578063bb4ffa1014610b16578063c87b56dd14610adf578063e124a17c146105d1578063e985e9c514610578578063f2fde38b146104cd5763f3eb9a1614610214575f61000f565b346104c95760c06003193601126104c95760043560443567ffffffffffffffff81116104c957610248903690600401613452565b90606435916001600160a01b0383168093036104c9576084359260a4359161026e613e3e565b61027784613e77565b8242116104a15760405192602084019085825283604086015286606086015233608086015260a085015260a084526102b060c085613413565b845f52600960205260405f20935190209083549060428260a01c9360405160208101917f5fd4fde1cb878824d6e96eec97296c9e818ad783a10b7c9ede6e7f27eca7b06b83528960408301528660608301525f608083015260a082015260a0815261031c60c082613413565b519020610327614972565b90604051917f190100000000000000000000000000000000000000000000000000000000000083526002830152602282015220908160243503610479576103859261037c6001600160a01b0393928493614a8e565b90959195614ac8565b16911603610451576bffffffffffffffffffffffff81146104245782546001600160a01b031660019190910160a01b73ffffffffffffffffffffffffffffffffffffffff191617825580610401575b50507f984cbcf51cba481417bc4c1f7faacf7392a4cbcd6c7fb7888b24ed2e50a0be775f80a36001600a55005b73ffffffffffffffffffffffffffffffffffffffff198254161790555f806103d4565b7f4e487b71000000000000000000000000000000000000000000000000000000005f52601160045260245ffd5b7f8baa579f000000000000000000000000000000000000000000000000000000005f5260045ffd5b7f8b56642d000000000000000000000000000000000000000000000000000000005f5260045ffd5b7f0819bdcd000000000000000000000000000000000000000000000000000000005f5260045ffd5b5f80fd5b346104c95760206003193601126104c9576001600160a01b036104ee613360565b6104f6614732565b16801561054c576001600160a01b036006548273ffffffffffffffffffffffffffffffffffffffff19821617600655167f8be0079c531659141344cd1fd0a4f28419497f9722a3daafe3b4186f6b6457e05f80a3005b7f1e4fbdf7000000000000000000000000000000000000000000000000000000005f525f60045260245ffd5b346104c95760406003193601126104c957610591613360565b6001600160a01b036105a1613376565b91165f5260056020526001600160a01b0360405f2091165f52602052602060ff60405f2054166040519015158152f35b346104c95760206003193601126104c9576004356001600160a01b037f0000000000000000000000000000000000000000000000000000000000000000166040517f6352211e000000000000000000000000000000000000000000000000000000008152826004820152602081602481855afa5f9181610abe575b50610679577fb1d04f08000000000000000000000000000000000000000000000000000000005f5260045ffd5b6001600160a01b031615610a96576020602491604051928380927f6352211e0000000000000000000000000000000000000000000000000000000082528660048301525afa908115610a8b575f91610a5c575b506001600160a01b0333911603610a3457805f52600b60205260405f2054815f52600d60205260405f2091825461070281613a26565b936107106040519586613413565b818552601f1961071f83613a26565b015f5b818110610a085750505f5b82811061098157505050805f52601060205260405f205f915f918054925b83811061092e5750601f1961077861076286613a26565b956107706040519788613413565b808752613a26565b015f5b8181106109025750505f905f5b84811061085557878787604051928392606084019084526060602085015281518091526020608085019201905f5b81811061081c575050508281036040840152602080835192838152019201905f5b8181106107e5575050500390f35b91935091602060408261080e6001948851602080916001600160a01b0381511684520151910152565b0194019101918493926107d7565b919394509160206040826108466001948851602080916001600160a01b0381511684520151910152565b019401910191859493926107b6565b600190845f9997989952601260205260405f206108728285613df4565b90549060031b1c5f5260205260ff60405f205416610895575b0196959496610788565b845f52601160205260405f206108ab8285613df4565b90549060031b1c5f526020526108fc60405f20946108c8816139b0565b9584604051916108d7836133f7565b6001600160a01b038154168352015460208201526108f5828c613e09565b5289613e09565b5061088b565b6040519697959660209190610916816133f7565b5f81525f8382015282828a010152019695949661077b565b825f9795969752601260205260405f206109488284613df4565b90549060031b1c5f5260205260ff60405f20541661096d575b6001019594939561074b565b946109796001916139b0565b959050610961565b806001600160a01b0361099a6001938599979899613df4565b90549060031b1c16865f52600c60205260405f206001600160a01b03806109c18588613df4565b90549060031b1c16165f5260205260405f2054604051916109e1836133f7565b825260208201526109f28287613e09565b526109fd8186613e09565b50019493929461072d565b6040519596949560209190610a1c816133f7565b5f81525f838201528282880101520195949395610722565b7f30cd7471000000000000000000000000000000000000000000000000000000005f5260045ffd5b610a7e915060203d602011610a84575b610a768183613413565b8101906139be565b826106cc565b503d610a6c565b6040513d5f823e3d90fd5b7fb1d04f08000000000000000000000000000000000000000000000000000000005f5260045ffd5b610ad891925060203d602011610a8457610a768183613413565b908461064c565b346104c95760206003193601126104c957610b12610afe600435613cc1565b60405191829160208352602083019061333b565b0390f35b346104c95760a06003193601126104c95760043560443567ffffffffffffffff81116104c957610b4a903690600401613452565b60643590608435610b59613e3e565b610b6284613e77565b8042116104a157604051906020820190858252846040840152336060840152608083015260808252610b9560a083613413565b845f52600960205260405f20915190209181549060428260a01c9460405160208101917f5fd4fde1cb878824d6e96eec97296c9e818ad783a10b7c9ede6e7f27eca7b06b83528960408301528760608301526004608083015260a082015260a08152610c0260c082613413565b519020610c0d614972565b90604051917f19010000000000000000000000000000000000000000000000000000000000008352600283015260228201522090816024350361047957610c629261037c6001600160a01b0393928493614a8e565b16911603610451576bffffffffffffffffffffffff8214610424576001610cb092016001600160a01b0373ffffffffffffffffffffffffffffffffffffffff1983549260a01b169116179055565b815f52600b6020525f6040812055815f52600d60205260405f205f5b8154811015610d4057806001600160a01b03610cea60019385613df4565b90549060031b1c16855f52600c60205260405f206001600160a01b0382165f526020525f6040812055855f52600e6020526001600160a01b0360405f2091165f5260205260405f2060ff19815416905501610ccc565b5050815f52600d60205260405f2080545f825580610fcf575b5050815f52601060205260405f20915f5b8354811015610dc85780610d8060019286613df4565b90549060031b1c835f52601160205260405f20815f526020525f83604082208281550155835f52601260205260405f20905f5260205260405f2060ff19815416905501610d6a565b50805f52601060205260405f208054905f815581610fb1575b5050805f5260026020526001600160a01b0360405f205416151580610faa575b610f8257805f52601760205260405f20610e1b815461367d565b9081610f3f575b5050805f5260026020526001600160a01b0360405f2054168015908115610efb575b825f52600260205260405f2073ffffffffffffffffffffffffffffffffffffffff198154169055825f827fddf252ad1be2c89b69c2b068fc378daa952ba7f163c4a11628f55a4df523b3ef8280a450610ed057805f5260096020525f60408120557fceed1806179edada6c648f6c52838ceac0b9c18cf04e6fca0712bda6fcf82c185f80a36001600a55005b7f7e273289000000000000000000000000000000000000000000000000000000005f5260045260245ffd5b610f27835f52600460205260405f2073ffffffffffffffffffffffffffffffffffffffff198154169055565b805f52600360205260405f205f198154019055610e44565b81601f5f9311600114610f565750555b8280610e22565b81835260208320610f7291601f0160051c81019060010161399a565b8082528160208120915555610f4f565b7f8574adcf000000000000000000000000000000000000000000000000000000005f5260045ffd5b505f610e01565b5f5260205f20908101905b81811015610de1575f8155600101610fbc565b610fe2915f5260205f209081019061399a565b8280610d59565b346104c95760806003193601126104c957611002613360565b61100a613376565b6064359167ffffffffffffffff83116104c95761102e611038933690600401613452565b9160443591613b19565b005b346104c95760206003193601126104c9576004355f5260026020526001600160a01b0360405f20541615610a9657602060405160018152f35b346104c95760206003193601126104c9576004356040517f6352211e0000000000000000000000000000000000000000000000000000000081528160048201526020816024816001600160a01b037f0000000000000000000000000000000000000000000000000000000000000000165afa908115610a8b575f91611123575b506001600160a01b0333911603610a34575f52600960205260206001600160a01b0360405f205416604051908152f35b61113c915060203d602011610a8457610a768183613413565b826110f3565b346104c95760406003193601126104c95761115b613360565b602435908115158092036104c9576001600160a01b03169081156111ca57335f52600560205260405f20825f5260205260405f2060ff1981541660ff83161790556040519081527f17307eab39ab6107e8899845ad3d59bd9653f200f220920489ca2b5937696c3160203392a3005b507f5b08ba18000000000000000000000000000000000000000000000000000000005f5260045260245ffd5b346104c957611204366134c4565b90969591939294611213613e3e565b61121c87613e77565b6001600160a01b0385161561152c578142116104a15760408051602081018981526001600160a01b038088169383019390935260608201899052918716608082015260a081018a90523360c082015260e081019390935261128b8361010081015b03601f198101855284613413565b875f52600960205260405f20925190209282549160428360a01c9560405160208101917f5fd4fde1cb878824d6e96eec97296c9e818ad783a10b7c9ede6e7f27eca7b06b83528c60408301528860608301526003608083015260a082015260a081526112f860c082613413565b519020611303614972565b90604051917f190100000000000000000000000000000000000000000000000000000000000083526002830152602282015220809203610479576113559261037c6001600160a01b0393928493614a8e565b16911603610451576bffffffffffffffffffffffff82146104245760016113a392016001600160a01b0373ffffffffffffffffffffffffffffffffffffffff1983549260a01b169116179055565b604051606082901b7fffffffffffffffffffffffffffffffffffffffff000000000000000000000000166020820190815260348201859052906113f381605481015b03601f198101835282613413565b51902090845f52601260205260405f20825f5260205260ff60405f20541615611504576114646001600160a01b0392865f52601160205260405f20815f526020525f6001604082208281550155865f52601260205260405f20815f5260205260405f2060ff19815416905586614772565b1691823b156104c9576040517f42842e0e0000000000000000000000000000000000000000000000000000000081523060048201526001600160a01b039290921660248301526044820152905f908290606490829084905af18015610a8b576114f4575b507f06f0d08c652a32f118304f762c3f388848b7653f7df433f67a48aa734675f0135f80a36001600a55005b5f6114fe91613413565b826114c8565b7ff070cb6f000000000000000000000000000000000000000000000000000000005f5260045ffd5b7fd92e233d000000000000000000000000000000000000000000000000000000005f5260045ffd5b346104c9575f6003193601126104c9576040515f6001546115748161367d565b80845290600181169081156115fa575060011461159c575b610b1283610afe81850382613413565b60015f9081527fb10e2d527612073b26eecdfd717e6a320cf44b4afac2b0732d9fcbe2b7fa0cf6939250905b8082106115e057509091508101602001610afe61158c565b9192600181602092548385880101520191019092916115c8565b60ff191660208086019190915291151560051b84019091019150610afe905061158c565b346104c95760206003193601126104c95760043567ffffffffffffffff81116104c95761164f903690600401613452565b611657614732565b60ff6016541661181457805167ffffffffffffffff81116117e75761167d60155461367d565b601f8111611750575b50602091601f82116001146116d2576116b4925f91836116c7575b50505f198260011b9260031b1c19161790565b6015555b6016805460ff19166001179055005b0151905083806116a1565b601f1982169260155f527f55f448fdea98c4d29eb340757ef0a66cd03dbb9538908a6a81d96026b71ec475915f5b85811061173857508360019510611720575b505050811b016015556116b8565b01515f1960f88460031b161c19169055828080611712565b91926020600181928685015181550194019201611700565b6117b99060155f52601f830160051c7f55f448fdea98c4d29eb340757ef0a66cd03dbb9538908a6a81d96026b71ec4750190602084106117bf575b601f0160051c7f55f448fdea98c4d29eb340757ef0a66cd03dbb9538908a6a81d96026b71ec475019061399a565b82611686565b7f55f448fdea98c4d29eb340757ef0a66cd03dbb9538908a6a81d96026b71ec475915061178b565b7f4e487b71000000000000000000000000000000000000000000000000000000005f52604160045260245ffd5b7fe8cba6d8000000000000000000000000000000000000000000000000000000005f5260045ffd5b346104c9576101606003193601126104c95760443567ffffffffffffffff81116104c95761186e903690600401613452565b60643560843567ffffffffffffffff81116104c95761189190369060040161338c565b909160a43567ffffffffffffffff81116104c9576118b390369060040161338c565b9360c43567ffffffffffffffff81116104c9576118d490369060040161338c565b92909160e43567ffffffffffffffff81116104c9576118f790369060040161338c565b96909761010435966001600160a01b038816908189036104c957610124359b61014435611922613e3e565b61192d600435613e77565b831561152c578042116104a157848614801590611e8c575b611e645782868f8f938f948b958f8f908f8d6040519a8b9960208b019b6004358d5260408c015260608b0161014090526101608b019061198492613a3e565b90898203601f190160808b015261199a92613a8b565b90878203601f190160a08901526119b092613a3e565b90858203601f190160c08701526119c692613a8b565b918860e08501526101008401523361012084015261014083015203601f19810183526119f29083613413565b6004355f52600960205260405f2091519020918154908160a01c9360405160208101917f5fd4fde1cb878824d6e96eec97296c9e818ad783a10b7c9ede6e7f27eca7b06b83526004356040830152866060830152608082016006905260a082015260a08152611a6260c082613413565b519020611a6d614972565b90604051917f19010000000000000000000000000000000000000000000000000000000000008352600283015260228201526042902090816024350361047957611ac59261037c6001600160a01b0393928493614a8e565b16911603610451576bffffffffffffffffffffffff8214610424576001611b1392016001600160a01b0373ffffffffffffffffffffffffffffffffffffffff1983549260a01b169116179055565b80611dc6575b50506004355f52600c60205260405f20915f5b818110611ce9575050505050505f5b828110611b7157866004357f06f0d08c652a32f118304f762c3f388848b7653f7df433f67a48aa734675f0135f80a36001600a55005b611b84611b7f828585613ac8565b613b05565b6113e5611bd7611b9584898b613ac8565b3560405192839160208301958690917fffffffffffffffffffffffffffffffffffffffff00000000000000000000000060349360601b16825260148201520190565b5190206004355f52601260205260405f20815f5260205260ff60405f2054161561150457611c47906004355f52601160205260405f20815f526020525f60016040822082815501556004355f52601260205260405f20815f5260205260405f2060ff198154169055600435614772565b6001600160a01b03611c5d611b7f838686613ac8565b1690611c6a818789613ac8565b3591803b156104c9576040517f42842e0e0000000000000000000000000000000000000000000000000000000081523060048201526001600160a01b038716602482015260448101939093525f908390606490829084905af1918215610a8b57600192611cd9575b5001611b3b565b5f611ce391613413565b88611cd2565b611cf7611b7f828488613ac8565b90611d03818589613ac8565b356001600160a01b0383165f528560205260405f205490808210611d9e576001600160a01b038481165f9081526020899052604090208284039055600194611d56938e9291908414611d5c575b166146dd565b01611b2c565b8181165f52896020525f6040812055611d7781600435614599565b6004355f52600e60205260405f208282165f5260205260405f2060ff198154169055611d50565b7fe4455cae000000000000000000000000000000000000000000000000000000005f5260045ffd5b6004355f52600b60205260405f205491818310611e3c575f82819492611dee839584956139dd565b6004358452600b60205260408420555af1611e076139ea565b5015611e14578a80611b19565b7f6d963f88000000000000000000000000000000000000000000000000000000005f5260045ffd5b7ffcc00b30000000000000000000000000000000000000000000000000000000005f5260045ffd5b7f469224f0000000000000000000000000000000000000000000000000000000005f5260045ffd5b508b8a1415611945565b346104c9575f6003193601126104c95760206001600160a01b0360065416604051908152f35b346104c9575f6003193601126104c957611f74611ef87f00000000000000000000000000000000000000000000000000000000000000006148c9565b611f217f000000000000000000000000000000000000000000000000000000000000000061493b565b6020611f8260405192611f348385613413565b5f84525f3681376040519586957f0f00000000000000000000000000000000000000000000000000000000000000875260e08588015260e087019061333b565b90858203604087015261333b565b4660608501523060808501525f60a085015283810360c08501528180845192838152019301915f5b828110611fb957505050500390f35b835185528695509381019392810192600101611faa565b346104c957611fde3661352f565b939291611fe9613e3e565b336001600160a01b038516036120e8576001600160a01b038316156120c0576001600160a01b038116156120985761203d61204393612037601454809761202f826139b0565b601455613fbe565b856140f1565b836143ba565b7f032bc66be43dbccb7487781d168eb7bda224628a3b2c3388bdf69b532a3a16116020604051838152a17f4fd35fc7cab0142e2b2e81414dbd72945bc0ae0131a46c03bd8c7073234817805f80a36001600a55005b7f6b093aad000000000000000000000000000000000000000000000000000000005f5260045ffd5b7ffbd849c6000000000000000000000000000000000000000000000000000000005f5260045ffd5b7fbaee6e49000000000000000000000000000000000000000000000000000000005f5260045ffd5b346104c95761211e3661352f565b939291612129613e3e565b336001600160a01b038516036120e8576001600160a01b038316156120c0576001600160a01b0381161561209857811561217b5761217561204393612037601454809761202f826139b0565b83614168565b7f1f2a2005000000000000000000000000000000000000000000000000000000005f5260045ffd5b346104c9575f6003193601126104c9576121bb614732565b5f6001600160a01b0360065473ffffffffffffffffffffffffffffffffffffffff198116600655167f8be0079c531659141344cd1fd0a4f28419497f9722a3daafe3b4186f6b6457e08280a3005b346104c95760206003193601126104c9576001600160a01b0361222a613360565b168015612247575f526003602052602060405f2054604051908152f35b7f89c62b64000000000000000000000000000000000000000000000000000000005f525f60045260245ffd5b60406003193601126104c95760043561228a613e3e565b61229381613e77565b341561217b57805f52600b60205260405f206122b0348254613a19565b9055602435907f0131d4fe789c9eeb7c2dd7e32aa9393d395bef62f1f67e0ba2a76d33c6dcf5ee5f80a36001600a55005b346104c95760206003193601126104c95760206122ff600435613e1d565b6001600160a01b0360405191168152f35b346104c95761231e366134c4565b9096959192939461232d613e3e565b61233687613e77565b6001600160a01b0384161561152c578142116104a15760408051602081018981526001600160a01b03808a169383019390935260608201889052918616608082015260a081018a90523360c082015260e081019390935261239b83610100810161127d565b875f52600960205260405f20925190209282549160428360a01c9560405160208101917f5fd4fde1cb878824d6e96eec97296c9e818ad783a10b7c9ede6e7f27eca7b06b83528c60408301528860608301526002608083015260a082015260a0815261240860c082613413565b519020612413614972565b90604051917f190100000000000000000000000000000000000000000000000000000000000083526002830152602282015220809203610479576124659261037c6001600160a01b0393928493614a8e565b16911603610451576bffffffffffffffffffffffff82146104245760016124b392016001600160a01b0373ffffffffffffffffffffffffffffffffffffffff1983549260a01b169116179055565b835f52600c60205260405f20926001600160a01b0381165f528360205260405f205490838210611d9e576001600160a01b038181165f908152602087905260409020858403905561250e9590928514612539575b50166146dd565b7f06f0d08c652a32f118304f762c3f388848b7653f7df433f67a48aa734675f0135f80a36001600a55005b8282165f526020525f60408120556125518187614599565b855f52600e60205260405f208282165f5260205260405f2060ff19815416905587612507565b60606003193601126104c95761258b613360565b612593613376565b61259b613e3e565b336001600160a01b038316036120e8576001600160a01b038116156120c057341561217b576125db906125d5601454809461202f826139b0565b826140f1565b805f52600b60205260405f206125f2348254613a19565b90557f032bc66be43dbccb7487781d168eb7bda224628a3b2c3388bdf69b532a3a16116020604051838152a1604435907f4fd35fc7cab0142e2b2e81414dbd72945bc0ae0131a46c03bd8c7073234817805f80a36001600a55005b346104c95760e06003193601126104c95760043560443567ffffffffffffffff81116104c957612681903690600401613452565b90606435608435906001600160a01b0382168092036104c95760a4359360c4356126a9613e3e565b6126b285613e77565b831561152c578042116104a1576040519060208201908682528460408401528560608401528760808401523360a084015260c083015260c082526126f760e083613413565b855f52600960205260405f20915190209181549060428260a01c9460405160208101917f5fd4fde1cb878824d6e96eec97296c9e818ad783a10b7c9ede6e7f27eca7b06b83528a60408301528760608301526001608083015260a082015260a0815261276460c082613413565b51902061276f614972565b90604051917f190100000000000000000000000000000000000000000000000000000000000083526002830152602282015220908160243503610479576127c49261037c6001600160a01b0393928493614a8e565b16911603610451576bffffffffffffffffffffffff821461042457600161281292016001600160a01b0373ffffffffffffffffffffffffffffffffffffffff1983549260a01b169116179055565b825f52600b60205260405f205491818310611e3c575f82819492612838839584956139dd565b878452600b60205260408420555af161284f6139ea565b5015611e14577f06f0d08c652a32f118304f762c3f388848b7653f7df433f67a48aa734675f0135f80a36001600a55005b346104c95761288e36613496565b929190612899613e3e565b6128a283613e77565b6001600160a01b0382161561152c576128bb91836143ba565b7f0131d4fe789c9eeb7c2dd7e32aa9393d395bef62f1f67e0ba2a76d33c6dcf5ee5f80a36001600a55005b346104c9576128f436613496565b9291906128ff613e3e565b61290883613e77565b6001600160a01b0382161561152c57801561217b576128bb9183614168565b346104c957611038612938366133bd565b9060405192612948602085613413565b5f8452613b19565b346104c95760206003193601126104c9576004356040517f6352211e0000000000000000000000000000000000000000000000000000000081528160048201526020816024816001600160a01b037f0000000000000000000000000000000000000000000000000000000000000000165afa908115610a8b575f916129fa575b506001600160a01b0333911603610a34575f526009602052602060405f205460a01c604051908152f35b612a13915060203d602011610a8457610a768183613413565b826129d0565b6101006003193601126104c957612a2e613360565b612a36613376565b60443560643567ffffffffffffffff81116104c957612a5990369060040161338c565b60849291923567ffffffffffffffff81116104c957612a7c90369060040161338c565b60a49291923567ffffffffffffffff81116104c957612a9f90369060040161338c565b93909260c43567ffffffffffffffff81116104c957612ac290369060040161338c565b979096612acd613e3e565b336001600160a01b038c16036120e8576001600160a01b038a16156120c057848314801590612bcf575b612ba757803403612b7f57612b20612b269a612b1a601454809e61202f826139b0565b8c6140f1565b8a613f15565b7f032bc66be43dbccb7487781d168eb7bda224628a3b2c3388bdf69b532a3a16116020604051838152a160e435907f4fd35fc7cab0142e2b2e81414dbd72945bc0ae0131a46c03bd8c7073234817805f80a36001600a55005b7f42c0a68f000000000000000000000000000000000000000000000000000000005f5260045ffd5b7fa24a13a6000000000000000000000000000000000000000000000000000000005f5260045ffd5b5088871415612af7565b346104c95760c06003193601126104c95760043560443567ffffffffffffffff81116104c957612c0d903690600401613452565b60643567ffffffffffffffff81116104c957612c2d903690600401613452565b916084359160a435612c3d613e3e565b825f5260026020526001600160a01b0360405f20541615610a9657612c6183613e1d565b6001600160a01b0333911603610a34578042116104a15760405190612cbc82602081019286845260a06040830152612c9c60c083018a61333b565b9088606084015233608084015260a083015203601f198101845283613413565b835f52600960205260405f20915190209181549060428260a01c9460405160208101917f5fd4fde1cb878824d6e96eec97296c9e818ad783a10b7c9ede6e7f27eca7b06b83528860408301528760608301526005608083015260a082015260a08152612d2960c082613413565b519020612d34614972565b90604051917f19010000000000000000000000000000000000000000000000000000000000008352600283015260228201522090816024350361047957612d899261037c6001600160a01b0393928493614a8e565b16911603610451576bffffffffffffffffffffffff8214610424576001612dd792016001600160a01b0373ffffffffffffffffffffffffffffffffffffffff1983549260a01b169116179055565b805f52601760205260405f20835167ffffffffffffffff81116117e757612dfe825461367d565b601f8111612ed2575b50602094601f8211600114612e7157612e389293949582915f92612e665750505f198260011b9260031b1c19161790565b90555b7fe6b029312a4fe660620d9aac173bc78279912103135fdd45fcb95684efee4bd65f80a36001600a55005b0151905086806116a1565b601f19821695835f52805f20915f5b888110612eba57508360019596979810612ea2575b505050811b019055612e3b565b01515f1960f88460031b161c19169055858080612e95565b91926020600181928685015181550194019201612e80565b612efd90835f5260205f20601f840160051c81019160208510612f03575b601f0160051c019061399a565b85612e07565b9091508190612ef0565b346104c957611038612f1e366133bd565b91613750565b346104c95760806003193601126104c957612f3d613360565b50612f46613376565b5060643567ffffffffffffffff81116104c957366023820112156104c957806004013567ffffffffffffffff81116104c957369101602401116104c95760206040517f150b7a02000000000000000000000000000000000000000000000000000000008152f35b60e06003193601126104c95760043560243560443567ffffffffffffffff81116104c957612fdf90369060040161338c565b9060643567ffffffffffffffff81116104c95761300090369060040161338c565b9060843567ffffffffffffffff81116104c95761302190369060040161338c565b92909160a43567ffffffffffffffff81116104c95761304490369060040161338c565b96909561304f613e3e565b8815806130f3575b806130eb575b61217b5761306a8a613e77565b8834036130c3578382148015906130b9575b611e645761308a988a613f15565b60c435907f0131d4fe789c9eeb7c2dd7e32aa9393d395bef62f1f67e0ba2a76d33c6dcf5ee5f80a36001600a55005b508786141561307c565b7fcfb73638000000000000000000000000000000000000000000000000000000005f5260045ffd5b50851561305d565b508115613057565b346104c95760406003193601126104c957613114613360565b60243561312081613e1d565b331515806131fa575b806131c7575b61319b5781906001600160a01b0380851691167f8c5be1e5ebec7d5bd14f71427d1e84f3dd0314c0f7b2291e5b200ac8c7c3b9255f80a45f5260046020526001600160a01b0360405f20911673ffffffffffffffffffffffffffffffffffffffff198254161790555f80f35b7fa9fbf51f000000000000000000000000000000000000000000000000000000005f523360045260245ffd5b506001600160a01b0381165f52600560205260405f206001600160a01b0333165f5260205260ff60405f2054161561312f565b50336001600160a01b0382161415613129565b346104c95760206003193601126104c95760043561322a81613e1d565b505f52600460205260206001600160a01b0360405f205416604051908152f35b346104c9575f6003193601126104c9576040515f5f546132698161367d565b80845290600181169081156115fa575060011461329057610b1283610afe81850382613413565b5f8080527f290decd9548b62a8d60345a988386fc84ba6bc95484008f6362f93160ef3e563939250905b8082106132d257509091508101602001610afe61158c565b9192600181602092548385880101520191019092916132ba565b346104c95760206003193601126104c957600435907fffffffff00000000000000000000000000000000000000000000000000000000821682036104c957613335602092613581565b15158152f35b90601f19601f602080948051918291828752018686015e5f8582860101520116010190565b600435906001600160a01b03821682036104c957565b602435906001600160a01b03821682036104c957565b9181601f840112156104c95782359167ffffffffffffffff83116104c9576020808501948460051b0101116104c957565b60031960609101126104c9576004356001600160a01b03811681036104c957906024356001600160a01b03811681036104c9579060443590565b6040810190811067ffffffffffffffff8211176117e757604052565b90601f601f19910116810190811067ffffffffffffffff8211176117e757604052565b67ffffffffffffffff81116117e757601f01601f191660200190565b81601f820112156104c95760208135910161346c82613436565b9261347a6040519485613413565b828452828201116104c957815f92602092838601378301015290565b60031960809101126104c957600435906024356001600160a01b03811681036104c957906044359060643590565b6101006003198201126104c95760043591602435916044359067ffffffffffffffff82116104c9576134f891600401613452565b906064356001600160a01b03811681036104c957906084359060a4356001600160a01b03811681036104c9579060c4359060e43590565b60031960a09101126104c9576004356001600160a01b03811681036104c957906024356001600160a01b03811681036104c957906044356001600160a01b03811681036104c957906064359060843590565b7fffffffff00000000000000000000000000000000000000000000000000000000167fb45a3c0e000000000000000000000000000000000000000000000000000000008114613677577f150b7a02000000000000000000000000000000000000000000000000000000008114613677577f80ac58cd00000000000000000000000000000000000000000000000000000000811490811561364d575b8115613626575090565b7f01ffc9a70000000000000000000000000000000000000000000000000000000091501490565b7f5b5e139f000000000000000000000000000000000000000000000000000000008114915061361c565b50600190565b90600182811c921680156136c4575b602083101461369757565b7f4e487b71000000000000000000000000000000000000000000000000000000005f52602260045260245ffd5b91607f169161368c565b5f92918154916136dd8361367d565b808352926001811690811561373257506001146136f957505050565b5f9081526020812093945091925b838310613718575060209250010190565b600181602092949394548385870101520191019190613707565b9050602094955060ff1991509291921683830152151560051b010190565b91906001600160a01b0316801561396e57815f5260026020526001600160a01b0360405f205416151580613966575b610f8257815f5260026020526001600160a01b0360405f20541692823315159283613898575b6001600160a01b03935085613854575b805f52600360205260405f2060018154019055815f52600260205260405f208173ffffffffffffffffffffffffffffffffffffffff19825416179055857fddf252ad1be2c89b69c2b068fc378daa952ba7f163c4a11628f55a4df523b3ef5f80a41680830361382357505050565b7f64283d7b000000000000000000000000000000000000000000000000000000005f5260045260245260445260645ffd5b613880825f52600460205260405f2073ffffffffffffffffffffffffffffffffffffffff198154169055565b855f52600360205260405f205f1981540190556137b5565b919290508061390f575b156138af578282916137a5565b82846138e0577f7e273289000000000000000000000000000000000000000000000000000000005f5260045260245ffd5b7f177e802f000000000000000000000000000000000000000000000000000000005f523360045260245260445ffd5b50338414801561393d575b806138a25750825f526004602052336001600160a01b0360405f205416146138a2565b50835f52600560205260405f206001600160a01b0333165f5260205260ff60405f20541661391a565b50600161377f565b7f64a0ae92000000000000000000000000000000000000000000000000000000005f525f60045260245ffd5b8181106139a5575050565b5f815560010161399a565b5f1981146104245760010190565b908160209103126104c957516001600160a01b03811681036104c95790565b9190820391821161042457565b3d15613a14573d906139fb82613436565b91613a096040519384613413565b82523d5f602084013e565b606090565b9190820180921161042457565b67ffffffffffffffff81116117e75760051b60200190565b916020908281520191905f905b808210613a585750505090565b9091928335906001600160a01b03821682036104c957602080916001600160a01b03600194168152019401920190613a4b565b90918281527f07ffffffffffffffffffffffffffffffffffffffffffffffffffffffffffffff83116104c95760209260051b809284830137010190565b9190811015613ad85760051b0190565b7f4e487b71000000000000000000000000000000000000000000000000000000005f52603260045260245ffd5b356001600160a01b03811681036104c95790565b90613b25838284613750565b803b613b32575b50505050565b602091613b916001600160a01b038093169560405195869485947f150b7a02000000000000000000000000000000000000000000000000000000008652336004870152166024850152604484015260806064840152608483019061333b565b03815f865af15f9181613c64575b50613be65750613bad6139ea565b80519081613be157827f64a0ae92000000000000000000000000000000000000000000000000000000005f5260045260245ffd5b602001fd5b7fffffffff000000000000000000000000000000000000000000000000000000007f150b7a0200000000000000000000000000000000000000000000000000000000911603613c3957505f808080613b2c565b7f64a0ae92000000000000000000000000000000000000000000000000000000005f5260045260245ffd5b9091506020813d602011613cb9575b81613c8060209383613413565b810103126104c957517fffffffff00000000000000000000000000000000000000000000000000000000811681036104c957905f613b9f565b3d9150613c73565b805f5260026020526001600160a01b0360405f20541615610a96575f526017602052613cf9613d0060405f20604051928380926136ce565b0382613413565b8051613d735750613d1260155461367d565b613d3e577f8714d516000000000000000000000000000000000000000000000000000000005f5260045ffd5b604051601554815f613d4f8361367d565b8083529260018116908115613dd55750600114613d76575b613d7392500382613413565b90565b5060155f90815290917f55f448fdea98c4d29eb340757ef0a66cd03dbb9538908a6a81d96026b71ec4755b818310613db9575050906020613d7392820101613d67565b6020919350806001915483858801015201910190918392613da1565b60209250613d7394915060ff191682840152151560051b820101613d67565b8054821015613ad8575f5260205f2001905f90565b8051821015613ad85760209160051b010190565b805f5260026020526001600160a01b0360405f205416908115610ed0575090565b6002600a5414613e4f576002600a55565b7f3ee5aeb5000000000000000000000000000000000000000000000000000000005f5260045ffd5b604051907f6352211e00000000000000000000000000000000000000000000000000000000825260048201526020816024816001600160a01b037f0000000000000000000000000000000000000000000000000000000000000000165afa908115610a8b575f91613ef6575b506001600160a01b0333911603610a3457565b613f0f915060203d602011610a8457610a768183613413565b5f613ee3565b9796949193929098959880613f9f575b505f5b818110613f725750505050505f5b818110613f4557505050505050565b80613f6c613f59611b7f600194868b613ac8565b613f64838789613ac8565b3590886143ba565b01613f36565b80613f99613f86611b7f600194868a613ac8565b613f91838789613ac8565b35908c614168565b01613f28565b885f52600b602052613fb660405f20918254613a19565b90555f613f25565b6001600160a01b031690811561396e57805f5260026020526001600160a01b0360405f2054161515806140e9575b610f8257805f5260026020526001600160a01b0360405f2054169081151592836140a5575b805f52600360205260405f2060018154019055815f52600260205260405f208173ffffffffffffffffffffffffffffffffffffffff19825416179055827fddf252ad1be2c89b69c2b068fc378daa952ba7f163c4a11628f55a4df523b3ef5f80a45061407957565b7f73c6ac6e000000000000000000000000000000000000000000000000000000005f525f60045260245ffd5b6140d1825f52600460205260405f2073ffffffffffffffffffffffffffffffffffffffff198154169055565b825f52600360205260405f205f198154019055614011565b506001613fec565b90815f5260096020526001600160a01b0360405f205416614140575f918252600960205260409091206001600160a01b0390911674010000000000000000000000000000000000000000179055565b7f0dc149f0000000000000000000000000000000000000000000000000000000005f5260045ffd5b6040517f70a0823100000000000000000000000000000000000000000000000000000000815230600482015291926001600160a01b0384169290602082602481875afa918215610a8b575f92614384575b506040517f23b872dd000000000000000000000000000000000000000000000000000000006020820152336024820152306044820152606481019190915261420e9061420881608481016113e5565b8461485c565b604051907f70a08231000000000000000000000000000000000000000000000000000000008252306004830152602082602481875afa8015610a8b575f90614350575b61425b92506139dd565b92831561217b57815f52600e60205260405f20835f5260205260ff60405f205416156142a7575b505f52600c60205260405f20905f526020526142a360405f20918254613a19565b9055565b815f52600e60205260405f20835f5260205260405f20600160ff19825416179055815f52600d60205260405f20546001810180911161042457825f52600f60205260405f20845f5260205260405f2055815f52600d60205260405f2090815491680100000000000000008310156117e7578261432b91600161434a95018155613df4565b9091906001600160a01b038084549260031b9316831b921b1916179055565b5f614282565b506020823d60201161437c575b8161436a60209383613413565b810103126104c95761425b9151614251565b3d915061435d565b9091506020813d6020116143b2575b816143a060209383613413565b810103126104c95751906113e56141b9565b3d9150614393565b906040516020810190614402816113e587868690917fffffffffffffffffffffffffffffffffffffffff00000000000000000000000060349360601b16825260148201520190565b51902091805f52601260205260405f20835f5260205260ff60405f205416156144f4575b6001906001600160a01b036040519361443e856133f7565b169384845260208401918683525f52601160205260405f20905f526020526001600160a01b038060405f209451161673ffffffffffffffffffffffffffffffffffffffff1984541617835551910155803b156104c9576040517f42842e0e00000000000000000000000000000000000000000000000000000000815233600482015230602482015260448101929092525f908290606490829084905af18015610a8b576144e85750565b5f6144f291613413565b565b805f52601260205260405f20835f5260205260405f20600160ff19825416179055805f52601060205260405f20546001810180911161042457815f52601360205260405f20845f5260205260405f2055805f52601060205260405f2090815491680100000000000000008310156117e75761459061457a84879360018097018155613df4565b81939154905f199060031b92831b921b19161790565b90559050614426565b805f52600f60205260405f206001600160a01b0383165f5260205260405f205480156146d857815f52600d60205260405f205480820361465b575b5050805f52600d60205260405f208054801561462e575f1901906145f88282613df4565b6001600160a01b0382549160031b1b19169055555f52600f6020526001600160a01b0360405f2091165f526020525f6040812055565b7f4e487b71000000000000000000000000000000000000000000000000000000005f52603160045260245ffd5b825f52600d60205260405f205f198201918211610424576001600160a01b039161468491613df4565b90549060031b1c16825f52600d60205260405f205f1983018381116104245761432b83916146b193613df4565b825f52600f6020526001600160a01b0360405f2091165f5260205260405f20555f806145d4565b505050565b6144f2926001600160a01b03604051937fa9059cbb00000000000000000000000000000000000000000000000000000000602086015216602484015260448301526044825261472d606483613413565b61485c565b6001600160a01b0360065416330361474657565b7f118cdaa7000000000000000000000000000000000000000000000000000000005f523360045260245ffd5b805f52601360205260405f20825f5260205260405f205480156146d857815f52601060205260405f20548082036147ef575b5050805f52601060205260405f208054801561462e575f1901906147c88282613df4565b5f1982549160031b1b19169055555f52601360205260405f20905f526020525f6040812055565b825f52601060205260405f20905f1981019081116104245761481091613df4565b90549060031b1c825f52601060205260405f205f1983018381116104245761457a61483c918493613df4565b9055825f52601360205260405f20905f5260205260405f20555f806147a4565b905f602091828151910182855af115610a8b575f513d6148c057506001600160a01b0381163b155b61488b5750565b6001600160a01b03907f5274afe7000000000000000000000000000000000000000000000000000000005f521660045260245ffd5b60011415614884565b60ff81146149285760ff811690601f821161490057604051916148ed604084613413565b6020808452838101919036833783525290565b7fb3512b0c000000000000000000000000000000000000000000000000000000005f5260045ffd5b50604051613d7381613cf98160076136ce565b60ff811461495f5760ff811690601f821161490057604051916148ed604084613413565b50604051613d7381613cf98160086136ce565b6001600160a01b037f000000000000000000000000000000000000000000000000000000000000000016301480614a65575b156149cd577f000000000000000000000000000000000000000000000000000000000000000090565b60405160208101907f8b73c3c69bb8fe3d512ecc4cf759cc79239f7b179b0ffacaa9a75d522b39400f82527f000000000000000000000000000000000000000000000000000000000000000060408201527f000000000000000000000000000000000000000000000000000000000000000060608201524660808201523060a082015260a08152614a5f60c082613413565b51902090565b507f000000000000000000000000000000000000000000000000000000000000000046146149a4565b8151919060418303614abe57614ab79250602082015190606060408401519301515f1a90614ba0565b9192909190565b50505f9160029190565b6004811015614b735780614ada575050565b60018103614b0a577ff645eedf000000000000000000000000000000000000000000000000000000005f5260045ffd5b60028103614b3e57507ffce698f7000000000000000000000000000000000000000000000000000000005f5260045260245ffd5b600314614b485750565b7fd78bce0c000000000000000000000000000000000000000000000000000000005f5260045260245ffd5b7f4e487b71000000000000000000000000000000000000000000000000000000005f52602160045260245ffd5b91907f7fffffffffffffffffffffffffffffff5d576e7357a4501ddfe92f46681b20a08411614c17579160209360809260ff5f9560405194855216868401526040830152606082015282805260015afa15610a8b575f516001600160a01b03811615614c0d57905f905f90565b505f906001905f90565b5050505f916003919056fea2646970667358221220eeb4d46259ee038744683eee3ada2c6547ab0bd2151c6a08db3f9db0bc76b8f464736f6c634300081e0033","linkReferences":{}},"methodIdentifiers":{"approve(address,uint256)":"095ea7b3","balanceOf(address)":"70a08231","batchDeposit(uint256,uint256,address[],uint256[],address[],uint256[],bytes32)":"0db54256","batchWithdraw(uint256,bytes32,bytes,uint256,address[],uint256[],address[],uint256[],address,bytes32,uint256)":"8f93f31b","burnLockbox(uint256,bytes32,bytes,bytes32,uint256)":"bb4ffa10","createLockboxWithBatch(address,address,uint256,address[],uint256[],address[],uint256[],bytes32)":"3b0320b0","createLockboxWithERC20(address,address,address,uint256,bytes32)":"748917dd","createLockboxWithERC721(address,address,address,uint256,bytes32)":"75463c4a","createLockboxWithETH(address,address,bytes32)":"5e4ed95d","depositERC20(uint256,address,uint256,bytes32)":"486c4b7f","depositERC721(uint256,address,uint256,bytes32)":"4d8af09e","depositETH(uint256,bytes32)":"65cd69a1","eip712Domain()":"84b0196e","getActiveLockboxPublicKeyForToken(uint256)":"aea5cf30","getApproved(uint256)":"081812fc","getFullLockbox(uint256)":"e124a17c","getNonce(uint256)":"3d46b819","isApprovedForAll(address,address)":"e985e9c5","locked(uint256)":"b45a3c0e","name()":"06fdde03","onERC721Received(address,address,uint256,bytes)":"150b7a02","owner()":"8da5cb5b","ownerOf(uint256)":"6352211e","renounceOwnership()":"715018a6","rotateLockboxKey(uint256,bytes32,bytes,address,bytes32,uint256)":"f3eb9a16","safeTransferFrom(address,address,uint256)":"42842e0e","safeTransferFrom(address,address,uint256,bytes)":"b88d4fde","setApprovalForAll(address,bool)":"a22cb465","setDefaultMetadataURI(string)":"95480879","setTokenMetadataURI(uint256,bytes32,bytes,string,bytes32,uint256)":"2dbf9be6","supportsInterface(bytes4)":"01ffc9a7","symbol()":"95d89b41","tokenURI(uint256)":"c87b56dd","transferFrom(address,address,uint256)":"23b872dd","transferOwnership(address)":"f2fde38b","withdrawERC20(uint256,bytes32,bytes,address,uint256,address,bytes32,uint256)":"6267699a","withdrawERC721(uint256,bytes32,bytes,address,uint256,address,bytes32,uint256)":"9b9900a9","withdrawETH(uint256,bytes32,bytes,uint256,address,bytes32,uint256)":"52dc033c"},"id":1}