{"abi":[{"type":"constructor","inputs":[],"stateMutability":"nonpayable"},{"type":"fallback","stateMutability":"payable"},{"type":"receive","stateMutability":"payable"},{"type":"function","name":"approve","inputs":[{"name":"to","type":"address","internalType":"address"},{"name":"tokenId","type":"uint256","internalType":"uint256"}],"outputs":[],"stateMutability":"nonpayable"},{"type":"function","name":"balanceOf","inputs":[{"name":"owner","type":"address","internalType":"address"}],"outputs":[{"name":"","type":"uint256","internalType":"uint256"}],"stateMutability":"view"},{"type":"function","name":"batchDeposit","inputs":[{"name":"tokenId","type":"uint256","internalType":"uint256"},{"name":"amountETH","type":"uint256","internalType":"uint256"},{"name":"tokenAddresses","type":"address[]","internalType":"address[]"},{"name":"tokenAmounts","type":"uint256[]","internalType":"uint256[]"},{"name":"nftContracts","type":"address[]","internalType":"address[]"},{"name":"nftTokenIds","type":"uint256[]","internalType":"uint256[]"},{"name":"referenceId","type":"bytes32","internalType":"bytes32"}],"outputs":[],"stateMutability":"payable"},{"type":"function","name":"batchWithdraw","inputs":[{"name":"tokenId","type":"uint256","internalType":"uint256"},{"name":"messageHash","type":"bytes32","internalType":"bytes32"},{"name":"signature","type":"bytes","internalType":"bytes"},{"name":"amountETH","type":"uint256","internalType":"uint256"},{"name":"tokenAddresses","type":"address[]","internalType":"address[]"},{"name":"tokenAmounts","type":"uint256[]","internalType":"uint256[]"},{"name":"nftContracts","type":"address[]","internalType":"address[]"},{"name":"nftTokenIds","type":"uint256[]","internalType":"uint256[]"},{"name":"recipient","type":"address","internalType":"address"},{"name":"referenceId","type":"bytes32","internalType":"bytes32"},{"name":"signatureExpiry","type":"uint256","internalType":"uint256"}],"outputs":[],"stateMutability":"nonpayable"},{"type":"function","name":"burnLockbox","inputs":[{"name":"tokenId","type":"uint256","internalType":"uint256"},{"name":"messageHash","type":"bytes32","internalType":"bytes32"},{"name":"signature","type":"bytes","internalType":"bytes"},{"name":"referenceId","type":"bytes32","internalType":"bytes32"},{"name":"signatureExpiry","type":"uint256","internalType":"uint256"}],"outputs":[],"stateMutability":"nonpayable"},{"type":"function","name":"createLockboxWithBatch","inputs":[{"name":"to","type":"address","internalType":"address"},{"name":"lockboxPublicKey","type":"address","internalType":"address"},{"name":"amountETH","type":"uint256","internalType":"uint256"},{"name":"tokenAddresses","type":"address[]","internalType":"address[]"},{"name":"tokenAmounts","type":"uint256[]","internalType":"uint256[]"},{"name":"nftContracts","type":"address[]","internalType":"address[]"},{"name":"nftTokenIds","type":"uint256[]","internalType":"uint256[]"},{"name":"referenceId","type":"bytes32","internalType":"bytes32"}],"outputs":[],"stateMutability":"payable"},{"type":"function","name":"createLockboxWithERC20","inputs":[{"name":"to","type":"address","internalType":"address"},{"name":"lockboxPublicKey","type":"address","internalType":"address"},{"name":"tokenAddress","type":"address","internalType":"address"},{"name":"amount","type":"uint256","internalType":"uint256"},{"name":"referenceId","type":"bytes32","internalType":"bytes32"}],"outputs":[],"stateMutability":"nonpayable"},{"type":"function","name":"createLockboxWithERC721","inputs":[{"name":"to","type":"address","internalType":"address"},{"name":"lockboxPublicKey","type":"address","internalType":"address"},{"name":"nftContract","type":"address","internalType":"address"},{"name":"externalNftTokenId","type":"uint256","internalType":"uint256"},{"name":"referenceId","type":"bytes32","internalType":"bytes32"}],"outputs":[],"stateMutability":"nonpayable"},{"type":"function","name":"createLockboxWithETH","inputs":[{"name":"to","type":"address","internalType":"address"},{"name":"lockboxPublicKey","type":"address","internalType":"address"},{"name":"referenceId","type":"bytes32","internalType":"bytes32"}],"outputs":[],"stateMutability":"payable"},{"type":"function","name":"depositERC20","inputs":[{"name":"tokenId","type":"uint256","internalType":"uint256"},{"name":"tokenAddress","type":"address","internalType":"address"},{"name":"amount","type":"uint256","internalType":"uint256"},{"name":"referenceId","type":"bytes32","internalType":"bytes32"}],"outputs":[],"stateMutability":"nonpayable"},{"type":"function","name":"depositERC721","inputs":[{"name":"tokenId","type":"uint256","internalType":"uint256"},{"name":"nftContract","type":"address","internalType":"address"},{"name":"nftTokenId","type":"uint256","internalType":"uint256"},{"name":"referenceId","type":"bytes32","internalType":"bytes32"}],"outputs":[],"stateMutability":"nonpayable"},{"type":"function","name":"depositETH","inputs":[{"name":"tokenId","type":"uint256","internalType":"uint256"},{"name":"referenceId","type":"bytes32","internalType":"bytes32"}],"outputs":[],"stateMutability":"payable"},{"type":"function","name":"eip712Domain","inputs":[],"outputs":[{"name":"fields","type":"bytes1","internalType":"bytes1"},{"name":"name","type":"string","internalType":"string"},{"name":"version","type":"string","internalType":"string"},{"name":"chainId","type":"uint256","internalType":"uint256"},{"name":"verifyingContract","type":"address","internalType":"address"},{"name":"salt","type":"bytes32","internalType":"bytes32"},{"name":"extensions","type":"uint256[]","internalType":"uint256[]"}],"stateMutability":"view"},{"type":"function","name":"getActiveLockboxPublicKeyForToken","inputs":[{"name":"tokenId","type":"uint256","internalType":"uint256"}],"outputs":[{"name":"","type":"address","internalType":"address"}],"stateMutability":"view"},{"type":"function","name":"getApproved","inputs":[{"name":"tokenId","type":"uint256","internalType":"uint256"}],"outputs":[{"name":"","type":"address","internalType":"address"}],"stateMutability":"view"},{"type":"function","name":"getFullLockbox","inputs":[{"name":"tokenId","type":"uint256","internalType":"uint256"}],"outputs":[{"name":"lockboxETH","type":"uint256","internalType":"uint256"},{"name":"erc20Tokens","type":"tuple[]","internalType":"struct Withdrawals.erc20Balances[]","components":[{"name":"tokenAddress","type":"address","internalType":"address"},{"name":"balance","type":"uint256","internalType":"uint256"}]},{"name":"nftContracts","type":"tuple[]","internalType":"struct Deposits.nftBalances[]","components":[{"name":"nftContract","type":"address","internalType":"address"},{"name":"nftTokenId","type":"uint256","internalType":"uint256"}]}],"stateMutability":"view"},{"type":"function","name":"getNonce","inputs":[{"name":"tokenId","type":"uint256","internalType":"uint256"}],"outputs":[{"name":"","type":"uint256","internalType":"uint256"}],"stateMutability":"view"},{"type":"function","name":"isApprovedForAll","inputs":[{"name":"owner","type":"address","internalType":"address"},{"name":"operator","type":"address","internalType":"address"}],"outputs":[{"name":"","type":"bool","internalType":"bool"}],"stateMutability":"view"},{"type":"function","name":"locked","inputs":[{"name":"tokenId","type":"uint256","internalType":"uint256"}],"outputs":[{"name":"","type":"bool","internalType":"bool"}],"stateMutability":"view"},{"type":"function","name":"name","inputs":[],"outputs":[{"name":"","type":"string","internalType":"string"}],"stateMutability":"view"},{"type":"function","name":"onERC721Received","inputs":[{"name":"","type":"address","internalType":"address"},{"name":"","type":"address","internalType":"address"},{"name":"","type":"uint256","internalType":"uint256"},{"name":"","type":"bytes","internalType":"bytes"}],"outputs":[{"name":"","type":"bytes4","internalType":"bytes4"}],"stateMutability":"pure"},{"type":"function","name":"owner","inputs":[],"outputs":[{"name":"","type":"address","internalType":"address"}],"stateMutability":"view"},{"type":"function","name":"ownerOf","inputs":[{"name":"tokenId","type":"uint256","internalType":"uint256"}],"outputs":[{"name":"","type":"address","internalType":"address"}],"stateMutability":"view"},{"type":"function","name":"renounceOwnership","inputs":[],"outputs":[],"stateMutability":"nonpayable"},{"type":"function","name":"rotateLockboxKey","inputs":[{"name":"tokenId","type":"uint256","internalType":"uint256"},{"name":"messageHash","type":"bytes32","internalType":"bytes32"},{"name":"signature","type":"bytes","internalType":"bytes"},{"name":"newPublicKey","type":"address","internalType":"address"},{"name":"referenceId","type":"bytes32","internalType":"bytes32"},{"name":"signatureExpiry","type":"uint256","internalType":"uint256"}],"outputs":[],"stateMutability":"nonpayable"},{"type":"function","name":"safeTransferFrom","inputs":[{"name":"from","type":"address","internalType":"address"},{"name":"to","type":"address","internalType":"address"},{"name":"tokenId","type":"uint256","internalType":"uint256"}],"outputs":[],"stateMutability":"nonpayable"},{"type":"function","name":"safeTransferFrom","inputs":[{"name":"from","type":"address","internalType":"address"},{"name":"to","type":"address","internalType":"address"},{"name":"tokenId","type":"uint256","internalType":"uint256"},{"name":"data","type":"bytes","internalType":"bytes"}],"outputs":[],"stateMutability":"nonpayable"},{"type":"function","name":"setApprovalForAll","inputs":[{"name":"operator","type":"address","internalType":"address"},{"name":"approved","type":"bool","internalType":"bool"}],"outputs":[],"stateMutability":"nonpayable"},{"type":"function","name":"setDefaultMetadataURI","inputs":[{"name":"newDefaultURI","type":"string","internalType":"string"}],"outputs":[],"stateMutability":"nonpayable"},{"type":"function","name":"setTokenMetadataURI","inputs":[{"name":"tokenId","type":"uint256","internalType":"uint256"},{"name":"messageHash","type":"bytes32","internalType":"bytes32"},{"name":"signature","type":"bytes","internalType":"bytes"},{"name":"newMetadataURI","type":"string","internalType":"string"},{"name":"referenceId","type":"bytes32","internalType":"bytes32"},{"name":"signatureExpiry","type":"uint256","internalType":"uint256"}],"outputs":[],"stateMutability":"nonpayable"},{"type":"function","name":"supportsInterface","inputs":[{"name":"interfaceId","type":"bytes4","internalType":"bytes4"}],"outputs":[{"name":"","type":"bool","internalType":"bool"}],"stateMutability":"view"},{"type":"function","name":"swapInLockbox","inputs":[{"name":"tokenId","type":"uint256","internalType":"uint256"},{"name":"messageHash","type":"bytes32","internalType":"bytes32"},{"name":"signature","type":"bytes","internalType":"bytes"},{"name":"tokenIn","type":"address","internalType":"address"},{"name":"tokenOut","type":"address","internalType":"address"},{"name":"amountIn","type":"uint256","internalType":"uint256"},{"name":"minAmountOut","type":"uint256","internalType":"uint256"},{"name":"target","type":"address","internalType":"address"},{"name":"data","type":"bytes","internalType":"bytes"},{"name":"referenceId","type":"bytes32","internalType":"bytes32"},{"name":"signatureExpiry","type":"uint256","internalType":"uint256"},{"name":"recipient","type":"address","internalType":"address"}],"outputs":[],"stateMutability":"nonpayable"},{"type":"function","name":"symbol","inputs":[],"outputs":[{"name":"","type":"string","internalType":"string"}],"stateMutability":"view"},{"type":"function","name":"tokenURI","inputs":[{"name":"tokenId","type":"uint256","internalType":"uint256"}],"outputs":[{"name":"","type":"string","internalType":"string"}],"stateMutability":"view"},{"type":"function","name":"transferFrom","inputs":[{"name":"from","type":"address","internalType":"address"},{"name":"to","type":"address","internalType":"address"},{"name":"tokenId","type":"uint256","internalType":"uint256"}],"outputs":[],"stateMutability":"nonpayable"},{"type":"function","name":"transferOwnership","inputs":[{"name":"newOwner","type":"address","internalType":"address"}],"outputs":[],"stateMutability":"nonpayable"},{"type":"function","name":"withdrawERC20","inputs":[{"name":"tokenId","type":"uint256","internalType":"uint256"},{"name":"messageHash","type":"bytes32","internalType":"bytes32"},{"name":"signature","type":"bytes","internalType":"bytes"},{"name":"tokenAddress","type":"address","internalType":"address"},{"name":"amount","type":"uint256","internalType":"uint256"},{"name":"recipient","type":"address","internalType":"address"},{"name":"referenceId","type":"bytes32","internalType":"bytes32"},{"name":"signatureExpiry","type":"uint256","internalType":"uint256"}],"outputs":[],"stateMutability":"nonpayable"},{"type":"function","name":"withdrawERC721","inputs":[{"name":"tokenId","type":"uint256","internalType":"uint256"},{"name":"messageHash","type":"bytes32","internalType":"bytes32"},{"name":"signature","type":"bytes","internalType":"bytes"},{"name":"nftContract","type":"address","internalType":"address"},{"name":"nftTokenId","type":"uint256","internalType":"uint256"},{"name":"recipient","type":"address","internalType":"address"},{"name":"referenceId","type":"bytes32","internalType":"bytes32"},{"name":"signatureExpiry","type":"uint256","internalType":"uint256"}],"outputs":[],"stateMutability":"nonpayable"},{"type":"function","name":"withdrawETH","inputs":[{"name":"tokenId","type":"uint256","internalType":"uint256"},{"name":"messageHash","type":"bytes32","internalType":"bytes32"},{"name":"signature","type":"bytes","internalType":"bytes"},{"name":"amountETH","type":"uint256","internalType":"uint256"},{"name":"recipient","type":"address","internalType":"address"},{"name":"referenceId","type":"bytes32","internalType":"bytes32"},{"name":"signatureExpiry","type":"uint256","internalType":"uint256"}],"outputs":[],"stateMutability":"nonpayable"},{"type":"event","name":"Approval","inputs":[{"name":"owner","type":"address","indexed":true,"internalType":"address"},{"name":"approved","type":"address","indexed":true,"internalType":"address"},{"name":"tokenId","type":"uint256","indexed":true,"internalType":"uint256"}],"anonymous":false},{"type":"event","name":"ApprovalForAll","inputs":[{"name":"owner","type":"address","indexed":true,"internalType":"address"},{"name":"operator","type":"address","indexed":true,"internalType":"address"},{"name":"approved","type":"bool","indexed":false,"internalType":"bool"}],"anonymous":false},{"type":"event","name":"Deposited","inputs":[{"name":"tokenId","type":"uint256","indexed":true,"internalType":"uint256"},{"name":"referenceId","type":"bytes32","indexed":true,"internalType":"bytes32"}],"anonymous":false},{"type":"event","name":"EIP712DomainChanged","inputs":[],"anonymous":false},{"type":"event","name":"KeyRotated","inputs":[{"name":"tokenId","type":"uint256","indexed":true,"internalType":"uint256"},{"name":"referenceId","type":"bytes32","indexed":true,"internalType":"bytes32"}],"anonymous":false},{"type":"event","name":"LockboxBurned","inputs":[{"name":"tokenId","type":"uint256","indexed":true,"internalType":"uint256"},{"name":"referenceId","type":"bytes32","indexed":true,"internalType":"bytes32"}],"anonymous":false},{"type":"event","name":"Locked","inputs":[{"name":"tokenId","type":"uint256","indexed":false,"internalType":"uint256"}],"anonymous":false},{"type":"event","name":"Minted","inputs":[{"name":"tokenId","type":"uint256","indexed":true,"internalType":"uint256"},{"name":"referenceId","type":"bytes32","indexed":true,"internalType":"bytes32"}],"anonymous":false},{"type":"event","name":"OwnershipTransferred","inputs":[{"name":"previousOwner","type":"address","indexed":true,"internalType":"address"},{"name":"newOwner","type":"address","indexed":true,"internalType":"address"}],"anonymous":false},{"type":"event","name":"SwapExecuted","inputs":[{"name":"tokenId","type":"uint256","indexed":true,"internalType":"uint256"},{"name":"referenceId","type":"bytes32","indexed":true,"internalType":"bytes32"}],"anonymous":false},{"type":"event","name":"TokenMetadataURISet","inputs":[{"name":"tokenId","type":"uint256","indexed":true,"internalType":"uint256"},{"name":"referenceId","type":"bytes32","indexed":true,"internalType":"bytes32"}],"anonymous":false},{"type":"event","name":"Transfer","inputs":[{"name":"from","type":"address","indexed":true,"internalType":"address"},{"name":"to","type":"address","indexed":true,"internalType":"address"},{"name":"tokenId","type":"uint256","indexed":true,"internalType":"uint256"}],"anonymous":false},{"type":"event","name":"Withdrawn","inputs":[{"name":"tokenId","type":"uint256","indexed":true,"internalType":"uint256"},{"name":"referenceId","type":"bytes32","indexed":true,"internalType":"bytes32"}],"anonymous":false},{"type":"error","name":"AlreadyInitialized","inputs":[]},{"type":"error","name":"ArrayLengthMismatch","inputs":[]},{"type":"error","name":"DefaultURIAlreadySet","inputs":[]},{"type":"error","name":"DuplicateEntry","inputs":[]},{"type":"error","name":"ECDSAInvalidSignature","inputs":[]},{"type":"error","name":"ECDSAInvalidSignatureLength","inputs":[{"name":"length","type":"uint256","internalType":"uint256"}]},{"type":"error","name":"ECDSAInvalidSignatureS","inputs":[{"name":"s","type":"bytes32","internalType":"bytes32"}]},{"type":"error","name":"ERC721IncorrectOwner","inputs":[{"name":"sender","type":"address","internalType":"address"},{"name":"tokenId","type":"uint256","internalType":"uint256"},{"name":"owner","type":"address","internalType":"address"}]},{"type":"error","name":"ERC721InsufficientApproval","inputs":[{"name":"operator","type":"address","internalType":"address"},{"name":"tokenId","type":"uint256","internalType":"uint256"}]},{"type":"error","name":"ERC721InvalidApprover","inputs":[{"name":"approver","type":"address","internalType":"address"}]},{"type":"error","name":"ERC721InvalidOperator","inputs":[{"name":"operator","type":"address","internalType":"address"}]},{"type":"error","name":"ERC721InvalidOwner","inputs":[{"name":"owner","type":"address","internalType":"address"}]},{"type":"error","name":"ERC721InvalidReceiver","inputs":[{"name":"receiver","type":"address","internalType":"address"}]},{"type":"error","name":"ERC721InvalidSender","inputs":[{"name":"sender","type":"address","internalType":"address"}]},{"type":"error","name":"ERC721NonexistentToken","inputs":[{"name":"tokenId","type":"uint256","internalType":"uint256"}]},{"type":"error","name":"ETHMismatch","inputs":[]},{"type":"error","name":"EthTransferFailed","inputs":[]},{"type":"error","name":"EthValueMismatch","inputs":[]},{"type":"error","name":"FallbackNotAllowed","inputs":[]},{"type":"error","name":"InsufficientTokenBalance","inputs":[]},{"type":"error","name":"InvalidMessageHash","inputs":[]},{"type":"error","name":"InvalidShortString","inputs":[]},{"type":"error","name":"InvalidSignature","inputs":[]},{"type":"error","name":"InvalidSwap","inputs":[]},{"type":"error","name":"MismatchedInputs","inputs":[]},{"type":"error","name":"NFTNotFound","inputs":[]},{"type":"error","name":"NoETHBalance","inputs":[]},{"type":"error","name":"NoURI","inputs":[]},{"type":"error","name":"NonexistentToken","inputs":[]},{"type":"error","name":"NotOwner","inputs":[]},{"type":"error","name":"OwnableInvalidOwner","inputs":[{"name":"owner","type":"address","internalType":"address"}]},{"type":"error","name":"OwnableUnauthorizedAccount","inputs":[{"name":"account","type":"address","internalType":"address"}]},{"type":"error","name":"ReentrancyGuardReentrantCall","inputs":[]},{"type":"error","name":"RouterOverspent","inputs":[]},{"type":"error","name":"SafeERC20FailedOperation","inputs":[{"name":"token","type":"address","internalType":"address"}]},{"type":"error","name":"SelfMintOnly","inputs":[]},{"type":"error","name":"SignatureExpired","inputs":[]},{"type":"error","name":"SlippageExceeded","inputs":[]},{"type":"error","name":"StringTooLong","inputs":[{"name":"str","type":"string","internalType":"string"}]},{"type":"error","name":"SwapCallFailed","inputs":[]},{"type":"error","name":"TransfersDisabled","inputs":[]},{"type":"error","name":"UseDepositETH","inputs":[]},{"type":"error","name":"ZeroAddress","inputs":[]},{"type":"error","name":"ZeroAmount","inputs":[]},{"type":"error","name":"ZeroKey","inputs":[]},{"type":"error","name":"ZeroTokenAddress","inputs":[]}],"bytecode":{"object":"0x610180604052346104a8576040516100186040826104ac565b60088152674c6f636b782e696f60c01b60208201526040519061003c6040836104ac565b6007825266098dec6d6c4def60cb1b602083015260405161005e6040826104ac565b60058152602081019064098dec6d6f60db1b8252604051936100816040866104ac565b60018552601960f91b60208601908152845190946001600160401b0382116103af575f5490600182811c9216801561049e575b60208310146103915781601f849311610431575b50602090601f83116001146103ce575f926103c3575b50508160011b915f199060031b1c1916175f555b8051906001600160401b0382116103af5760015490600182811c921680156103a5575b60208310146103915781601f849311610323575b50602090601f83116001146102bd575f926102b2575b50508160011b915f199060031b1c1916176001555b331561029f5760068054336001600160a01b0319821681179092556001600160a01b03167f8be0079c531659141344cd1fd0a4f28419497f9722a3daafe3b4186f6b6457e05f80a36101a5816104cf565b610120526101b284610656565b61014052519020918260e05251902080610100524660a0526040519060208201927f8b73c3c69bb8fe3d512ecc4cf759cc79239f7b179b0ffacaa9a75d522b39400f8452604083015260608201524660808201523060a082015260a0815261021b60c0826104ac565b5190206080523060c05230610160526001600a55604051615986908161078f8239608051816156d9015260a05181615796015260c051816156aa015260e051816157280152610100518161574e015261012051816129750152610140518161299e0152610160518181816105d101528181611b25015281816133f80152614b7a0152f35b631e4fbdf760e01b5f525f60045260245ffd5b015190505f8061013f565b60015f9081528281209350601f198516905b81811061030b57509084600195949392106102f3575b505050811b01600155610154565b01515f1960f88460031b161c191690555f80806102e5565b929360206001819287860151815501950193016102cf565b60015f529091507fb10e2d527612073b26eecdfd717e6a320cf44b4afac2b0732d9fcbe2b7fa0cf6601f840160051c81019160208510610387575b90601f859493920160051c01905b8181106103795750610129565b5f815584935060010161036c565b909150819061035e565b634e487b7160e01b5f52602260045260245ffd5b91607f1691610115565b634e487b7160e01b5f52604160045260245ffd5b015190505f806100de565b5f8080528281209350601f198516905b8181106104195750908460019594939210610401575b505050811b015f556100f2565b01515f1960f88460031b161c191690555f80806103f4565b929360206001819287860151815501950193016103de565b5f80529091507f290decd9548b62a8d60345a988386fc84ba6bc95484008f6362f93160ef3e563601f840160051c81019160208510610494575b90601f859493920160051c01905b81811061048657506100c8565b5f8155849350600101610479565b909150819061046b565b91607f16916100b4565b5f80fd5b601f909101601f19168101906001600160401b038211908210176103af57604052565b908151602081105f14610549575090601f8151116105095760208151910151602082106104fa571790565b5f198260200360031b1b161790565b604460209160405192839163305a27a960e01b83528160048401528051918291826024860152018484015e5f828201840152601f01601f19168101030190fd5b6001600160401b0381116103af57600754600181811c9116801561064c575b602082101461039157601f8111610619575b50602092601f82116001146105b857928192935f926105ad575b50508160011b915f199060031b1c19161760075560ff90565b015190505f80610594565b601f1982169360075f52805f20915f5b86811061060157508360019596106105e9575b505050811b0160075560ff90565b01515f1960f88460031b161c191690555f80806105db565b919260206001819286850151815501940192016105c8565b60075f52601f60205f20910160051c810190601f830160051c015b818110610641575061057a565b5f8155600101610634565b90607f1690610568565b908151602081105f14610681575090601f8151116105095760208151910151602082106104fa571790565b6001600160401b0381116103af57600854600181811c91168015610784575b602082101461039157601f8111610751575b50602092601f82116001146106f057928192935f926106e5575b50508160011b915f199060031b1c19161760085560ff90565b015190505f806106cc565b601f1982169360085f52805f20915f5b8681106107395750836001959610610721575b505050811b0160085560ff90565b01515f1960f88460031b161c191690555f8080610713565b91926020600181928685015181550194019201610700565b60085f52601f60205f20910160051c810190601f830160051c015b81811061077957506106b2565b5f815560010161076c565b90607f16906106a056fe6080806040526004361015610040575b50361561003e577fdeab4c30000000000000000000000000000000000000000000000000000000005f5260045ffd5b005b5f3560e01c90816301ffc9a714613d2a5750806306fdde0314613c88578063081812fc14613c4b578063095ea7b314613b395780630db54256146139eb578063150b7a021461397c57806323b872dd146139655780632dbf9be6146136315780633b0320b0146134715780633d46b819146133a857806342842e0e1461337f578063486c4b7f1461333e5780634d8af09e146132d857806352dc033c146130a65780635e4ed95d14612fd05780636267699a14612d895780636352211e14612d5a57806365cd69a114612cec57806370a0823114612c82578063715018a614612c1c578063748917dd14612bb157806375463c4a14612a7157806384b0196e1461295d5780638da5cb5b146129375780638f93f31b1461228e578063954808791461207c57806395d89b4114611f945780639b9900a914611c76578063a22cb46514611ba4578063aea5cf3014611ad5578063b45a3c0e14611a9c578063b88d4fde14611a4d578063bb4ffa1014611513578063bd1ca78514610b04578063c87b56dd14610acd578063e124a17c146105b3578063e985e9c51461055a578063f2fde38b146104af5763f3eb9a16146101f9575f61000f565b346104ab5760c06003193601126104ab5760043560443567ffffffffffffffff81116104ab5761022d903690600401613f20565b90610236613de0565b6084359260a43590610246614b05565b61024f84614b3e565b81421161048357604051926001600160a01b036020850191868352169283604086015286606086015233608086015260a085015260a0845261029260c085613eab565b845f52600960205260405f20935190209083549060428260a01c9360405160208101917f5fd4fde1cb878824d6e96eec97296c9e818ad783a10b7c9ede6e7f27eca7b06b83528960408301528660608301525f608083015260a082015260a081526102fe60c082613eab565b5190206103096156a0565b90604051917f19010000000000000000000000000000000000000000000000000000000000008352600283015260228201522090816024350361045b576103679261035e6001600160a01b03939284936157bc565b909591956157f6565b16911603610433576bffffffffffffffffffffffff81146104065782546001600160a01b031660019190910160a01b73ffffffffffffffffffffffffffffffffffffffff1916178255806103e3575b50507f984cbcf51cba481417bc4c1f7faacf7392a4cbcd6c7fb7888b24ed2e50a0be775f80a36001600a55005b73ffffffffffffffffffffffffffffffffffffffff198254161790555f806103b6565b7f4e487b71000000000000000000000000000000000000000000000000000000005f52601160045260245ffd5b7f8baa579f000000000000000000000000000000000000000000000000000000005f5260045ffd5b7f8b56642d000000000000000000000000000000000000000000000000000000005f5260045ffd5b7f0819bdcd000000000000000000000000000000000000000000000000000000005f5260045ffd5b5f80fd5b346104ab5760206003193601126104ab576001600160a01b036104d0613d9e565b6104d861537b565b16801561052e576001600160a01b036006548273ffffffffffffffffffffffffffffffffffffffff19821617600655167f8be0079c531659141344cd1fd0a4f28419497f9722a3daafe3b4186f6b6457e05f80a3005b7f1e4fbdf7000000000000000000000000000000000000000000000000000000005f525f60045260245ffd5b346104ab5760406003193601126104ab57610573613d9e565b6001600160a01b03610583613db4565b91165f5260056020526001600160a01b0360405f2091165f52602052602060ff60405f2054166040519015158152f35b346104ab5760206003193601126104ab576004356001600160a01b037f0000000000000000000000000000000000000000000000000000000000000000166040517f6352211e000000000000000000000000000000000000000000000000000000008152826004820152602081602481855afa5f9181610aac575b5061065b577fb1d04f08000000000000000000000000000000000000000000000000000000005f5260045ffd5b6001600160a01b031615610a84576020602491604051928380927f6352211e0000000000000000000000000000000000000000000000000000000082528660048301525afa908115610a79575f91610a4a575b506001600160a01b0333911603610a2257805f52600b60205260405f2054815f52600d60205260405f209182546106e4816144ec565b936106f26040519586613eab565b818552601f19610701836144ec565b015f5b8181106109f65750505f5b82811061096f57505050805f52600f60205260405f205f915f918054925b8381106109165750601f1961075a610744866144ec565b956107526040519788613eab565b8087526144ec565b015f5b8181106108ea5750505f905f5b84811061083757878787604051928392606084019084526060602085015281518091526020608085019201905f5b8181106107fe575050508281036040840152602080835192838152019201905f5b8181106107c7575050500390f35b9193509160206040826107f06001948851602080916001600160a01b0381511684520151910152565b0194019101918493926107b9565b919394509160206040826108286001948851602080916001600160a01b0381511684520151910152565b01940191019185949392610798565b600190845f9997989952601060205260405f206108548285614787565b90549060031b1c5f526020526001600160a01b0360405f20541661087d575b019695949661076a565b845f52601060205260405f206108938285614787565b90549060031b1c5f526020526108e460405f20946108b081614476565b9584604051916108bf83613e8f565b6001600160a01b038154168352015460208201526108dd828c614ad0565b5289614ad0565b50610873565b60405196979596602091906108fe81613e8f565b5f81525f8382015282828a010152019695949661075d565b825f9795969752601060205260405f206109308284614787565b90549060031b1c5f526020526001600160a01b0360405f20541661095b575b6001019594939561072d565b94610967600191614476565b95905061094f565b806001600160a01b036109886001938599979899614787565b90549060031b1c16865f52600c60205260405f206001600160a01b03806109af8588614787565b90549060031b1c16165f5260205260405f2054604051916109cf83613e8f565b825260208201526109e08287614ad0565b526109eb8186614ad0565b50019493929461070f565b6040519596949560209190610a0a81613e8f565b5f81525f838201528282880101520195949395610704565b7f30cd7471000000000000000000000000000000000000000000000000000000005f5260045ffd5b610a6c915060203d602011610a72575b610a648183613eab565b810190614484565b826106ae565b503d610a5a565b6040513d5f823e3d90fd5b7fb1d04f08000000000000000000000000000000000000000000000000000000005f5260045ffd5b610ac691925060203d602011610a7257610a648183613eab565b908461062e565b346104ab5760206003193601126104ab57610b00610aec6004356147e5565b604051918291602083526020830190613d79565b0390f35b346104ab576101806003193601126104ab5760043560443567ffffffffffffffff81116104ab57610b39903690600401613f20565b90610b42613de0565b91610b4b613dca565b60a43560c4359260e435926001600160a01b038416908185036104ab576101043567ffffffffffffffff81116104ab57610b89903690600401613e27565b6101249691963599610144359161016435976001600160a01b038916998a8a036104ab57610bb5614b05565b610bbe8d614b3e565b8442116104835787156114eb5781156114c3576001600160a01b038716986001600160a01b038516958a871461149b578f8f908f8f90938a928f958f610c05368d8c613eea565b60208151910120916040519860208a019789895260408b015260608a01528b60808a015260a089015260c088015260e0870152610100860152336101208601526101408501526101608401526101608352610c6261018084613eab565b815f52600960205260405f20925190209260428354928360a01c956040519060208201927f5fd4fde1cb878824d6e96eec97296c9e818ad783a10b7c9ede6e7f27eca7b06b845260408301528760608301526007608083015260a082015260a08152610ccf60c082613eab565b519020610cda6156a0565b90604051917f19010000000000000000000000000000000000000000000000000000000000008352600283015260228201522090816024350361045b57610d2f9261035e6001600160a01b03939284936157bc565b16911603610433576bffffffffffffffffffffffff8214610406576001610d7d92016001600160a01b0373ffffffffffffffffffffffffffffffffffffffff1983549260a01b169116179055565b8415928315611454578d5f52600b6020528260405f20541061142c575b83156113b05747965b8a15998a156113325747935b86159384611180575b5f925082919088156111795787915b81604051928392833781018481520391855af191610de36144b0565b50611169575b50156111415782156110c55747905b881561103f57610e0c610e129247986144a3565b966144a3565b9a8b10611017578411610fef5715610f7d575050875f52600b602052610e3d60405f209182546144a3565b90555b8415610ec8575015610eb85750505f80809381935af1610e5e6144b0565b5015610e90575b7ffa44886bdf29041e45bda3924c838d5a6ed302e301c579f52acb4c3aa9aef77a5f80a36001600a55005b7f6d963f88000000000000000000000000000000000000000000000000000000005f5260045ffd5b610ec3939250615326565b610e65565b92509092505f14610ef3575050815f52600b602052610eec60405f209182546144df565b9055610e65565b835f52600c60205260405f20825f5260205260405f205415610f32575b50825f52600c60205260405f20905f52602052610eec60405f209182546144df565b835f52600d60205260405f2054906001820180921161040657610f7791855f52600e60205260405f20845f5260205260405f2055845f52600d60205260405f2061479c565b84610f10565b9091895f52600c60205260405f20835f52602052610fa060405f209182546144a3565b9055885f52600c60205260405f20825f5260205260405f205415610fc6575b5050610e40565b610fe891895f52600c60205260405f20905f526020525f6040812055886151e2565b8880610fbf565b7fdcc0d279000000000000000000000000000000000000000000000000000000005f5260045ffd5b7f8199f5f3000000000000000000000000000000000000000000000000000000005f5260045ffd5b6040517f70a082310000000000000000000000000000000000000000000000000000000081523060048201526020816024818e5afa908115610a79575f91611091575b50610e1292610e0c91986144a3565b90506020813d6020116110bd575b816110ac60209383613eab565b810103126104ab5751610e12611082565b3d915061109f565b6040517f70a08231000000000000000000000000000000000000000000000000000000008152306004820152602081602481895afa908115610a79575f9161110f575b5090610df8565b90506020813d602011611139575b8161112a60209383613eab565b810103126104ab57518f611108565b3d915061111d565b7f03a40bc4000000000000000000000000000000000000000000000000000000005f5260045ffd5b61117390876154a5565b8f610de9565b8291610dc7565b6040517fdd62ed3e000000000000000000000000000000000000000000000000000000008152306004820152602481018490526020816044818e5afa8015610a79578886918d935f916112f0575b509260205f80989461124061123295839a99986112e1575b604051968791868301947f095ea7b300000000000000000000000000000000000000000000000000000000865260248401602090939291936001600160a01b0360408201951681520152565b03601f198101875286613eab565b84519082855af186513d826112c2575b505015611263575b505050909150610db8565b6112ba926112b491604051917f095ea7b30000000000000000000000000000000000000000000000000000000060208401526024830152876044830152604482526112af606483613eab565b61558a565b8c61558a565b5f808c611258565b9091501587146112d95750803b15155b5f80611250565b6001146112d2565b6112eb83876154a5565b6111e6565b959493505050506020833d60201161132a575b8161131060209383613eab565b810103126104ab5791519091908a908590899060206111ce565b3d9150611303565b602460208d604051928380927f70a082310000000000000000000000000000000000000000000000000000000082523060048301525afa908115610a79575f9161137e575b5093610daf565b90506020813d6020116113a8575b8161139960209383613eab565b810103126104ab57515f611377565b3d915061138c565b6040517f70a082310000000000000000000000000000000000000000000000000000000081523060048201526020816024818a5afa908115610a79575f916113fa575b5096610da3565b90506020813d602011611424575b8161141560209383613eab565b810103126104ab57515f6113f3565b3d9150611408565b7ffcc00b30000000000000000000000000000000000000000000000000000000005f5260045ffd5b8d5f52600c60205260405f20865f526020528260405f20541015610d9a575b7fe4455cae000000000000000000000000000000000000000000000000000000005f5260045ffd5b7f11157667000000000000000000000000000000000000000000000000000000005f5260045ffd5b7f1f2a2005000000000000000000000000000000000000000000000000000000005f5260045ffd5b7fd92e233d000000000000000000000000000000000000000000000000000000005f5260045ffd5b346104ab5760a06003193601126104ab5760043560443567ffffffffffffffff81116104ab57611547903690600401613f20565b60643590608435611556614b05565b61155f84614b3e565b8042116104835760405190602082019085825284604084015233606084015260808301526080825261159260a083613eab565b845f52600960205260405f20915190209181549060428260a01c9460405160208101917f5fd4fde1cb878824d6e96eec97296c9e818ad783a10b7c9ede6e7f27eca7b06b83528960408301528760608301526004608083015260a082015260a081526115ff60c082613eab565b51902061160a6156a0565b90604051917f19010000000000000000000000000000000000000000000000000000000000008352600283015260228201522090816024350361045b5761165f9261035e6001600160a01b03939284936157bc565b16911603610433576bffffffffffffffffffffffff82146104065760016116ad92016001600160a01b0373ffffffffffffffffffffffffffffffffffffffff1983549260a01b169116179055565b815f52600b6020525f6040812055815f52600d60205260405f20604051808260208294549384815201905f5260205f20925f5b818110611a2b5750506116f592500382613eab565b5f5b815181101561175f57806001600160a01b0361171560019385614ad0565b5116855f52600c60205260405f206001600160a01b0382165f526020525f6040812055855f52600e6020526001600160a01b0360405f2091165f526020525f6040812055016116f7565b5050815f52600d60205260405f2080545f825580611a11575b5050815f52600f60205260405f2091604051808460208296549384815201905f5260205f20925f5b8181106119f85750506117b592500384613eab565b5f5b83518110156117f157806117cd60019286614ad0565b51835f52601060205260405f20905f526020525f82604082208281550155016117b7565b50805f52600f60205260405f208054905f8155816119da575b5050805f5260026020526001600160a01b0360405f2054161515806119d3575b6119ab57805f52601460205260405f206118448154614125565b9081611968575b5050805f5260026020526001600160a01b0360405f2054168015908115611924575b825f52600260205260405f2073ffffffffffffffffffffffffffffffffffffffff198154169055825f827fddf252ad1be2c89b69c2b068fc378daa952ba7f163c4a11628f55a4df523b3ef8280a4506118f957805f5260096020525f60408120557fceed1806179edada6c648f6c52838ceac0b9c18cf04e6fca0712bda6fcf82c185f80a36001600a55005b7f7e273289000000000000000000000000000000000000000000000000000000005f5260045260245ffd5b611950835f52600460205260405f2073ffffffffffffffffffffffffffffffffffffffff198154169055565b805f52600360205260405f205f19815401905561186d565b81601f5f931160011461197f5750555b828061184b565b8183526020832061199b91601f0160051c810190600101614460565b8082528160208120915555611978565b7f8574adcf000000000000000000000000000000000000000000000000000000005f5260045ffd5b505f61182a565b5f5260205f20908101905b8181101561180a575f81556001016119e5565b84548352600194850194889450602090930192016117a0565b611a24915f5260205f2090810190614460565b8280611778565b84546001600160a01b03168352600194850194869450602090930192016116e0565b346104ab5760806003193601126104ab57611a66613d9e565b611a6e613db4565b6064359167ffffffffffffffff83116104ab57611a9261003e933690600401613f20565b91604435916145df565b346104ab5760206003193601126104ab576004355f5260026020526001600160a01b0360405f20541615610a8457602060405160018152f35b346104ab5760206003193601126104ab576004356040517f6352211e0000000000000000000000000000000000000000000000000000000081528160048201526020816024816001600160a01b037f0000000000000000000000000000000000000000000000000000000000000000165afa908115610a79575f91611b85575b506001600160a01b0333911603610a22575f52600960205260206001600160a01b0360405f205416604051908152f35b611b9e915060203d602011610a7257610a648183613eab565b82611b55565b346104ab5760406003193601126104ab57611bbd613d9e565b602435908115158092036104ab576001600160a01b0316908115611c4a57335f52600560205260405f20825f5260205260405f207fffffffffffffffffffffffffffffffffffffffffffffffffffffffffffffff0081541660ff83161790556040519081527f17307eab39ab6107e8899845ad3d59bd9653f200f220920489ca2b5937696c3160203392a3005b507f5b08ba18000000000000000000000000000000000000000000000000000000005f5260045260245ffd5b346104ab57611c8436613f6c565b90969591939294611c93614b05565b611c9c87614b3e565b6001600160a01b038516156114eb578142116104835760408051602081018981526001600160a01b038088169383019390935260608201899052918716608082015260a081018a90523360c082015260e0810193909352611d0b8361010081015b03601f198101855284613eab565b875f52600960205260405f20925190209282549160428360a01c9560405160208101917f5fd4fde1cb878824d6e96eec97296c9e818ad783a10b7c9ede6e7f27eca7b06b83528c60408301528860608301526003608083015260a082015260a08152611d7860c082613eab565b519020611d836156a0565b90604051917f19010000000000000000000000000000000000000000000000000000000000008352600283015260228201522080920361045b57611dd59261035e6001600160a01b03939284936157bc565b16911603610433576bffffffffffffffffffffffff8214610406576001611e2392016001600160a01b0373ffffffffffffffffffffffffffffffffffffffff1983549260a01b169116179055565b604051606082901b7fffffffffffffffffffffffffffffffffffffffff00000000000000000000000016602082019081526034820185905290611e7381605481015b03601f198101835282613eab565b51902090845f52601060205260405f20825f526020526001600160a01b0360405f20541615611f6c57611ecc6001600160a01b0392865f52601060205260405f20815f526020525f6001604082208281550155866153bb565b1691823b156104ab576040517f42842e0e0000000000000000000000000000000000000000000000000000000081523060048201526001600160a01b039290921660248301526044820152905f908290606490829084905af18015610a7957611f5c575b507f06f0d08c652a32f118304f762c3f388848b7653f7df433f67a48aa734675f0135f80a36001600a55005b5f611f6691613eab565b82611f30565b7ff070cb6f000000000000000000000000000000000000000000000000000000005f5260045ffd5b346104ab575f6003193601126104ab576040515f600154611fb481614125565b808452906001811690811561203a5750600114611fdc575b610b0083610aec81850382613eab565b60015f9081527fb10e2d527612073b26eecdfd717e6a320cf44b4afac2b0732d9fcbe2b7fa0cf6939250905b80821061202057509091508101602001610aec611fcc565b919260018160209254838588010152019101909291612008565b7fffffffffffffffffffffffffffffffffffffffffffffffffffffffffffffff001660208086019190915291151560051b84019091019150610aec9050611fcc565b346104ab5760206003193601126104ab5760043567ffffffffffffffff81116104ab576120ad903690600401613f20565b6120b561537b565b6013546120c181614125565b6122665781519067ffffffffffffffff8211612239576120e090614125565b601f81116121a2575b50602091601f821160011461212757612117925f918361211c575b50505f198260011b9260031b1c19161790565b601355005b015190508380612104565b601f1982169260135f527f66de8ffda797e3de9c05e8fc57b3bf0ec28a930d40b0d285d93c06501cf6a090915f5b85811061218a57508360019510612172575b505050811b01601355005b01515f1960f88460031b161c19169055828080612167565b91926020600181928685015181550194019201612155565b61220b9060135f52601f830160051c7f66de8ffda797e3de9c05e8fc57b3bf0ec28a930d40b0d285d93c06501cf6a090019060208410612211575b601f0160051c7f66de8ffda797e3de9c05e8fc57b3bf0ec28a930d40b0d285d93c06501cf6a0900190614460565b826120e9565b7f66de8ffda797e3de9c05e8fc57b3bf0ec28a930d40b0d285d93c06501cf6a09091506121dd565b7f4e487b71000000000000000000000000000000000000000000000000000000005f52604160045260245ffd5b7fe8cba6d8000000000000000000000000000000000000000000000000000000005f5260045ffd5b346104ab576101606003193601126104ab5760443567ffffffffffffffff81116104ab576122c0903690600401613f20565b60643560843567ffffffffffffffff81116104ab576122e3903690600401613df6565b909160a43567ffffffffffffffff81116104ab57612305903690600401613df6565b9360c43567ffffffffffffffff81116104ab57612326903690600401613df6565b92909160e43567ffffffffffffffff81116104ab57612349903690600401613df6565b96909761010435966001600160a01b038816908189036104ab57610124359b61014435612374614b05565b61237f600435614b3e565b83156114eb578042116104835784861480159061292d575b6129055782868f8f938f948b958f8f908f8d6040519a8b9960208b019b6004358d5260408c015260608b0161014090526101608b01906123d692614504565b90898203601f190160808b01526123ec92614551565b90878203601f190160a089015261240292614504565b90858203601f190160c087015261241892614551565b918860e08501526101008401523361012084015261014083015203601f19810183526124449083613eab565b6004355f52600960205260405f2091519020918154908160a01c9360405160208101917f5fd4fde1cb878824d6e96eec97296c9e818ad783a10b7c9ede6e7f27eca7b06b83526004356040830152866060830152608082016006905260a082015260a081526124b460c082613eab565b5190206124bf6156a0565b90604051917f19010000000000000000000000000000000000000000000000000000000000008352600283015260228201526042902090816024350361045b576125179261035e6001600160a01b03939284936157bc565b16911603610433576bffffffffffffffffffffffff821461040657600161256592016001600160a01b0373ffffffffffffffffffffffffffffffffffffffff1983549260a01b169116179055565b806128b7575b50506004355f52600c60205260405f20915f5b81811061286657505f5b8181106127d3575050505050505f5b82811061273557505f5b8281106125d757866004357f06f0d08c652a32f118304f762c3f388848b7653f7df433f67a48aa734675f0135f80a36001600a55005b6125ea6125e582858561458e565b6145cb565b611e6561263d6125fb84898b61458e565b3560405192839160208301958690917fffffffffffffffffffffffffffffffffffffffff00000000000000000000000060349360601b16825260148201520190565b5190206004355f52601060205260405f20815f526020526001600160a01b0360405f20541615611f6c57612693906004355f52601060205260405f20815f526020525f60016040822082815501556004356153bb565b6001600160a01b036126a96125e583868661458e565b16906126b681878961458e565b3591803b156104ab576040517f42842e0e0000000000000000000000000000000000000000000000000000000081523060048201526001600160a01b038716602482015260448101939093525f908390606490829084905af1918215610a7957600192612725575b50016125a1565b5f61272f91613eab565b8861271e565b600181019081811161040657815b848110612751575050612597565b61275f6125e583878761458e565b6001600160a01b03806127766125e5858a8a61458e565b16911614806127b4575b61278c57600101612743565b7f357d0cc4000000000000000000000000000000000000000000000000000000005f5260045ffd5b506127c082888a61458e565b356127cc82898b61458e565b3514612780565b6127e16125e582848861458e565b906127ed81858961458e565b356001600160a01b0383165f528560205260405f205490808210611473576001600160a01b038481165f9081526020899052604090208284039055600194612840938e9291908414612846575b16615326565b01612588565b8181165f52896020525f6040812055612861816004356151e2565b61283a565b600181019081811161040657815b83811061288257505061257e565b6128906125e583868a61458e565b6001600160a01b03806128a76125e585898d61458e565b1691161461278c57600101612874565b6004355f52600b60205260405f20549181831061142c575f828194926128df839584956144a3565b6004358452600b60205260408420555af16128f86144b0565b5015610e90578a8061256b565b7f469224f0000000000000000000000000000000000000000000000000000000005f5260045ffd5b508b8a1415612397565b346104ab575f6003193601126104ab5760206001600160a01b0360065416604051908152f35b346104ab575f6003193601126104ab57612a156129997f00000000000000000000000000000000000000000000000000000000000000006155f7565b6129c27f0000000000000000000000000000000000000000000000000000000000000000615669565b6020612a23604051926129d58385613eab565b5f84525f3681376040519586957f0f00000000000000000000000000000000000000000000000000000000000000875260e08588015260e0870190613d79565b908582036040870152613d79565b4660608501523060808501525f60a085015283810360c08501528180845192838152019301915f5b828110612a5a57505050500390f35b835185528695509381019392810192600101612a4b565b346104ab57612a7f36613fd7565b939291612a8a614b05565b336001600160a01b03851603612b89576001600160a01b03831615612b61576001600160a01b03811615612b3957612ade612ae493612ad86012548097612ad082614476565b601255614c85565b85614db8565b83615020565b7f032bc66be43dbccb7487781d168eb7bda224628a3b2c3388bdf69b532a3a16116020604051838152a17f4fd35fc7cab0142e2b2e81414dbd72945bc0ae0131a46c03bd8c7073234817805f80a36001600a55005b7f6b093aad000000000000000000000000000000000000000000000000000000005f5260045ffd5b7ffbd849c6000000000000000000000000000000000000000000000000000000005f5260045ffd5b7fbaee6e49000000000000000000000000000000000000000000000000000000005f5260045ffd5b346104ab57612bbf36613fd7565b939291612bca614b05565b336001600160a01b03851603612b89576001600160a01b03831615612b61576001600160a01b03811615612b395781156114c357612c16612ae493612ad86012548097612ad082614476565b83614e2f565b346104ab575f6003193601126104ab57612c3461537b565b5f6001600160a01b0360065473ffffffffffffffffffffffffffffffffffffffff198116600655167f8be0079c531659141344cd1fd0a4f28419497f9722a3daafe3b4186f6b6457e08280a3005b346104ab5760206003193601126104ab576001600160a01b03612ca3613d9e565b168015612cc0575f526003602052602060405f2054604051908152f35b7f89c62b64000000000000000000000000000000000000000000000000000000005f525f60045260245ffd5b60406003193601126104ab57600435612d03614b05565b612d0c81614b3e565b34156114c357805f52600b60205260405f20612d293482546144df565b9055602435907f0131d4fe789c9eeb7c2dd7e32aa9393d395bef62f1f67e0ba2a76d33c6dcf5ee5f80a36001600a55005b346104ab5760206003193601126104ab576020612d78600435614ae4565b6001600160a01b0360405191168152f35b346104ab57612d9736613f6c565b90969591929394612da6614b05565b612daf87614b3e565b6001600160a01b038416156114eb578142116104835760408051602081018981526001600160a01b03808a169383019390935260608201889052918616608082015260a081018a90523360c082015260e0810193909352612e14836101008101611cfd565b875f52600960205260405f20925190209282549160428360a01c9560405160208101917f5fd4fde1cb878824d6e96eec97296c9e818ad783a10b7c9ede6e7f27eca7b06b83528c60408301528860608301526002608083015260a082015260a08152612e8160c082613eab565b519020612e8c6156a0565b90604051917f19010000000000000000000000000000000000000000000000000000000000008352600283015260228201522080920361045b57612ede9261035e6001600160a01b03939284936157bc565b16911603610433576bffffffffffffffffffffffff8214610406576001612f2c92016001600160a01b0373ffffffffffffffffffffffffffffffffffffffff1983549260a01b169116179055565b835f52600c60205260405f20926001600160a01b0381165f528360205260405f205490838210611473576001600160a01b038181165f9081526020879052604090208584039055612f879590928514612fb2575b5016615326565b7f06f0d08c652a32f118304f762c3f388848b7653f7df433f67a48aa734675f0135f80a36001600a55005b8282165f526020525f6040812055612fca81876151e2565b87612f80565b60606003193601126104ab57612fe4613d9e565b612fec613db4565b612ff4614b05565b336001600160a01b03831603612b89576001600160a01b03811615612b615734156114c3576130349061302e6012548094612ad082614476565b82614db8565b805f52600b60205260405f2061304b3482546144df565b90557f032bc66be43dbccb7487781d168eb7bda224628a3b2c3388bdf69b532a3a16116020604051838152a1604435907f4fd35fc7cab0142e2b2e81414dbd72945bc0ae0131a46c03bd8c7073234817805f80a36001600a55005b346104ab5760e06003193601126104ab5760043560443567ffffffffffffffff81116104ab576130da903690600401613f20565b906064356130e6613dca565b9060a435936001600160a01b0360c435936130ff614b05565b61310886614b3e565b169283156114eb57804211610483576040519060208201908682528460408401528560608401528760808401523360a084015260c083015260c0825261314f60e083613eab565b855f52600960205260405f20915190209181549060428260a01c9460405160208101917f5fd4fde1cb878824d6e96eec97296c9e818ad783a10b7c9ede6e7f27eca7b06b83528a60408301528760608301526001608083015260a082015260a081526131bc60c082613eab565b5190206131c76156a0565b90604051917f19010000000000000000000000000000000000000000000000000000000000008352600283015260228201522090816024350361045b5761321c9261035e6001600160a01b03939284936157bc565b16911603610433576bffffffffffffffffffffffff821461040657600161326a92016001600160a01b0373ffffffffffffffffffffffffffffffffffffffff1983549260a01b169116179055565b825f52600b60205260405f20549181831061142c575f82819492613290839584956144a3565b878452600b60205260408420555af16132a76144b0565b5015610e90577f06f0d08c652a32f118304f762c3f388848b7653f7df433f67a48aa734675f0135f80a36001600a55005b346104ab576132e636613f3e565b9291906132f1614b05565b6132fa83614b3e565b6001600160a01b038216156114eb576133139183615020565b7f0131d4fe789c9eeb7c2dd7e32aa9393d395bef62f1f67e0ba2a76d33c6dcf5ee5f80a36001600a55005b346104ab5761334c36613f3e565b929190613357614b05565b61336083614b3e565b6001600160a01b038216156114eb5780156114c3576133139183614e2f565b346104ab5761003e61339036613e55565b90604051926133a0602085613eab565b5f84526145df565b346104ab5760206003193601126104ab576004356040517f6352211e0000000000000000000000000000000000000000000000000000000081528160048201526020816024816001600160a01b037f0000000000000000000000000000000000000000000000000000000000000000165afa908115610a79575f91613452575b506001600160a01b0333911603610a22575f526009602052602060405f205460a01c604051908152f35b61346b915060203d602011610a7257610a648183613eab565b82613428565b6101006003193601126104ab57613486613d9e565b61348e613db4565b60443560643567ffffffffffffffff81116104ab576134b1903690600401613df6565b60849291923567ffffffffffffffff81116104ab576134d4903690600401613df6565b60a49291923567ffffffffffffffff81116104ab576134f7903690600401613df6565b93909260c43567ffffffffffffffff81116104ab5761351a903690600401613df6565b979096613525614b05565b336001600160a01b038c1603612b89576001600160a01b038a1615612b6157848314801590613627575b6135ff578034036135d75761357861357e9a613572601254809e612ad082614476565b8c614db8565b8a614bdc565b7f032bc66be43dbccb7487781d168eb7bda224628a3b2c3388bdf69b532a3a16116020604051838152a160e435907f4fd35fc7cab0142e2b2e81414dbd72945bc0ae0131a46c03bd8c7073234817805f80a36001600a55005b7f42c0a68f000000000000000000000000000000000000000000000000000000005f5260045ffd5b7fa24a13a6000000000000000000000000000000000000000000000000000000005f5260045ffd5b508887141561354f565b346104ab5760c06003193601126104ab5760043560443567ffffffffffffffff81116104ab57613665903690600401613f20565b60643567ffffffffffffffff81116104ab57613685903690600401613f20565b916084359160a435613695614b05565b825f5260026020526001600160a01b0360405f20541615610a84576136b983614ae4565b6001600160a01b0333911603610a2257804211610483576040519061371482602081019286845260a060408301526136f460c083018a613d79565b9088606084015233608084015260a083015203601f198101845283613eab565b835f52600960205260405f20915190209181549060428260a01c9460405160208101917f5fd4fde1cb878824d6e96eec97296c9e818ad783a10b7c9ede6e7f27eca7b06b83528860408301528760608301526005608083015260a082015260a0815261378160c082613eab565b51902061378c6156a0565b90604051917f19010000000000000000000000000000000000000000000000000000000000008352600283015260228201522090816024350361045b576137e19261035e6001600160a01b03939284936157bc565b16911603610433576bffffffffffffffffffffffff821461040657600161382f92016001600160a01b0373ffffffffffffffffffffffffffffffffffffffff1983549260a01b169116179055565b805f52601460205260405f20835167ffffffffffffffff8111612239576138568254614125565b601f811161392a575b50602094601f82116001146138c9576138909293949582915f926138be5750505f198260011b9260031b1c19161790565b90555b7fe6b029312a4fe660620d9aac173bc78279912103135fdd45fcb95684efee4bd65f80a36001600a55005b015190508680612104565b601f19821695835f52805f20915f5b888110613912575083600195969798106138fa575b505050811b019055613893565b01515f1960f88460031b161c191690558580806138ed565b919260206001819286850151815501940192016138d8565b61395590835f5260205f20601f840160051c8101916020851061395b575b601f0160051c0190614460565b8561385f565b9091508190613948565b346104ab5761003e61397636613e55565b91614216565b346104ab5760806003193601126104ab57613995613d9e565b5061399e613db4565b5060643567ffffffffffffffff81116104ab576139bf903690600401613e27565b505060206040517f150b7a02000000000000000000000000000000000000000000000000000000008152f35b60e06003193601126104ab5760043560243560443567ffffffffffffffff81116104ab57613a1d903690600401613df6565b9060643567ffffffffffffffff81116104ab57613a3e903690600401613df6565b9060843567ffffffffffffffff81116104ab57613a5f903690600401613df6565b92909160a43567ffffffffffffffff81116104ab57613a82903690600401613df6565b969095613a8d614b05565b881580613b31575b80613b29575b6114c357613aa88a614b3e565b883403613b0157838214801590613af7575b61290557613ac8988a614bdc565b60c435907f0131d4fe789c9eeb7c2dd7e32aa9393d395bef62f1f67e0ba2a76d33c6dcf5ee5f80a36001600a55005b5087861415613aba565b7fcfb73638000000000000000000000000000000000000000000000000000000005f5260045ffd5b508515613a9b565b508115613a95565b346104ab5760406003193601126104ab57613b52613d9e565b602435613b5e81614ae4565b33151580613c38575b80613c05575b613bd95781906001600160a01b0380851691167f8c5be1e5ebec7d5bd14f71427d1e84f3dd0314c0f7b2291e5b200ac8c7c3b9255f80a45f5260046020526001600160a01b0360405f20911673ffffffffffffffffffffffffffffffffffffffff198254161790555f80f35b7fa9fbf51f000000000000000000000000000000000000000000000000000000005f523360045260245ffd5b506001600160a01b0381165f52600560205260405f206001600160a01b0333165f5260205260ff60405f20541615613b6d565b50336001600160a01b0382161415613b67565b346104ab5760206003193601126104ab57600435613c6881614ae4565b505f52600460205260206001600160a01b0360405f205416604051908152f35b346104ab575f6003193601126104ab576040515f5f54613ca781614125565b808452906001811690811561203a5750600114613cce57610b0083610aec81850382613eab565b5f8080527f290decd9548b62a8d60345a988386fc84ba6bc95484008f6362f93160ef3e563939250905b808210613d1057509091508101602001610aec611fcc565b919260018160209254838588010152019101909291613cf8565b346104ab5760206003193601126104ab57600435907fffffffff00000000000000000000000000000000000000000000000000000000821682036104ab57613d73602092614029565b15158152f35b90601f19601f602080948051918291828752018686015e5f8582860101520116010190565b600435906001600160a01b03821682036104ab57565b602435906001600160a01b03821682036104ab57565b608435906001600160a01b03821682036104ab57565b606435906001600160a01b03821682036104ab57565b9181601f840112156104ab5782359167ffffffffffffffff83116104ab576020808501948460051b0101116104ab57565b9181601f840112156104ab5782359167ffffffffffffffff83116104ab57602083818601950101116104ab57565b60031960609101126104ab576004356001600160a01b03811681036104ab57906024356001600160a01b03811681036104ab579060443590565b6040810190811067ffffffffffffffff82111761223957604052565b90601f601f19910116810190811067ffffffffffffffff82111761223957604052565b67ffffffffffffffff811161223957601f01601f191660200190565b929192613ef682613ece565b91613f046040519384613eab565b8294818452818301116104ab578281602093845f960137010152565b9080601f830112156104ab57816020613f3b93359101613eea565b90565b60031960809101126104ab57600435906024356001600160a01b03811681036104ab57906044359060643590565b6101006003198201126104ab5760043591602435916044359067ffffffffffffffff82116104ab57613fa091600401613f20565b906064356001600160a01b03811681036104ab57906084359060a4356001600160a01b03811681036104ab579060c4359060e43590565b60031960a09101126104ab576004356001600160a01b03811681036104ab57906024356001600160a01b03811681036104ab57906044356001600160a01b03811681036104ab57906064359060843590565b7fffffffff00000000000000000000000000000000000000000000000000000000167fb45a3c0e00000000000000000000000000000000000000000000000000000000811461411f577f150b7a0200000000000000000000000000000000000000000000000000000000811461411f577f80ac58cd0000000000000000000000000000000000000000000000000000000081149081156140f5575b81156140ce575090565b7f01ffc9a70000000000000000000000000000000000000000000000000000000091501490565b7f5b5e139f00000000000000000000000000000000000000000000000000000000811491506140c4565b50600190565b90600182811c9216801561416c575b602083101461413f57565b7f4e487b71000000000000000000000000000000000000000000000000000000005f52602260045260245ffd5b91607f1691614134565b5f929181549161418583614125565b80835292600181169081156141da57506001146141a157505050565b5f9081526020812093945091925b8383106141c0575060209250010190565b6001816020929493945483858701015201910191906141af565b905060209495507fffffffffffffffffffffffffffffffffffffffffffffffffffffffffffffff0091509291921683830152151560051b010190565b91906001600160a01b0316801561443457815f5260026020526001600160a01b0360405f20541615158061442c575b6119ab57815f5260026020526001600160a01b0360405f2054169282331515928361435e575b6001600160a01b0393508561431a575b805f52600360205260405f2060018154019055815f52600260205260405f208173ffffffffffffffffffffffffffffffffffffffff19825416179055857fddf252ad1be2c89b69c2b068fc378daa952ba7f163c4a11628f55a4df523b3ef5f80a4168083036142e957505050565b7f64283d7b000000000000000000000000000000000000000000000000000000005f5260045260245260445260645ffd5b614346825f52600460205260405f2073ffffffffffffffffffffffffffffffffffffffff198154169055565b855f52600360205260405f205f19815401905561427b565b91929050806143d5575b156143755782829161426b565b82846143a6577f7e273289000000000000000000000000000000000000000000000000000000005f5260045260245ffd5b7f177e802f000000000000000000000000000000000000000000000000000000005f523360045260245260445ffd5b503384148015614403575b806143685750825f526004602052336001600160a01b0360405f20541614614368565b50835f52600560205260405f206001600160a01b0333165f5260205260ff60405f2054166143e0565b506001614245565b7f64a0ae92000000000000000000000000000000000000000000000000000000005f525f60045260245ffd5b81811061446b575050565b5f8155600101614460565b5f1981146104065760010190565b908160209103126104ab57516001600160a01b03811681036104ab5790565b9190820391821161040657565b3d156144da573d906144c182613ece565b916144cf6040519384613eab565b82523d5f602084013e565b606090565b9190820180921161040657565b67ffffffffffffffff81116122395760051b60200190565b916020908281520191905f905b80821061451e5750505090565b9091928335906001600160a01b03821682036104ab57602080916001600160a01b03600194168152019401920190614511565b90918281527f07ffffffffffffffffffffffffffffffffffffffffffffffffffffffffffffff83116104ab5760209260051b809284830137010190565b919081101561459e5760051b0190565b7f4e487b71000000000000000000000000000000000000000000000000000000005f52603260045260245ffd5b356001600160a01b03811681036104ab5790565b906145eb838284614216565b803b6145f8575b50505050565b6020916146576001600160a01b038093169560405195869485947f150b7a020000000000000000000000000000000000000000000000000000000086523360048701521660248501526044840152608060648401526084830190613d79565b03815f865af15f918161472a575b506146ac57506146736144b0565b805190816146a757827f64a0ae92000000000000000000000000000000000000000000000000000000005f5260045260245ffd5b602001fd5b7fffffffff000000000000000000000000000000000000000000000000000000007f150b7a02000000000000000000000000000000000000000000000000000000009116036146ff57505f8080806145f2565b7f64a0ae92000000000000000000000000000000000000000000000000000000005f5260045260245ffd5b9091506020813d60201161477f575b8161474660209383613eab565b810103126104ab57517fffffffff00000000000000000000000000000000000000000000000000000000811681036104ab57905f614665565b3d9150614739565b805482101561459e575f5260205f2001905f90565b908154916801000000000000000083101561223957826147c49160016147e395018155614787565b9091906001600160a01b038084549260031b9316831b921b1916179055565b565b805f5260026020526001600160a01b0360405f20541615610a8457805f52601460205261481e61482560405f2060405192838092614176565b0382613eab565b8051614acb575060135461483881614125565b614864577f8714d516000000000000000000000000000000000000000000000000000000005f5260045ffd5b81825f937a184f03e93ff9f4daa797ed6e38ed64bf6a1f010000000000000000811015614aa0575b50806d04ee2d6d415b85acef8100000000600a921015614a85575b662386f26fc10000811015614a71575b6305f5e100811015614a60575b612710811015614a51575b6064811015614a43575b1015614a39575b6001830190600a5f19602161490d6148f786613ece565b956149056040519788613eab565b808752613ece565b96601f196020870198013689378501015b01917f30313233343536373839616263646566000000000000000000000000000000008282061a8353048015614959575f19600a919261491e565b50506040519283915f9061496c85614125565b94600181169081156149fb575060011461499d575b613f3b9450518092825e015f815203601f198101835282613eab565b905060135f527f66de8ffda797e3de9c05e8fc57b3bf0ec28a930d40b0d285d93c06501cf6a090935f5b8181106149df5750613f3b9450830160200190614981565b85546020828901810191909152600190960195879550016149c7565b6020929350613f3b9691507fffffffffffffffffffffffffffffffffffffffffffffffffffffffffffffff0016828601528015150284010190614981565b91600101916148e0565b6064600291049401936148d9565b612710600491049401936148cf565b6305f5e100600891049401936148c4565b662386f26fc10000601091049401936148b7565b6d04ee2d6d415b85acef8100000000602091049401936148a7565b604094507a184f03e93ff9f4daa797ed6e38ed64bf6a1f01000000000000000090049050600a61488c565b905090565b805182101561459e5760209160051b010190565b805f5260026020526001600160a01b0360405f2054169081156118f9575090565b6002600a5414614b16576002600a55565b7f3ee5aeb5000000000000000000000000000000000000000000000000000000005f5260045ffd5b604051907f6352211e00000000000000000000000000000000000000000000000000000000825260048201526020816024816001600160a01b037f0000000000000000000000000000000000000000000000000000000000000000165afa908115610a79575f91614bbd575b506001600160a01b0333911603610a2257565b614bd6915060203d602011610a7257610a648183613eab565b5f614baa565b9796949193929098959880614c66575b505f5b818110614c395750505050505f5b818110614c0c57505050505050565b80614c33614c206125e5600194868b61458e565b614c2b83878961458e565b359088615020565b01614bfd565b80614c60614c4d6125e5600194868a61458e565b614c5883878961458e565b35908c614e2f565b01614bef565b885f52600b602052614c7d60405f209182546144df565b90555f614bec565b6001600160a01b031690811561443457805f5260026020526001600160a01b0360405f205416151580614db0575b6119ab57805f5260026020526001600160a01b0360405f205416908115159283614d6c575b805f52600360205260405f2060018154019055815f52600260205260405f208173ffffffffffffffffffffffffffffffffffffffff19825416179055827fddf252ad1be2c89b69c2b068fc378daa952ba7f163c4a11628f55a4df523b3ef5f80a450614d4057565b7f73c6ac6e000000000000000000000000000000000000000000000000000000005f525f60045260245ffd5b614d98825f52600460205260405f2073ffffffffffffffffffffffffffffffffffffffff198154169055565b825f52600360205260405f205f198154019055614cd8565b506001614cb3565b90815f5260096020526001600160a01b0360405f205416614e07575f918252600960205260409091206001600160a01b0390911674010000000000000000000000000000000000000000179055565b7f0dc149f0000000000000000000000000000000000000000000000000000000005f5260045ffd5b6040517f70a0823100000000000000000000000000000000000000000000000000000000815230600482015291926001600160a01b0384169290602082602481875afa918215610a79575f92614fea575b506040517f23b872dd0000000000000000000000000000000000000000000000000000000060208201523360248201523060448201526064810191909152614ed590614ecf8160848101611e65565b8461558a565b604051907f70a08231000000000000000000000000000000000000000000000000000000008252306004830152602082602481875afa8015610a79575f90614fb6575b614f2292506144a3565b9283156114c357815f52600c60205260405f20835f5260205260405f205415614f6b575b505f52600c60205260405f20905f52602052614f6760405f209182546144df565b9055565b815f52600d60205260405f2054906001820180921161040657614fb091835f52600e60205260405f20855f5260205260405f2055825f52600d60205260405f2061479c565b5f614f46565b506020823d602011614fe2575b81614fd060209383613eab565b810103126104ab57614f229151614f18565b3d9150614fc3565b9091506020813d602011615018575b8161500660209383613eab565b810103126104ab575190611e65614e80565b3d9150614ff9565b90604051602081019061506881611e6587868690917fffffffffffffffffffffffffffffffffffffffff00000000000000000000000060349360601b16825260148201520190565b51902091805f52601060205260405f20835f526020526001600160a01b0360405f2054161561515e575b6001906001600160a01b03604051936150aa85613e8f565b169384845260208401918683525f52601060205260405f20905f526020526001600160a01b038060405f209451161673ffffffffffffffffffffffffffffffffffffffff1984541617835551910155803b156104ab576040517f42842e0e00000000000000000000000000000000000000000000000000000000815233600482015230602482015260448101929092525f908290606490829084905af18015610a79576151545750565b5f6147e391613eab565b805f52600f60205260405f20546001810180911161040657815f52601160205260405f20845f5260205260405f2055805f52600f60205260405f209081549168010000000000000000831015612239576151d96151c384879360018097018155614787565b81939154905f199060031b92831b921b19161790565b90559050615092565b805f52600e60205260405f206001600160a01b0383165f5260205260405f2054801561532157815f52600d60205260405f20548082036152a4575b5050805f52600d60205260405f2080548015615277575f1901906152418282614787565b6001600160a01b0382549160031b1b19169055555f52600e6020526001600160a01b0360405f2091165f526020525f6040812055565b7f4e487b71000000000000000000000000000000000000000000000000000000005f52603160045260245ffd5b825f52600d60205260405f205f198201918211610406576001600160a01b03916152cd91614787565b90549060031b1c16825f52600d60205260405f205f198301838111610406576147c483916152fa93614787565b825f52600e6020526001600160a01b0360405f2091165f5260205260405f20555f8061521d565b505050565b6040517fa9059cbb0000000000000000000000000000000000000000000000000000000060208201526001600160a01b039290921660248301526044808301939093529181526147e3916112af606483613eab565b6001600160a01b0360065416330361538f57565b7f118cdaa7000000000000000000000000000000000000000000000000000000005f523360045260245ffd5b805f52601160205260405f20825f5260205260405f2054801561532157815f52600f60205260405f2054808203615438575b5050805f52600f60205260405f2080548015615277575f1901906154118282614787565b5f1982549160031b1b19169055555f52601160205260405f20905f526020525f6040812055565b825f52600f60205260405f20905f1981019081116104065761545991614787565b90549060031b1c825f52600f60205260405f205f198301838111610406576151c3615485918493614787565b9055825f52601160205260405f20905f5260205260405f20555f806153ed565b6040519060205f6001600160a01b03828501957f095ea7b30000000000000000000000000000000000000000000000000000000087521694856024860152816044860152604485526154f8606486613eab565b84519082855af15f513d82615565575b50501561551457505050565b6112af6147e393604051907f095ea7b300000000000000000000000000000000000000000000000000000000602083015260248201525f60448201526044815261555f606482613eab565b8261558a565b90915061558257506001600160a01b0381163b15155b5f80615508565b60011461557b565b905f602091828151910182855af115610a79575f513d6155ee57506001600160a01b0381163b155b6155b95750565b6001600160a01b03907f5274afe7000000000000000000000000000000000000000000000000000000005f521660045260245ffd5b600114156155b2565b60ff81146156565760ff811690601f821161562e576040519161561b604084613eab565b6020808452838101919036833783525290565b7fb3512b0c000000000000000000000000000000000000000000000000000000005f5260045ffd5b50604051613f3b8161481e816007614176565b60ff811461568d5760ff811690601f821161562e576040519161561b604084613eab565b50604051613f3b8161481e816008614176565b6001600160a01b037f000000000000000000000000000000000000000000000000000000000000000016301480615793575b156156fb577f000000000000000000000000000000000000000000000000000000000000000090565b60405160208101907f8b73c3c69bb8fe3d512ecc4cf759cc79239f7b179b0ffacaa9a75d522b39400f82527f000000000000000000000000000000000000000000000000000000000000000060408201527f000000000000000000000000000000000000000000000000000000000000000060608201524660808201523060a082015260a0815261578d60c082613eab565b51902090565b507f000000000000000000000000000000000000000000000000000000000000000046146156d2565b81519190604183036157ec576157e59250602082015190606060408401519301515f1a906158ce565b9192909190565b50505f9160029190565b60048110156158a15780615808575050565b60018103615838577ff645eedf000000000000000000000000000000000000000000000000000000005f5260045ffd5b6002810361586c57507ffce698f7000000000000000000000000000000000000000000000000000000005f5260045260245ffd5b6003146158765750565b7fd78bce0c000000000000000000000000000000000000000000000000000000005f5260045260245ffd5b7f4e487b71000000000000000000000000000000000000000000000000000000005f52602160045260245ffd5b91907f7fffffffffffffffffffffffffffffff5d576e7357a4501ddfe92f46681b20a08411615945579160209360809260ff5f9560405194855216868401526040830152606082015282805260015afa15610a79575f516001600160a01b0381161561593b57905f905f90565b505f906001905f90565b5050505f916003919056fea2646970667358221220aa5493921a21c1207cabdfe02a14af79bfb055dca0d709114d6a37dfa8986c2864736f6c634300081e0033","linkReferences":{}},"methodIdentifiers":{"approve(address,uint256)":"095ea7b3","balanceOf(address)":"70a08231","batchDeposit(uint256,uint256,address[],uint256[],address[],uint256[],bytes32)":"0db54256","batchWithdraw(uint256,bytes32,bytes,uint256,address[],uint256[],address[],uint256[],address,bytes32,uint256)":"8f93f31b","burnLockbox(uint256,bytes32,bytes,bytes32,uint256)":"bb4ffa10","createLockboxWithBatch(address,address,uint256,address[],uint256[],address[],uint256[],bytes32)":"3b0320b0","createLockboxWithERC20(address,address,address,uint256,bytes32)":"748917dd","createLockboxWithERC721(address,address,address,uint256,bytes32)":"75463c4a","createLockboxWithETH(address,address,bytes32)":"5e4ed95d","depositERC20(uint256,address,uint256,bytes32)":"486c4b7f","depositERC721(uint256,address,uint256,bytes32)":"4d8af09e","depositETH(uint256,bytes32)":"65cd69a1","eip712Domain()":"84b0196e","getActiveLockboxPublicKeyForToken(uint256)":"aea5cf30","getApproved(uint256)":"081812fc","getFullLockbox(uint256)":"e124a17c","getNonce(uint256)":"3d46b819","isApprovedForAll(address,address)":"e985e9c5","locked(uint256)":"b45a3c0e","name()":"06fdde03","onERC721Received(address,address,uint256,bytes)":"150b7a02","owner()":"8da5cb5b","ownerOf(uint256)":"6352211e","renounceOwnership()":"715018a6","rotateLockboxKey(uint256,bytes32,bytes,address,bytes32,uint256)":"f3eb9a16","safeTransferFrom(address,address,uint256)":"42842e0e","safeTransferFrom(address,address,uint256,bytes)":"b88d4fde","setApprovalForAll(address,bool)":"a22cb465","setDefaultMetadataURI(string)":"95480879","setTokenMetadataURI(uint256,bytes32,bytes,string,bytes32,uint256)":"2dbf9be6","supportsInterface(bytes4)":"01ffc9a7","swapInLockbox(uint256,bytes32,bytes,address,address,uint256,uint256,address,bytes,bytes32,uint256,address)":"bd1ca785","symbol()":"95d89b41","tokenURI(uint256)":"c87b56dd","transferFrom(address,address,uint256)":"23b872dd","transferOwnership(address)":"f2fde38b","withdrawERC20(uint256,bytes32,bytes,address,uint256,address,bytes32,uint256)":"6267699a","withdrawERC721(uint256,bytes32,bytes,address,uint256,address,bytes32,uint256)":"9b9900a9","withdrawETH(uint256,bytes32,bytes,uint256,address,bytes32,uint256)":"52dc033c"},"id":1}