{"abi":[{"type":"constructor","inputs":[{"name":"erc721Address","type":"address","internalType":"address"}],"stateMutability":"nonpayable"},{"type":"function","name":"eip712Domain","inputs":[],"outputs":[{"name":"fields","type":"bytes1","internalType":"bytes1"},{"name":"name","type":"string","internalType":"string"},{"name":"version","type":"string","internalType":"string"},{"name":"chainId","type":"uint256","internalType":"uint256"},{"name":"verifyingContract","type":"address","internalType":"address"},{"name":"salt","type":"bytes32","internalType":"bytes32"},{"name":"extensions","type":"uint256[]","internalType":"uint256[]"}],"stateMutability":"view"},{"type":"function","name":"getActiveLockboxPublicKeyForToken","inputs":[{"name":"tokenId","type":"uint256","internalType":"uint256"}],"outputs":[{"name":"","type":"address","internalType":"address"}],"stateMutability":"view"},{"type":"function","name":"getNonce","inputs":[{"name":"tokenId","type":"uint256","internalType":"uint256"}],"outputs":[{"name":"","type":"uint256","internalType":"uint256"}],"stateMutability":"view"},{"type":"event","name":"EIP712DomainChanged","inputs":[],"anonymous":false},{"type":"error","name":"AlreadyInitialized","inputs":[]},{"type":"error","name":"InvalidMessageHash","inputs":[]},{"type":"error","name":"InvalidShortString","inputs":[]},{"type":"error","name":"InvalidSignature","inputs":[]},{"type":"error","name":"NotOwner","inputs":[]},{"type":"error","name":"StringTooLong","inputs":[{"name":"str","type":"string","internalType":"string"}]},{"type":"error","name":"ZeroKey","inputs":[]}],"bytecode":{"object":"0x610180806040523461015d57602081610b8980380380916100208285610161565b83398101031261015d57516001600160a01b0381169081900361015d5760405161004b604082610161565b60058152602081019064098dec6d6f60db1b82526040519161006e604084610161565b600183526020830191603360f81b835261008781610198565b610120526100948461032e565b61014052519020918260e05251902080610100524660a0526040519060208201927f8b73c3c69bb8fe3d512ecc4cf759cc79239f7b179b0ffacaa9a75d522b39400f8452604083015260608201524660808201523060a082015260a081526100fd60c082610161565b5190206080523060c052610160526040516107229081610467823960805181505060a05181505060c05181505060e0518150506101005181505061012051816101ce015261014051816101f701526101605181818160b801526103430152f35b5f80fd5b601f909101601f19168101906001600160401b0382119082101761018457604052565b634e487b7160e01b5f52604160045260245ffd5b908151602081105f14610212575090601f8151116101d25760208151910151602082106101c3571790565b5f198260200360031b1b161790565b604460209160405192839163305a27a960e01b83528160048401528051918291826024860152018484015e5f828201840152601f01601f19168101030190fd5b6001600160401b038111610184575f54600181811c91168015610324575b602082101461031057601f81116102de575b50602092601f821160011461027f57928192935f92610274575b50508160011b915f199060031b1c1916175f5560ff90565b015190505f8061025c565b601f198216935f8052805f20915f5b8681106102c657508360019596106102ae575b505050811b015f5560ff90565b01515f1960f88460031b161c191690555f80806102a1565b9192602060018192868501518155019401920161028e565b5f8052601f60205f20910160051c810190601f830160051c015b8181106103055750610242565b5f81556001016102f8565b634e487b7160e01b5f52602260045260245ffd5b90607f1690610230565b908151602081105f14610359575090601f8151116101d25760208151910151602082106101c3571790565b6001600160401b03811161018457600154600181811c9116801561045c575b602082101461031057601f8111610429575b50602092601f82116001146103c857928192935f926103bd575b50508160011b915f199060031b1c19161760015560ff90565b015190505f806103a4565b601f1982169360015f52805f20915f5b86811061041157508360019596106103f9575b505050811b0160015560ff90565b01515f1960f88460031b161c191690555f80806103eb565b919260206001819286850151815501940192016103d8565b60015f52601f60205f20910160051c810190601f830160051c015b818110610451575061038a565b5f8155600101610444565b90607f169061037856fe6080806040526004361015610012575f80fd5b5f3560e01c9081633d46b819146102ca5750806384b0196e146101985763aea5cf301461003d575f80fd5b346101945760207ffffffffffffffffffffffffffffffffffffffffffffffffffffffffffffffffc360112610194576004356040517f6352211e00000000000000000000000000000000000000000000000000000000815281600482015260208160248173ffffffffffffffffffffffffffffffffffffffff7f0000000000000000000000000000000000000000000000000000000000000000165afa908115610189575f9161015a575b5073ffffffffffffffffffffffffffffffffffffffff33911603610132575f526002602052602073ffffffffffffffffffffffffffffffffffffffff60405f205416604051908152f35b7f30cd7471000000000000000000000000000000000000000000000000000000005f5260045ffd5b61017c915060203d602011610182575b610174818361040c565b81019061047a565b5f6100e8565b503d61016a565b6040513d5f823e3d90fd5b5f80fd5b34610194575f7ffffffffffffffffffffffffffffffffffffffffffffffffffffffffffffffffc3601126101945761026e6101f27f00000000000000000000000000000000000000000000000000000000000000006104a6565b61021b7f000000000000000000000000000000000000000000000000000000000000000061061c565b602061027c6040519261022e838561040c565b5f84525f3681376040519586957f0f00000000000000000000000000000000000000000000000000000000000000875260e08588015260e08701906103c9565b9085820360408701526103c9565b4660608501523060808501525f60a085015283810360c08501528180845192838152019301915f5b8281106102b357505050500390f35b8351855286955093810193928101926001016102a4565b346101945760207ffffffffffffffffffffffffffffffffffffffffffffffffffffffffffffffffc36011261019457600435907f6352211e00000000000000000000000000000000000000000000000000000000815281600482015260208160248173ffffffffffffffffffffffffffffffffffffffff7f0000000000000000000000000000000000000000000000000000000000000000165afa908115610189575f916103aa575b5073ffffffffffffffffffffffffffffffffffffffff33911603610132575f526002602052602060405f205460a01c604051908152f35b6103c3915060203d60201161018257610174818361040c565b82610373565b907fffffffffffffffffffffffffffffffffffffffffffffffffffffffffffffffe0601f602080948051918291828752018686015e5f8582860101520116010190565b90601f7fffffffffffffffffffffffffffffffffffffffffffffffffffffffffffffffe0910116810190811067ffffffffffffffff82111761044d57604052565b7f4e487b71000000000000000000000000000000000000000000000000000000005f52604160045260245ffd5b90816020910312610194575173ffffffffffffffffffffffffffffffffffffffff811681036101945790565b60ff81146105055760ff811690601f82116104dd57604051916104ca60408461040c565b6020808452838101919036833783525290565b7fb3512b0c000000000000000000000000000000000000000000000000000000005f5260045ffd5b506040515f5f548060011c9160018216918215610612575b6020841083146105e55783855284929081156105a8575060011461054b575b6105489250038261040c565b90565b505f80805290917f290decd9548b62a8d60345a988386fc84ba6bc95484008f6362f93160ef3e5635b81831061058c5750509060206105489282010161053c565b6020919350806001915483858801015201910190918392610574565b602092506105489491507fffffffffffffffffffffffffffffffffffffffffffffffffffffffffffffff001682840152151560051b82010161053c565b7f4e487b71000000000000000000000000000000000000000000000000000000005f52602260045260245ffd5b92607f169261051d565b60ff81146106405760ff811690601f82116104dd57604051916104ca60408461040c565b506040515f6001548060011c91600182169182156106e2575b6020841083146105e55783855284929081156105a85750600114610683576105489250038261040c565b5060015f90815290917fb10e2d527612073b26eecdfd717e6a320cf44b4afac2b0732d9fcbe2b7fa0cf65b8183106106c65750509060206105489282010161053c565b60209193508060019154838588010152019101909183926106ae565b92607f169261065956fea26469706673582212207f7ffd66aec91a21ed6165a21ee7b0f5a535b2f0073bf0352d892537f0b6018f64736f6c634300081e0033","linkReferences":{}},"methodIdentifiers":{"eip712Domain()":"84b0196e","getActiveLockboxPublicKeyForToken(uint256)":"aea5cf30","getNonce(uint256)":"3d46b819"},"id":2}