{"abi":[{"type":"constructor","inputs":[],"stateMutability":"nonpayable"},{"type":"function","name":"allowance","inputs":[{"name":"owner","type":"address","internalType":"address"},{"name":"spender","type":"address","internalType":"address"}],"outputs":[{"name":"","type":"uint256","internalType":"uint256"}],"stateMutability":"view"},{"type":"function","name":"approve","inputs":[{"name":"spender","type":"address","internalType":"address"},{"name":"value","type":"uint256","internalType":"uint256"}],"outputs":[{"name":"","type":"bool","internalType":"bool"}],"stateMutability":"nonpayable"},{"type":"function","name":"balanceOf","inputs":[{"name":"account","type":"address","internalType":"address"}],"outputs":[{"name":"","type":"uint256","internalType":"uint256"}],"stateMutability":"view"},{"type":"function","name":"decimals","inputs":[],"outputs":[{"name":"","type":"uint8","internalType":"uint8"}],"stateMutability":"view"},{"type":"function","name":"feePercentage","inputs":[],"outputs":[{"name":"","type":"uint256","internalType":"uint256"}],"stateMutability":"view"},{"type":"function","name":"initialize","inputs":[{"name":"name_","type":"string","internalType":"string"},{"name":"symbol_","type":"string","internalType":"string"}],"outputs":[],"stateMutability":"nonpayable"},{"type":"function","name":"mint","inputs":[{"name":"to","type":"address","internalType":"address"},{"name":"amount","type":"uint256","internalType":"uint256"}],"outputs":[],"stateMutability":"nonpayable"},{"type":"function","name":"name","inputs":[],"outputs":[{"name":"","type":"string","internalType":"string"}],"stateMutability":"view"},{"type":"function","name":"setFeePercentage","inputs":[{"name":"_feePercentage","type":"uint256","internalType":"uint256"}],"outputs":[],"stateMutability":"nonpayable"},{"type":"function","name":"symbol","inputs":[],"outputs":[{"name":"","type":"string","internalType":"string"}],"stateMutability":"view"},{"type":"function","name":"totalSupply","inputs":[],"outputs":[{"name":"","type":"uint256","internalType":"uint256"}],"stateMutability":"view"},{"type":"function","name":"transfer","inputs":[{"name":"to","type":"address","internalType":"address"},{"name":"amount","type":"uint256","internalType":"uint256"}],"outputs":[{"name":"","type":"bool","internalType":"bool"}],"stateMutability":"nonpayable"},{"type":"function","name":"transferFrom","inputs":[{"name":"from","type":"address","internalType":"address"},{"name":"to","type":"address","internalType":"address"},{"name":"amount","type":"uint256","internalType":"uint256"}],"outputs":[{"name":"","type":"bool","internalType":"bool"}],"stateMutability":"nonpayable"},{"type":"event","name":"Approval","inputs":[{"name":"owner","type":"address","indexed":true,"internalType":"address"},{"name":"spender","type":"address","indexed":true,"internalType":"address"},{"name":"value","type":"uint256","indexed":false,"internalType":"uint256"}],"anonymous":false},{"type":"event","name":"Transfer","inputs":[{"name":"from","type":"address","indexed":true,"internalType":"address"},{"name":"to","type":"address","indexed":true,"internalType":"address"},{"name":"value","type":"uint256","indexed":false,"internalType":"uint256"}],"anonymous":false},{"type":"error","name":"ERC20InsufficientAllowance","inputs":[{"name":"spender","type":"address","internalType":"address"},{"name":"allowance","type":"uint256","internalType":"uint256"},{"name":"needed","type":"uint256","internalType":"uint256"}]},{"type":"error","name":"ERC20InsufficientBalance","inputs":[{"name":"sender","type":"address","internalType":"address"},{"name":"balance","type":"uint256","internalType":"uint256"},{"name":"needed","type":"uint256","internalType":"uint256"}]},{"type":"error","name":"ERC20InvalidApprover","inputs":[{"name":"approver","type":"address","internalType":"address"}]},{"type":"error","name":"ERC20InvalidReceiver","inputs":[{"name":"receiver","type":"address","internalType":"address"}]},{"type":"error","name":"ERC20InvalidSender","inputs":[{"name":"sender","type":"address","internalType":"address"}]},{"type":"error","name":"ERC20InvalidSpender","inputs":[{"name":"spender","type":"address","internalType":"address"}]}],"bytecode":{"object":"0x6080604052346102c8576100116102cc565b6100196102cc565b81516001600160401b0381116101db57600354600181811c911680156102be575b60208210146101bd57601f811161025b575b50602092601f82116001146101fa57928192935f926101ef575b50508160011b915f199060031b1c1916176003555b80516001600160401b0381116101db57600454600181811c911680156101d1575b60208210146101bd57601f811161015a575b50602091601f82116001146100fa579181925f926100ef575b50508160011b915f199060031b1c1916176004555b5f600555604051610ef390816102ef8239f35b015190505f806100c7565b601f1982169260045f52805f20915f5b8581106101425750836001951061012a575b505050811b016004556100dc565b01515f1960f88460031b161c191690555f808061011c565b9192602060018192868501518155019401920161010a565b60045f527f8a35acfbc15ff81a39ae7d344fd709f28e8600b4aa8c65c6b64bfe7fe36bd19b601f830160051c810191602084106101b3575b601f0160051c01905b8181106101a857506100ae565b5f815560010161019b565b9091508190610192565b634e487b7160e01b5f52602260045260245ffd5b90607f169061009c565b634e487b7160e01b5f52604160045260245ffd5b015190505f80610066565b601f1982169360035f52805f20915f5b868110610243575083600195961061022b575b505050811b0160035561007b565b01515f1960f88460031b161c191690555f808061021d565b9192602060018192868501518155019401920161020a565b60035f527fc2575a0e9e593c00f959f8c92f12db2869c3395a3b0502d05e2516446f71f85b601f830160051c810191602084106102b4575b601f0160051c01905b8181106102a9575061004c565b5f815560010161029c565b9091508190610293565b90607f169061003a565b5f80fd5b60405190602082016001600160401b038111838210176101db576040525f825256fe6080806040526004361015610012575f80fd5b5f3560e01c90816306fdde0314610ac757508063095ea7b314610a3857806318160ddd14610a1b57806323b872dd1461089a578063313ce5671461087f57806340c10f191461079e5780634cd88b761461035957806370a082311461031557806395d89b411461021d578063a001ecdd14610200578063a9059cbb1461019d578063ae06c1b71461011d5763dd62ed3e146100ab575f80fd5b34610119576040600319360112610119576100c4610bb1565b73ffffffffffffffffffffffffffffffffffffffff6100e1610bd4565b91165f52600160205273ffffffffffffffffffffffffffffffffffffffff60405f2091165f52602052602060405f2054604051908152f35b5f80fd5b3461011957602060031936011261011957600435612710811161013f57600555005b60646040517f08c379a000000000000000000000000000000000000000000000000000000000815260206004820152601660248201527f4665652063616e6e6f74206578636565642031303025000000000000000000006044820152fd5b34610119576040600319360112610119576101e56101b9610bb1565b602435906101d76127106101cf60055485610cfd565b048093610d10565b91806101f0575b5033610df3565b602060405160018152f35b6101fa9033610d1d565b836101de565b34610119575f600319360112610119576020600554604051908152f35b34610119575f600319360112610119576040515f60085461023d81610cac565b80845290600181169081156102d35750600114610275575b6102718361026581850382610bf7565b60405191829182610b69565b0390f35b91905060085f527ff3f7a9fe364faab93b216da50a3214154f22a0a2b415b23a84c8169e8b636ee3915f905b8082106102b957509091508101602001610265610255565b9192600181602092548385880101520191019092916102a1565b7fffffffffffffffffffffffffffffffffffffffffffffffffffffffffffffff001660208086019190915291151560051b840190910191506102659050610255565b346101195760206003193601126101195773ffffffffffffffffffffffffffffffffffffffff610343610bb1565b165f525f602052602060405f2054604051908152f35b346101195760406003193601126101195760043567ffffffffffffffff81116101195761038a903690600401610c38565b60243567ffffffffffffffff8111610119576103aa903690600401610c38565b60065460ff8116610740577fffffffffffffffffffffffffffffffffffffffffffffffffffffffffffffff0016600117600655815167ffffffffffffffff81116105ca576103f9600754610cac565b601f811161069f575b50602092601f821160011461060257928192935f926105f7575b50505f198260011b9260031b1c1916176007555b805167ffffffffffffffff81116105ca5761044c600854610cac565b601f8111610529575b50602091601f8211600114610490579181925f92610485575b50505f198260011b9260031b1c1916176008555f80f35b01519050828061046e565b7fffffffffffffffffffffffffffffffffffffffffffffffffffffffffffffffe082169260085f527ff3f7a9fe364faab93b216da50a3214154f22a0a2b415b23a84c8169e8b636ee3915f5b858110610511575083600195106104f9575b505050811b01600855005b01515f1960f88460031b161c191690558280806104ee565b919260206001819286850151815501940192016104dc565b60085f52601f820160051c7ff3f7a9fe364faab93b216da50a3214154f22a0a2b415b23a84c8169e8b636ee30190602083106105a2575b601f0160051c7ff3f7a9fe364faab93b216da50a3214154f22a0a2b415b23a84c8169e8b636ee301905b8181106105975750610455565b5f815560010161058a565b7ff3f7a9fe364faab93b216da50a3214154f22a0a2b415b23a84c8169e8b636ee39150610560565b7f4e487b71000000000000000000000000000000000000000000000000000000005f52604160045260245ffd5b01519050838061041c565b7fffffffffffffffffffffffffffffffffffffffffffffffffffffffffffffffe082169360075f527fa66cc928b5edb82af9bd49922954155ab7b0942694bea4ce44661d9a8736c688915f5b868110610687575083600195961061066f575b505050811b01600755610430565b01515f1960f88460031b161c19169055838080610661565b9192602060018192868501518155019401920161064e565b60075f52601f820160051c7fa66cc928b5edb82af9bd49922954155ab7b0942694bea4ce44661d9a8736c688019060208310610718575b601f0160051c7fa66cc928b5edb82af9bd49922954155ab7b0942694bea4ce44661d9a8736c68801905b81811061070d5750610402565b5f8155600101610700565b7fa66cc928b5edb82af9bd49922954155ab7b0942694bea4ce44661d9a8736c68891506106d6565b60646040517f08c379a000000000000000000000000000000000000000000000000000000000815260206004820152601360248201527f416c726561647920696e697469616c697a6564000000000000000000000000006044820152fd5b34610119576040600319360112610119576107b7610bb1565b73ffffffffffffffffffffffffffffffffffffffff16602435811561085357600254908082018092116108265760207fddf252ad1be2c89b69c2b068fc378daa952ba7f163c4a11628f55a4df523b3ef915f9360025584845283825260408420818154019055604051908152a3005b7f4e487b71000000000000000000000000000000000000000000000000000000005f52601160045260245ffd5b7fec442f05000000000000000000000000000000000000000000000000000000005f525f60045260245ffd5b34610119575f60031936011261011957602060405160128152f35b34610119576060600319360112610119576108b3610bb1565b6108bb610bd4565b604435906108d16127106101cf60055485610cfd565b9180610a0b575b5073ffffffffffffffffffffffffffffffffffffffff831692835f52600160205260405f2073ffffffffffffffffffffffffffffffffffffffff33165f5260205260405f20545f198110610932575b506101e59350610df3565b8381106109d75784156109ab57331561097f576101e5945f52600160205260405f2073ffffffffffffffffffffffffffffffffffffffff33165f526020528360405f209103905584610927565b7f94280d62000000000000000000000000000000000000000000000000000000005f525f60045260245ffd5b7fe602df05000000000000000000000000000000000000000000000000000000005f525f60045260245ffd5b83907ffb8f41b2000000000000000000000000000000000000000000000000000000005f523360045260245260445260645ffd5b610a159084610d1d565b836108d8565b34610119575f600319360112610119576020600254604051908152f35b3461011957604060031936011261011957610a51610bb1565b6024359033156109ab5773ffffffffffffffffffffffffffffffffffffffff1690811561097f57335f52600160205260405f20825f526020528060405f20556040519081527f8c5be1e5ebec7d5bd14f71427d1e84f3dd0314c0f7b2291e5b200ac8c7c3b92560203392a3602060405160018152f35b34610119575f600319360112610119575f600754610ae481610cac565b80845290600181169081156102d35750600114610b0b576102718361026581850382610bf7565b91905060075f527fa66cc928b5edb82af9bd49922954155ab7b0942694bea4ce44661d9a8736c688915f905b808210610b4f57509091508101602001610265610255565b919260018160209254838588010152019101909291610b37565b7fffffffffffffffffffffffffffffffffffffffffffffffffffffffffffffffe0601f602060409481855280519182918282880152018686015e5f8582860101520116010190565b6004359073ffffffffffffffffffffffffffffffffffffffff8216820361011957565b6024359073ffffffffffffffffffffffffffffffffffffffff8216820361011957565b90601f7fffffffffffffffffffffffffffffffffffffffffffffffffffffffffffffffe0910116810190811067ffffffffffffffff8211176105ca57604052565b81601f820112156101195780359067ffffffffffffffff82116105ca5760405192610c8b60207fffffffffffffffffffffffffffffffffffffffffffffffffffffffffffffffe0601f8601160185610bf7565b8284526020838301011161011957815f926020809301838601378301015290565b90600182811c92168015610cf3575b6020831014610cc657565b7f4e487b71000000000000000000000000000000000000000000000000000000005f52602260045260245ffd5b91607f1691610cbb565b8181029291811591840414171561082657565b9190820391821161082657565b90919073ffffffffffffffffffffffffffffffffffffffff168015610dc757805f525f60205260405f2054838110610d94576020845f94957fddf252ad1be2c89b69c2b068fc378daa952ba7f163c4a11628f55a4df523b3ef938587528684520360408620558060025403600255604051908152a3565b91507fe450d38c000000000000000000000000000000000000000000000000000000005f5260045260245260445260645ffd5b7f96c6fd1e000000000000000000000000000000000000000000000000000000005f525f60045260245ffd5b73ffffffffffffffffffffffffffffffffffffffff16908115610dc75773ffffffffffffffffffffffffffffffffffffffff1691821561085357815f525f60205260405f2054818110610e8b57817fddf252ad1be2c89b69c2b068fc378daa952ba7f163c4a11628f55a4df523b3ef92602092855f525f84520360405f2055845f525f825260405f20818154019055604051908152a3565b827fe450d38c000000000000000000000000000000000000000000000000000000005f5260045260245260445260645ffdfea26469706673582212204fd2e4de6cecb5a71af3d0ac829e89c7a606c385a631e03c3d8bc32acee6de7c64736f6c634300081e0033","linkReferences":{}},"methodIdentifiers":{"allowance(address,address)":"dd62ed3e","approve(address,uint256)":"095ea7b3","balanceOf(address)":"70a08231","decimals()":"313ce567","feePercentage()":"a001ecdd","initialize(string,string)":"4cd88b76","mint(address,uint256)":"40c10f19","name()":"06fdde03","setFeePercentage(uint256)":"ae06c1b7","symbol()":"95d89b41","totalSupply()":"18160ddd","transfer(address,uint256)":"a9059cbb","transferFrom(address,address,uint256)":"23b872dd"},"id":11}