{"abi":[{"type":"fallback","stateMutability":"payable"},{"type":"receive","stateMutability":"payable"},{"type":"function","name":"approve","inputs":[{"name":"to","type":"address","internalType":"address"},{"name":"tokenId","type":"uint256","internalType":"uint256"}],"outputs":[],"stateMutability":"nonpayable"},{"type":"function","name":"balanceOf","inputs":[{"name":"owner","type":"address","internalType":"address"}],"outputs":[{"name":"","type":"uint256","internalType":"uint256"}],"stateMutability":"view"},{"type":"function","name":"batchDeposit","inputs":[{"name":"tokenId","type":"uint256","internalType":"uint256"},{"name":"amountETH","type":"uint256","internalType":"uint256"},{"name":"tokenAddresses","type":"address[]","internalType":"address[]"},{"name":"tokenAmounts","type":"uint256[]","internalType":"uint256[]"},{"name":"nftContracts","type":"address[]","internalType":"address[]"},{"name":"nftTokenIds","type":"uint256[]","internalType":"uint256[]"},{"name":"referenceId","type":"bytes32","internalType":"bytes32"}],"outputs":[],"stateMutability":"payable"},{"type":"function","name":"batchWithdraw","inputs":[{"name":"tokenId","type":"uint256","internalType":"uint256"},{"name":"messageHash","type":"bytes32","internalType":"bytes32"},{"name":"signature","type":"bytes","internalType":"bytes"},{"name":"amountETH","type":"uint256","internalType":"uint256"},{"name":"tokenAddresses","type":"address[]","internalType":"address[]"},{"name":"tokenAmounts","type":"uint256[]","internalType":"uint256[]"},{"name":"nftContracts","type":"address[]","internalType":"address[]"},{"name":"nftTokenIds","type":"uint256[]","internalType":"uint256[]"},{"name":"recipient","type":"address","internalType":"address"},{"name":"referenceId","type":"bytes32","internalType":"bytes32"},{"name":"signatureExpiry","type":"uint256","internalType":"uint256"}],"outputs":[],"stateMutability":"nonpayable"},{"type":"function","name":"burnLockbox","inputs":[{"name":"tokenId","type":"uint256","internalType":"uint256"},{"name":"messageHash","type":"bytes32","internalType":"bytes32"},{"name":"signature","type":"bytes","internalType":"bytes"},{"name":"referenceId","type":"bytes32","internalType":"bytes32"},{"name":"signatureExpiry","type":"uint256","internalType":"uint256"}],"outputs":[],"stateMutability":"nonpayable"},{"type":"function","name":"createLockboxWithBatch","inputs":[{"name":"to","type":"address","internalType":"address"},{"name":"lockboxPublicKey","type":"address","internalType":"address"},{"name":"amountETH","type":"uint256","internalType":"uint256"},{"name":"tokenAddresses","type":"address[]","internalType":"address[]"},{"name":"tokenAmounts","type":"uint256[]","internalType":"uint256[]"},{"name":"nftContracts","type":"address[]","internalType":"address[]"},{"name":"nftTokenIds","type":"uint256[]","internalType":"uint256[]"},{"name":"referenceId","type":"bytes32","internalType":"bytes32"}],"outputs":[],"stateMutability":"payable"},{"type":"function","name":"createLockboxWithERC20","inputs":[{"name":"to","type":"address","internalType":"address"},{"name":"lockboxPublicKey","type":"address","internalType":"address"},{"name":"tokenAddress","type":"address","internalType":"address"},{"name":"amount","type":"uint256","internalType":"uint256"},{"name":"referenceId","type":"bytes32","internalType":"bytes32"}],"outputs":[],"stateMutability":"nonpayable"},{"type":"function","name":"createLockboxWithERC721","inputs":[{"name":"to","type":"address","internalType":"address"},{"name":"lockboxPublicKey","type":"address","internalType":"address"},{"name":"nftContract","type":"address","internalType":"address"},{"name":"externalNftTokenId","type":"uint256","internalType":"uint256"},{"name":"referenceId","type":"bytes32","internalType":"bytes32"}],"outputs":[],"stateMutability":"nonpayable"},{"type":"function","name":"createLockboxWithETH","inputs":[{"name":"to","type":"address","internalType":"address"},{"name":"lockboxPublicKey","type":"address","internalType":"address"},{"name":"referenceId","type":"bytes32","internalType":"bytes32"}],"outputs":[],"stateMutability":"payable"},{"type":"function","name":"depositERC20","inputs":[{"name":"tokenId","type":"uint256","internalType":"uint256"},{"name":"tokenAddress","type":"address","internalType":"address"},{"name":"amount","type":"uint256","internalType":"uint256"},{"name":"referenceId","type":"bytes32","internalType":"bytes32"}],"outputs":[],"stateMutability":"nonpayable"},{"type":"function","name":"depositERC721","inputs":[{"name":"tokenId","type":"uint256","internalType":"uint256"},{"name":"nftContract","type":"address","internalType":"address"},{"name":"nftTokenId","type":"uint256","internalType":"uint256"},{"name":"referenceId","type":"bytes32","internalType":"bytes32"}],"outputs":[],"stateMutability":"nonpayable"},{"type":"function","name":"depositETH","inputs":[{"name":"tokenId","type":"uint256","internalType":"uint256"},{"name":"referenceId","type":"bytes32","internalType":"bytes32"}],"outputs":[],"stateMutability":"payable"},{"type":"function","name":"eip712Domain","inputs":[],"outputs":[{"name":"fields","type":"bytes1","internalType":"bytes1"},{"name":"name","type":"string","internalType":"string"},{"name":"version","type":"string","internalType":"string"},{"name":"chainId","type":"uint256","internalType":"uint256"},{"name":"verifyingContract","type":"address","internalType":"address"},{"name":"salt","type":"bytes32","internalType":"bytes32"},{"name":"extensions","type":"uint256[]","internalType":"uint256[]"}],"stateMutability":"view"},{"type":"function","name":"getActiveLockboxPublicKeyForToken","inputs":[{"name":"tokenId","type":"uint256","internalType":"uint256"}],"outputs":[{"name":"","type":"address","internalType":"address"}],"stateMutability":"view"},{"type":"function","name":"getApproved","inputs":[{"name":"tokenId","type":"uint256","internalType":"uint256"}],"outputs":[{"name":"","type":"address","internalType":"address"}],"stateMutability":"view"},{"type":"function","name":"getERC20Bal","inputs":[{"name":"tokenId","type":"uint256","internalType":"uint256"},{"name":"token","type":"address","internalType":"address"}],"outputs":[{"name":"","type":"uint256","internalType":"uint256"}],"stateMutability":"view"},{"type":"function","name":"getErc20AddressAt","inputs":[{"name":"tokenId","type":"uint256","internalType":"uint256"},{"name":"index","type":"uint256","internalType":"uint256"}],"outputs":[{"name":"","type":"address","internalType":"address"}],"stateMutability":"view"},{"type":"function","name":"getErc20ArrayLength","inputs":[{"name":"tokenId","type":"uint256","internalType":"uint256"}],"outputs":[{"name":"","type":"uint256","internalType":"uint256"}],"stateMutability":"view"},{"type":"function","name":"getErc20Index","inputs":[{"name":"tokenId","type":"uint256","internalType":"uint256"},{"name":"token","type":"address","internalType":"address"}],"outputs":[{"name":"","type":"uint256","internalType":"uint256"}],"stateMutability":"view"},{"type":"function","name":"getErc20Known","inputs":[{"name":"tokenId","type":"uint256","internalType":"uint256"},{"name":"token","type":"address","internalType":"address"}],"outputs":[{"name":"","type":"bool","internalType":"bool"}],"stateMutability":"view"},{"type":"function","name":"getEthBal","inputs":[{"name":"tokenId","type":"uint256","internalType":"uint256"}],"outputs":[{"name":"","type":"uint256","internalType":"uint256"}],"stateMutability":"view"},{"type":"function","name":"getFullLockbox","inputs":[{"name":"tokenId","type":"uint256","internalType":"uint256"}],"outputs":[{"name":"lockboxETH","type":"uint256","internalType":"uint256"},{"name":"erc20Tokens","type":"tuple[]","internalType":"struct Withdrawals.erc20Balances[]","components":[{"name":"tokenAddress","type":"address","internalType":"address"},{"name":"balance","type":"uint256","internalType":"uint256"}]},{"name":"nftContracts","type":"tuple[]","internalType":"struct Deposits.nftBalances[]","components":[{"name":"nftContract","type":"address","internalType":"address"},{"name":"nftTokenId","type":"uint256","internalType":"uint256"}]}],"stateMutability":"view"},{"type":"function","name":"getNonce","inputs":[{"name":"tokenId","type":"uint256","internalType":"uint256"}],"outputs":[{"name":"","type":"uint256","internalType":"uint256"}],"stateMutability":"view"},{"type":"function","name":"isApprovedForAll","inputs":[{"name":"owner","type":"address","internalType":"address"},{"name":"operator","type":"address","internalType":"address"}],"outputs":[{"name":"","type":"bool","internalType":"bool"}],"stateMutability":"view"},{"type":"function","name":"locked","inputs":[{"name":"tokenId","type":"uint256","internalType":"uint256"}],"outputs":[{"name":"","type":"bool","internalType":"bool"}],"stateMutability":"view"},{"type":"function","name":"name","inputs":[],"outputs":[{"name":"","type":"string","internalType":"string"}],"stateMutability":"view"},{"type":"function","name":"onERC721Received","inputs":[{"name":"","type":"address","internalType":"address"},{"name":"","type":"address","internalType":"address"},{"name":"","type":"uint256","internalType":"uint256"},{"name":"","type":"bytes","internalType":"bytes"}],"outputs":[{"name":"","type":"bytes4","internalType":"bytes4"}],"stateMutability":"pure"},{"type":"function","name":"owner","inputs":[],"outputs":[{"name":"","type":"address","internalType":"address"}],"stateMutability":"view"},{"type":"function","name":"ownerOf","inputs":[{"name":"tokenId","type":"uint256","internalType":"uint256"}],"outputs":[{"name":"","type":"address","internalType":"address"}],"stateMutability":"view"},{"type":"function","name":"renounceOwnership","inputs":[],"outputs":[],"stateMutability":"nonpayable"},{"type":"function","name":"rotateLockboxKey","inputs":[{"name":"tokenId","type":"uint256","internalType":"uint256"},{"name":"messageHash","type":"bytes32","internalType":"bytes32"},{"name":"signature","type":"bytes","internalType":"bytes"},{"name":"newPublicKey","type":"address","internalType":"address"},{"name":"referenceId","type":"bytes32","internalType":"bytes32"},{"name":"signatureExpiry","type":"uint256","internalType":"uint256"}],"outputs":[],"stateMutability":"nonpayable"},{"type":"function","name":"safeTransferFrom","inputs":[{"name":"from","type":"address","internalType":"address"},{"name":"to","type":"address","internalType":"address"},{"name":"tokenId","type":"uint256","internalType":"uint256"}],"outputs":[],"stateMutability":"nonpayable"},{"type":"function","name":"safeTransferFrom","inputs":[{"name":"from","type":"address","internalType":"address"},{"name":"to","type":"address","internalType":"address"},{"name":"tokenId","type":"uint256","internalType":"uint256"},{"name":"data","type":"bytes","internalType":"bytes"}],"outputs":[],"stateMutability":"nonpayable"},{"type":"function","name":"setApprovalForAll","inputs":[{"name":"operator","type":"address","internalType":"address"},{"name":"approved","type":"bool","internalType":"bool"}],"outputs":[],"stateMutability":"nonpayable"},{"type":"function","name":"setDefaultMetadataURI","inputs":[{"name":"newDefaultURI","type":"string","internalType":"string"}],"outputs":[],"stateMutability":"nonpayable"},{"type":"function","name":"setTokenMetadataURI","inputs":[{"name":"tokenId","type":"uint256","internalType":"uint256"},{"name":"messageHash","type":"bytes32","internalType":"bytes32"},{"name":"signature","type":"bytes","internalType":"bytes"},{"name":"newMetadataURI","type":"string","internalType":"string"},{"name":"referenceId","type":"bytes32","internalType":"bytes32"},{"name":"signatureExpiry","type":"uint256","internalType":"uint256"}],"outputs":[],"stateMutability":"nonpayable"},{"type":"function","name":"supportsInterface","inputs":[{"name":"interfaceId","type":"bytes4","internalType":"bytes4"}],"outputs":[{"name":"","type":"bool","internalType":"bool"}],"stateMutability":"view"},{"type":"function","name":"swapInLockbox","inputs":[{"name":"tokenId","type":"uint256","internalType":"uint256"},{"name":"messageHash","type":"bytes32","internalType":"bytes32"},{"name":"signature","type":"bytes","internalType":"bytes"},{"name":"tokenIn","type":"address","internalType":"address"},{"name":"tokenOut","type":"address","internalType":"address"},{"name":"amountIn","type":"uint256","internalType":"uint256"},{"name":"minAmountOut","type":"uint256","internalType":"uint256"},{"name":"target","type":"address","internalType":"address"},{"name":"data","type":"bytes","internalType":"bytes"},{"name":"referenceId","type":"bytes32","internalType":"bytes32"},{"name":"signatureExpiry","type":"uint256","internalType":"uint256"},{"name":"recipient","type":"address","internalType":"address"}],"outputs":[],"stateMutability":"nonpayable"},{"type":"function","name":"symbol","inputs":[],"outputs":[{"name":"","type":"string","internalType":"string"}],"stateMutability":"view"},{"type":"function","name":"testInitialize","inputs":[{"name":"tokenId","type":"uint256","internalType":"uint256"},{"name":"lockboxPublicKey","type":"address","internalType":"address"}],"outputs":[],"stateMutability":"nonpayable"},{"type":"function","name":"testRequireExists","inputs":[{"name":"tokenId","type":"uint256","internalType":"uint256"}],"outputs":[],"stateMutability":"view"},{"type":"function","name":"tokenURI","inputs":[{"name":"tokenId","type":"uint256","internalType":"uint256"}],"outputs":[{"name":"","type":"string","internalType":"string"}],"stateMutability":"view"},{"type":"function","name":"transferFrom","inputs":[{"name":"from","type":"address","internalType":"address"},{"name":"to","type":"address","internalType":"address"},{"name":"tokenId","type":"uint256","internalType":"uint256"}],"outputs":[],"stateMutability":"nonpayable"},{"type":"function","name":"transferOwnership","inputs":[{"name":"newOwner","type":"address","internalType":"address"}],"outputs":[],"stateMutability":"nonpayable"},{"type":"function","name":"withdrawERC20","inputs":[{"name":"tokenId","type":"uint256","internalType":"uint256"},{"name":"messageHash","type":"bytes32","internalType":"bytes32"},{"name":"signature","type":"bytes","internalType":"bytes"},{"name":"tokenAddress","type":"address","internalType":"address"},{"name":"amount","type":"uint256","internalType":"uint256"},{"name":"recipient","type":"address","internalType":"address"},{"name":"referenceId","type":"bytes32","internalType":"bytes32"},{"name":"signatureExpiry","type":"uint256","internalType":"uint256"}],"outputs":[],"stateMutability":"nonpayable"},{"type":"function","name":"withdrawERC721","inputs":[{"name":"tokenId","type":"uint256","internalType":"uint256"},{"name":"messageHash","type":"bytes32","internalType":"bytes32"},{"name":"signature","type":"bytes","internalType":"bytes"},{"name":"nftContract","type":"address","internalType":"address"},{"name":"nftTokenId","type":"uint256","internalType":"uint256"},{"name":"recipient","type":"address","internalType":"address"},{"name":"referenceId","type":"bytes32","internalType":"bytes32"},{"name":"signatureExpiry","type":"uint256","internalType":"uint256"}],"outputs":[],"stateMutability":"nonpayable"},{"type":"function","name":"withdrawETH","inputs":[{"name":"tokenId","type":"uint256","internalType":"uint256"},{"name":"messageHash","type":"bytes32","internalType":"bytes32"},{"name":"signature","type":"bytes","internalType":"bytes"},{"name":"amountETH","type":"uint256","internalType":"uint256"},{"name":"recipient","type":"address","internalType":"address"},{"name":"referenceId","type":"bytes32","internalType":"bytes32"},{"name":"signatureExpiry","type":"uint256","internalType":"uint256"}],"outputs":[],"stateMutability":"nonpayable"},{"type":"event","name":"Approval","inputs":[{"name":"owner","type":"address","indexed":true,"internalType":"address"},{"name":"approved","type":"address","indexed":true,"internalType":"address"},{"name":"tokenId","type":"uint256","indexed":true,"internalType":"uint256"}],"anonymous":false},{"type":"event","name":"ApprovalForAll","inputs":[{"name":"owner","type":"address","indexed":true,"internalType":"address"},{"name":"operator","type":"address","indexed":true,"internalType":"address"},{"name":"approved","type":"bool","indexed":false,"internalType":"bool"}],"anonymous":false},{"type":"event","name":"Deposited","inputs":[{"name":"tokenId","type":"uint256","indexed":true,"internalType":"uint256"},{"name":"referenceId","type":"bytes32","indexed":true,"internalType":"bytes32"}],"anonymous":false},{"type":"event","name":"EIP712DomainChanged","inputs":[],"anonymous":false},{"type":"event","name":"KeyRotated","inputs":[{"name":"tokenId","type":"uint256","indexed":true,"internalType":"uint256"},{"name":"referenceId","type":"bytes32","indexed":true,"internalType":"bytes32"}],"anonymous":false},{"type":"event","name":"LockboxBurned","inputs":[{"name":"tokenId","type":"uint256","indexed":true,"internalType":"uint256"},{"name":"referenceId","type":"bytes32","indexed":true,"internalType":"bytes32"}],"anonymous":false},{"type":"event","name":"Locked","inputs":[{"name":"tokenId","type":"uint256","indexed":false,"internalType":"uint256"}],"anonymous":false},{"type":"event","name":"Minted","inputs":[{"name":"tokenId","type":"uint256","indexed":true,"internalType":"uint256"},{"name":"referenceId","type":"bytes32","indexed":true,"internalType":"bytes32"}],"anonymous":false},{"type":"event","name":"OwnershipTransferred","inputs":[{"name":"previousOwner","type":"address","indexed":true,"internalType":"address"},{"name":"newOwner","type":"address","indexed":true,"internalType":"address"}],"anonymous":false},{"type":"event","name":"SwapExecuted","inputs":[{"name":"tokenId","type":"uint256","indexed":true,"internalType":"uint256"},{"name":"referenceId","type":"bytes32","indexed":true,"internalType":"bytes32"}],"anonymous":false},{"type":"event","name":"TokenMetadataURISet","inputs":[{"name":"tokenId","type":"uint256","indexed":true,"internalType":"uint256"},{"name":"referenceId","type":"bytes32","indexed":true,"internalType":"bytes32"}],"anonymous":false},{"type":"event","name":"Transfer","inputs":[{"name":"from","type":"address","indexed":true,"internalType":"address"},{"name":"to","type":"address","indexed":true,"internalType":"address"},{"name":"tokenId","type":"uint256","indexed":true,"internalType":"uint256"}],"anonymous":false},{"type":"event","name":"Withdrawn","inputs":[{"name":"tokenId","type":"uint256","indexed":true,"internalType":"uint256"},{"name":"referenceId","type":"bytes32","indexed":true,"internalType":"bytes32"}],"anonymous":false},{"type":"error","name":"AlreadyInitialized","inputs":[]},{"type":"error","name":"ArrayLengthMismatch","inputs":[]},{"type":"error","name":"DefaultURIAlreadySet","inputs":[]},{"type":"error","name":"DuplicateEntry","inputs":[]},{"type":"error","name":"ECDSAInvalidSignature","inputs":[]},{"type":"error","name":"ECDSAInvalidSignatureLength","inputs":[{"name":"length","type":"uint256","internalType":"uint256"}]},{"type":"error","name":"ECDSAInvalidSignatureS","inputs":[{"name":"s","type":"bytes32","internalType":"bytes32"}]},{"type":"error","name":"ERC721IncorrectOwner","inputs":[{"name":"sender","type":"address","internalType":"address"},{"name":"tokenId","type":"uint256","internalType":"uint256"},{"name":"owner","type":"address","internalType":"address"}]},{"type":"error","name":"ERC721InsufficientApproval","inputs":[{"name":"operator","type":"address","internalType":"address"},{"name":"tokenId","type":"uint256","internalType":"uint256"}]},{"type":"error","name":"ERC721InvalidApprover","inputs":[{"name":"approver","type":"address","internalType":"address"}]},{"type":"error","name":"ERC721InvalidOperator","inputs":[{"name":"operator","type":"address","internalType":"address"}]},{"type":"error","name":"ERC721InvalidOwner","inputs":[{"name":"owner","type":"address","internalType":"address"}]},{"type":"error","name":"ERC721InvalidReceiver","inputs":[{"name":"receiver","type":"address","internalType":"address"}]},{"type":"error","name":"ERC721InvalidSender","inputs":[{"name":"sender","type":"address","internalType":"address"}]},{"type":"error","name":"ERC721NonexistentToken","inputs":[{"name":"tokenId","type":"uint256","internalType":"uint256"}]},{"type":"error","name":"ETHMismatch","inputs":[]},{"type":"error","name":"EthTransferFailed","inputs":[]},{"type":"error","name":"EthValueMismatch","inputs":[]},{"type":"error","name":"FallbackNotAllowed","inputs":[]},{"type":"error","name":"InsufficientTokenBalance","inputs":[]},{"type":"error","name":"InvalidMessageHash","inputs":[]},{"type":"error","name":"InvalidShortString","inputs":[]},{"type":"error","name":"InvalidSignature","inputs":[]},{"type":"error","name":"InvalidSwap","inputs":[]},{"type":"error","name":"MismatchedInputs","inputs":[]},{"type":"error","name":"NFTNotFound","inputs":[]},{"type":"error","name":"NoETHBalance","inputs":[]},{"type":"error","name":"NoURI","inputs":[]},{"type":"error","name":"NonexistentToken","inputs":[]},{"type":"error","name":"NotOwner","inputs":[]},{"type":"error","name":"OwnableInvalidOwner","inputs":[{"name":"owner","type":"address","internalType":"address"}]},{"type":"error","name":"OwnableUnauthorizedAccount","inputs":[{"name":"account","type":"address","internalType":"address"}]},{"type":"error","name":"ReentrancyGuardReentrantCall","inputs":[]},{"type":"error","name":"RouterOverspent","inputs":[]},{"type":"error","name":"SafeERC20FailedOperation","inputs":[{"name":"token","type":"address","internalType":"address"}]},{"type":"error","name":"SelfMintOnly","inputs":[]},{"type":"error","name":"SignatureExpired","inputs":[]},{"type":"error","name":"SlippageExceeded","inputs":[]},{"type":"error","name":"StringTooLong","inputs":[{"name":"str","type":"string","internalType":"string"}]},{"type":"error","name":"SwapCallFailed","inputs":[]},{"type":"error","name":"TransfersDisabled","inputs":[]},{"type":"error","name":"UseDepositETH","inputs":[]},{"type":"error","name":"ZeroAddress","inputs":[]},{"type":"error","name":"ZeroAmount","inputs":[]},{"type":"error","name":"ZeroKey","inputs":[]},{"type":"error","name":"ZeroTokenAddress","inputs":[]}],"bytecode":{"object":"0x610180604052346104af576040516100186040826104b3565b60088152674c6f636b782e696f60c01b60208201526040519061003c6040836104b3565b6007825266098dec6d6c4def60cb1b602083015260405161005e6040826104b3565b60058152602081019064098dec6d6f60db1b8252604051936100816040866104b3565b60018552601960f91b60208601908152845190946001600160401b0382116103b6575f5490600182811c921680156104a5575b60208310146103985781601f849311610438575b50602090601f83116001146103d5575f926103ca575b50508160011b915f199060031b1c1916175f555b8051906001600160401b0382116103b65760015490600182811c921680156103ac575b60208310146103985781601f84931161032a575b50602090601f83116001146102c4575f926102b9575b50508160011b915f199060031b1c1916176001555b33156102a65760068054336001600160a01b0319821681179092556001600160a01b03167f8be0079c531659141344cd1fd0a4f28419497f9722a3daafe3b4186f6b6457e05f80a36101a5816104d6565b610120526101b28461065d565b61014052519020918260e05251902080610100524660a0526040519060208201927f8b73c3c69bb8fe3d512ecc4cf759cc79239f7b179b0ffacaa9a75d522b39400f8452604083015260608201524660808201523060a082015260a0815261021b60c0826104b3565b5190206080523060c05230610160526001600a55604051615bb8908161079682396080518161590b015260a051816159c8015260c051816158dc015260e0518161595a01526101005181615980015261012051816129cc015261014051816129f50152610160518181816106cc01528181611b7c0152818161352101528181614ce801526151ca0152f35b631e4fbdf760e01b5f525f60045260245ffd5b015190505f8061013f565b60015f9081528281209350601f198516905b81811061031257509084600195949392106102fa575b505050811b01600155610154565b01515f1960f88460031b161c191690555f80806102ec565b929360206001819287860151815501950193016102d6565b60015f529091507fb10e2d527612073b26eecdfd717e6a320cf44b4afac2b0732d9fcbe2b7fa0cf6601f840160051c8101916020851061038e575b90601f859493920160051c01905b8181106103805750610129565b5f8155849350600101610373565b9091508190610365565b634e487b7160e01b5f52602260045260245ffd5b91607f1691610115565b634e487b7160e01b5f52604160045260245ffd5b015190505f806100de565b5f8080528281209350601f198516905b8181106104205750908460019594939210610408575b505050811b015f556100f2565b01515f1960f88460031b161c191690555f80806103fb565b929360206001819287860151815501950193016103e5565b5f80529091507f290decd9548b62a8d60345a988386fc84ba6bc95484008f6362f93160ef3e563601f840160051c8101916020851061049b575b90601f859493920160051c01905b81811061048d57506100c8565b5f8155849350600101610480565b9091508190610472565b91607f16916100b4565b5f80fd5b601f909101601f19168101906001600160401b038211908210176103b657604052565b908151602081105f14610550575090601f815111610510576020815191015160208210610501571790565b5f198260200360031b1b161790565b604460209160405192839163305a27a960e01b83528160048401528051918291826024860152018484015e5f828201840152601f01601f19168101030190fd5b6001600160401b0381116103b657600754600181811c91168015610653575b602082101461039857601f8111610620575b50602092601f82116001146105bf57928192935f926105b4575b50508160011b915f199060031b1c19161760075560ff90565b015190505f8061059b565b601f1982169360075f52805f20915f5b86811061060857508360019596106105f0575b505050811b0160075560ff90565b01515f1960f88460031b161c191690555f80806105e2565b919260206001819286850151815501940192016105cf565b60075f52601f60205f20910160051c810190601f830160051c015b8181106106485750610581565b5f815560010161063b565b90607f169061056f565b908151602081105f14610688575090601f815111610510576020815191015160208210610501571790565b6001600160401b0381116103b657600854600181811c9116801561078b575b602082101461039857601f8111610758575b50602092601f82116001146106f757928192935f926106ec575b50508160011b915f199060031b1c19161760085560ff90565b015190505f806106d3565b601f1982169360085f52805f20915f5b8681106107405750836001959610610728575b505050811b0160085560ff90565b01515f1960f88460031b161c191690555f808061071a565b91926020600181928685015181550194019201610707565b60085f52601f60205f20910160051c810190601f830160051c015b81811061078057506106b9565b5f8155600101610773565b90607f16906106a756fe6080806040526004361015610040575b50361561003e577fdeab4c30000000000000000000000000000000000000000000000000000000005f5260045ffd5b005b5f3560e01c90816301ffc9a714613e985750806306fdde0314613df6578063081812fc14613db9578063095ea7b314613ca75780630db5425614613b59578063150b7a0214613aea5780631c30dbb614613aa557806323b872dd14613a8e5780632dbf9be61461375a5780633b0320b01461359a5780633d46b819146134d157806342842e0e146134a8578063486c4b7f14613467578063490091fd146134205780634b7fc217146134045780634bf7e15a146133da5780634d8af09e1461337457806352dc033c146131425780635e4ed95d1461306c5780636267699a14612e255780636352211e14612df657806365cd69a114612d8857806370a0823114612d1e578063715018a614612cb8578063748917dd14612c4d57806375463c4a14612b0d578063832d46cc14612ac857806384b0196e146129b45780638da5cb5b1461298e5780638f93f31b146122e557806395480879146120d357806395d89b4114611feb5780639b9900a914611ccd578063a22cb46514611bfb578063aea5cf3014611b2c578063b45a3c0e14611acb578063b88d4fde14611a7c578063bb4ffa1014611542578063bd1ca78514610b33578063c87b56dd14610afc578063d0856eb414610ad2578063e124a17c14610673578063e985e9c51461061a578063ee14979c146105f6578063f2fde38b1461054b578063f3eb9a16146102995763fa2bb37614610251575f61000f565b34610295576040600319360112610295576004355f52600d60205260206001600160a01b0361028560243560405f206148f5565b90549060031b1c16604051908152f35b5f80fd5b346102955760c06003193601126102955760043560443567ffffffffffffffff8111610295576102cd90369060040161408e565b906102d6613f4e565b6084359260a435906102e6614c73565b6102ef84614cac565b81421161052357604051926001600160a01b036020850191868352169283604086015286606086015233608086015260a085015260a0845261033260c085614019565b845f52600960205260405f20935190209083549060428260a01c9360405160208101917f5fd4fde1cb878824d6e96eec97296c9e818ad783a10b7c9ede6e7f27eca7b06b83528960408301528660608301525f608083015260a082015260a0815261039e60c082614019565b5190206103a96158d2565b90604051917f1901000000000000000000000000000000000000000000000000000000000000835260028301526022820152209081602435036104fb57610407926103fe6001600160a01b03939284936159ee565b90959195615a28565b169116036104d3576bffffffffffffffffffffffff81146104a65782546001600160a01b031660019190910160a01b73ffffffffffffffffffffffffffffffffffffffff191617825580610483575b50507f984cbcf51cba481417bc4c1f7faacf7392a4cbcd6c7fb7888b24ed2e50a0be775f80a36001600a55005b73ffffffffffffffffffffffffffffffffffffffff198254161790558280610456565b7f4e487b71000000000000000000000000000000000000000000000000000000005f52601160045260245ffd5b7f8baa579f000000000000000000000000000000000000000000000000000000005f5260045ffd5b7f8b56642d000000000000000000000000000000000000000000000000000000005f5260045ffd5b7f0819bdcd000000000000000000000000000000000000000000000000000000005f5260045ffd5b34610295576020600319360112610295576001600160a01b0361056c613f0c565b6105746155ad565b1680156105ca576001600160a01b036006548273ffffffffffffffffffffffffffffffffffffffff19821617600655167f8be0079c531659141344cd1fd0a4f28419497f9722a3daafe3b4186f6b6457e05f80a3005b7f1e4fbdf7000000000000000000000000000000000000000000000000000000005f525f60045260245ffd5b346102955760406003193601126102955761003e610612613f22565b600435614f26565b3461029557604060031936011261029557610633613f0c565b6001600160a01b03610643613f22565b91165f5260056020526001600160a01b0360405f2091165f52602052602060ff60405f2054166040519015158152f35b34610295576020600319360112610295576004356106908161518e565b6040517f6352211e0000000000000000000000000000000000000000000000000000000081528160048201526020816024816001600160a01b037f0000000000000000000000000000000000000000000000000000000000000000165afa908115610ac7575f91610a98575b506001600160a01b0333911603610a7057805f52600b60205260405f2054815f52600d60205260405f209182546107328161465a565b936107406040519586614019565b818552601f1961074f8361465a565b015f5b818110610a445750505f5b8281106109bd57505050805f52600f60205260405f205f915f918054925b8381106109645750601f196107a86107928661465a565b956107a06040519788614019565b80875261465a565b015f5b8181106109385750505f905f5b84811061088557878787604051928392606084019084526060602085015281518091526020608085019201905f5b81811061084c575050508281036040840152602080835192838152019201905f5b818110610815575050500390f35b91935091602060408261083e6001948851602080916001600160a01b0381511684520151910152565b019401910191849392610807565b919394509160206040826108766001948851602080916001600160a01b0381511684520151910152565b019401910191859493926107e6565b600190845f9997989952601060205260405f206108a282856148f5565b90549060031b1c5f526020526001600160a01b0360405f2054166108cb575b01969594966107b8565b845f52601060205260405f206108e182856148f5565b90549060031b1c5f5260205261093260405f20946108fe816145e4565b95846040519161090d83613ffd565b6001600160a01b0381541683520154602082015261092b828c614c3e565b5289614c3e565b506108c1565b604051969795966020919061094c81613ffd565b5f81525f8382015282828a01015201969594966107ab565b825f9795969752601060205260405f2061097e82846148f5565b90549060031b1c5f526020526001600160a01b0360405f2054166109a9575b6001019594939561077b565b946109b56001916145e4565b95905061099d565b806001600160a01b036109d660019385999798996148f5565b90549060031b1c16865f52600c60205260405f206001600160a01b03806109fd85886148f5565b90549060031b1c16165f5260205260405f205460405191610a1d83613ffd565b82526020820152610a2e8287614c3e565b52610a398186614c3e565b50019493929461075d565b6040519596949560209190610a5881613ffd565b5f81525f838201528282880101520195949395610752565b7f30cd7471000000000000000000000000000000000000000000000000000000005f5260045ffd5b610aba915060203d602011610ac0575b610ab28183614019565b8101906145f2565b826106fc565b503d610aa8565b6040513d5f823e3d90fd5b34610295576020600319360112610295576004355f52600d602052602060405f2054604051908152f35b3461029557602060031936011261029557610b2f610b1b600435614953565b604051918291602083526020830190613ee7565b0390f35b34610295576101806003193601126102955760043560443567ffffffffffffffff811161029557610b6890369060040161408e565b90610b71613f4e565b91610b7a613f38565b60a43560c4359260e435926001600160a01b03841690818503610295576101043567ffffffffffffffff811161029557610bb8903690600401613f95565b6101249691963599610144359161016435976001600160a01b038916998a8a0361029557610be4614c73565b610bed8d614cac565b84421161052357871561151a5781156114f2576001600160a01b038716986001600160a01b038516958a87146114ca578f8f908f8f90938a928f958f610c34368d8c614058565b60208151910120916040519860208a019789895260408b015260608a01528b60808a015260a089015260c088015260e0870152610100860152336101208601526101408501526101608401526101608352610c9161018084614019565b815f52600960205260405f20925190209260428354928360a01c956040519060208201927f5fd4fde1cb878824d6e96eec97296c9e818ad783a10b7c9ede6e7f27eca7b06b845260408301528760608301526007608083015260a082015260a08152610cfe60c082614019565b519020610d096158d2565b90604051917f1901000000000000000000000000000000000000000000000000000000000000835260028301526022820152209081602435036104fb57610d5e926103fe6001600160a01b03939284936159ee565b169116036104d3576bffffffffffffffffffffffff82146104a6576001610dac92016001600160a01b0373ffffffffffffffffffffffffffffffffffffffff1983549260a01b169116179055565b8415928315611483578d5f52600b6020528260405f20541061145b575b83156113df5747965b8a15998a156113615747935b861593846111af575b5f925082919088156111a85787915b81604051928392833781018481520391855af191610e1261461e565b50611198575b50156111705782156110f45747905b881561106e57610e3b610e41924798614611565b96614611565b9a8b1061104657841161101e5715610fac575050875f52600b602052610e6c60405f20918254614611565b90555b8415610ef7575015610ee75750505f80809381935af1610e8d61461e565b5015610ebf575b7ffa44886bdf29041e45bda3924c838d5a6ed302e301c579f52acb4c3aa9aef77a5f80a36001600a55005b7f6d963f88000000000000000000000000000000000000000000000000000000005f5260045ffd5b610ef2939250615558565b610e94565b92509092505f14610f22575050815f52600b602052610f1b60405f2091825461464d565b9055610e94565b835f52600c60205260405f20825f5260205260405f205415610f61575b50825f52600c60205260405f20905f52602052610f1b60405f2091825461464d565b835f52600d60205260405f205490600182018092116104a657610fa691855f52600e60205260405f20845f5260205260405f2055845f52600d60205260405f2061490a565b84610f3f565b9091895f52600c60205260405f20835f52602052610fcf60405f20918254614611565b9055885f52600c60205260405f20825f5260205260405f205415610ff5575b5050610e6f565b61101791895f52600c60205260405f20905f526020525f604081205588615414565b8880610fee565b7fdcc0d279000000000000000000000000000000000000000000000000000000005f5260045ffd5b7f8199f5f3000000000000000000000000000000000000000000000000000000005f5260045ffd5b6040517f70a082310000000000000000000000000000000000000000000000000000000081523060048201526020816024818e5afa908115610ac7575f916110c0575b50610e4192610e3b9198614611565b90506020813d6020116110ec575b816110db60209383614019565b810103126102955751610e416110b1565b3d91506110ce565b6040517f70a08231000000000000000000000000000000000000000000000000000000008152306004820152602081602481895afa908115610ac7575f9161113e575b5090610e27565b90506020813d602011611168575b8161115960209383614019565b8101031261029557518f611137565b3d915061114c565b7f03a40bc4000000000000000000000000000000000000000000000000000000005f5260045ffd5b6111a290876156d7565b8f610e18565b8291610df6565b6040517fdd62ed3e000000000000000000000000000000000000000000000000000000008152306004820152602481018490526020816044818e5afa8015610ac7578886918d935f9161131f575b509260205f80989461126f61126195839a9998611310575b604051968791868301947f095ea7b300000000000000000000000000000000000000000000000000000000865260248401602090939291936001600160a01b0360408201951681520152565b03601f198101875286614019565b84519082855af186513d826112f1575b505015611292575b505050909150610de7565b6112e9926112e391604051917f095ea7b30000000000000000000000000000000000000000000000000000000060208401526024830152876044830152604482526112de606483614019565b6157bc565b8c6157bc565b5f808c611287565b9091501587146113085750803b15155b5f8061127f565b600114611301565b61131a83876156d7565b611215565b959493505050506020833d602011611359575b8161133f60209383614019565b810103126102955791519091908a908590899060206111fd565b3d9150611332565b602460208d604051928380927f70a082310000000000000000000000000000000000000000000000000000000082523060048301525afa908115610ac7575f916113ad575b5093610dde565b90506020813d6020116113d7575b816113c860209383614019565b8101031261029557515f6113a6565b3d91506113bb565b6040517f70a082310000000000000000000000000000000000000000000000000000000081523060048201526020816024818a5afa908115610ac7575f91611429575b5096610dd2565b90506020813d602011611453575b8161144460209383614019565b8101031261029557515f611422565b3d9150611437565b7ffcc00b30000000000000000000000000000000000000000000000000000000005f5260045ffd5b8d5f52600c60205260405f20865f526020528260405f20541015610dc9575b7fe4455cae000000000000000000000000000000000000000000000000000000005f5260045ffd5b7f11157667000000000000000000000000000000000000000000000000000000005f5260045ffd5b7f1f2a2005000000000000000000000000000000000000000000000000000000005f5260045ffd5b7fd92e233d000000000000000000000000000000000000000000000000000000005f5260045ffd5b346102955760a06003193601126102955760043560443567ffffffffffffffff81116102955761157690369060040161408e565b60643590608435611585614c73565b61158e84614cac565b804211610523576040519060208201908582528460408401523360608401526080830152608082526115c160a083614019565b845f52600960205260405f20915190209181549060428260a01c9460405160208101917f5fd4fde1cb878824d6e96eec97296c9e818ad783a10b7c9ede6e7f27eca7b06b83528960408301528760608301526004608083015260a082015260a0815261162e60c082614019565b5190206116396158d2565b90604051917f1901000000000000000000000000000000000000000000000000000000000000835260028301526022820152209081602435036104fb5761168e926103fe6001600160a01b03939284936159ee565b169116036104d3576bffffffffffffffffffffffff82146104a65760016116dc92016001600160a01b0373ffffffffffffffffffffffffffffffffffffffff1983549260a01b169116179055565b815f52600b6020525f6040812055815f52600d60205260405f20604051808260208294549384815201905f5260205f20925f5b818110611a5a57505061172492500382614019565b5f5b815181101561178e57806001600160a01b0361174460019385614c3e565b5116855f52600c60205260405f206001600160a01b0382165f526020525f6040812055855f52600e6020526001600160a01b0360405f2091165f526020525f604081205501611726565b5050815f52600d60205260405f2080545f825580611a40575b5050815f52600f60205260405f2091604051808460208296549384815201905f5260205f20925f5b818110611a275750506117e492500384614019565b5f5b835181101561182057806117fc60019286614c3e565b51835f52601060205260405f20905f526020525f82604082208281550155016117e6565b50805f52600f60205260405f208054905f815581611a09575b5050805f5260026020526001600160a01b0360405f205416151580611a02575b6119da57805f52601460205260405f206118738154614293565b9081611997575b5050805f5260026020526001600160a01b0360405f2054168015908115611953575b825f52600260205260405f2073ffffffffffffffffffffffffffffffffffffffff198154169055825f827fddf252ad1be2c89b69c2b068fc378daa952ba7f163c4a11628f55a4df523b3ef8280a45061192857805f5260096020525f60408120557fceed1806179edada6c648f6c52838ceac0b9c18cf04e6fca0712bda6fcf82c185f80a36001600a55005b7f7e273289000000000000000000000000000000000000000000000000000000005f5260045260245ffd5b61197f835f52600460205260405f2073ffffffffffffffffffffffffffffffffffffffff198154169055565b805f52600360205260405f205f19815401905561189c565b81601f5f93116001146119ae5750555b828061187a565b818352602083206119ca91601f0160051c8101906001016145ce565b80825281602081209155556119a7565b7f8574adcf000000000000000000000000000000000000000000000000000000005f5260045ffd5b505f611859565b5f5260205f20908101905b81811015611839575f8155600101611a14565b84548352600194850194889450602090930192016117cf565b611a53915f5260205f20908101906145ce565b82806117a7565b84546001600160a01b031683526001948501948694506020909301920161170f565b3461029557608060031936011261029557611a95613f0c565b611a9d613f22565b6064359167ffffffffffffffff831161029557611ac161003e93369060040161408e565b916044359161474d565b34610295576020600319360112610295576004355f5260026020526001600160a01b0360405f20541615611b0457602060405160018152f35b7fb1d04f08000000000000000000000000000000000000000000000000000000005f5260045ffd5b34610295576020600319360112610295576004356040517f6352211e0000000000000000000000000000000000000000000000000000000081528160048201526020816024816001600160a01b037f0000000000000000000000000000000000000000000000000000000000000000165afa908115610ac7575f91611bdc575b506001600160a01b0333911603610a70575f52600960205260206001600160a01b0360405f205416604051908152f35b611bf5915060203d602011610ac057610ab28183614019565b82611bac565b3461029557604060031936011261029557611c14613f0c565b60243590811515809203610295576001600160a01b0316908115611ca157335f52600560205260405f20825f5260205260405f207fffffffffffffffffffffffffffffffffffffffffffffffffffffffffffffff0081541660ff83161790556040519081527f17307eab39ab6107e8899845ad3d59bd9653f200f220920489ca2b5937696c3160203392a3005b507f5b08ba18000000000000000000000000000000000000000000000000000000005f5260045260245ffd5b3461029557611cdb366140da565b90969591939294611cea614c73565b611cf387614cac565b6001600160a01b0385161561151a578142116105235760408051602081018981526001600160a01b038088169383019390935260608201899052918716608082015260a081018a90523360c082015260e0810193909352611d628361010081015b03601f198101855284614019565b875f52600960205260405f20925190209282549160428360a01c9560405160208101917f5fd4fde1cb878824d6e96eec97296c9e818ad783a10b7c9ede6e7f27eca7b06b83528c60408301528860608301526003608083015260a082015260a08152611dcf60c082614019565b519020611dda6158d2565b90604051917f1901000000000000000000000000000000000000000000000000000000000000835260028301526022820152208092036104fb57611e2c926103fe6001600160a01b03939284936159ee565b169116036104d3576bffffffffffffffffffffffff82146104a6576001611e7a92016001600160a01b0373ffffffffffffffffffffffffffffffffffffffff1983549260a01b169116179055565b604051606082901b7fffffffffffffffffffffffffffffffffffffffff00000000000000000000000016602082019081526034820185905290611eca81605481015b03601f198101835282614019565b51902090845f52601060205260405f20825f526020526001600160a01b0360405f20541615611fc357611f236001600160a01b0392865f52601060205260405f20815f526020525f6001604082208281550155866155ed565b1691823b15610295576040517f42842e0e0000000000000000000000000000000000000000000000000000000081523060048201526001600160a01b039290921660248301526044820152905f908290606490829084905af18015610ac757611fb3575b507f06f0d08c652a32f118304f762c3f388848b7653f7df433f67a48aa734675f0135f80a36001600a55005b5f611fbd91614019565b82611f87565b7ff070cb6f000000000000000000000000000000000000000000000000000000005f5260045ffd5b34610295575f600319360112610295576040515f60015461200b81614293565b80845290600181169081156120915750600114612033575b610b2f83610b1b81850382614019565b60015f9081527fb10e2d527612073b26eecdfd717e6a320cf44b4afac2b0732d9fcbe2b7fa0cf6939250905b80821061207757509091508101602001610b1b612023565b91926001816020925483858801015201910190929161205f565b7fffffffffffffffffffffffffffffffffffffffffffffffffffffffffffffff001660208086019190915291151560051b84019091019150610b1b9050612023565b346102955760206003193601126102955760043567ffffffffffffffff81116102955761210490369060040161408e565b61210c6155ad565b60135461211881614293565b6122bd5781519067ffffffffffffffff82116122905761213790614293565b601f81116121f9575b50602091601f821160011461217e5761216e925f9183612173575b50505f198260011b9260031b1c19161790565b601355005b01519050838061215b565b601f1982169260135f527f66de8ffda797e3de9c05e8fc57b3bf0ec28a930d40b0d285d93c06501cf6a090915f5b8581106121e1575083600195106121c9575b505050811b01601355005b01515f1960f88460031b161c191690558280806121be565b919260206001819286850151815501940192016121ac565b6122629060135f52601f830160051c7f66de8ffda797e3de9c05e8fc57b3bf0ec28a930d40b0d285d93c06501cf6a090019060208410612268575b601f0160051c7f66de8ffda797e3de9c05e8fc57b3bf0ec28a930d40b0d285d93c06501cf6a09001906145ce565b82612140565b7f66de8ffda797e3de9c05e8fc57b3bf0ec28a930d40b0d285d93c06501cf6a0909150612234565b7f4e487b71000000000000000000000000000000000000000000000000000000005f52604160045260245ffd5b7fe8cba6d8000000000000000000000000000000000000000000000000000000005f5260045ffd5b34610295576101606003193601126102955760443567ffffffffffffffff81116102955761231790369060040161408e565b60643560843567ffffffffffffffff81116102955761233a903690600401613f64565b909160a43567ffffffffffffffff81116102955761235c903690600401613f64565b9360c43567ffffffffffffffff81116102955761237d903690600401613f64565b92909160e43567ffffffffffffffff8111610295576123a0903690600401613f64565b96909761010435966001600160a01b0388169081890361029557610124359b610144356123cb614c73565b6123d6600435614cac565b831561151a5780421161052357848614801590612984575b61295c5782868f8f938f948b958f8f908f8d6040519a8b9960208b019b6004358d5260408c015260608b0161014090526101608b019061242d92614672565b90898203601f190160808b0152612443926146bf565b90878203601f190160a089015261245992614672565b90858203601f190160c087015261246f926146bf565b918860e08501526101008401523361012084015261014083015203601f198101835261249b9083614019565b6004355f52600960205260405f2091519020918154908160a01c9360405160208101917f5fd4fde1cb878824d6e96eec97296c9e818ad783a10b7c9ede6e7f27eca7b06b83526004356040830152866060830152608082016006905260a082015260a0815261250b60c082614019565b5190206125166158d2565b90604051917f1901000000000000000000000000000000000000000000000000000000000000835260028301526022820152604290209081602435036104fb5761256e926103fe6001600160a01b03939284936159ee565b169116036104d3576bffffffffffffffffffffffff82146104a65760016125bc92016001600160a01b0373ffffffffffffffffffffffffffffffffffffffff1983549260a01b169116179055565b8061290e575b50506004355f52600c60205260405f20915f5b8181106128bd57505f5b81811061282a575050505050505f5b82811061278c57505f5b82811061262e57866004357f06f0d08c652a32f118304f762c3f388848b7653f7df433f67a48aa734675f0135f80a36001600a55005b61264161263c8285856146fc565b614739565b611ebc61269461265284898b6146fc565b3560405192839160208301958690917fffffffffffffffffffffffffffffffffffffffff00000000000000000000000060349360601b16825260148201520190565b5190206004355f52601060205260405f20815f526020526001600160a01b0360405f20541615611fc3576126ea906004355f52601060205260405f20815f526020525f60016040822082815501556004356155ed565b6001600160a01b0361270061263c8386866146fc565b169061270d8187896146fc565b3591803b15610295576040517f42842e0e0000000000000000000000000000000000000000000000000000000081523060048201526001600160a01b038716602482015260448101939093525f908390606490829084905af1918215610ac75760019261277c575b50016125f8565b5f61278691614019565b88612775565b60018101908181116104a657815b8481106127a85750506125ee565b6127b661263c8387876146fc565b6001600160a01b03806127cd61263c858a8a6146fc565b169116148061280b575b6127e35760010161279a565b7f357d0cc4000000000000000000000000000000000000000000000000000000005f5260045ffd5b5061281782888a6146fc565b3561282382898b6146fc565b35146127d7565b61283861263c8284886146fc565b906128448185896146fc565b356001600160a01b0383165f528560205260405f2054908082106114a2576001600160a01b038481165f9081526020899052604090208284039055600194612897938e929190841461289d575b16615558565b016125df565b8181165f52896020525f60408120556128b881600435615414565b612891565b60018101908181116104a657815b8381106128d95750506125d5565b6128e761263c83868a6146fc565b6001600160a01b03806128fe61263c85898d6146fc565b169116146127e3576001016128cb565b6004355f52600b60205260405f20549181831061145b575f8281949261293683958495614611565b6004358452600b60205260408420555af161294f61461e565b5015610ebf578a806125c2565b7f469224f0000000000000000000000000000000000000000000000000000000005f5260045ffd5b508b8a14156123ee565b34610295575f6003193601126102955760206001600160a01b0360065416604051908152f35b34610295575f60031936011261029557612a6c6129f07f0000000000000000000000000000000000000000000000000000000000000000615829565b612a197f000000000000000000000000000000000000000000000000000000000000000061589b565b6020612a7a60405192612a2c8385614019565b5f84525f3681376040519586957f0f00000000000000000000000000000000000000000000000000000000000000875260e08588015260e0870190613ee7565b908582036040870152613ee7565b4660608501523060808501525f60a085015283810360c08501528180845192838152019301915f5b828110612ab157505050500390f35b835185528695509381019392810192600101612aa2565b3461029557604060031936011261029557612ae1613f22565b6004355f52600c6020526001600160a01b0360405f2091165f52602052602060405f2054604051908152f35b3461029557612b1b36614145565b939291612b26614c73565b336001600160a01b03851603612c25576001600160a01b03831615612bfd576001600160a01b03811615612bd557612b7a612b8093612b746012548097612b6c826145e4565b601255614df3565b85614f26565b83615252565b7f032bc66be43dbccb7487781d168eb7bda224628a3b2c3388bdf69b532a3a16116020604051838152a17f4fd35fc7cab0142e2b2e81414dbd72945bc0ae0131a46c03bd8c7073234817805f80a36001600a55005b7f6b093aad000000000000000000000000000000000000000000000000000000005f5260045ffd5b7ffbd849c6000000000000000000000000000000000000000000000000000000005f5260045ffd5b7fbaee6e49000000000000000000000000000000000000000000000000000000005f5260045ffd5b3461029557612c5b36614145565b939291612c66614c73565b336001600160a01b03851603612c25576001600160a01b03831615612bfd576001600160a01b03811615612bd55781156114f257612cb2612b8093612b746012548097612b6c826145e4565b83614f9d565b34610295575f60031936011261029557612cd06155ad565b5f6001600160a01b0360065473ffffffffffffffffffffffffffffffffffffffff198116600655167f8be0079c531659141344cd1fd0a4f28419497f9722a3daafe3b4186f6b6457e08280a3005b34610295576020600319360112610295576001600160a01b03612d3f613f0c565b168015612d5c575f526003602052602060405f2054604051908152f35b7f89c62b64000000000000000000000000000000000000000000000000000000005f525f60045260245ffd5b604060031936011261029557600435612d9f614c73565b612da881614cac565b34156114f257805f52600b60205260405f20612dc534825461464d565b9055602435907f0131d4fe789c9eeb7c2dd7e32aa9393d395bef62f1f67e0ba2a76d33c6dcf5ee5f80a36001600a55005b34610295576020600319360112610295576020612e14600435614c52565b6001600160a01b0360405191168152f35b3461029557612e33366140da565b90969591929394612e42614c73565b612e4b87614cac565b6001600160a01b0384161561151a578142116105235760408051602081018981526001600160a01b03808a169383019390935260608201889052918616608082015260a081018a90523360c082015260e0810193909352612eb0836101008101611d54565b875f52600960205260405f20925190209282549160428360a01c9560405160208101917f5fd4fde1cb878824d6e96eec97296c9e818ad783a10b7c9ede6e7f27eca7b06b83528c60408301528860608301526002608083015260a082015260a08152612f1d60c082614019565b519020612f286158d2565b90604051917f1901000000000000000000000000000000000000000000000000000000000000835260028301526022820152208092036104fb57612f7a926103fe6001600160a01b03939284936159ee565b169116036104d3576bffffffffffffffffffffffff82146104a6576001612fc892016001600160a01b0373ffffffffffffffffffffffffffffffffffffffff1983549260a01b169116179055565b835f52600c60205260405f20926001600160a01b0381165f528360205260405f2054908382106114a2576001600160a01b038181165f9081526020879052604090208584039055613023959092851461304e575b5016615558565b7f06f0d08c652a32f118304f762c3f388848b7653f7df433f67a48aa734675f0135f80a36001600a55005b8282165f526020525f60408120556130668187615414565b8761301c565b606060031936011261029557613080613f0c565b613088613f22565b613090614c73565b336001600160a01b03831603612c25576001600160a01b03811615612bfd5734156114f2576130d0906130ca6012548094612b6c826145e4565b82614f26565b805f52600b60205260405f206130e734825461464d565b90557f032bc66be43dbccb7487781d168eb7bda224628a3b2c3388bdf69b532a3a16116020604051838152a1604435907f4fd35fc7cab0142e2b2e81414dbd72945bc0ae0131a46c03bd8c7073234817805f80a36001600a55005b346102955760e06003193601126102955760043560443567ffffffffffffffff81116102955761317690369060040161408e565b90606435613182613f38565b9060a435936001600160a01b0360c4359361319b614c73565b6131a486614cac565b1692831561151a57804211610523576040519060208201908682528460408401528560608401528760808401523360a084015260c083015260c082526131eb60e083614019565b855f52600960205260405f20915190209181549060428260a01c9460405160208101917f5fd4fde1cb878824d6e96eec97296c9e818ad783a10b7c9ede6e7f27eca7b06b83528a60408301528760608301526001608083015260a082015260a0815261325860c082614019565b5190206132636158d2565b90604051917f1901000000000000000000000000000000000000000000000000000000000000835260028301526022820152209081602435036104fb576132b8926103fe6001600160a01b03939284936159ee565b169116036104d3576bffffffffffffffffffffffff82146104a657600161330692016001600160a01b0373ffffffffffffffffffffffffffffffffffffffff1983549260a01b169116179055565b825f52600b60205260405f20549181831061145b575f8281949261332c83958495614611565b878452600b60205260408420555af161334361461e565b5015610ebf577f06f0d08c652a32f118304f762c3f388848b7653f7df433f67a48aa734675f0135f80a36001600a55005b3461029557613382366140ac565b92919061338d614c73565b61339683614cac565b6001600160a01b0382161561151a576133af9183615252565b7f0131d4fe789c9eeb7c2dd7e32aa9393d395bef62f1f67e0ba2a76d33c6dcf5ee5f80a36001600a55005b34610295576020600319360112610295576004355f52600b602052602060405f2054604051908152f35b346102955760206003193601126102955761003e60043561518e565b3461029557604060031936011261029557613439613f22565b6004355f52600c6020526001600160a01b0360405f2091165f52602052602060405f20541515604051908152f35b3461029557613475366140ac565b929190613480614c73565b61348983614cac565b6001600160a01b0382161561151a5780156114f2576133af9183614f9d565b346102955761003e6134b936613fc3565b90604051926134c9602085614019565b5f845261474d565b34610295576020600319360112610295576004356040517f6352211e0000000000000000000000000000000000000000000000000000000081528160048201526020816024816001600160a01b037f0000000000000000000000000000000000000000000000000000000000000000165afa908115610ac7575f9161357b575b506001600160a01b0333911603610a70575f526009602052602060405f205460a01c604051908152f35b613594915060203d602011610ac057610ab28183614019565b82613551565b610100600319360112610295576135af613f0c565b6135b7613f22565b60443560643567ffffffffffffffff8111610295576135da903690600401613f64565b60849291923567ffffffffffffffff8111610295576135fd903690600401613f64565b60a49291923567ffffffffffffffff811161029557613620903690600401613f64565b93909260c43567ffffffffffffffff811161029557613643903690600401613f64565b97909661364e614c73565b336001600160a01b038c1603612c25576001600160a01b038a1615612bfd57848314801590613750575b61372857803403613700576136a16136a79a61369b601254809e612b6c826145e4565b8c614f26565b8a614d4a565b7f032bc66be43dbccb7487781d168eb7bda224628a3b2c3388bdf69b532a3a16116020604051838152a160e435907f4fd35fc7cab0142e2b2e81414dbd72945bc0ae0131a46c03bd8c7073234817805f80a36001600a55005b7f42c0a68f000000000000000000000000000000000000000000000000000000005f5260045ffd5b7fa24a13a6000000000000000000000000000000000000000000000000000000005f5260045ffd5b5088871415613678565b346102955760c06003193601126102955760043560443567ffffffffffffffff81116102955761378e90369060040161408e565b60643567ffffffffffffffff8111610295576137ae90369060040161408e565b916084359160a4356137be614c73565b825f5260026020526001600160a01b0360405f20541615611b04576137e283614c52565b6001600160a01b0333911603610a7057804211610523576040519061383d82602081019286845260a0604083015261381d60c083018a613ee7565b9088606084015233608084015260a083015203601f198101845283614019565b835f52600960205260405f20915190209181549060428260a01c9460405160208101917f5fd4fde1cb878824d6e96eec97296c9e818ad783a10b7c9ede6e7f27eca7b06b83528860408301528760608301526005608083015260a082015260a081526138aa60c082614019565b5190206138b56158d2565b90604051917f1901000000000000000000000000000000000000000000000000000000000000835260028301526022820152209081602435036104fb5761390a926103fe6001600160a01b03939284936159ee565b169116036104d3576bffffffffffffffffffffffff82146104a657600161395892016001600160a01b0373ffffffffffffffffffffffffffffffffffffffff1983549260a01b169116179055565b805f52601460205260405f20835167ffffffffffffffff81116122905761397f8254614293565b601f8111613a53575b50602094601f82116001146139f2576139b99293949582915f926139e75750505f198260011b9260031b1c19161790565b90555b7fe6b029312a4fe660620d9aac173bc78279912103135fdd45fcb95684efee4bd65f80a36001600a55005b01519050868061215b565b601f19821695835f52805f20915f5b888110613a3b57508360019596979810613a23575b505050811b0190556139bc565b01515f1960f88460031b161c19169055858080613a16565b91926020600181928685015181550194019201613a01565b613a7e90835f5260205f20601f840160051c81019160208510613a84575b601f0160051c01906145ce565b85613988565b9091508190613a71565b346102955761003e613a9f36613fc3565b91614384565b3461029557604060031936011261029557613abe613f22565b6004355f52600e6020526001600160a01b0360405f2091165f52602052602060405f2054604051908152f35b3461029557608060031936011261029557613b03613f0c565b50613b0c613f22565b5060643567ffffffffffffffff811161029557613b2d903690600401613f95565b505060206040517f150b7a02000000000000000000000000000000000000000000000000000000008152f35b60e06003193601126102955760043560243560443567ffffffffffffffff811161029557613b8b903690600401613f64565b9060643567ffffffffffffffff811161029557613bac903690600401613f64565b9060843567ffffffffffffffff811161029557613bcd903690600401613f64565b92909160a43567ffffffffffffffff811161029557613bf0903690600401613f64565b969095613bfb614c73565b881580613c9f575b80613c97575b6114f257613c168a614cac565b883403613c6f57838214801590613c65575b61295c57613c36988a614d4a565b60c435907f0131d4fe789c9eeb7c2dd7e32aa9393d395bef62f1f67e0ba2a76d33c6dcf5ee5f80a36001600a55005b5087861415613c28565b7fcfb73638000000000000000000000000000000000000000000000000000000005f5260045ffd5b508515613c09565b508115613c03565b3461029557604060031936011261029557613cc0613f0c565b602435613ccc81614c52565b33151580613da6575b80613d73575b613d475781906001600160a01b0380851691167f8c5be1e5ebec7d5bd14f71427d1e84f3dd0314c0f7b2291e5b200ac8c7c3b9255f80a45f5260046020526001600160a01b0360405f20911673ffffffffffffffffffffffffffffffffffffffff198254161790555f80f35b7fa9fbf51f000000000000000000000000000000000000000000000000000000005f523360045260245ffd5b506001600160a01b0381165f52600560205260405f206001600160a01b0333165f5260205260ff60405f20541615613cdb565b50336001600160a01b0382161415613cd5565b3461029557602060031936011261029557600435613dd681614c52565b505f52600460205260206001600160a01b0360405f205416604051908152f35b34610295575f600319360112610295576040515f5f54613e1581614293565b80845290600181169081156120915750600114613e3c57610b2f83610b1b81850382614019565b5f8080527f290decd9548b62a8d60345a988386fc84ba6bc95484008f6362f93160ef3e563939250905b808210613e7e57509091508101602001610b1b612023565b919260018160209254838588010152019101909291613e66565b3461029557602060031936011261029557600435907fffffffff000000000000000000000000000000000000000000000000000000008216820361029557613ee1602092614197565b15158152f35b90601f19601f602080948051918291828752018686015e5f8582860101520116010190565b600435906001600160a01b038216820361029557565b602435906001600160a01b038216820361029557565b608435906001600160a01b038216820361029557565b606435906001600160a01b038216820361029557565b9181601f840112156102955782359167ffffffffffffffff8311610295576020808501948460051b01011161029557565b9181601f840112156102955782359167ffffffffffffffff8311610295576020838186019501011161029557565b6003196060910112610295576004356001600160a01b038116810361029557906024356001600160a01b0381168103610295579060443590565b6040810190811067ffffffffffffffff82111761229057604052565b90601f601f19910116810190811067ffffffffffffffff82111761229057604052565b67ffffffffffffffff811161229057601f01601f191660200190565b9291926140648261403c565b916140726040519384614019565b829481845281830111610295578281602093845f960137010152565b9080601f83011215610295578160206140a993359101614058565b90565b600319608091011261029557600435906024356001600160a01b038116810361029557906044359060643590565b6101006003198201126102955760043591602435916044359067ffffffffffffffff82116102955761410e9160040161408e565b906064356001600160a01b038116810361029557906084359060a4356001600160a01b0381168103610295579060c4359060e43590565b60031960a0910112610295576004356001600160a01b038116810361029557906024356001600160a01b038116810361029557906044356001600160a01b038116810361029557906064359060843590565b7fffffffff00000000000000000000000000000000000000000000000000000000167fb45a3c0e00000000000000000000000000000000000000000000000000000000811461428d577f150b7a0200000000000000000000000000000000000000000000000000000000811461428d577f80ac58cd000000000000000000000000000000000000000000000000000000008114908115614263575b811561423c575090565b7f01ffc9a70000000000000000000000000000000000000000000000000000000091501490565b7f5b5e139f0000000000000000000000000000000000000000000000000000000081149150614232565b50600190565b90600182811c921680156142da575b60208310146142ad57565b7f4e487b71000000000000000000000000000000000000000000000000000000005f52602260045260245ffd5b91607f16916142a2565b5f92918154916142f383614293565b8083529260018116908115614348575060011461430f57505050565b5f9081526020812093945091925b83831061432e575060209250010190565b60018160209294939454838587010152019101919061431d565b905060209495507fffffffffffffffffffffffffffffffffffffffffffffffffffffffffffffff0091509291921683830152151560051b010190565b91906001600160a01b031680156145a257815f5260026020526001600160a01b0360405f20541615158061459a575b6119da57815f5260026020526001600160a01b0360405f205416928233151592836144cc575b6001600160a01b03935085614488575b805f52600360205260405f2060018154019055815f52600260205260405f208173ffffffffffffffffffffffffffffffffffffffff19825416179055857fddf252ad1be2c89b69c2b068fc378daa952ba7f163c4a11628f55a4df523b3ef5f80a41680830361445757505050565b7f64283d7b000000000000000000000000000000000000000000000000000000005f5260045260245260445260645ffd5b6144b4825f52600460205260405f2073ffffffffffffffffffffffffffffffffffffffff198154169055565b855f52600360205260405f205f1981540190556143e9565b9192905080614543575b156144e3578282916143d9565b8284614514577f7e273289000000000000000000000000000000000000000000000000000000005f5260045260245ffd5b7f177e802f000000000000000000000000000000000000000000000000000000005f523360045260245260445ffd5b503384148015614571575b806144d65750825f526004602052336001600160a01b0360405f205416146144d6565b50835f52600560205260405f206001600160a01b0333165f5260205260ff60405f20541661454e565b5060016143b3565b7f64a0ae92000000000000000000000000000000000000000000000000000000005f525f60045260245ffd5b8181106145d9575050565b5f81556001016145ce565b5f1981146104a65760010190565b9081602091031261029557516001600160a01b03811681036102955790565b919082039182116104a657565b3d15614648573d9061462f8261403c565b9161463d6040519384614019565b82523d5f602084013e565b606090565b919082018092116104a657565b67ffffffffffffffff81116122905760051b60200190565b916020908281520191905f905b80821061468c5750505090565b9091928335906001600160a01b038216820361029557602080916001600160a01b0360019416815201940192019061467f565b90918281527f07ffffffffffffffffffffffffffffffffffffffffffffffffffffffffffffff83116102955760209260051b809284830137010190565b919081101561470c5760051b0190565b7f4e487b71000000000000000000000000000000000000000000000000000000005f52603260045260245ffd5b356001600160a01b03811681036102955790565b90614759838284614384565b803b614766575b50505050565b6020916147c56001600160a01b038093169560405195869485947f150b7a020000000000000000000000000000000000000000000000000000000086523360048701521660248501526044840152608060648401526084830190613ee7565b03815f865af15f9181614898575b5061481a57506147e161461e565b8051908161481557827f64a0ae92000000000000000000000000000000000000000000000000000000005f5260045260245ffd5b602001fd5b7fffffffff000000000000000000000000000000000000000000000000000000007f150b7a020000000000000000000000000000000000000000000000000000000091160361486d57505f808080614760565b7f64a0ae92000000000000000000000000000000000000000000000000000000005f5260045260245ffd5b9091506020813d6020116148ed575b816148b460209383614019565b8101031261029557517fffffffff000000000000000000000000000000000000000000000000000000008116810361029557905f6147d3565b3d91506148a7565b805482101561470c575f5260205f2001905f90565b90815491680100000000000000008310156122905782614932916001614951950181556148f5565b9091906001600160a01b038084549260031b9316831b921b1916179055565b565b805f5260026020526001600160a01b0360405f20541615611b0457805f52601460205261498c61499360405f20604051928380926142e4565b0382614019565b8051614c3957506013546149a681614293565b6149d2577f8714d516000000000000000000000000000000000000000000000000000000005f5260045ffd5b81825f937a184f03e93ff9f4daa797ed6e38ed64bf6a1f010000000000000000811015614c0e575b50806d04ee2d6d415b85acef8100000000600a921015614bf3575b662386f26fc10000811015614bdf575b6305f5e100811015614bce575b612710811015614bbf575b6064811015614bb1575b1015614ba7575b6001830190600a5f196021614a7b614a658661403c565b95614a736040519788614019565b80875261403c565b96601f196020870198013689378501015b01917f30313233343536373839616263646566000000000000000000000000000000008282061a8353048015614ac7575f19600a9192614a8c565b50506040519283915f90614ada85614293565b9460018116908115614b695750600114614b0b575b6140a99450518092825e015f815203601f198101835282614019565b905060135f527f66de8ffda797e3de9c05e8fc57b3bf0ec28a930d40b0d285d93c06501cf6a090935f5b818110614b4d57506140a99450830160200190614aef565b8554602082890181019190915260019096019587955001614b35565b60209293506140a99691507fffffffffffffffffffffffffffffffffffffffffffffffffffffffffffffff0016828601528015150284010190614aef565b9160010191614a4e565b606460029104940193614a47565b61271060049104940193614a3d565b6305f5e10060089104940193614a32565b662386f26fc1000060109104940193614a25565b6d04ee2d6d415b85acef810000000060209104940193614a15565b604094507a184f03e93ff9f4daa797ed6e38ed64bf6a1f01000000000000000090049050600a6149fa565b905090565b805182101561470c5760209160051b010190565b805f5260026020526001600160a01b0360405f205416908115611928575090565b6002600a5414614c84576002600a55565b7f3ee5aeb5000000000000000000000000000000000000000000000000000000005f5260045ffd5b604051907f6352211e00000000000000000000000000000000000000000000000000000000825260048201526020816024816001600160a01b037f0000000000000000000000000000000000000000000000000000000000000000165afa908115610ac7575f91614d2b575b506001600160a01b0333911603610a7057565b614d44915060203d602011610ac057610ab28183614019565b5f614d18565b9796949193929098959880614dd4575b505f5b818110614da75750505050505f5b818110614d7a57505050505050565b80614da1614d8e61263c600194868b6146fc565b614d998387896146fc565b359088615252565b01614d6b565b80614dce614dbb61263c600194868a6146fc565b614dc68387896146fc565b35908c614f9d565b01614d5d565b885f52600b602052614deb60405f2091825461464d565b90555f614d5a565b6001600160a01b03169081156145a257805f5260026020526001600160a01b0360405f205416151580614f1e575b6119da57805f5260026020526001600160a01b0360405f205416908115159283614eda575b805f52600360205260405f2060018154019055815f52600260205260405f208173ffffffffffffffffffffffffffffffffffffffff19825416179055827fddf252ad1be2c89b69c2b068fc378daa952ba7f163c4a11628f55a4df523b3ef5f80a450614eae57565b7f73c6ac6e000000000000000000000000000000000000000000000000000000005f525f60045260245ffd5b614f06825f52600460205260405f2073ffffffffffffffffffffffffffffffffffffffff198154169055565b825f52600360205260405f205f198154019055614e46565b506001614e21565b90815f5260096020526001600160a01b0360405f205416614f75575f918252600960205260409091206001600160a01b0390911674010000000000000000000000000000000000000000179055565b7f0dc149f0000000000000000000000000000000000000000000000000000000005f5260045ffd5b6040517f70a0823100000000000000000000000000000000000000000000000000000000815230600482015291926001600160a01b0384169290602082602481875afa918215610ac7575f92615158575b506040517f23b872dd00000000000000000000000000000000000000000000000000000000602082015233602482015230604482015260648101919091526150439061503d8160848101611ebc565b846157bc565b604051907f70a08231000000000000000000000000000000000000000000000000000000008252306004830152602082602481875afa8015610ac7575f90615124575b6150909250614611565b9283156114f257815f52600c60205260405f20835f5260205260405f2054156150d9575b505f52600c60205260405f20905f526020526150d560405f2091825461464d565b9055565b815f52600d60205260405f205490600182018092116104a65761511e91835f52600e60205260405f20855f5260205260405f2055825f52600d60205260405f2061490a565b5f6150b4565b506020823d602011615150575b8161513e60209383614019565b81010312610295576150909151615086565b3d9150615131565b9091506020813d602011615186575b8161517460209383614019565b81010312610295575190611ebc614fee565b3d9150615167565b604051907f6352211e00000000000000000000000000000000000000000000000000000000825260048201526020816024816001600160a01b037f0000000000000000000000000000000000000000000000000000000000000000165afa5f9181615231575b50615221577fb1d04f08000000000000000000000000000000000000000000000000000000005f5260045ffd5b6001600160a01b031615611b0457565b61524b91925060203d602011610ac057610ab28183614019565b905f6151f4565b90604051602081019061529a81611ebc87868690917fffffffffffffffffffffffffffffffffffffffff00000000000000000000000060349360601b16825260148201520190565b51902091805f52601060205260405f20835f526020526001600160a01b0360405f20541615615390575b6001906001600160a01b03604051936152dc85613ffd565b169384845260208401918683525f52601060205260405f20905f526020526001600160a01b038060405f209451161673ffffffffffffffffffffffffffffffffffffffff1984541617835551910155803b15610295576040517f42842e0e00000000000000000000000000000000000000000000000000000000815233600482015230602482015260448101929092525f908290606490829084905af18015610ac7576153865750565b5f61495191614019565b805f52600f60205260405f2054600181018091116104a657815f52601160205260405f20845f5260205260405f2055805f52600f60205260405f2090815491680100000000000000008310156122905761540b6153f5848793600180970181556148f5565b81939154905f199060031b92831b921b19161790565b905590506152c4565b805f52600e60205260405f206001600160a01b0383165f5260205260405f2054801561555357815f52600d60205260405f20548082036154d6575b5050805f52600d60205260405f20805480156154a9575f19019061547382826148f5565b6001600160a01b0382549160031b1b19169055555f52600e6020526001600160a01b0360405f2091165f526020525f6040812055565b7f4e487b71000000000000000000000000000000000000000000000000000000005f52603160045260245ffd5b825f52600d60205260405f205f1982019182116104a6576001600160a01b03916154ff916148f5565b90549060031b1c16825f52600d60205260405f205f1983018381116104a657614932839161552c936148f5565b825f52600e6020526001600160a01b0360405f2091165f5260205260405f20555f8061544f565b505050565b6040517fa9059cbb0000000000000000000000000000000000000000000000000000000060208201526001600160a01b03929092166024830152604480830193909352918152614951916112de606483614019565b6001600160a01b036006541633036155c157565b7f118cdaa7000000000000000000000000000000000000000000000000000000005f523360045260245ffd5b805f52601160205260405f20825f5260205260405f2054801561555357815f52600f60205260405f205480820361566a575b5050805f52600f60205260405f20805480156154a9575f19019061564382826148f5565b5f1982549160031b1b19169055555f52601160205260405f20905f526020525f6040812055565b825f52600f60205260405f20905f1981019081116104a65761568b916148f5565b90549060031b1c825f52600f60205260405f205f1983018381116104a6576153f56156b79184936148f5565b9055825f52601160205260405f20905f5260205260405f20555f8061561f565b6040519060205f6001600160a01b03828501957f095ea7b300000000000000000000000000000000000000000000000000000000875216948560248601528160448601526044855261572a606486614019565b84519082855af15f513d82615797575b50501561574657505050565b6112de61495193604051907f095ea7b300000000000000000000000000000000000000000000000000000000602083015260248201525f604482015260448152615791606482614019565b826157bc565b9091506157b457506001600160a01b0381163b15155b5f8061573a565b6001146157ad565b905f602091828151910182855af115610ac7575f513d61582057506001600160a01b0381163b155b6157eb5750565b6001600160a01b03907f5274afe7000000000000000000000000000000000000000000000000000000005f521660045260245ffd5b600114156157e4565b60ff81146158885760ff811690601f8211615860576040519161584d604084614019565b6020808452838101919036833783525290565b7fb3512b0c000000000000000000000000000000000000000000000000000000005f5260045ffd5b506040516140a98161498c8160076142e4565b60ff81146158bf5760ff811690601f8211615860576040519161584d604084614019565b506040516140a98161498c8160086142e4565b6001600160a01b037f0000000000000000000000000000000000000000000000000000000000000000163014806159c5575b1561592d577f000000000000000000000000000000000000000000000000000000000000000090565b60405160208101907f8b73c3c69bb8fe3d512ecc4cf759cc79239f7b179b0ffacaa9a75d522b39400f82527f000000000000000000000000000000000000000000000000000000000000000060408201527f000000000000000000000000000000000000000000000000000000000000000060608201524660808201523060a082015260a081526159bf60c082614019565b51902090565b507f00000000000000000000000000000000000000000000000000000000000000004614615904565b8151919060418303615a1e57615a179250602082015190606060408401519301515f1a90615b00565b9192909190565b50505f9160029190565b6004811015615ad35780615a3a575050565b60018103615a6a577ff645eedf000000000000000000000000000000000000000000000000000000005f5260045ffd5b60028103615a9e57507ffce698f7000000000000000000000000000000000000000000000000000000005f5260045260245ffd5b600314615aa85750565b7fd78bce0c000000000000000000000000000000000000000000000000000000005f5260045260245ffd5b7f4e487b71000000000000000000000000000000000000000000000000000000005f52602160045260245ffd5b91907f7fffffffffffffffffffffffffffffff5d576e7357a4501ddfe92f46681b20a08411615b77579160209360809260ff5f9560405194855216868401526040830152606082015282805260015afa15610ac7575f516001600160a01b03811615615b6d57905f905f90565b505f906001905f90565b5050505f916003919056fea26469706673582212203d1d65eceb4f15c11b57276aa98b4c6185577ca2e831b92c1240063dbbd49f2364736f6c634300081e0033","linkReferences":{}},"methodIdentifiers":{"approve(address,uint256)":"095ea7b3","balanceOf(address)":"70a08231","batchDeposit(uint256,uint256,address[],uint256[],address[],uint256[],bytes32)":"0db54256","batchWithdraw(uint256,bytes32,bytes,uint256,address[],uint256[],address[],uint256[],address,bytes32,uint256)":"8f93f31b","burnLockbox(uint256,bytes32,bytes,bytes32,uint256)":"bb4ffa10","createLockboxWithBatch(address,address,uint256,address[],uint256[],address[],uint256[],bytes32)":"3b0320b0","createLockboxWithERC20(address,address,address,uint256,bytes32)":"748917dd","createLockboxWithERC721(address,address,address,uint256,bytes32)":"75463c4a","createLockboxWithETH(address,address,bytes32)":"5e4ed95d","depositERC20(uint256,address,uint256,bytes32)":"486c4b7f","depositERC721(uint256,address,uint256,bytes32)":"4d8af09e","depositETH(uint256,bytes32)":"65cd69a1","eip712Domain()":"84b0196e","getActiveLockboxPublicKeyForToken(uint256)":"aea5cf30","getApproved(uint256)":"081812fc","getERC20Bal(uint256,address)":"832d46cc","getErc20AddressAt(uint256,uint256)":"fa2bb376","getErc20ArrayLength(uint256)":"d0856eb4","getErc20Index(uint256,address)":"1c30dbb6","getErc20Known(uint256,address)":"490091fd","getEthBal(uint256)":"4bf7e15a","getFullLockbox(uint256)":"e124a17c","getNonce(uint256)":"3d46b819","isApprovedForAll(address,address)":"e985e9c5","locked(uint256)":"b45a3c0e","name()":"06fdde03","onERC721Received(address,address,uint256,bytes)":"150b7a02","owner()":"8da5cb5b","ownerOf(uint256)":"6352211e","renounceOwnership()":"715018a6","rotateLockboxKey(uint256,bytes32,bytes,address,bytes32,uint256)":"f3eb9a16","safeTransferFrom(address,address,uint256)":"42842e0e","safeTransferFrom(address,address,uint256,bytes)":"b88d4fde","setApprovalForAll(address,bool)":"a22cb465","setDefaultMetadataURI(string)":"95480879","setTokenMetadataURI(uint256,bytes32,bytes,string,bytes32,uint256)":"2dbf9be6","supportsInterface(bytes4)":"01ffc9a7","swapInLockbox(uint256,bytes32,bytes,address,address,uint256,uint256,address,bytes,bytes32,uint256,address)":"bd1ca785","symbol()":"95d89b41","testInitialize(uint256,address)":"ee14979c","testRequireExists(uint256)":"4b7fc217","tokenURI(uint256)":"c87b56dd","transferFrom(address,address,uint256)":"23b872dd","transferOwnership(address)":"f2fde38b","withdrawERC20(uint256,bytes32,bytes,address,uint256,address,bytes32,uint256)":"6267699a","withdrawERC721(uint256,bytes32,bytes,address,uint256,address,bytes32,uint256)":"9b9900a9","withdrawETH(uint256,bytes32,bytes,uint256,address,bytes32,uint256)":"52dc033c"},"id":6}