{"abi":[{"type":"fallback","stateMutability":"payable"},{"type":"receive","stateMutability":"payable"},{"type":"function","name":"approve","inputs":[{"name":"to","type":"address","internalType":"address"},{"name":"tokenId","type":"uint256","internalType":"uint256"}],"outputs":[],"stateMutability":"nonpayable"},{"type":"function","name":"balanceOf","inputs":[{"name":"owner","type":"address","internalType":"address"}],"outputs":[{"name":"","type":"uint256","internalType":"uint256"}],"stateMutability":"view"},{"type":"function","name":"batchDeposit","inputs":[{"name":"tokenId","type":"uint256","internalType":"uint256"},{"name":"amountETH","type":"uint256","internalType":"uint256"},{"name":"tokenAddresses","type":"address[]","internalType":"address[]"},{"name":"tokenAmounts","type":"uint256[]","internalType":"uint256[]"},{"name":"nftContracts","type":"address[]","internalType":"address[]"},{"name":"nftTokenIds","type":"uint256[]","internalType":"uint256[]"},{"name":"referenceId","type":"bytes32","internalType":"bytes32"}],"outputs":[],"stateMutability":"payable"},{"type":"function","name":"batchWithdraw","inputs":[{"name":"tokenId","type":"uint256","internalType":"uint256"},{"name":"messageHash","type":"bytes32","internalType":"bytes32"},{"name":"signature","type":"bytes","internalType":"bytes"},{"name":"amountETH","type":"uint256","internalType":"uint256"},{"name":"tokenAddresses","type":"address[]","internalType":"address[]"},{"name":"tokenAmounts","type":"uint256[]","internalType":"uint256[]"},{"name":"nftContracts","type":"address[]","internalType":"address[]"},{"name":"nftTokenIds","type":"uint256[]","internalType":"uint256[]"},{"name":"recipient","type":"address","internalType":"address"},{"name":"referenceId","type":"bytes32","internalType":"bytes32"},{"name":"signatureExpiry","type":"uint256","internalType":"uint256"}],"outputs":[],"stateMutability":"nonpayable"},{"type":"function","name":"burnLockbox","inputs":[{"name":"tokenId","type":"uint256","internalType":"uint256"},{"name":"messageHash","type":"bytes32","internalType":"bytes32"},{"name":"signature","type":"bytes","internalType":"bytes"},{"name":"referenceId","type":"bytes32","internalType":"bytes32"},{"name":"signatureExpiry","type":"uint256","internalType":"uint256"}],"outputs":[],"stateMutability":"nonpayable"},{"type":"function","name":"createLockboxWithBatch","inputs":[{"name":"to","type":"address","internalType":"address"},{"name":"lockboxPublicKey","type":"address","internalType":"address"},{"name":"amountETH","type":"uint256","internalType":"uint256"},{"name":"tokenAddresses","type":"address[]","internalType":"address[]"},{"name":"tokenAmounts","type":"uint256[]","internalType":"uint256[]"},{"name":"nftContracts","type":"address[]","internalType":"address[]"},{"name":"nftTokenIds","type":"uint256[]","internalType":"uint256[]"},{"name":"referenceId","type":"bytes32","internalType":"bytes32"}],"outputs":[],"stateMutability":"payable"},{"type":"function","name":"createLockboxWithERC20","inputs":[{"name":"to","type":"address","internalType":"address"},{"name":"lockboxPublicKey","type":"address","internalType":"address"},{"name":"tokenAddress","type":"address","internalType":"address"},{"name":"amount","type":"uint256","internalType":"uint256"},{"name":"referenceId","type":"bytes32","internalType":"bytes32"}],"outputs":[],"stateMutability":"nonpayable"},{"type":"function","name":"createLockboxWithERC721","inputs":[{"name":"to","type":"address","internalType":"address"},{"name":"lockboxPublicKey","type":"address","internalType":"address"},{"name":"nftContract","type":"address","internalType":"address"},{"name":"externalNftTokenId","type":"uint256","internalType":"uint256"},{"name":"referenceId","type":"bytes32","internalType":"bytes32"}],"outputs":[],"stateMutability":"nonpayable"},{"type":"function","name":"createLockboxWithETH","inputs":[{"name":"to","type":"address","internalType":"address"},{"name":"lockboxPublicKey","type":"address","internalType":"address"},{"name":"referenceId","type":"bytes32","internalType":"bytes32"}],"outputs":[],"stateMutability":"payable"},{"type":"function","name":"depositERC20","inputs":[{"name":"tokenId","type":"uint256","internalType":"uint256"},{"name":"tokenAddress","type":"address","internalType":"address"},{"name":"amount","type":"uint256","internalType":"uint256"},{"name":"referenceId","type":"bytes32","internalType":"bytes32"}],"outputs":[],"stateMutability":"nonpayable"},{"type":"function","name":"depositERC721","inputs":[{"name":"tokenId","type":"uint256","internalType":"uint256"},{"name":"nftContract","type":"address","internalType":"address"},{"name":"nftTokenId","type":"uint256","internalType":"uint256"},{"name":"referenceId","type":"bytes32","internalType":"bytes32"}],"outputs":[],"stateMutability":"nonpayable"},{"type":"function","name":"depositETH","inputs":[{"name":"tokenId","type":"uint256","internalType":"uint256"},{"name":"referenceId","type":"bytes32","internalType":"bytes32"}],"outputs":[],"stateMutability":"payable"},{"type":"function","name":"eip712Domain","inputs":[],"outputs":[{"name":"fields","type":"bytes1","internalType":"bytes1"},{"name":"name","type":"string","internalType":"string"},{"name":"version","type":"string","internalType":"string"},{"name":"chainId","type":"uint256","internalType":"uint256"},{"name":"verifyingContract","type":"address","internalType":"address"},{"name":"salt","type":"bytes32","internalType":"bytes32"},{"name":"extensions","type":"uint256[]","internalType":"uint256[]"}],"stateMutability":"view"},{"type":"function","name":"getActiveLockboxPublicKeyForToken","inputs":[{"name":"tokenId","type":"uint256","internalType":"uint256"}],"outputs":[{"name":"","type":"address","internalType":"address"}],"stateMutability":"view"},{"type":"function","name":"getApproved","inputs":[{"name":"tokenId","type":"uint256","internalType":"uint256"}],"outputs":[{"name":"","type":"address","internalType":"address"}],"stateMutability":"view"},{"type":"function","name":"getERC20Bal","inputs":[{"name":"tokenId","type":"uint256","internalType":"uint256"},{"name":"token","type":"address","internalType":"address"}],"outputs":[{"name":"","type":"uint256","internalType":"uint256"}],"stateMutability":"view"},{"type":"function","name":"getErc20AddressAt","inputs":[{"name":"tokenId","type":"uint256","internalType":"uint256"},{"name":"index","type":"uint256","internalType":"uint256"}],"outputs":[{"name":"","type":"address","internalType":"address"}],"stateMutability":"view"},{"type":"function","name":"getErc20ArrayLength","inputs":[{"name":"tokenId","type":"uint256","internalType":"uint256"}],"outputs":[{"name":"","type":"uint256","internalType":"uint256"}],"stateMutability":"view"},{"type":"function","name":"getErc20Index","inputs":[{"name":"tokenId","type":"uint256","internalType":"uint256"},{"name":"token","type":"address","internalType":"address"}],"outputs":[{"name":"","type":"uint256","internalType":"uint256"}],"stateMutability":"view"},{"type":"function","name":"getErc20Known","inputs":[{"name":"tokenId","type":"uint256","internalType":"uint256"},{"name":"token","type":"address","internalType":"address"}],"outputs":[{"name":"","type":"bool","internalType":"bool"}],"stateMutability":"view"},{"type":"function","name":"getEthBal","inputs":[{"name":"tokenId","type":"uint256","internalType":"uint256"}],"outputs":[{"name":"","type":"uint256","internalType":"uint256"}],"stateMutability":"view"},{"type":"function","name":"getFullLockbox","inputs":[{"name":"tokenId","type":"uint256","internalType":"uint256"}],"outputs":[{"name":"lockboxETH","type":"uint256","internalType":"uint256"},{"name":"erc20Tokens","type":"tuple[]","internalType":"struct Withdrawals.Erc20Balances[]","components":[{"name":"tokenAddress","type":"address","internalType":"address"},{"name":"balance","type":"uint256","internalType":"uint256"}]},{"name":"nftContracts","type":"tuple[]","internalType":"struct Deposits.nftBalances[]","components":[{"name":"nftContract","type":"address","internalType":"address"},{"name":"nftTokenId","type":"uint256","internalType":"uint256"}]}],"stateMutability":"view"},{"type":"function","name":"getNonce","inputs":[{"name":"tokenId","type":"uint256","internalType":"uint256"}],"outputs":[{"name":"","type":"uint256","internalType":"uint256"}],"stateMutability":"view"},{"type":"function","name":"isApprovedForAll","inputs":[{"name":"owner","type":"address","internalType":"address"},{"name":"operator","type":"address","internalType":"address"}],"outputs":[{"name":"","type":"bool","internalType":"bool"}],"stateMutability":"view"},{"type":"function","name":"locked","inputs":[{"name":"tokenId","type":"uint256","internalType":"uint256"}],"outputs":[{"name":"","type":"bool","internalType":"bool"}],"stateMutability":"view"},{"type":"function","name":"name","inputs":[],"outputs":[{"name":"","type":"string","internalType":"string"}],"stateMutability":"view"},{"type":"function","name":"onERC721Received","inputs":[{"name":"","type":"address","internalType":"address"},{"name":"","type":"address","internalType":"address"},{"name":"","type":"uint256","internalType":"uint256"},{"name":"","type":"bytes","internalType":"bytes"}],"outputs":[{"name":"","type":"bytes4","internalType":"bytes4"}],"stateMutability":"pure"},{"type":"function","name":"owner","inputs":[],"outputs":[{"name":"","type":"address","internalType":"address"}],"stateMutability":"view"},{"type":"function","name":"ownerOf","inputs":[{"name":"tokenId","type":"uint256","internalType":"uint256"}],"outputs":[{"name":"","type":"address","internalType":"address"}],"stateMutability":"view"},{"type":"function","name":"renounceOwnership","inputs":[],"outputs":[],"stateMutability":"nonpayable"},{"type":"function","name":"rotateLockboxKey","inputs":[{"name":"tokenId","type":"uint256","internalType":"uint256"},{"name":"messageHash","type":"bytes32","internalType":"bytes32"},{"name":"signature","type":"bytes","internalType":"bytes"},{"name":"newPublicKey","type":"address","internalType":"address"},{"name":"referenceId","type":"bytes32","internalType":"bytes32"},{"name":"signatureExpiry","type":"uint256","internalType":"uint256"}],"outputs":[],"stateMutability":"nonpayable"},{"type":"function","name":"safeTransferFrom","inputs":[{"name":"from","type":"address","internalType":"address"},{"name":"to","type":"address","internalType":"address"},{"name":"tokenId","type":"uint256","internalType":"uint256"}],"outputs":[],"stateMutability":"nonpayable"},{"type":"function","name":"safeTransferFrom","inputs":[{"name":"from","type":"address","internalType":"address"},{"name":"to","type":"address","internalType":"address"},{"name":"tokenId","type":"uint256","internalType":"uint256"},{"name":"data","type":"bytes","internalType":"bytes"}],"outputs":[],"stateMutability":"nonpayable"},{"type":"function","name":"setApprovalForAll","inputs":[{"name":"operator","type":"address","internalType":"address"},{"name":"approved","type":"bool","internalType":"bool"}],"outputs":[],"stateMutability":"nonpayable"},{"type":"function","name":"setDefaultMetadataURI","inputs":[{"name":"newDefaultURI","type":"string","internalType":"string"}],"outputs":[],"stateMutability":"nonpayable"},{"type":"function","name":"setTokenMetadataURI","inputs":[{"name":"tokenId","type":"uint256","internalType":"uint256"},{"name":"messageHash","type":"bytes32","internalType":"bytes32"},{"name":"signature","type":"bytes","internalType":"bytes"},{"name":"newMetadataURI","type":"string","internalType":"string"},{"name":"referenceId","type":"bytes32","internalType":"bytes32"},{"name":"signatureExpiry","type":"uint256","internalType":"uint256"}],"outputs":[],"stateMutability":"nonpayable"},{"type":"function","name":"supportsInterface","inputs":[{"name":"interfaceId","type":"bytes4","internalType":"bytes4"}],"outputs":[{"name":"","type":"bool","internalType":"bool"}],"stateMutability":"view"},{"type":"function","name":"swapInLockbox","inputs":[{"name":"tokenId","type":"uint256","internalType":"uint256"},{"name":"messageHash","type":"bytes32","internalType":"bytes32"},{"name":"signature","type":"bytes","internalType":"bytes"},{"name":"tokenIn","type":"address","internalType":"address"},{"name":"tokenOut","type":"address","internalType":"address"},{"name":"amountIn","type":"uint256","internalType":"uint256"},{"name":"minAmountOut","type":"uint256","internalType":"uint256"},{"name":"target","type":"address","internalType":"address"},{"name":"data","type":"bytes","internalType":"bytes"},{"name":"referenceId","type":"bytes32","internalType":"bytes32"},{"name":"signatureExpiry","type":"uint256","internalType":"uint256"}],"outputs":[],"stateMutability":"nonpayable"},{"type":"function","name":"symbol","inputs":[],"outputs":[{"name":"","type":"string","internalType":"string"}],"stateMutability":"view"},{"type":"function","name":"testInitialize","inputs":[{"name":"tokenId","type":"uint256","internalType":"uint256"},{"name":"lockboxPublicKey","type":"address","internalType":"address"}],"outputs":[],"stateMutability":"nonpayable"},{"type":"function","name":"testRequireExists","inputs":[{"name":"tokenId","type":"uint256","internalType":"uint256"}],"outputs":[],"stateMutability":"view"},{"type":"function","name":"tokenURI","inputs":[{"name":"tokenId","type":"uint256","internalType":"uint256"}],"outputs":[{"name":"","type":"string","internalType":"string"}],"stateMutability":"view"},{"type":"function","name":"transferFrom","inputs":[{"name":"from","type":"address","internalType":"address"},{"name":"to","type":"address","internalType":"address"},{"name":"tokenId","type":"uint256","internalType":"uint256"}],"outputs":[],"stateMutability":"nonpayable"},{"type":"function","name":"transferOwnership","inputs":[{"name":"newOwner","type":"address","internalType":"address"}],"outputs":[],"stateMutability":"nonpayable"},{"type":"function","name":"withdrawERC20","inputs":[{"name":"tokenId","type":"uint256","internalType":"uint256"},{"name":"messageHash","type":"bytes32","internalType":"bytes32"},{"name":"signature","type":"bytes","internalType":"bytes"},{"name":"tokenAddress","type":"address","internalType":"address"},{"name":"amount","type":"uint256","internalType":"uint256"},{"name":"recipient","type":"address","internalType":"address"},{"name":"referenceId","type":"bytes32","internalType":"bytes32"},{"name":"signatureExpiry","type":"uint256","internalType":"uint256"}],"outputs":[],"stateMutability":"nonpayable"},{"type":"function","name":"withdrawERC721","inputs":[{"name":"tokenId","type":"uint256","internalType":"uint256"},{"name":"messageHash","type":"bytes32","internalType":"bytes32"},{"name":"signature","type":"bytes","internalType":"bytes"},{"name":"nftContract","type":"address","internalType":"address"},{"name":"nftTokenId","type":"uint256","internalType":"uint256"},{"name":"recipient","type":"address","internalType":"address"},{"name":"referenceId","type":"bytes32","internalType":"bytes32"},{"name":"signatureExpiry","type":"uint256","internalType":"uint256"}],"outputs":[],"stateMutability":"nonpayable"},{"type":"function","name":"withdrawETH","inputs":[{"name":"tokenId","type":"uint256","internalType":"uint256"},{"name":"messageHash","type":"bytes32","internalType":"bytes32"},{"name":"signature","type":"bytes","internalType":"bytes"},{"name":"amountETH","type":"uint256","internalType":"uint256"},{"name":"recipient","type":"address","internalType":"address"},{"name":"referenceId","type":"bytes32","internalType":"bytes32"},{"name":"signatureExpiry","type":"uint256","internalType":"uint256"}],"outputs":[],"stateMutability":"nonpayable"},{"type":"event","name":"Approval","inputs":[{"name":"owner","type":"address","indexed":true,"internalType":"address"},{"name":"approved","type":"address","indexed":true,"internalType":"address"},{"name":"tokenId","type":"uint256","indexed":true,"internalType":"uint256"}],"anonymous":false},{"type":"event","name":"ApprovalForAll","inputs":[{"name":"owner","type":"address","indexed":true,"internalType":"address"},{"name":"operator","type":"address","indexed":true,"internalType":"address"},{"name":"approved","type":"bool","indexed":false,"internalType":"bool"}],"anonymous":false},{"type":"event","name":"Deposited","inputs":[{"name":"tokenId","type":"uint256","indexed":true,"internalType":"uint256"},{"name":"referenceId","type":"bytes32","indexed":true,"internalType":"bytes32"}],"anonymous":false},{"type":"event","name":"EIP712DomainChanged","inputs":[],"anonymous":false},{"type":"event","name":"ExcessSpent","inputs":[{"name":"tokenId","type":"uint256","indexed":true,"internalType":"uint256"},{"name":"token","type":"address","indexed":true,"internalType":"address"},{"name":"excessAmount","type":"uint256","indexed":false,"internalType":"uint256"}],"anonymous":false},{"type":"event","name":"KeyRotated","inputs":[{"name":"tokenId","type":"uint256","indexed":true,"internalType":"uint256"},{"name":"referenceId","type":"bytes32","indexed":true,"internalType":"bytes32"}],"anonymous":false},{"type":"event","name":"LockboxBurned","inputs":[{"name":"tokenId","type":"uint256","indexed":true,"internalType":"uint256"},{"name":"referenceId","type":"bytes32","indexed":true,"internalType":"bytes32"}],"anonymous":false},{"type":"event","name":"Locked","inputs":[{"name":"tokenId","type":"uint256","indexed":false,"internalType":"uint256"}],"anonymous":false},{"type":"event","name":"Minted","inputs":[{"name":"tokenId","type":"uint256","indexed":true,"internalType":"uint256"},{"name":"referenceId","type":"bytes32","indexed":true,"internalType":"bytes32"}],"anonymous":false},{"type":"event","name":"OwnershipTransferred","inputs":[{"name":"previousOwner","type":"address","indexed":true,"internalType":"address"},{"name":"newOwner","type":"address","indexed":true,"internalType":"address"}],"anonymous":false},{"type":"event","name":"SwapExecuted","inputs":[{"name":"tokenId","type":"uint256","indexed":true,"internalType":"uint256"},{"name":"referenceId","type":"bytes32","indexed":true,"internalType":"bytes32"}],"anonymous":false},{"type":"event","name":"TokenMetadataURISet","inputs":[{"name":"tokenId","type":"uint256","indexed":true,"internalType":"uint256"},{"name":"referenceId","type":"bytes32","indexed":true,"internalType":"bytes32"}],"anonymous":false},{"type":"event","name":"Transfer","inputs":[{"name":"from","type":"address","indexed":true,"internalType":"address"},{"name":"to","type":"address","indexed":true,"internalType":"address"},{"name":"tokenId","type":"uint256","indexed":true,"internalType":"uint256"}],"anonymous":false},{"type":"event","name":"Withdrawn","inputs":[{"name":"tokenId","type":"uint256","indexed":true,"internalType":"uint256"},{"name":"referenceId","type":"bytes32","indexed":true,"internalType":"bytes32"}],"anonymous":false},{"type":"error","name":"AlreadyInitialized","inputs":[]},{"type":"error","name":"ArrayLengthMismatch","inputs":[]},{"type":"error","name":"DefaultURIAlreadySet","inputs":[]},{"type":"error","name":"ECDSAInvalidSignature","inputs":[]},{"type":"error","name":"ECDSAInvalidSignatureLength","inputs":[{"name":"length","type":"uint256","internalType":"uint256"}]},{"type":"error","name":"ECDSAInvalidSignatureS","inputs":[{"name":"s","type":"bytes32","internalType":"bytes32"}]},{"type":"error","name":"ERC721IncorrectOwner","inputs":[{"name":"sender","type":"address","internalType":"address"},{"name":"tokenId","type":"uint256","internalType":"uint256"},{"name":"owner","type":"address","internalType":"address"}]},{"type":"error","name":"ERC721InsufficientApproval","inputs":[{"name":"operator","type":"address","internalType":"address"},{"name":"tokenId","type":"uint256","internalType":"uint256"}]},{"type":"error","name":"ERC721InvalidApprover","inputs":[{"name":"approver","type":"address","internalType":"address"}]},{"type":"error","name":"ERC721InvalidOperator","inputs":[{"name":"operator","type":"address","internalType":"address"}]},{"type":"error","name":"ERC721InvalidOwner","inputs":[{"name":"owner","type":"address","internalType":"address"}]},{"type":"error","name":"ERC721InvalidReceiver","inputs":[{"name":"receiver","type":"address","internalType":"address"}]},{"type":"error","name":"ERC721InvalidSender","inputs":[{"name":"sender","type":"address","internalType":"address"}]},{"type":"error","name":"ERC721NonexistentToken","inputs":[{"name":"tokenId","type":"uint256","internalType":"uint256"}]},{"type":"error","name":"ETHMismatch","inputs":[]},{"type":"error","name":"EthTransferFailed","inputs":[]},{"type":"error","name":"EthValueMismatch","inputs":[]},{"type":"error","name":"FallbackNotAllowed","inputs":[]},{"type":"error","name":"InsufficientTokenBalance","inputs":[]},{"type":"error","name":"InvalidMessageHash","inputs":[]},{"type":"error","name":"InvalidShortString","inputs":[]},{"type":"error","name":"InvalidSignature","inputs":[]},{"type":"error","name":"InvalidSwap","inputs":[]},{"type":"error","name":"MismatchedInputs","inputs":[]},{"type":"error","name":"NFTNotFound","inputs":[]},{"type":"error","name":"NoETHBalance","inputs":[]},{"type":"error","name":"NoURI","inputs":[]},{"type":"error","name":"NonexistentToken","inputs":[]},{"type":"error","name":"NotOwner","inputs":[]},{"type":"error","name":"OwnableInvalidOwner","inputs":[{"name":"owner","type":"address","internalType":"address"}]},{"type":"error","name":"OwnableUnauthorizedAccount","inputs":[{"name":"account","type":"address","internalType":"address"}]},{"type":"error","name":"ReentrancyGuardReentrantCall","inputs":[]},{"type":"error","name":"SafeERC20FailedOperation","inputs":[{"name":"token","type":"address","internalType":"address"}]},{"type":"error","name":"SelfMintOnly","inputs":[]},{"type":"error","name":"SignatureExpired","inputs":[]},{"type":"error","name":"SlippageExceeded","inputs":[]},{"type":"error","name":"StringTooLong","inputs":[{"name":"str","type":"string","internalType":"string"}]},{"type":"error","name":"SwapCallFailed","inputs":[]},{"type":"error","name":"TransfersDisabled","inputs":[]},{"type":"error","name":"UseDepositETH","inputs":[]},{"type":"error","name":"ZeroAddress","inputs":[]},{"type":"error","name":"ZeroAmount","inputs":[]},{"type":"error","name":"ZeroKey","inputs":[]},{"type":"error","name":"ZeroTokenAddress","inputs":[]}],"bytecode":{"object":"0x610180604052346104af576040516100186040826104b3565b60088152674c6f636b782e696f60c01b60208201526040519061003c6040836104b3565b6007825266098dec6d6c4def60cb1b602083015260405161005e6040826104b3565b60058152602081019064098dec6d6f60db1b8252604051936100816040866104b3565b60018552601960f91b60208601908152845190946001600160401b0382116103b6575f5490600182811c921680156104a5575b60208310146103985781601f849311610438575b50602090601f83116001146103d5575f926103ca575b50508160011b915f199060031b1c1916175f555b8051906001600160401b0382116103b65760015490600182811c921680156103ac575b60208310146103985781601f84931161032a575b50602090601f83116001146102c4575f926102b9575b50508160011b915f199060031b1c1916176001555b33156102a65760068054336001600160a01b0319821681179092556001600160a01b03167f8be0079c531659141344cd1fd0a4f28419497f9722a3daafe3b4186f6b6457e05f80a36101a5816104d6565b610120526101b28461065d565b61014052519020918260e05251902080610100524660a0526040519060208201927f8b73c3c69bb8fe3d512ecc4cf759cc79239f7b179b0ffacaa9a75d522b39400f8452604083015260608201524660808201523060a082015260a0815261021b60c0826104b3565b5190206080523060c05230610160526001600a55604051615a6e90816107968239608051816157c1015260a0518161587e015260c05181615792015260e051816158100152610100518161583601526101205181611f2c01526101405181611f550152610160518181816106cc0152818161111b01528181612acc01528181614b5f015261528e0152f35b631e4fbdf760e01b5f525f60045260245ffd5b015190505f8061013f565b60015f9081528281209350601f198516905b81811061031257509084600195949392106102fa575b505050811b01600155610154565b01515f1960f88460031b161c191690555f80806102ec565b929360206001819287860151815501950193016102d6565b60015f529091507fb10e2d527612073b26eecdfd717e6a320cf44b4afac2b0732d9fcbe2b7fa0cf6601f840160051c8101916020851061038e575b90601f859493920160051c01905b8181106103805750610129565b5f8155849350600101610373565b9091508190610365565b634e487b7160e01b5f52602260045260245ffd5b91607f1691610115565b634e487b7160e01b5f52604160045260245ffd5b015190505f806100de565b5f8080528281209350601f198516905b8181106104205750908460019594939210610408575b505050811b015f556100f2565b01515f1960f88460031b161c191690555f80806103fb565b929360206001819287860151815501950193016103e5565b5f80529091507f290decd9548b62a8d60345a988386fc84ba6bc95484008f6362f93160ef3e563601f840160051c8101916020851061049b575b90601f859493920160051c01905b81811061048d57506100c8565b5f8155849350600101610480565b9091508190610472565b91607f16916100b4565b5f80fd5b601f909101601f19168101906001600160401b038211908210176103b657604052565b908151602081105f14610550575090601f815111610510576020815191015160208210610501571790565b5f198260200360031b1b161790565b604460209160405192839163305a27a960e01b83528160048401528051918291826024860152018484015e5f828201840152601f01601f19168101030190fd5b6001600160401b0381116103b657600754600181811c91168015610653575b602082101461039857601f8111610620575b50602092601f82116001146105bf57928192935f926105b4575b50508160011b915f199060031b1c19161760075560ff90565b015190505f8061059b565b601f1982169360075f52805f20915f5b86811061060857508360019596106105f0575b505050811b0160075560ff90565b01515f1960f88460031b161c191690555f80806105e2565b919260206001819286850151815501940192016105cf565b60075f52601f60205f20910160051c810190601f830160051c015b8181106106485750610581565b5f815560010161063b565b90607f169061056f565b908151602081105f14610688575090601f815111610510576020815191015160208210610501571790565b6001600160401b0381116103b657600854600181811c9116801561078b575b602082101461039857601f8111610758575b50602092601f82116001146106f757928192935f926106ec575b50508160011b915f199060031b1c19161760085560ff90565b015190505f806106d3565b601f1982169360085f52805f20915f5b8681106107405750836001959610610728575b505050811b0160085560ff90565b01515f1960f88460031b161c191690555f808061071a565b91926020600181928685015181550194019201610707565b60085f52601f60205f20910160051c810190601f830160051c015b81811061078057506106b9565b5f8155600101610773565b90607f16906106a756fe6080806040526004361015610040575b50361561003e577fdeab4c30000000000000000000000000000000000000000000000000000000005f5260045ffd5b005b5f3560e01c90816301ffc9a714613ee85750806306fdde0314613e46578063081812fc14613e09578063095ea7b314613cf75780630db5425614613ba9578063150b7a0214613b3a5780631c30dbb614613af5578063218e631d1461305057806323b872dd146130395780632dbf9be614612d055780633b0320b014612b455780633d46b81914612a7c57806342842e0e14612a53578063486c4b7f14612a12578063490091fd146129c85780634b7fc217146129ac5780634bf7e15a146129825780634d8af09e1461291c57806352dc033c146126ea5780635e4ed95d146126145780636267699a146123ad5780636352211e1461237e57806365cd69a11461231057806370a08231146122a6578063715018a614612240578063748917dd146121ad57806375463c4a1461206d578063832d46cc1461202857806384b0196e14611f145780638da5cb5b14611eee5780638f93f31b14611894578063954808791461167657806395d89b41146115ac5780639b9900a91461124e578063a22cb4651461119a578063aea5cf30146110cb578063b45a3c0e1461106a578063b88d4fde1461101b578063bb4ffa1014610b27578063c87b56dd14610af0578063d0856eb414610ac6578063e124a17c14610673578063e985e9c51461061a578063ee14979c146105f6578063f2fde38b1461054b578063f3eb9a16146102995763fa2bb37614610251575f61000f565b34610295576040600319360112610295576004355f52600d60205260206001600160a01b0361028560243560405f206143ff565b90549060031b1c16604051908152f35b5f80fd5b346102955760c06003193601126102955760043560443567ffffffffffffffff8111610295576102cd9036906004016140a4565b906102d6613f88565b6084359260a435906102e6614aea565b6102ef84614b23565b81421161052357604051926001600160a01b036020850191868352169283604086015286606086015233608086015260a085015260a0845261033260c08561402f565b845f52600960205260405f20935190209083549060428260a01c9360405160208101917f5fd4fde1cb878824d6e96eec97296c9e818ad783a10b7c9ede6e7f27eca7b06b83528960408301528660608301525f608083015260a082015260a0815261039e60c08261402f565b5190206103a9615788565b90604051917f1901000000000000000000000000000000000000000000000000000000000000835260028301526022820152209081602435036104fb57610407926103fe6001600160a01b03939284936158a4565b909591956158de565b169116036104d3576bffffffffffffffffffffffff81146104a65782546001600160a01b031660019190910160a01b73ffffffffffffffffffffffffffffffffffffffff191617825580610483575b50507f984cbcf51cba481417bc4c1f7faacf7392a4cbcd6c7fb7888b24ed2e50a0be775f80a36001600a55005b73ffffffffffffffffffffffffffffffffffffffff198254161790558280610456565b7f4e487b71000000000000000000000000000000000000000000000000000000005f52601160045260245ffd5b7f8baa579f000000000000000000000000000000000000000000000000000000005f5260045ffd5b7f8b56642d000000000000000000000000000000000000000000000000000000005f5260045ffd5b7f0819bdcd000000000000000000000000000000000000000000000000000000005f5260045ffd5b34610295576020600319360112610295576001600160a01b0361056c613f5c565b610574615548565b1680156105ca576001600160a01b036006548273ffffffffffffffffffffffffffffffffffffffff19821617600655167f8be0079c531659141344cd1fd0a4f28419497f9722a3daafe3b4186f6b6457e05f80a3005b7f1e4fbdf7000000000000000000000000000000000000000000000000000000005f525f60045260245ffd5b346102955760406003193601126102955761003e610612613f72565b600435614fc6565b3461029557604060031936011261029557610633613f5c565b6001600160a01b03610643613f72565b91165f5260056020526001600160a01b0360405f2091165f52602052602060ff60405f2054166040519015158152f35b346102955760206003193601126102955760043561069081615252565b6040517f6352211e0000000000000000000000000000000000000000000000000000000081528160048201526020816024816001600160a01b037f0000000000000000000000000000000000000000000000000000000000000000165afa908115610abb575f91610a8c575b506001600160a01b0333911603610a6457805f52600b60205260405f2054815f52600d60205260405f2091825461073281614717565b93610740604051958661402f565b818552601f1961074f83614717565b015f5b818110610a385750505f5b8281106109b157505050805f52601060205260405f205f915f918054925b83811061095e5750601f196107a861079286614717565b956107a0604051978861402f565b808752614717565b015f5b8181106109325750505f905f5b84811061088557878787604051928392606084019084526060602085015281518091526020608085019201905f5b81811061084c575050508281036040840152602080835192838152019201905f5b818110610815575050500390f35b91935091602060408261083e6001948851602080916001600160a01b0381511684520151910152565b019401910191849392610807565b919394509160206040826108766001948851602080916001600160a01b0381511684520151910152565b019401910191859493926107e6565b600190845f9997989952601260205260405f206108a282856143ff565b90549060031b1c5f5260205260ff60405f2054166108c5575b01969594966107b8565b845f52601160205260405f206108db82856143ff565b90549060031b1c5f5260205261092c60405f20946108f8816146ea565b95846040519161090783614013565b6001600160a01b03815416835201546020820152610925828c614ab5565b5289614ab5565b506108bb565b604051969795966020919061094681614013565b5f81525f8382015282828a01015201969594966107ab565b825f9795969752601260205260405f2061097882846143ff565b90549060031b1c5f5260205260ff60405f20541661099d575b6001019594939561077b565b946109a96001916146ea565b959050610991565b806001600160a01b036109ca60019385999798996143ff565b90549060031b1c16865f52600c60205260405f206001600160a01b03806109f185886143ff565b90549060031b1c16165f5260205260405f205460405191610a1183614013565b82526020820152610a228287614ab5565b52610a2d8186614ab5565b50019493929461075d565b6040519596949560209190610a4c81614013565b5f81525f838201528282880101520195949395610752565b7f30cd7471000000000000000000000000000000000000000000000000000000005f5260045ffd5b610aae915060203d602011610ab4575b610aa6818361402f565b8101906146f8565b826106fc565b503d610a9c565b6040513d5f823e3d90fd5b34610295576020600319360112610295576004355f52600d602052602060405f2054604051908152f35b3461029557602060031936011261029557610b23610b0f600435614985565b604051918291602083526020830190613f37565b0390f35b346102955760a06003193601126102955760043560443567ffffffffffffffff811161029557610b5b9036906004016140a4565b60643590608435610b6a614aea565b610b7384614b23565b80421161052357604051906020820190858252846040840152336060840152608083015260808252610ba660a08361402f565b845f52600960205260405f20915190209181549060428260a01c9460405160208101917f5fd4fde1cb878824d6e96eec97296c9e818ad783a10b7c9ede6e7f27eca7b06b83528960408301528760608301526004608083015260a082015260a08152610c1360c08261402f565b519020610c1e615788565b90604051917f1901000000000000000000000000000000000000000000000000000000000000835260028301526022820152209081602435036104fb57610c73926103fe6001600160a01b03939284936158a4565b169116036104d3576bffffffffffffffffffffffff82146104a6576001610cc192016001600160a01b0373ffffffffffffffffffffffffffffffffffffffff1983549260a01b169116179055565b815f52600b6020525f6040812055815f52600d60205260405f205f5b8154811015610d7257806001600160a01b03610cfb600193856143ff565b90549060031b1c16855f52600c60205260405f206001600160a01b0382165f526020525f6040812055855f52600e60205260405f206001600160a01b0382165f5260205260405f2060ff198154169055855f52600f6020526001600160a01b0360405f2091165f526020525f604081205501610cdd565b5050815f52600d60205260405f2080545f825580611001575b5050815f52601060205260405f20915f5b8354811015610dfa5780610db2600192866143ff565b90549060031b1c835f52601160205260405f20815f526020525f83604082208281550155835f52601260205260405f20905f5260205260405f2060ff19815416905501610d9c565b50805f52601060205260405f208054905f815581610fe3575b5050805f5260026020526001600160a01b0360405f205416151580610fdc575b610fb457805f52601760205260405f20610e4d81546142e3565b9081610f71575b5050805f5260026020526001600160a01b0360405f2054168015908115610f2d575b825f52600260205260405f2073ffffffffffffffffffffffffffffffffffffffff198154169055825f827fddf252ad1be2c89b69c2b068fc378daa952ba7f163c4a11628f55a4df523b3ef8280a450610f0257805f5260096020525f60408120557fceed1806179edada6c648f6c52838ceac0b9c18cf04e6fca0712bda6fcf82c185f80a36001600a55005b7f7e273289000000000000000000000000000000000000000000000000000000005f5260045260245ffd5b610f59835f52600460205260405f2073ffffffffffffffffffffffffffffffffffffffff198154169055565b805f52600360205260405f205f198154019055610e76565b81601f5f9311600114610f885750555b8280610e54565b81835260208320610fa491601f0160051c8101906001016146d4565b8082528160208120915555610f81565b7f8574adcf000000000000000000000000000000000000000000000000000000005f5260045ffd5b505f610e33565b5f5260205f20908101905b81811015610e13575f8155600101610fee565b611014915f5260205f20908101906146d4565b8280610d8b565b3461029557608060031936011261029557611034613f5c565b61103c613f72565b6064359167ffffffffffffffff83116102955761106061003e9336906004016140a4565b91604435916147dd565b34610295576020600319360112610295576004355f5260026020526001600160a01b0360405f205416156110a357602060405160018152f35b7fb1d04f08000000000000000000000000000000000000000000000000000000005f5260045ffd5b34610295576020600319360112610295576004356040517f6352211e0000000000000000000000000000000000000000000000000000000081528160048201526020816024816001600160a01b037f0000000000000000000000000000000000000000000000000000000000000000165afa908115610abb575f9161117b575b506001600160a01b0333911603610a64575f52600960205260206001600160a01b0360405f205416604051908152f35b611194915060203d602011610ab457610aa6818361402f565b8261114b565b34610295576040600319360112610295576111b3613f5c565b60243590811515809203610295576001600160a01b031690811561122257335f52600560205260405f20825f5260205260405f2060ff1981541660ff83161790556040519081527f17307eab39ab6107e8899845ad3d59bd9653f200f220920489ca2b5937696c3160203392a3005b507f5b08ba18000000000000000000000000000000000000000000000000000000005f5260045260245ffd5b346102955761125c3661412a565b9096959193929461126b614aea565b61127487614b23565b6001600160a01b03851615611584578142116105235760408051602081018981526001600160a01b038088169383019390935260608201899052918716608082015260a081018a90523360c082015260e08101939093526112e38361010081015b03601f19810185528461402f565b875f52600960205260405f20925190209282549160428360a01c9560405160208101917f5fd4fde1cb878824d6e96eec97296c9e818ad783a10b7c9ede6e7f27eca7b06b83528c60408301528860608301526003608083015260a082015260a0815261135060c08261402f565b51902061135b615788565b90604051917f1901000000000000000000000000000000000000000000000000000000000000835260028301526022820152208092036104fb576113ad926103fe6001600160a01b03939284936158a4565b169116036104d3576bffffffffffffffffffffffff82146104a65760016113fb92016001600160a01b0373ffffffffffffffffffffffffffffffffffffffff1983549260a01b169116179055565b604051606082901b7fffffffffffffffffffffffffffffffffffffffff0000000000000000000000001660208201908152603482018590529061144b81605481015b03601f19810183528261402f565b51902090845f52601260205260405f20825f5260205260ff60405f2054161561155c576114bc6001600160a01b0392865f52601160205260405f20815f526020525f6001604082208281550155865f52601260205260405f20815f5260205260405f2060ff19815416905586615588565b1691823b15610295576040517f42842e0e0000000000000000000000000000000000000000000000000000000081523060048201526001600160a01b039290921660248301526044820152905f908290606490829084905af18015610abb5761154c575b507f06f0d08c652a32f118304f762c3f388848b7653f7df433f67a48aa734675f0135f80a36001600a55005b5f6115569161402f565b82611520565b7ff070cb6f000000000000000000000000000000000000000000000000000000005f5260045ffd5b7fd92e233d000000000000000000000000000000000000000000000000000000005f5260045ffd5b34610295575f600319360112610295576040515f6001546115cc816142e3565b808452906001811690811561165257506001146115f4575b610b2383610b0f8185038261402f565b60015f9081527fb10e2d527612073b26eecdfd717e6a320cf44b4afac2b0732d9fcbe2b7fa0cf6939250905b80821061163857509091508101602001610b0f6115e4565b919260018160209254838588010152019101909291611620565b60ff191660208086019190915291151560051b84019091019150610b0f90506115e4565b346102955760206003193601126102955760043567ffffffffffffffff8111610295576116a79036906004016140a4565b6116af615548565b60ff6016541661186c57805167ffffffffffffffff811161183f576116d56015546142e3565b601f81116117a8575b50602091601f821160011461172a5761170c925f918361171f575b50505f198260011b9260031b1c19161790565b6015555b6016805460ff19166001179055005b0151905083806116f9565b601f1982169260155f527f55f448fdea98c4d29eb340757ef0a66cd03dbb9538908a6a81d96026b71ec475915f5b85811061179057508360019510611778575b505050811b01601555611710565b01515f1960f88460031b161c1916905582808061176a565b91926020600181928685015181550194019201611758565b6118119060155f52601f830160051c7f55f448fdea98c4d29eb340757ef0a66cd03dbb9538908a6a81d96026b71ec475019060208410611817575b601f0160051c7f55f448fdea98c4d29eb340757ef0a66cd03dbb9538908a6a81d96026b71ec47501906146d4565b826116de565b7f55f448fdea98c4d29eb340757ef0a66cd03dbb9538908a6a81d96026b71ec47591506117e3565b7f4e487b71000000000000000000000000000000000000000000000000000000005f52604160045260245ffd5b7fe8cba6d8000000000000000000000000000000000000000000000000000000005f5260045ffd5b34610295576101606003193601126102955760443567ffffffffffffffff8111610295576118c69036906004016140a4565b60643560843567ffffffffffffffff8111610295576118e9903690600401613fb4565b909160a43567ffffffffffffffff81116102955761190b903690600401613fb4565b9360c43567ffffffffffffffff81116102955761192c903690600401613fb4565b92909160e43567ffffffffffffffff81116102955761194f903690600401613fb4565b96909761010435966001600160a01b0388169081890361029557610124359b6101443561197a614aea565b611985600435614b23565b83156115845780421161052357848614801590611ee4575b611ebc5782868f8f938f948b958f8f908f8d6040519a8b9960208b019b6004358d5260408c015260608b0161014090526101608b01906119dc9261472f565b90898203601f190160808b01526119f29261477c565b90878203601f190160a0890152611a089261472f565b90858203601f190160c0870152611a1e9261477c565b918860e08501526101008401523361012084015261014083015203601f1981018352611a4a908361402f565b6004355f52600960205260405f2091519020918154908160a01c9360405160208101917f5fd4fde1cb878824d6e96eec97296c9e818ad783a10b7c9ede6e7f27eca7b06b83526004356040830152866060830152608082016006905260a082015260a08152611aba60c08261402f565b519020611ac5615788565b90604051917f1901000000000000000000000000000000000000000000000000000000000000835260028301526022820152604290209081602435036104fb57611b1d926103fe6001600160a01b03939284936158a4565b169116036104d3576bffffffffffffffffffffffff82146104a6576001611b6b92016001600160a01b0373ffffffffffffffffffffffffffffffffffffffff1983549260a01b169116179055565b80611e1e575b50506004355f52600c60205260405f20915f5b818110611d41575050505050505f5b828110611bc957866004357f06f0d08c652a32f118304f762c3f388848b7653f7df433f67a48aa734675f0135f80a36001600a55005b611bdc611bd78285856147b9565b6147c9565b61143d611c2f611bed84898b6147b9565b3560405192839160208301958690917fffffffffffffffffffffffffffffffffffffffff00000000000000000000000060349360601b16825260148201520190565b5190206004355f52601260205260405f20815f5260205260ff60405f2054161561155c57611c9f906004355f52601160205260405f20815f526020525f60016040822082815501556004355f52601260205260405f20815f5260205260405f2060ff198154169055600435615588565b6001600160a01b03611cb5611bd78386866147b9565b1690611cc28187896147b9565b3591803b15610295576040517f42842e0e0000000000000000000000000000000000000000000000000000000081523060048201526001600160a01b038716602482015260448101939093525f908390606490829084905af1918215610abb57600192611d31575b5001611b93565b5f611d3b9161402f565b88611d2a565b611d4f611bd78284886147b9565b90611d5b8185896147b9565b356001600160a01b0383165f528560205260405f205490808210611df6576001600160a01b038481165f9081526020899052604090208284039055600194611dae938e9291908414611db4575b166154f3565b01611b84565b8181165f52896020525f6040812055611dcf81600435614c6a565b6004355f52600e60205260405f208282165f5260205260405f2060ff198154169055611da8565b7fe4455cae000000000000000000000000000000000000000000000000000000005f5260045ffd5b6004355f52600b60205260405f205491818310611e94575f82819492611e46839584956143b6565b6004358452600b60205260408420555af1611e5f6143c3565b5015611e6c578a80611b71565b7f6d963f88000000000000000000000000000000000000000000000000000000005f5260045ffd5b7ffcc00b30000000000000000000000000000000000000000000000000000000005f5260045ffd5b7f469224f0000000000000000000000000000000000000000000000000000000005f5260045ffd5b508b8a141561199d565b34610295575f6003193601126102955760206001600160a01b0360065416604051908152f35b34610295575f60031936011261029557611fcc611f507f00000000000000000000000000000000000000000000000000000000000000006156df565b611f797f0000000000000000000000000000000000000000000000000000000000000000615751565b6020611fda60405192611f8c838561402f565b5f84525f3681376040519586957f0f00000000000000000000000000000000000000000000000000000000000000875260e08588015260e0870190613f37565b908582036040870152613f37565b4660608501523060808501525f60a085015283810360c08501528180845192838152019301915f5b82811061201157505050500390f35b835185528695509381019392810192600101612002565b3461029557604060031936011261029557612041613f72565b6004355f52600c6020526001600160a01b0360405f2091165f52602052602060405f2054604051908152f35b346102955761207b36614195565b939291612086614aea565b336001600160a01b03851603612185576001600160a01b0383161561215d576001600160a01b03811615612135576120da6120e0936120d460145480976120cc826146ea565b601455614e93565b85614fc6565b83615316565b7f032bc66be43dbccb7487781d168eb7bda224628a3b2c3388bdf69b532a3a16116020604051838152a17f4fd35fc7cab0142e2b2e81414dbd72945bc0ae0131a46c03bd8c7073234817805f80a36001600a55005b7f6b093aad000000000000000000000000000000000000000000000000000000005f5260045ffd5b7ffbd849c6000000000000000000000000000000000000000000000000000000005f5260045ffd5b7fbaee6e49000000000000000000000000000000000000000000000000000000005f5260045ffd5b34610295576121bb36614195565b9392916121c6614aea565b336001600160a01b03851603612185576001600160a01b0383161561215d576001600160a01b03811615612135578115612218576122126120e0936120d460145480976120cc826146ea565b8361503d565b7f1f2a2005000000000000000000000000000000000000000000000000000000005f5260045ffd5b34610295575f60031936011261029557612258615548565b5f6001600160a01b0360065473ffffffffffffffffffffffffffffffffffffffff198116600655167f8be0079c531659141344cd1fd0a4f28419497f9722a3daafe3b4186f6b6457e08280a3005b34610295576020600319360112610295576001600160a01b036122c7613f5c565b1680156122e4575f526003602052602060405f2054604051908152f35b7f89c62b64000000000000000000000000000000000000000000000000000000005f525f60045260245ffd5b604060031936011261029557600435612327614aea565b61233081614b23565b341561221857805f52600b60205260405f2061234d3482546143f2565b9055602435907f0131d4fe789c9eeb7c2dd7e32aa9393d395bef62f1f67e0ba2a76d33c6dcf5ee5f80a36001600a55005b3461029557602060031936011261029557602061239c600435614ac9565b6001600160a01b0360405191168152f35b34610295576123bb3661412a565b909695919293946123ca614aea565b6123d387614b23565b6001600160a01b03841615611584578142116105235760408051602081018981526001600160a01b03808a169383019390935260608201889052918616608082015260a081018a90523360c082015260e08101939093526124388361010081016112d5565b875f52600960205260405f20925190209282549160428360a01c9560405160208101917f5fd4fde1cb878824d6e96eec97296c9e818ad783a10b7c9ede6e7f27eca7b06b83528c60408301528860608301526002608083015260a082015260a081526124a560c08261402f565b5190206124b0615788565b90604051917f1901000000000000000000000000000000000000000000000000000000000000835260028301526022820152208092036104fb57612502926103fe6001600160a01b03939284936158a4565b169116036104d3576bffffffffffffffffffffffff82146104a657600161255092016001600160a01b0373ffffffffffffffffffffffffffffffffffffffff1983549260a01b169116179055565b835f52600c60205260405f20926001600160a01b0381165f528360205260405f205490838210611df6576001600160a01b038181165f90815260208790526040902085840390556125ab95909285146125d6575b50166154f3565b7f06f0d08c652a32f118304f762c3f388848b7653f7df433f67a48aa734675f0135f80a36001600a55005b8282165f526020525f60408120556125ee8187614c6a565b855f52600e60205260405f208282165f5260205260405f2060ff198154169055876125a4565b606060031936011261029557612628613f5c565b612630613f72565b612638614aea565b336001600160a01b03831603612185576001600160a01b0381161561215d573415612218576126789061267260145480946120cc826146ea565b82614fc6565b805f52600b60205260405f2061268f3482546143f2565b90557f032bc66be43dbccb7487781d168eb7bda224628a3b2c3388bdf69b532a3a16116020604051838152a1604435907f4fd35fc7cab0142e2b2e81414dbd72945bc0ae0131a46c03bd8c7073234817805f80a36001600a55005b346102955760e06003193601126102955760043560443567ffffffffffffffff81116102955761271e9036906004016140a4565b9060643561272a613f9e565b9060a435936001600160a01b0360c43593612743614aea565b61274c86614b23565b1692831561158457804211610523576040519060208201908682528460408401528560608401528760808401523360a084015260c083015260c0825261279360e08361402f565b855f52600960205260405f20915190209181549060428260a01c9460405160208101917f5fd4fde1cb878824d6e96eec97296c9e818ad783a10b7c9ede6e7f27eca7b06b83528a60408301528760608301526001608083015260a082015260a0815261280060c08261402f565b51902061280b615788565b90604051917f1901000000000000000000000000000000000000000000000000000000000000835260028301526022820152209081602435036104fb57612860926103fe6001600160a01b03939284936158a4565b169116036104d3576bffffffffffffffffffffffff82146104a65760016128ae92016001600160a01b0373ffffffffffffffffffffffffffffffffffffffff1983549260a01b169116179055565b825f52600b60205260405f205491818310611e94575f828194926128d4839584956143b6565b878452600b60205260408420555af16128eb6143c3565b5015611e6c577f06f0d08c652a32f118304f762c3f388848b7653f7df433f67a48aa734675f0135f80a36001600a55005b346102955761292a366140fc565b929190612935614aea565b61293e83614b23565b6001600160a01b03821615611584576129579183615316565b7f0131d4fe789c9eeb7c2dd7e32aa9393d395bef62f1f67e0ba2a76d33c6dcf5ee5f80a36001600a55005b34610295576020600319360112610295576004355f52600b602052602060405f2054604051908152f35b346102955760206003193601126102955761003e600435615252565b34610295576040600319360112610295576129e1613f72565b6004355f52600e6020526001600160a01b0360405f2091165f52602052602060ff60405f2054166040519015158152f35b3461029557612a20366140fc565b929190612a2b614aea565b612a3483614b23565b6001600160a01b0382161561158457801561221857612957918361503d565b346102955761003e612a64366140c2565b9060405192612a7460208561402f565b5f84526147dd565b34610295576020600319360112610295576004356040517f6352211e0000000000000000000000000000000000000000000000000000000081528160048201526020816024816001600160a01b037f0000000000000000000000000000000000000000000000000000000000000000165afa908115610abb575f91612b26575b506001600160a01b0333911603610a64575f526009602052602060405f205460a01c604051908152f35b612b3f915060203d602011610ab457610aa6818361402f565b82612afc565b61010060031936011261029557612b5a613f5c565b612b62613f72565b60443560643567ffffffffffffffff811161029557612b85903690600401613fb4565b60849291923567ffffffffffffffff811161029557612ba8903690600401613fb4565b60a49291923567ffffffffffffffff811161029557612bcb903690600401613fb4565b93909260c43567ffffffffffffffff811161029557612bee903690600401613fb4565b979096612bf9614aea565b336001600160a01b038c1603612185576001600160a01b038a161561215d57848314801590612cfb575b612cd357803403612cab57612c4c612c529a612c46601454809e6120cc826146ea565b8c614fc6565b8a614bc1565b7f032bc66be43dbccb7487781d168eb7bda224628a3b2c3388bdf69b532a3a16116020604051838152a160e435907f4fd35fc7cab0142e2b2e81414dbd72945bc0ae0131a46c03bd8c7073234817805f80a36001600a55005b7f42c0a68f000000000000000000000000000000000000000000000000000000005f5260045ffd5b7fa24a13a6000000000000000000000000000000000000000000000000000000005f5260045ffd5b5088871415612c23565b346102955760c06003193601126102955760043560443567ffffffffffffffff811161029557612d399036906004016140a4565b60643567ffffffffffffffff811161029557612d599036906004016140a4565b916084359160a435612d69614aea565b825f5260026020526001600160a01b0360405f205416156110a357612d8d83614ac9565b6001600160a01b0333911603610a64578042116105235760405190612de882602081019286845260a06040830152612dc860c083018a613f37565b9088606084015233608084015260a083015203601f19810184528361402f565b835f52600960205260405f20915190209181549060428260a01c9460405160208101917f5fd4fde1cb878824d6e96eec97296c9e818ad783a10b7c9ede6e7f27eca7b06b83528860408301528760608301526005608083015260a082015260a08152612e5560c08261402f565b519020612e60615788565b90604051917f1901000000000000000000000000000000000000000000000000000000000000835260028301526022820152209081602435036104fb57612eb5926103fe6001600160a01b03939284936158a4565b169116036104d3576bffffffffffffffffffffffff82146104a6576001612f0392016001600160a01b0373ffffffffffffffffffffffffffffffffffffffff1983549260a01b169116179055565b805f52601760205260405f20835167ffffffffffffffff811161183f57612f2a82546142e3565b601f8111612ffe575b50602094601f8211600114612f9d57612f649293949582915f92612f925750505f198260011b9260031b1c19161790565b90555b7fe6b029312a4fe660620d9aac173bc78279912103135fdd45fcb95684efee4bd65f80a36001600a55005b0151905086806116f9565b601f19821695835f52805f20915f5b888110612fe657508360019596979810612fce575b505050811b019055612f67565b01515f1960f88460031b161c19169055858080612fc1565b91926020600181928685015181550194019201612fac565b61302990835f5260205f20601f840160051c8101916020851061302f575b601f0160051c01906146d4565b85612f33565b909150819061301c565b346102955761003e61304a366140c2565b9161448a565b34610295576101606003193601126102955760043560443567ffffffffffffffff8111610295576130859036906004016140a4565b9061308e613f88565b91613097613f9e565b9060a4359160c4359260e4356001600160a01b03811691828203610295576101043567ffffffffffffffff8111610295576130d6903690600401613fe5565b91610124359961014435946130e9614aea565b6130f28b614b23565b85421015610523578615611584578215612218576001600160a01b038816986001600160a01b038316968a8814613acd578c888f928d938f613135368d8d61406e565b6020815191012090604051966020880195878752604089015260608801528a608088015260a08701528d60c087015260e086015261010085015233610120850152610140840152610140835261318d6101608461402f565b815f52600960205260405f20925190209260428354928360a01c956040519060208201927f5fd4fde1cb878824d6e96eec97296c9e818ad783a10b7c9ede6e7f27eca7b06b845260408301528760608301526007608083015260a082015260a081526131fa60c08261402f565b519020613205615788565b90604051917f1901000000000000000000000000000000000000000000000000000000000000835260028301526022820152209081602435036104fb5761325a926103fe6001600160a01b03939284936158a4565b169116036104d3576bffffffffffffffffffffffff82146104a65760016132a892016001600160a01b0373ffffffffffffffffffffffffffffffffffffffff1983549260a01b169116179055565b8515938415613a55578b5f52600b60205260405f2054848110611e9457846132cf916143b6565b8c5f52600b60205260405f20555b84156139d95747915b8a1598891561395b5747975b87159384613865575b61c3505a1115613856575a907fffffffffffffffffffffffffffffffffffffffffffffffffffffffffffff3cb082019182116104a6575f928392915b8b841461384e57868b915b83604051948592833781018681520393f19261335c6143c3565b506137b7575b50501561367e57831561372d5761337a9047906143b6565b935b86156136a65761338c90476143b6565b985b891561367e5789106136565789921561351e57509091818111156134e2576133d97f260ac65ac41e6ea2416d18ddc4d2fa8175b7feaa9819898b16b43c0ea139fbce926020926143b6565b604051908152a35b1561342d575050815f52600b6020526133ff60405f209182546143f2565b90555b7ffa44886bdf29041e45bda3924c838d5a6ed302e301c579f52acb4c3aa9aef77a5f80a36001600a55005b835f52600e60205260405f20825f5260205260ff60405f20541615613476575b50825f52600c60205260405f20905f5260205261346f60405f209182546143f2565b9055613402565b835f52600e60205260405f20825f5260205260405f20600160ff19825416179055835f52600d60205260405f205490600182018092116104a6576134dc91855f52600f60205260405f20845f5260205260405f2055845f52600d60205260405f20614441565b8461344d565b819350809250106134f5575b50506133e1565b6134fe916143b6565b855f52600b60205261351560405f209182546143f2565b905586806134ee565b825f52600c60205260405f208285115f1461356f5750506135636020917f260ac65ac41e6ea2416d18ddc4d2fa8175b7feaa9819898b16b43c0ea139fbce93946143b6565b604051908152a36133e1565b925092818110613584575b50505050506133e1565b61358d916143b6565b835f52816020526135a360405f209182546143f2565b9055875f52600e60205260405f20835f5260205260ff60405f205416159081613641575b506135d5575b80808061357a565b865f52600e60205260405f20825f5260205260405f20600160ff19825416179055865f52600d60205260405f2054600181018091116104a65761363a92885f52600f60205260405f20905f5260205260405f2055865f52600d60205260405f20614441565b86806135cd565b9050825f5260205260405f20541515896135c7565b7f8199f5f3000000000000000000000000000000000000000000000000000000005f5260045ffd5b7f03a40bc4000000000000000000000000000000000000000000000000000000005f5260045ffd5b604051907f70a082310000000000000000000000000000000000000000000000000000000082523060048301526020826024818d5afa8015610abb575f906136f9575b6136f392506143b6565b9861338e565b506020823d602011613725575b816137136020938361402f565b81010312610295576136f391516136e9565b3d9150613706565b604051907f70a082310000000000000000000000000000000000000000000000000000000082523060048301526020826024818a5afa908115610abb575f91613781575b61377b92506143b6565b9361337c565b90506020823d6020116137af575b8161379c6020938361402f565b810103126102955761377b915190613771565b3d915061378f565b604051907fdd62ed3e00000000000000000000000000000000000000000000000000000000825230600483015260248201526020816044818c5afa908115610abb575f9161381c575b5061380c575b80613362565b6138169088614dae565b8d613806565b90506020813d602011613846575b816138376020938361402f565b8101031261029557518f613800565b3d915061382a565b868491613342565b5f919082915a60011c91613337565b61386f848c614dae565b6040517f095ea7b30000000000000000000000000000000000000000000000000000000060208083019182526001600160a01b038716602484015260448084018c90528352905f908e906138c460648661402f565b828551925af15f513d8261393f575b5050156138e1575b506132fb565b613939906139338d604051907f095ea7b30000000000000000000000000000000000000000000000000000000060208301528760248301525f60448301526044825261392e60648361402f565b615672565b8c615672565b5f6138db565b90915061395357508b3b15155b5f806138d3565b60011461394c565b602460208d604051928380927f70a082310000000000000000000000000000000000000000000000000000000082523060048301525afa908115610abb575f916139a7575b50976132f2565b90506020813d6020116139d1575b816139c26020938361402f565b8101031261029557515f6139a0565b3d91506139b5565b6040517f70a082310000000000000000000000000000000000000000000000000000000081523060048201526020816024818b5afa908115610abb575f91613a23575b50916132e6565b90506020813d602011613a4d575b81613a3e6020938361402f565b8101031261029557518e613a1c565b3d9150613a31565b8b5f52600c60205260405f20875f528060205260405f2054858110611df6575f89815260208390526040902086820390558514613a93575b506132dd565b875f526020525f6040812055613aa9838d614c6a565b8b5f52600e60205260405f20875f5260205260405f2060ff1981541690558d613a8d565b7f11157667000000000000000000000000000000000000000000000000000000005f5260045ffd5b3461029557604060031936011261029557613b0e613f72565b6004355f52600f6020526001600160a01b0360405f2091165f52602052602060405f2054604051908152f35b3461029557608060031936011261029557613b53613f5c565b50613b5c613f72565b5060643567ffffffffffffffff811161029557613b7d903690600401613fe5565b505060206040517f150b7a02000000000000000000000000000000000000000000000000000000008152f35b60e06003193601126102955760043560243560443567ffffffffffffffff811161029557613bdb903690600401613fb4565b9060643567ffffffffffffffff811161029557613bfc903690600401613fb4565b9060843567ffffffffffffffff811161029557613c1d903690600401613fb4565b92909160a43567ffffffffffffffff811161029557613c40903690600401613fb4565b969095613c4b614aea565b881580613cef575b80613ce7575b61221857613c668a614b23565b883403613cbf57838214801590613cb5575b611ebc57613c86988a614bc1565b60c435907f0131d4fe789c9eeb7c2dd7e32aa9393d395bef62f1f67e0ba2a76d33c6dcf5ee5f80a36001600a55005b5087861415613c78565b7fcfb73638000000000000000000000000000000000000000000000000000000005f5260045ffd5b508515613c59565b508115613c53565b3461029557604060031936011261029557613d10613f5c565b602435613d1c81614ac9565b33151580613df6575b80613dc3575b613d975781906001600160a01b0380851691167f8c5be1e5ebec7d5bd14f71427d1e84f3dd0314c0f7b2291e5b200ac8c7c3b9255f80a45f5260046020526001600160a01b0360405f20911673ffffffffffffffffffffffffffffffffffffffff198254161790555f80f35b7fa9fbf51f000000000000000000000000000000000000000000000000000000005f523360045260245ffd5b506001600160a01b0381165f52600560205260405f206001600160a01b0333165f5260205260ff60405f20541615613d2b565b50336001600160a01b0382161415613d25565b3461029557602060031936011261029557600435613e2681614ac9565b505f52600460205260206001600160a01b0360405f205416604051908152f35b34610295575f600319360112610295576040515f5f54613e65816142e3565b80845290600181169081156116525750600114613e8c57610b2383610b0f8185038261402f565b5f8080527f290decd9548b62a8d60345a988386fc84ba6bc95484008f6362f93160ef3e563939250905b808210613ece57509091508101602001610b0f6115e4565b919260018160209254838588010152019101909291613eb6565b3461029557602060031936011261029557600435907fffffffff000000000000000000000000000000000000000000000000000000008216820361029557613f316020926141e7565b15158152f35b90601f19601f602080948051918291828752018686015e5f8582860101520116010190565b600435906001600160a01b038216820361029557565b602435906001600160a01b038216820361029557565b606435906001600160a01b038216820361029557565b608435906001600160a01b038216820361029557565b9181601f840112156102955782359167ffffffffffffffff8311610295576020808501948460051b01011161029557565b9181601f840112156102955782359167ffffffffffffffff8311610295576020838186019501011161029557565b6040810190811067ffffffffffffffff82111761183f57604052565b90601f601f19910116810190811067ffffffffffffffff82111761183f57604052565b67ffffffffffffffff811161183f57601f01601f191660200190565b92919261407a82614052565b91614088604051938461402f565b829481845281830111610295578281602093845f960137010152565b9080601f83011215610295578160206140bf9335910161406e565b90565b6003196060910112610295576004356001600160a01b038116810361029557906024356001600160a01b0381168103610295579060443590565b600319608091011261029557600435906024356001600160a01b038116810361029557906044359060643590565b6101006003198201126102955760043591602435916044359067ffffffffffffffff82116102955761415e916004016140a4565b906064356001600160a01b038116810361029557906084359060a4356001600160a01b0381168103610295579060c4359060e43590565b60031960a0910112610295576004356001600160a01b038116810361029557906024356001600160a01b038116810361029557906044356001600160a01b038116810361029557906064359060843590565b7fffffffff00000000000000000000000000000000000000000000000000000000167fb45a3c0e0000000000000000000000000000000000000000000000000000000081146142dd577f150b7a020000000000000000000000000000000000000000000000000000000081146142dd577f80ac58cd0000000000000000000000000000000000000000000000000000000081149081156142b3575b811561428c575090565b7f01ffc9a70000000000000000000000000000000000000000000000000000000091501490565b7f5b5e139f0000000000000000000000000000000000000000000000000000000081149150614282565b50600190565b90600182811c9216801561432a575b60208310146142fd57565b7f4e487b71000000000000000000000000000000000000000000000000000000005f52602260045260245ffd5b91607f16916142f2565b5f9291815491614343836142e3565b8083529260018116908115614398575060011461435f57505050565b5f9081526020812093945091925b83831061437e575060209250010190565b60018160209294939454838587010152019101919061436d565b9050602094955060ff1991509291921683830152151560051b010190565b919082039182116104a657565b3d156143ed573d906143d482614052565b916143e2604051938461402f565b82523d5f602084013e565b606090565b919082018092116104a657565b8054821015614414575f5260205f2001905f90565b7f4e487b71000000000000000000000000000000000000000000000000000000005f52603260045260245ffd5b908154916801000000000000000083101561183f5782614469916001614488950181556143ff565b9091906001600160a01b038084549260031b9316831b921b1916179055565b565b91906001600160a01b031680156146a857815f5260026020526001600160a01b0360405f2054161515806146a0575b610fb457815f5260026020526001600160a01b0360405f205416928233151592836145d2575b6001600160a01b0393508561458e575b805f52600360205260405f2060018154019055815f52600260205260405f208173ffffffffffffffffffffffffffffffffffffffff19825416179055857fddf252ad1be2c89b69c2b068fc378daa952ba7f163c4a11628f55a4df523b3ef5f80a41680830361455d57505050565b7f64283d7b000000000000000000000000000000000000000000000000000000005f5260045260245260445260645ffd5b6145ba825f52600460205260405f2073ffffffffffffffffffffffffffffffffffffffff198154169055565b855f52600360205260405f205f1981540190556144ef565b9192905080614649575b156145e9578282916144df565b828461461a577f7e273289000000000000000000000000000000000000000000000000000000005f5260045260245ffd5b7f177e802f000000000000000000000000000000000000000000000000000000005f523360045260245260445ffd5b503384148015614677575b806145dc5750825f526004602052336001600160a01b0360405f205416146145dc565b50835f52600560205260405f206001600160a01b0333165f5260205260ff60405f205416614654565b5060016144b9565b7f64a0ae92000000000000000000000000000000000000000000000000000000005f525f60045260245ffd5b8181106146df575050565b5f81556001016146d4565b5f1981146104a65760010190565b9081602091031261029557516001600160a01b03811681036102955790565b67ffffffffffffffff811161183f5760051b60200190565b916020908281520191905f905b8082106147495750505090565b9091928335906001600160a01b038216820361029557602080916001600160a01b0360019416815201940192019061473c565b90918281527f07ffffffffffffffffffffffffffffffffffffffffffffffffffffffffffffff83116102955760209260051b809284830137010190565b91908110156144145760051b0190565b356001600160a01b03811681036102955790565b906147e983828461448a565b803b6147f6575b50505050565b6020916148556001600160a01b038093169560405195869485947f150b7a020000000000000000000000000000000000000000000000000000000086523360048701521660248501526044840152608060648401526084830190613f37565b03815f865af15f9181614928575b506148aa57506148716143c3565b805190816148a557827f64a0ae92000000000000000000000000000000000000000000000000000000005f5260045260245ffd5b602001fd5b7fffffffff000000000000000000000000000000000000000000000000000000007f150b7a02000000000000000000000000000000000000000000000000000000009116036148fd57505f8080806147f0565b7f64a0ae92000000000000000000000000000000000000000000000000000000005f5260045260245ffd5b9091506020813d60201161497d575b816149446020938361402f565b8101031261029557517fffffffff000000000000000000000000000000000000000000000000000000008116810361029557905f614863565b3d9150614937565b805f5260026020526001600160a01b0360405f205416156110a3575f5260176020526149bd6149c460405f2060405192838092614334565b038261402f565b80516140bf57506149d66015546142e3565b614a02577f8714d516000000000000000000000000000000000000000000000000000000005f5260045ffd5b604051601554815f614a13836142e3565b8083529260018116908115614a965750600114614a37575b6140bf9250038261402f565b5060155f90815290917f55f448fdea98c4d29eb340757ef0a66cd03dbb9538908a6a81d96026b71ec4755b818310614a7a5750509060206140bf92820101614a2b565b6020919350806001915483858801015201910190918392614a62565b602092506140bf94915060ff191682840152151560051b820101614a2b565b80518210156144145760209160051b010190565b805f5260026020526001600160a01b0360405f205416908115610f02575090565b6002600a5414614afb576002600a55565b7f3ee5aeb5000000000000000000000000000000000000000000000000000000005f5260045ffd5b604051907f6352211e00000000000000000000000000000000000000000000000000000000825260048201526020816024816001600160a01b037f0000000000000000000000000000000000000000000000000000000000000000165afa908115610abb575f91614ba2575b506001600160a01b0333911603610a6457565b614bbb915060203d602011610ab457610aa6818361402f565b5f614b8f565b9796949193929098959880614c4b575b505f5b818110614c1e5750505050505f5b818110614bf157505050505050565b80614c18614c05611bd7600194868b6147b9565b614c108387896147b9565b359088615316565b01614be2565b80614c45614c32611bd7600194868a6147b9565b614c3d8387896147b9565b35908c61503d565b01614bd4565b885f52600b602052614c6260405f209182546143f2565b90555f614bd1565b805f52600f60205260405f206001600160a01b0383165f5260205260405f20548015614da957815f52600d60205260405f2054808203614d2c575b5050805f52600d60205260405f2080548015614cff575f190190614cc982826143ff565b6001600160a01b0382549160031b1b19169055555f52600f6020526001600160a01b0360405f2091165f526020525f6040812055565b7f4e487b71000000000000000000000000000000000000000000000000000000005f52603160045260245ffd5b825f52600d60205260405f205f1982019182116104a6576001600160a01b0391614d55916143ff565b90549060031b1c16825f52600d60205260405f205f1983018381116104a6576144698391614d82936143ff565b825f52600f6020526001600160a01b0360405f2091165f5260205260405f20555f80614ca5565b505050565b6040519060205f6001600160a01b03828501957f095ea7b3000000000000000000000000000000000000000000000000000000008752169485602486015281604486015260448552614e0160648661402f565b84519082855af15f513d82614e6e575b505015614e1d57505050565b61392e61448893604051907f095ea7b300000000000000000000000000000000000000000000000000000000602083015260248201525f604482015260448152614e6860648261402f565b82615672565b909150614e8b57506001600160a01b0381163b15155b5f80614e11565b600114614e84565b6001600160a01b03169081156146a857805f5260026020526001600160a01b0360405f205416151580614fbe575b610fb457805f5260026020526001600160a01b0360405f205416908115159283614f7a575b805f52600360205260405f2060018154019055815f52600260205260405f208173ffffffffffffffffffffffffffffffffffffffff19825416179055827fddf252ad1be2c89b69c2b068fc378daa952ba7f163c4a11628f55a4df523b3ef5f80a450614f4e57565b7f73c6ac6e000000000000000000000000000000000000000000000000000000005f525f60045260245ffd5b614fa6825f52600460205260405f2073ffffffffffffffffffffffffffffffffffffffff198154169055565b825f52600360205260405f205f198154019055614ee6565b506001614ec1565b90815f5260096020526001600160a01b0360405f205416615015575f918252600960205260409091206001600160a01b0390911674010000000000000000000000000000000000000000179055565b7f0dc149f0000000000000000000000000000000000000000000000000000000005f5260045ffd5b6040517f70a0823100000000000000000000000000000000000000000000000000000000815230600482015291926001600160a01b0384169290602082602481875afa918215610abb575f9261521c575b506040517f23b872dd00000000000000000000000000000000000000000000000000000000602082015233602482015230604482015260648101919091526150e3906150dd816084810161143d565b84615672565b604051907f70a08231000000000000000000000000000000000000000000000000000000008252306004830152602082602481875afa8015610abb575f906151e8575b61513092506143b6565b92831561221857815f52600e60205260405f20835f5260205260ff60405f2054161561517c575b505f52600c60205260405f20905f5260205261517860405f209182546143f2565b9055565b815f52600e60205260405f20835f5260205260405f20600160ff19825416179055815f52600d60205260405f205490600182018092116104a6576151e291835f52600f60205260405f20855f5260205260405f2055825f52600d60205260405f20614441565b5f615157565b506020823d602011615214575b816152026020938361402f565b81010312610295576151309151615126565b3d91506151f5565b9091506020813d60201161524a575b816152386020938361402f565b8101031261029557519061143d61508e565b3d915061522b565b604051907f6352211e00000000000000000000000000000000000000000000000000000000825260048201526020816024816001600160a01b037f0000000000000000000000000000000000000000000000000000000000000000165afa5f91816152f5575b506152e5577fb1d04f08000000000000000000000000000000000000000000000000000000005f5260045ffd5b6001600160a01b0316156110a357565b61530f91925060203d602011610ab457610aa6818361402f565b905f6152b8565b90604051602081019061535e8161143d87868690917fffffffffffffffffffffffffffffffffffffffff00000000000000000000000060349360601b16825260148201520190565b51902091805f52601260205260405f20835f5260205260ff60405f2054161561544e575b6001906001600160a01b036040519361539a85614013565b169384845260208401918683525f52601160205260405f20905f526020526001600160a01b038060405f209451161673ffffffffffffffffffffffffffffffffffffffff1984541617835551910155803b15610295576040517f42842e0e00000000000000000000000000000000000000000000000000000000815233600482015230602482015260448101929092525f908290606490829084905af18015610abb576154445750565b5f6144889161402f565b805f52601260205260405f20835f5260205260405f20600160ff19825416179055805f52601060205260405f2054600181018091116104a657815f52601360205260405f20845f5260205260405f2055805f52601060205260405f20908154916801000000000000000083101561183f576154ea6154d4848793600180970181556143ff565b81939154905f199060031b92831b921b19161790565b90559050615382565b6040517fa9059cbb0000000000000000000000000000000000000000000000000000000060208201526001600160a01b039290921660248301526044808301939093529181526144889161392e60648361402f565b6001600160a01b0360065416330361555c57565b7f118cdaa7000000000000000000000000000000000000000000000000000000005f523360045260245ffd5b805f52601360205260405f20825f5260205260405f20548015614da957815f52601060205260405f2054808203615605575b5050805f52601060205260405f2080548015614cff575f1901906155de82826143ff565b5f1982549160031b1b19169055555f52601360205260405f20905f526020525f6040812055565b825f52601060205260405f20905f1981019081116104a657615626916143ff565b90549060031b1c825f52601060205260405f205f1983018381116104a6576154d46156529184936143ff565b9055825f52601360205260405f20905f5260205260405f20555f806155ba565b905f602091828151910182855af115610abb575f513d6156d657506001600160a01b0381163b155b6156a15750565b6001600160a01b03907f5274afe7000000000000000000000000000000000000000000000000000000005f521660045260245ffd5b6001141561569a565b60ff811461573e5760ff811690601f8211615716576040519161570360408461402f565b6020808452838101919036833783525290565b7fb3512b0c000000000000000000000000000000000000000000000000000000005f5260045ffd5b506040516140bf816149bd816007614334565b60ff81146157755760ff811690601f8211615716576040519161570360408461402f565b506040516140bf816149bd816008614334565b6001600160a01b037f00000000000000000000000000000000000000000000000000000000000000001630148061587b575b156157e3577f000000000000000000000000000000000000000000000000000000000000000090565b60405160208101907f8b73c3c69bb8fe3d512ecc4cf759cc79239f7b179b0ffacaa9a75d522b39400f82527f000000000000000000000000000000000000000000000000000000000000000060408201527f000000000000000000000000000000000000000000000000000000000000000060608201524660808201523060a082015260a0815261587560c08261402f565b51902090565b507f000000000000000000000000000000000000000000000000000000000000000046146157ba565b81519190604183036158d4576158cd9250602082015190606060408401519301515f1a906159b6565b9192909190565b50505f9160029190565b600481101561598957806158f0575050565b60018103615920577ff645eedf000000000000000000000000000000000000000000000000000000005f5260045ffd5b6002810361595457507ffce698f7000000000000000000000000000000000000000000000000000000005f5260045260245ffd5b60031461595e5750565b7fd78bce0c000000000000000000000000000000000000000000000000000000005f5260045260245ffd5b7f4e487b71000000000000000000000000000000000000000000000000000000005f52602160045260245ffd5b91907f7fffffffffffffffffffffffffffffff5d576e7357a4501ddfe92f46681b20a08411615a2d579160209360809260ff5f9560405194855216868401526040830152606082015282805260015afa15610abb575f516001600160a01b03811615615a2357905f905f90565b505f906001905f90565b5050505f916003919056fea264697066735822122052dce3dd537b56fe78023b02c42337f3b23200480d0996fa1baf2c63878f63f764736f6c634300081e0033","linkReferences":{}},"methodIdentifiers":{"approve(address,uint256)":"095ea7b3","balanceOf(address)":"70a08231","batchDeposit(uint256,uint256,address[],uint256[],address[],uint256[],bytes32)":"0db54256","batchWithdraw(uint256,bytes32,bytes,uint256,address[],uint256[],address[],uint256[],address,bytes32,uint256)":"8f93f31b","burnLockbox(uint256,bytes32,bytes,bytes32,uint256)":"bb4ffa10","createLockboxWithBatch(address,address,uint256,address[],uint256[],address[],uint256[],bytes32)":"3b0320b0","createLockboxWithERC20(address,address,address,uint256,bytes32)":"748917dd","createLockboxWithERC721(address,address,address,uint256,bytes32)":"75463c4a","createLockboxWithETH(address,address,bytes32)":"5e4ed95d","depositERC20(uint256,address,uint256,bytes32)":"486c4b7f","depositERC721(uint256,address,uint256,bytes32)":"4d8af09e","depositETH(uint256,bytes32)":"65cd69a1","eip712Domain()":"84b0196e","getActiveLockboxPublicKeyForToken(uint256)":"aea5cf30","getApproved(uint256)":"081812fc","getERC20Bal(uint256,address)":"832d46cc","getErc20AddressAt(uint256,uint256)":"fa2bb376","getErc20ArrayLength(uint256)":"d0856eb4","getErc20Index(uint256,address)":"1c30dbb6","getErc20Known(uint256,address)":"490091fd","getEthBal(uint256)":"4bf7e15a","getFullLockbox(uint256)":"e124a17c","getNonce(uint256)":"3d46b819","isApprovedForAll(address,address)":"e985e9c5","locked(uint256)":"b45a3c0e","name()":"06fdde03","onERC721Received(address,address,uint256,bytes)":"150b7a02","owner()":"8da5cb5b","ownerOf(uint256)":"6352211e","renounceOwnership()":"715018a6","rotateLockboxKey(uint256,bytes32,bytes,address,bytes32,uint256)":"f3eb9a16","safeTransferFrom(address,address,uint256)":"42842e0e","safeTransferFrom(address,address,uint256,bytes)":"b88d4fde","setApprovalForAll(address,bool)":"a22cb465","setDefaultMetadataURI(string)":"95480879","setTokenMetadataURI(uint256,bytes32,bytes,string,bytes32,uint256)":"2dbf9be6","supportsInterface(bytes4)":"01ffc9a7","swapInLockbox(uint256,bytes32,bytes,address,address,uint256,uint256,address,bytes,bytes32,uint256)":"218e631d","symbol()":"95d89b41","testInitialize(uint256,address)":"ee14979c","testRequireExists(uint256)":"4b7fc217","tokenURI(uint256)":"c87b56dd","transferFrom(address,address,uint256)":"23b872dd","transferOwnership(address)":"f2fde38b","withdrawERC20(uint256,bytes32,bytes,address,uint256,address,bytes32,uint256)":"6267699a","withdrawERC721(uint256,bytes32,bytes,address,uint256,address,bytes32,uint256)":"9b9900a9","withdrawETH(uint256,bytes32,bytes,uint256,address,bytes32,uint256)":"52dc033c"},"id":4}