{"abi":[{"type":"fallback","stateMutability":"payable"},{"type":"receive","stateMutability":"payable"},{"type":"function","name":"approve","inputs":[{"name":"to","type":"address","internalType":"address"},{"name":"tokenId","type":"uint256","internalType":"uint256"}],"outputs":[],"stateMutability":"nonpayable"},{"type":"function","name":"balanceOf","inputs":[{"name":"owner","type":"address","internalType":"address"}],"outputs":[{"name":"","type":"uint256","internalType":"uint256"}],"stateMutability":"view"},{"type":"function","name":"batchDeposit","inputs":[{"name":"tokenId","type":"uint256","internalType":"uint256"},{"name":"amountETH","type":"uint256","internalType":"uint256"},{"name":"tokenAddresses","type":"address[]","internalType":"address[]"},{"name":"tokenAmounts","type":"uint256[]","internalType":"uint256[]"},{"name":"nftContracts","type":"address[]","internalType":"address[]"},{"name":"nftTokenIds","type":"uint256[]","internalType":"uint256[]"},{"name":"referenceId","type":"bytes32","internalType":"bytes32"}],"outputs":[],"stateMutability":"payable"},{"type":"function","name":"batchWithdraw","inputs":[{"name":"tokenId","type":"uint256","internalType":"uint256"},{"name":"messageHash","type":"bytes32","internalType":"bytes32"},{"name":"signature","type":"bytes","internalType":"bytes"},{"name":"amountETH","type":"uint256","internalType":"uint256"},{"name":"tokenAddresses","type":"address[]","internalType":"address[]"},{"name":"tokenAmounts","type":"uint256[]","internalType":"uint256[]"},{"name":"nftContracts","type":"address[]","internalType":"address[]"},{"name":"nftTokenIds","type":"uint256[]","internalType":"uint256[]"},{"name":"recipient","type":"address","internalType":"address"},{"name":"referenceId","type":"bytes32","internalType":"bytes32"},{"name":"signatureExpiry","type":"uint256","internalType":"uint256"}],"outputs":[],"stateMutability":"nonpayable"},{"type":"function","name":"burnLockbox","inputs":[{"name":"tokenId","type":"uint256","internalType":"uint256"},{"name":"messageHash","type":"bytes32","internalType":"bytes32"},{"name":"signature","type":"bytes","internalType":"bytes"},{"name":"referenceId","type":"bytes32","internalType":"bytes32"},{"name":"signatureExpiry","type":"uint256","internalType":"uint256"}],"outputs":[],"stateMutability":"nonpayable"},{"type":"function","name":"createLockboxWithBatch","inputs":[{"name":"to","type":"address","internalType":"address"},{"name":"lockboxPublicKey","type":"address","internalType":"address"},{"name":"amountETH","type":"uint256","internalType":"uint256"},{"name":"tokenAddresses","type":"address[]","internalType":"address[]"},{"name":"tokenAmounts","type":"uint256[]","internalType":"uint256[]"},{"name":"nftContracts","type":"address[]","internalType":"address[]"},{"name":"nftTokenIds","type":"uint256[]","internalType":"uint256[]"},{"name":"referenceId","type":"bytes32","internalType":"bytes32"}],"outputs":[],"stateMutability":"payable"},{"type":"function","name":"createLockboxWithERC20","inputs":[{"name":"to","type":"address","internalType":"address"},{"name":"lockboxPublicKey","type":"address","internalType":"address"},{"name":"tokenAddress","type":"address","internalType":"address"},{"name":"amount","type":"uint256","internalType":"uint256"},{"name":"referenceId","type":"bytes32","internalType":"bytes32"}],"outputs":[],"stateMutability":"nonpayable"},{"type":"function","name":"createLockboxWithERC721","inputs":[{"name":"to","type":"address","internalType":"address"},{"name":"lockboxPublicKey","type":"address","internalType":"address"},{"name":"nftContract","type":"address","internalType":"address"},{"name":"externalNftTokenId","type":"uint256","internalType":"uint256"},{"name":"referenceId","type":"bytes32","internalType":"bytes32"}],"outputs":[],"stateMutability":"nonpayable"},{"type":"function","name":"createLockboxWithETH","inputs":[{"name":"to","type":"address","internalType":"address"},{"name":"lockboxPublicKey","type":"address","internalType":"address"},{"name":"referenceId","type":"bytes32","internalType":"bytes32"}],"outputs":[],"stateMutability":"payable"},{"type":"function","name":"depositERC20","inputs":[{"name":"tokenId","type":"uint256","internalType":"uint256"},{"name":"tokenAddress","type":"address","internalType":"address"},{"name":"amount","type":"uint256","internalType":"uint256"},{"name":"referenceId","type":"bytes32","internalType":"bytes32"}],"outputs":[],"stateMutability":"nonpayable"},{"type":"function","name":"depositERC721","inputs":[{"name":"tokenId","type":"uint256","internalType":"uint256"},{"name":"nftContract","type":"address","internalType":"address"},{"name":"nftTokenId","type":"uint256","internalType":"uint256"},{"name":"referenceId","type":"bytes32","internalType":"bytes32"}],"outputs":[],"stateMutability":"nonpayable"},{"type":"function","name":"depositETH","inputs":[{"name":"tokenId","type":"uint256","internalType":"uint256"},{"name":"referenceId","type":"bytes32","internalType":"bytes32"}],"outputs":[],"stateMutability":"payable"},{"type":"function","name":"eip712Domain","inputs":[],"outputs":[{"name":"fields","type":"bytes1","internalType":"bytes1"},{"name":"name","type":"string","internalType":"string"},{"name":"version","type":"string","internalType":"string"},{"name":"chainId","type":"uint256","internalType":"uint256"},{"name":"verifyingContract","type":"address","internalType":"address"},{"name":"salt","type":"bytes32","internalType":"bytes32"},{"name":"extensions","type":"uint256[]","internalType":"uint256[]"}],"stateMutability":"view"},{"type":"function","name":"getActiveLockboxPublicKeyForToken","inputs":[{"name":"tokenId","type":"uint256","internalType":"uint256"}],"outputs":[{"name":"","type":"address","internalType":"address"}],"stateMutability":"view"},{"type":"function","name":"getApproved","inputs":[{"name":"tokenId","type":"uint256","internalType":"uint256"}],"outputs":[{"name":"","type":"address","internalType":"address"}],"stateMutability":"view"},{"type":"function","name":"getERC20Bal","inputs":[{"name":"tokenId","type":"uint256","internalType":"uint256"},{"name":"token","type":"address","internalType":"address"}],"outputs":[{"name":"","type":"uint256","internalType":"uint256"}],"stateMutability":"view"},{"type":"function","name":"getErc20AddressAt","inputs":[{"name":"tokenId","type":"uint256","internalType":"uint256"},{"name":"index","type":"uint256","internalType":"uint256"}],"outputs":[{"name":"","type":"address","internalType":"address"}],"stateMutability":"view"},{"type":"function","name":"getErc20ArrayLength","inputs":[{"name":"tokenId","type":"uint256","internalType":"uint256"}],"outputs":[{"name":"","type":"uint256","internalType":"uint256"}],"stateMutability":"view"},{"type":"function","name":"getErc20Index","inputs":[{"name":"tokenId","type":"uint256","internalType":"uint256"},{"name":"token","type":"address","internalType":"address"}],"outputs":[{"name":"","type":"uint256","internalType":"uint256"}],"stateMutability":"view"},{"type":"function","name":"getErc20Known","inputs":[{"name":"tokenId","type":"uint256","internalType":"uint256"},{"name":"token","type":"address","internalType":"address"}],"outputs":[{"name":"","type":"bool","internalType":"bool"}],"stateMutability":"view"},{"type":"function","name":"getEthBal","inputs":[{"name":"tokenId","type":"uint256","internalType":"uint256"}],"outputs":[{"name":"","type":"uint256","internalType":"uint256"}],"stateMutability":"view"},{"type":"function","name":"getFullLockbox","inputs":[{"name":"tokenId","type":"uint256","internalType":"uint256"}],"outputs":[{"name":"lockboxETH","type":"uint256","internalType":"uint256"},{"name":"erc20Tokens","type":"tuple[]","internalType":"struct Withdrawals.erc20Balances[]","components":[{"name":"tokenAddress","type":"address","internalType":"address"},{"name":"balance","type":"uint256","internalType":"uint256"}]},{"name":"nftContracts","type":"tuple[]","internalType":"struct Deposits.nftBalances[]","components":[{"name":"nftContract","type":"address","internalType":"address"},{"name":"nftTokenId","type":"uint256","internalType":"uint256"}]}],"stateMutability":"view"},{"type":"function","name":"getNftIndex","inputs":[{"name":"tokenId","type":"uint256","internalType":"uint256"},{"name":"key","type":"bytes32","internalType":"bytes32"}],"outputs":[{"name":"","type":"uint256","internalType":"uint256"}],"stateMutability":"view"},{"type":"function","name":"getNftKeyAt","inputs":[{"name":"tokenId","type":"uint256","internalType":"uint256"},{"name":"index","type":"uint256","internalType":"uint256"}],"outputs":[{"name":"","type":"bytes32","internalType":"bytes32"}],"stateMutability":"view"},{"type":"function","name":"getNftKeysLength","inputs":[{"name":"tokenId","type":"uint256","internalType":"uint256"}],"outputs":[{"name":"","type":"uint256","internalType":"uint256"}],"stateMutability":"view"},{"type":"function","name":"getNftRecord","inputs":[{"name":"tokenId","type":"uint256","internalType":"uint256"},{"name":"key","type":"bytes32","internalType":"bytes32"}],"outputs":[{"name":"","type":"address","internalType":"address"},{"name":"","type":"uint256","internalType":"uint256"}],"stateMutability":"view"},{"type":"function","name":"getNonce","inputs":[{"name":"tokenId","type":"uint256","internalType":"uint256"}],"outputs":[{"name":"","type":"uint256","internalType":"uint256"}],"stateMutability":"view"},{"type":"function","name":"harnessInitialize","inputs":[{"name":"tokenId","type":"uint256","internalType":"uint256"},{"name":"lockboxPublicKey","type":"address","internalType":"address"}],"outputs":[],"stateMutability":"nonpayable"},{"type":"function","name":"harnessRequireExists","inputs":[{"name":"tokenId","type":"uint256","internalType":"uint256"}],"outputs":[],"stateMutability":"view"},{"type":"function","name":"isApprovedForAll","inputs":[{"name":"owner","type":"address","internalType":"address"},{"name":"operator","type":"address","internalType":"address"}],"outputs":[{"name":"","type":"bool","internalType":"bool"}],"stateMutability":"view"},{"type":"function","name":"locked","inputs":[{"name":"tokenId","type":"uint256","internalType":"uint256"}],"outputs":[{"name":"","type":"bool","internalType":"bool"}],"stateMutability":"view"},{"type":"function","name":"name","inputs":[],"outputs":[{"name":"","type":"string","internalType":"string"}],"stateMutability":"view"},{"type":"function","name":"onERC721Received","inputs":[{"name":"","type":"address","internalType":"address"},{"name":"","type":"address","internalType":"address"},{"name":"","type":"uint256","internalType":"uint256"},{"name":"","type":"bytes","internalType":"bytes"}],"outputs":[{"name":"","type":"bytes4","internalType":"bytes4"}],"stateMutability":"pure"},{"type":"function","name":"owner","inputs":[],"outputs":[{"name":"","type":"address","internalType":"address"}],"stateMutability":"view"},{"type":"function","name":"ownerOf","inputs":[{"name":"tokenId","type":"uint256","internalType":"uint256"}],"outputs":[{"name":"","type":"address","internalType":"address"}],"stateMutability":"view"},{"type":"function","name":"renounceOwnership","inputs":[],"outputs":[],"stateMutability":"nonpayable"},{"type":"function","name":"rotateLockboxKey","inputs":[{"name":"tokenId","type":"uint256","internalType":"uint256"},{"name":"messageHash","type":"bytes32","internalType":"bytes32"},{"name":"signature","type":"bytes","internalType":"bytes"},{"name":"newPublicKey","type":"address","internalType":"address"},{"name":"referenceId","type":"bytes32","internalType":"bytes32"},{"name":"signatureExpiry","type":"uint256","internalType":"uint256"}],"outputs":[],"stateMutability":"nonpayable"},{"type":"function","name":"safeTransferFrom","inputs":[{"name":"from","type":"address","internalType":"address"},{"name":"to","type":"address","internalType":"address"},{"name":"tokenId","type":"uint256","internalType":"uint256"}],"outputs":[],"stateMutability":"nonpayable"},{"type":"function","name":"safeTransferFrom","inputs":[{"name":"from","type":"address","internalType":"address"},{"name":"to","type":"address","internalType":"address"},{"name":"tokenId","type":"uint256","internalType":"uint256"},{"name":"data","type":"bytes","internalType":"bytes"}],"outputs":[],"stateMutability":"nonpayable"},{"type":"function","name":"setApprovalForAll","inputs":[{"name":"operator","type":"address","internalType":"address"},{"name":"approved","type":"bool","internalType":"bool"}],"outputs":[],"stateMutability":"nonpayable"},{"type":"function","name":"setDefaultMetadataURI","inputs":[{"name":"newDefaultURI","type":"string","internalType":"string"}],"outputs":[],"stateMutability":"nonpayable"},{"type":"function","name":"setTokenMetadataURI","inputs":[{"name":"tokenId","type":"uint256","internalType":"uint256"},{"name":"messageHash","type":"bytes32","internalType":"bytes32"},{"name":"signature","type":"bytes","internalType":"bytes"},{"name":"newMetadataURI","type":"string","internalType":"string"},{"name":"referenceId","type":"bytes32","internalType":"bytes32"},{"name":"signatureExpiry","type":"uint256","internalType":"uint256"}],"outputs":[],"stateMutability":"nonpayable"},{"type":"function","name":"supportsInterface","inputs":[{"name":"interfaceId","type":"bytes4","internalType":"bytes4"}],"outputs":[{"name":"","type":"bool","internalType":"bool"}],"stateMutability":"view"},{"type":"function","name":"swapInLockbox","inputs":[{"name":"tokenId","type":"uint256","internalType":"uint256"},{"name":"messageHash","type":"bytes32","internalType":"bytes32"},{"name":"signature","type":"bytes","internalType":"bytes"},{"name":"tokenIn","type":"address","internalType":"address"},{"name":"tokenOut","type":"address","internalType":"address"},{"name":"amountIn","type":"uint256","internalType":"uint256"},{"name":"minAmountOut","type":"uint256","internalType":"uint256"},{"name":"target","type":"address","internalType":"address"},{"name":"data","type":"bytes","internalType":"bytes"},{"name":"referenceId","type":"bytes32","internalType":"bytes32"},{"name":"signatureExpiry","type":"uint256","internalType":"uint256"},{"name":"recipient","type":"address","internalType":"address"}],"outputs":[],"stateMutability":"nonpayable"},{"type":"function","name":"symbol","inputs":[],"outputs":[{"name":"","type":"string","internalType":"string"}],"stateMutability":"view"},{"type":"function","name":"tokenURI","inputs":[{"name":"tokenId","type":"uint256","internalType":"uint256"}],"outputs":[{"name":"","type":"string","internalType":"string"}],"stateMutability":"view"},{"type":"function","name":"transferFrom","inputs":[{"name":"from","type":"address","internalType":"address"},{"name":"to","type":"address","internalType":"address"},{"name":"tokenId","type":"uint256","internalType":"uint256"}],"outputs":[],"stateMutability":"nonpayable"},{"type":"function","name":"transferOwnership","inputs":[{"name":"newOwner","type":"address","internalType":"address"}],"outputs":[],"stateMutability":"nonpayable"},{"type":"function","name":"withdrawERC20","inputs":[{"name":"tokenId","type":"uint256","internalType":"uint256"},{"name":"messageHash","type":"bytes32","internalType":"bytes32"},{"name":"signature","type":"bytes","internalType":"bytes"},{"name":"tokenAddress","type":"address","internalType":"address"},{"name":"amount","type":"uint256","internalType":"uint256"},{"name":"recipient","type":"address","internalType":"address"},{"name":"referenceId","type":"bytes32","internalType":"bytes32"},{"name":"signatureExpiry","type":"uint256","internalType":"uint256"}],"outputs":[],"stateMutability":"nonpayable"},{"type":"function","name":"withdrawERC721","inputs":[{"name":"tokenId","type":"uint256","internalType":"uint256"},{"name":"messageHash","type":"bytes32","internalType":"bytes32"},{"name":"signature","type":"bytes","internalType":"bytes"},{"name":"nftContract","type":"address","internalType":"address"},{"name":"nftTokenId","type":"uint256","internalType":"uint256"},{"name":"recipient","type":"address","internalType":"address"},{"name":"referenceId","type":"bytes32","internalType":"bytes32"},{"name":"signatureExpiry","type":"uint256","internalType":"uint256"}],"outputs":[],"stateMutability":"nonpayable"},{"type":"function","name":"withdrawETH","inputs":[{"name":"tokenId","type":"uint256","internalType":"uint256"},{"name":"messageHash","type":"bytes32","internalType":"bytes32"},{"name":"signature","type":"bytes","internalType":"bytes"},{"name":"amountETH","type":"uint256","internalType":"uint256"},{"name":"recipient","type":"address","internalType":"address"},{"name":"referenceId","type":"bytes32","internalType":"bytes32"},{"name":"signatureExpiry","type":"uint256","internalType":"uint256"}],"outputs":[],"stateMutability":"nonpayable"},{"type":"event","name":"Approval","inputs":[{"name":"owner","type":"address","indexed":true,"internalType":"address"},{"name":"approved","type":"address","indexed":true,"internalType":"address"},{"name":"tokenId","type":"uint256","indexed":true,"internalType":"uint256"}],"anonymous":false},{"type":"event","name":"ApprovalForAll","inputs":[{"name":"owner","type":"address","indexed":true,"internalType":"address"},{"name":"operator","type":"address","indexed":true,"internalType":"address"},{"name":"approved","type":"bool","indexed":false,"internalType":"bool"}],"anonymous":false},{"type":"event","name":"Deposited","inputs":[{"name":"tokenId","type":"uint256","indexed":true,"internalType":"uint256"},{"name":"referenceId","type":"bytes32","indexed":true,"internalType":"bytes32"}],"anonymous":false},{"type":"event","name":"EIP712DomainChanged","inputs":[],"anonymous":false},{"type":"event","name":"KeyRotated","inputs":[{"name":"tokenId","type":"uint256","indexed":true,"internalType":"uint256"},{"name":"referenceId","type":"bytes32","indexed":true,"internalType":"bytes32"}],"anonymous":false},{"type":"event","name":"LockboxBurned","inputs":[{"name":"tokenId","type":"uint256","indexed":true,"internalType":"uint256"},{"name":"referenceId","type":"bytes32","indexed":true,"internalType":"bytes32"}],"anonymous":false},{"type":"event","name":"Locked","inputs":[{"name":"tokenId","type":"uint256","indexed":false,"internalType":"uint256"}],"anonymous":false},{"type":"event","name":"Minted","inputs":[{"name":"tokenId","type":"uint256","indexed":true,"internalType":"uint256"},{"name":"referenceId","type":"bytes32","indexed":true,"internalType":"bytes32"}],"anonymous":false},{"type":"event","name":"OwnershipTransferred","inputs":[{"name":"previousOwner","type":"address","indexed":true,"internalType":"address"},{"name":"newOwner","type":"address","indexed":true,"internalType":"address"}],"anonymous":false},{"type":"event","name":"SwapExecuted","inputs":[{"name":"tokenId","type":"uint256","indexed":true,"internalType":"uint256"},{"name":"referenceId","type":"bytes32","indexed":true,"internalType":"bytes32"}],"anonymous":false},{"type":"event","name":"TokenMetadataURISet","inputs":[{"name":"tokenId","type":"uint256","indexed":true,"internalType":"uint256"},{"name":"referenceId","type":"bytes32","indexed":true,"internalType":"bytes32"}],"anonymous":false},{"type":"event","name":"Transfer","inputs":[{"name":"from","type":"address","indexed":true,"internalType":"address"},{"name":"to","type":"address","indexed":true,"internalType":"address"},{"name":"tokenId","type":"uint256","indexed":true,"internalType":"uint256"}],"anonymous":false},{"type":"event","name":"Withdrawn","inputs":[{"name":"tokenId","type":"uint256","indexed":true,"internalType":"uint256"},{"name":"referenceId","type":"bytes32","indexed":true,"internalType":"bytes32"}],"anonymous":false},{"type":"error","name":"AlreadyInitialized","inputs":[]},{"type":"error","name":"ArrayLengthMismatch","inputs":[]},{"type":"error","name":"DefaultURIAlreadySet","inputs":[]},{"type":"error","name":"DuplicateEntry","inputs":[]},{"type":"error","name":"ECDSAInvalidSignature","inputs":[]},{"type":"error","name":"ECDSAInvalidSignatureLength","inputs":[{"name":"length","type":"uint256","internalType":"uint256"}]},{"type":"error","name":"ECDSAInvalidSignatureS","inputs":[{"name":"s","type":"bytes32","internalType":"bytes32"}]},{"type":"error","name":"ERC721IncorrectOwner","inputs":[{"name":"sender","type":"address","internalType":"address"},{"name":"tokenId","type":"uint256","internalType":"uint256"},{"name":"owner","type":"address","internalType":"address"}]},{"type":"error","name":"ERC721InsufficientApproval","inputs":[{"name":"operator","type":"address","internalType":"address"},{"name":"tokenId","type":"uint256","internalType":"uint256"}]},{"type":"error","name":"ERC721InvalidApprover","inputs":[{"name":"approver","type":"address","internalType":"address"}]},{"type":"error","name":"ERC721InvalidOperator","inputs":[{"name":"operator","type":"address","internalType":"address"}]},{"type":"error","name":"ERC721InvalidOwner","inputs":[{"name":"owner","type":"address","internalType":"address"}]},{"type":"error","name":"ERC721InvalidReceiver","inputs":[{"name":"receiver","type":"address","internalType":"address"}]},{"type":"error","name":"ERC721InvalidSender","inputs":[{"name":"sender","type":"address","internalType":"address"}]},{"type":"error","name":"ERC721NonexistentToken","inputs":[{"name":"tokenId","type":"uint256","internalType":"uint256"}]},{"type":"error","name":"ETHMismatch","inputs":[]},{"type":"error","name":"EthTransferFailed","inputs":[]},{"type":"error","name":"EthValueMismatch","inputs":[]},{"type":"error","name":"FallbackNotAllowed","inputs":[]},{"type":"error","name":"InsufficientTokenBalance","inputs":[]},{"type":"error","name":"InvalidMessageHash","inputs":[]},{"type":"error","name":"InvalidShortString","inputs":[]},{"type":"error","name":"InvalidSignature","inputs":[]},{"type":"error","name":"InvalidSwap","inputs":[]},{"type":"error","name":"MismatchedInputs","inputs":[]},{"type":"error","name":"NFTNotFound","inputs":[]},{"type":"error","name":"NoETHBalance","inputs":[]},{"type":"error","name":"NoURI","inputs":[]},{"type":"error","name":"NonexistentToken","inputs":[]},{"type":"error","name":"NotOwner","inputs":[]},{"type":"error","name":"OwnableInvalidOwner","inputs":[{"name":"owner","type":"address","internalType":"address"}]},{"type":"error","name":"OwnableUnauthorizedAccount","inputs":[{"name":"account","type":"address","internalType":"address"}]},{"type":"error","name":"ReentrancyGuardReentrantCall","inputs":[]},{"type":"error","name":"RouterOverspent","inputs":[]},{"type":"error","name":"SafeERC20FailedOperation","inputs":[{"name":"token","type":"address","internalType":"address"}]},{"type":"error","name":"SelfMintOnly","inputs":[]},{"type":"error","name":"SignatureExpired","inputs":[]},{"type":"error","name":"SlippageExceeded","inputs":[]},{"type":"error","name":"StringTooLong","inputs":[{"name":"str","type":"string","internalType":"string"}]},{"type":"error","name":"SwapCallFailed","inputs":[]},{"type":"error","name":"TransfersDisabled","inputs":[]},{"type":"error","name":"UseDepositETH","inputs":[]},{"type":"error","name":"ZeroAddress","inputs":[]},{"type":"error","name":"ZeroAmount","inputs":[]},{"type":"error","name":"ZeroKey","inputs":[]},{"type":"error","name":"ZeroTokenAddress","inputs":[]}],"bytecode":{"object":"0x610180604052346104af576040516100186040826104b3565b60088152674c6f636b782e696f60c01b60208201526040519061003c6040836104b3565b6007825266098dec6d6c4def60cb1b602083015260405161005e6040826104b3565b60058152602081019064098dec6d6f60db1b8252604051936100816040866104b3565b60018552603360f81b60208601908152845190946001600160401b0382116103b6575f5490600182811c921680156104a5575b60208310146103985781601f849311610438575b50602090601f83116001146103d5575f926103ca575b50508160011b915f199060031b1c1916175f555b8051906001600160401b0382116103b65760015490600182811c921680156103ac575b60208310146103985781601f84931161032a575b50602090601f83116001146102c4575f926102b9575b50508160011b915f199060031b1c1916176001555b33156102a65760068054336001600160a01b0319821681179092556001600160a01b03167f8be0079c531659141344cd1fd0a4f28419497f9722a3daafe3b4186f6b6457e05f80a36101a5816104d6565b610120526101b28461065d565b61014052519020918260e05251902080610100524660a0526040519060208201927f8b73c3c69bb8fe3d512ecc4cf759cc79239f7b179b0ffacaa9a75d522b39400f8452604083015260608201524660808201523060a082015260a0815261021b60c0826104b3565b5190206080523060c05230610160526001600a55604051615ccb9081610796823960805181615a1e015260a05181615adb015260c051816159ef015260e05181615a6d01526101005181615a9301526101205181612a4a01526101405181612a730152610160518181816106cb01528181611b61015281816135f701528181614dfb01526156380152f35b631e4fbdf760e01b5f525f60045260245ffd5b015190505f8061013f565b60015f9081528281209350601f198516905b81811061031257509084600195949392106102fa575b505050811b01600155610154565b01515f1960f88460031b161c191690555f80806102ec565b929360206001819287860151815501950193016102d6565b60015f529091507fb10e2d527612073b26eecdfd717e6a320cf44b4afac2b0732d9fcbe2b7fa0cf6601f840160051c8101916020851061038e575b90601f859493920160051c01905b8181106103805750610129565b5f8155849350600101610373565b9091508190610365565b634e487b7160e01b5f52602260045260245ffd5b91607f1691610115565b634e487b7160e01b5f52604160045260245ffd5b015190505f806100de565b5f8080528281209350601f198516905b8181106104205750908460019594939210610408575b505050811b015f556100f2565b01515f1960f88460031b161c191690555f80806103fb565b929360206001819287860151815501950193016103e5565b5f80529091507f290decd9548b62a8d60345a988386fc84ba6bc95484008f6362f93160ef3e563601f840160051c8101916020851061049b575b90601f859493920160051c01905b81811061048d57506100c8565b5f8155849350600101610480565b9091508190610472565b91607f16916100b4565b5f80fd5b601f909101601f19168101906001600160401b038211908210176103b657604052565b908151602081105f14610550575090601f815111610510576020815191015160208210610501571790565b5f198260200360031b1b161790565b604460209160405192839163305a27a960e01b83528160048401528051918291826024860152018484015e5f828201840152601f01601f19168101030190fd5b6001600160401b0381116103b657600754600181811c91168015610653575b602082101461039857601f8111610620575b50602092601f82116001146105bf57928192935f926105b4575b50508160011b915f199060031b1c19161760075560ff90565b015190505f8061059b565b601f1982169360075f52805f20915f5b86811061060857508360019596106105f0575b505050811b0160075560ff90565b01515f1960f88460031b161c191690555f80806105e2565b919260206001819286850151815501940192016105cf565b60075f52601f60205f20910160051c810190601f830160051c015b8181106106485750610581565b5f815560010161063b565b90607f169061056f565b908151602081105f14610688575090601f815111610510576020815191015160208210610501571790565b6001600160401b0381116103b657600854600181811c9116801561078b575b602082101461039857601f8111610758575b50602092601f82116001146106f757928192935f926106ec575b50508160011b915f199060031b1c19161760085560ff90565b015190505f806106d3565b601f1982169360085f52805f20915f5b8681106107405750836001959610610728575b505050811b0160085560ff90565b01515f1960f88460031b161c191690555f808061071a565b91926020600181928685015181550194019201610707565b60085f52601f60205f20910160051c810190601f830160051c015b81811061078057506106b9565b5f8155600101610773565b90607f16906106a756fe6080806040526004361015610040575b50361561003e577fdeab4c30000000000000000000000000000000000000000000000000000000005f5260045ffd5b005b5f3560e01c90816301ffc9a714613f6e5750806306fdde0314613ecc578063081812fc14613e8f578063095ea7b314613d7d5780630db5425614613c2f578063150b7a0214613bc05780631c30dbb614613b7b57806323b872dd14613b645780632dbf9be6146138305780633b0320b0146136705780633d46b819146135a75780633df23e531461357557806342842e0e1461354c578063486c4b7f1461350b578063490091fd146134c45780634bf7e15a1461349a5780634d8af09e1461343457806352dc033c146132025780635e4ed95d1461312c5780636267699a14612ee55780636352211e14612eb657806365cd69a114612e515780636f2ec57314612e3557806370a0823114612dcb578063715018a614612d65578063748917dd14612cfa57806375463c4a14612bba5780637b1f8f2e14612b8b578063832d46cc14612b4657806384b0196e14612a325780638aedc64414612a085780638da5cb5b146129e25780638f0ce30e146129be5780638f93f31b14612315578063954808791461210357806395d89b411461201b5780639b9900a914611cfd578063a22cb46514611c2b578063ada09a3014611be0578063aea5cf3014611b11578063b45a3c0e14611ab0578063b88d4fde14611a61578063bb4ffa1014611527578063bd1ca78514610b18578063c87b56dd14610ae1578063d0856eb414610ab7578063e124a17c14610672578063e985e9c514610619578063f2fde38b1461056e578063f3eb9a16146102bc5763fa2bb3761461027d575f61000f565b346102b85760206001600160a01b036102a861029836614182565b905f52600d845260405f206146fd565b90549060031b1c16604051908152f35b5f80fd5b346102b85760c06003193601126102b85760043560443567ffffffffffffffff81116102b8576102f0903690600401614164565b906102f9614024565b6084359260a43590610309614d86565b61031284614dbf565b81421161054657604051926001600160a01b036020850191868352169283604086015286606086015233608086015260a085015260a0845261035560c0856140ef565b845f52600960205260405f20935190209083549060428260a01c9360405160208101917f5fd4fde1cb878824d6e96eec97296c9e818ad783a10b7c9ede6e7f27eca7b06b83528960408301528660608301525f608083015260a082015260a081526103c160c0826140ef565b5190206103cc6159e5565b90604051917f19010000000000000000000000000000000000000000000000000000000000008352600283015260228201522090816024350361051e5761042a926104216001600160a01b0393928493615b01565b90959195615b3b565b169116036104f6576bffffffffffffffffffffffff81146104c95782546001600160a01b031660019190910160a01b73ffffffffffffffffffffffffffffffffffffffff1916178255806104a6575b50507f984cbcf51cba481417bc4c1f7faacf7392a4cbcd6c7fb7888b24ed2e50a0be775f80a36001600a55005b73ffffffffffffffffffffffffffffffffffffffff198254161790558280610479565b7f4e487b71000000000000000000000000000000000000000000000000000000005f52601160045260245ffd5b7f8baa579f000000000000000000000000000000000000000000000000000000005f5260045ffd5b7f8b56642d000000000000000000000000000000000000000000000000000000005f5260045ffd5b7f0819bdcd000000000000000000000000000000000000000000000000000000005f5260045ffd5b346102b85760206003193601126102b8576001600160a01b0361058f613fe2565b6105976156c0565b1680156105ed576001600160a01b036006548273ffffffffffffffffffffffffffffffffffffffff19821617600655167f8be0079c531659141344cd1fd0a4f28419497f9722a3daafe3b4186f6b6457e05f80a3005b7f1e4fbdf7000000000000000000000000000000000000000000000000000000005f525f60045260245ffd5b346102b85760406003193601126102b857610632613fe2565b6001600160a01b03610642613ff8565b91165f5260056020526001600160a01b0360405f2091165f52602052602060ff60405f2054166040519015158152f35b346102b85760206003193601126102b85760043561068f816155fc565b6040517f6352211e0000000000000000000000000000000000000000000000000000000081528160048201526020816024816001600160a01b037f0000000000000000000000000000000000000000000000000000000000000000165afa908115610aac575f91610a7d575b506001600160a01b0333911603610a5557805f52600b60205260405f2054815f52600d60205260405f2091825461073181614788565b9361073f60405195866140ef565b818552601f1961074e83614788565b015f5b818110610a295750505f5b8281106109a257505050805f52600f60205260405f205f915f918054925b8381106109495750601f196107a761079186614788565b9561079f60405197886140ef565b808752614788565b015f5b81811061091d5750505f905f5b84811061088457878787604051928392606084019084526060602085015281518091526020608085019201905f5b81811061084b575050508281036040840152602080835192838152019201905f5b818110610814575050500390f35b91935091602060408261083d6001948851602080916001600160a01b0381511684520151910152565b019401910191849392610806565b919394509160206040826108756001948851602080916001600160a01b0381511684520151910152565b019401910191859493926107e5565b600190845f9997989952601060205260405f206108a182856146fd565b90549060031b1c5f526020526001600160a01b0360405f2054166108ca575b01969594966107b7565b845f52601060205260405f206108e082856146fd565b90549060031b1c5f5260205261091760405f2094610906610900826146d0565b9661484e565b610910828c614d51565b5289614d51565b506108c0565b6040519697959660209190610931816140d3565b5f81525f8382015282828a01015201969594966107aa565b825f9795969752601060205260405f2061096382846146fd565b90549060031b1c5f526020526001600160a01b0360405f20541661098e575b6001019594939561077a565b9461099a6001916146d0565b959050610982565b806001600160a01b036109bb60019385999798996146fd565b90549060031b1c16865f52600c60205260405f206001600160a01b03806109e285886146fd565b90549060031b1c16165f5260205260405f205460405191610a02836140d3565b82526020820152610a138287614d51565b52610a1e8186614d51565b50019493929461075c565b6040519596949560209190610a3d816140d3565b5f81525f838201528282880101520195949395610751565b7f30cd7471000000000000000000000000000000000000000000000000000000005f5260045ffd5b610a9f915060203d602011610aa5575b610a9781836140ef565b8101906146de565b826106fb565b503d610a8d565b6040513d5f823e3d90fd5b346102b85760206003193601126102b8576004355f52600d602052602060405f2054604051908152f35b346102b85760206003193601126102b857610b14610b00600435614a66565b604051918291602083526020830190613fbd565b0390f35b346102b8576101806003193601126102b85760043560443567ffffffffffffffff81116102b857610b4d903690600401614164565b90610b56614024565b91610b5f61400e565b60a43560c4359260e435926001600160a01b038416908185036102b8576101043567ffffffffffffffff81116102b857610b9d90369060040161406b565b6101249691963599610144359161016435976001600160a01b038916998a8a036102b857610bc9614d86565b610bd28d614dbf565b8442116105465787156114ff5781156114d7576001600160a01b038716986001600160a01b038516958a87146114af578f8f908f8f90938a928f958f610c19368d8c61412e565b60208151910120916040519860208a019789895260408b015260608a01528b60808a015260a089015260c088015260e0870152610100860152336101208601526101408501526101608401526101608352610c76610180846140ef565b815f52600960205260405f20925190209260428354928360a01c956040519060208201927f5fd4fde1cb878824d6e96eec97296c9e818ad783a10b7c9ede6e7f27eca7b06b845260408301528760608301526007608083015260a082015260a08152610ce360c0826140ef565b519020610cee6159e5565b90604051917f19010000000000000000000000000000000000000000000000000000000000008352600283015260228201522090816024350361051e57610d43926104216001600160a01b0393928493615b01565b169116036104f6576bffffffffffffffffffffffff82146104c9576001610d9192016001600160a01b0373ffffffffffffffffffffffffffffffffffffffff1983549260a01b169116179055565b8415928315611468578d5f52600b6020528260405f205410611440575b83156113c45747965b8a15998a156113465747935b86159384611194575b5f9250829190881561118d5787915b81604051928392833781018481520391855af191610df761474c565b5061117d575b50156111555782156110d95747905b881561105357610e20610e2692479861473f565b9661473f565b9a8b1061102b5784116110035715610f91575050875f52600b602052610e5160405f2091825461473f565b90555b8415610edc575015610ecc5750505f80809381935af1610e7261474c565b5015610ea4575b7ffa44886bdf29041e45bda3924c838d5a6ed302e301c579f52acb4c3aa9aef77a5f80a36001600a55005b7f6d963f88000000000000000000000000000000000000000000000000000000005f5260045ffd5b610ed79392506155a7565b610e79565b92509092505f14610f07575050815f52600b602052610f0060405f2091825461477b565b9055610e79565b835f52600c60205260405f20825f5260205260405f205415610f46575b50825f52600c60205260405f20905f52602052610f0060405f2091825461477b565b835f52600d60205260405f205490600182018092116104c957610f8b91855f52600e60205260405f20845f5260205260405f2055845f52600d60205260405f20614a1d565b84610f24565b9091895f52600c60205260405f20835f52602052610fb460405f2091825461473f565b9055885f52600c60205260405f20825f5260205260405f205415610fda575b5050610e54565b610ffc91895f52600c60205260405f20905f526020525f604081205588615463565b8880610fd3565b7fdcc0d279000000000000000000000000000000000000000000000000000000005f5260045ffd5b7f8199f5f3000000000000000000000000000000000000000000000000000000005f5260045ffd5b6040517f70a082310000000000000000000000000000000000000000000000000000000081523060048201526020816024818e5afa908115610aac575f916110a5575b50610e2692610e20919861473f565b90506020813d6020116110d1575b816110c0602093836140ef565b810103126102b85751610e26611096565b3d91506110b3565b6040517f70a08231000000000000000000000000000000000000000000000000000000008152306004820152602081602481895afa908115610aac575f91611123575b5090610e0c565b90506020813d60201161114d575b8161113e602093836140ef565b810103126102b857518f61111c565b3d9150611131565b7f03a40bc4000000000000000000000000000000000000000000000000000000005f5260045ffd5b61118790876157ea565b8f610dfd565b8291610ddb565b6040517fdd62ed3e000000000000000000000000000000000000000000000000000000008152306004820152602481018490526020816044818e5afa8015610aac578886918d935f91611304575b509260205f80989461125461124695839a99986112f5575b604051968791868301947f095ea7b300000000000000000000000000000000000000000000000000000000865260248401602090939291936001600160a01b0360408201951681520152565b03601f1981018752866140ef565b84519082855af186513d826112d6575b505015611277575b505050909150610dcc565b6112ce926112c891604051917f095ea7b30000000000000000000000000000000000000000000000000000000060208401526024830152876044830152604482526112c36064836140ef565b6158cf565b8c6158cf565b5f808c61126c565b9091501587146112ed5750803b15155b5f80611264565b6001146112e6565b6112ff83876157ea565b6111fa565b959493505050506020833d60201161133e575b81611324602093836140ef565b810103126102b85791519091908a908590899060206111e2565b3d9150611317565b602460208d604051928380927f70a082310000000000000000000000000000000000000000000000000000000082523060048301525afa908115610aac575f91611392575b5093610dc3565b90506020813d6020116113bc575b816113ad602093836140ef565b810103126102b857515f61138b565b3d91506113a0565b6040517f70a082310000000000000000000000000000000000000000000000000000000081523060048201526020816024818a5afa908115610aac575f9161140e575b5096610db7565b90506020813d602011611438575b81611429602093836140ef565b810103126102b857515f611407565b3d915061141c565b7ffcc00b30000000000000000000000000000000000000000000000000000000005f5260045ffd5b8d5f52600c60205260405f20865f526020528260405f20541015610dae575b7fe4455cae000000000000000000000000000000000000000000000000000000005f5260045ffd5b7f11157667000000000000000000000000000000000000000000000000000000005f5260045ffd5b7f1f2a2005000000000000000000000000000000000000000000000000000000005f5260045ffd5b7fd92e233d000000000000000000000000000000000000000000000000000000005f5260045ffd5b346102b85760a06003193601126102b85760043560443567ffffffffffffffff81116102b85761155b903690600401614164565b6064359060843561156a614d86565b61157384614dbf565b804211610546576040519060208201908582528460408401523360608401526080830152608082526115a660a0836140ef565b845f52600960205260405f20915190209181549060428260a01c9460405160208101917f5fd4fde1cb878824d6e96eec97296c9e818ad783a10b7c9ede6e7f27eca7b06b83528960408301528760608301526004608083015260a082015260a0815261161360c0826140ef565b51902061161e6159e5565b90604051917f19010000000000000000000000000000000000000000000000000000000000008352600283015260228201522090816024350361051e57611673926104216001600160a01b0393928493615b01565b169116036104f6576bffffffffffffffffffffffff82146104c95760016116c192016001600160a01b0373ffffffffffffffffffffffffffffffffffffffff1983549260a01b169116179055565b815f52600b6020525f6040812055815f52600d60205260405f20604051808260208294549384815201905f5260205f20925f5b818110611a3f575050611709925003826140ef565b5f5b815181101561177357806001600160a01b0361172960019385614d51565b5116855f52600c60205260405f206001600160a01b0382165f526020525f6040812055855f52600e6020526001600160a01b0360405f2091165f526020525f60408120550161170b565b5050815f52600d60205260405f2080545f825580611a25575b5050815f52600f60205260405f2091604051808460208296549384815201905f5260205f20925f5b818110611a0c5750506117c9925003846140ef565b5f5b835181101561180557806117e160019286614d51565b51835f52601060205260405f20905f526020525f82604082208281550155016117cb565b50805f52600f60205260405f208054905f8155816119ee575b5050805f5260026020526001600160a01b0360405f2054161515806119e7575b6119bf57805f52601460205260405f20611858815461437f565b908161197c575b5050805f5260026020526001600160a01b0360405f2054168015908115611938575b825f52600260205260405f2073ffffffffffffffffffffffffffffffffffffffff198154169055825f827fddf252ad1be2c89b69c2b068fc378daa952ba7f163c4a11628f55a4df523b3ef8280a45061190d57805f5260096020525f60408120557fceed1806179edada6c648f6c52838ceac0b9c18cf04e6fca0712bda6fcf82c185f80a36001600a55005b7f7e273289000000000000000000000000000000000000000000000000000000005f5260045260245ffd5b611964835f52600460205260405f2073ffffffffffffffffffffffffffffffffffffffff198154169055565b805f52600360205260405f205f198154019055611881565b81601f5f93116001146119935750555b828061185f565b818352602083206119af91601f0160051c8101906001016146ba565b808252816020812091555561198c565b7f8574adcf000000000000000000000000000000000000000000000000000000005f5260045ffd5b505f61183e565b5f5260205f20908101905b8181101561181e575f81556001016119f9565b84548352600194850194889450602090930192016117b4565b611a38915f5260205f20908101906146ba565b828061178c565b84546001600160a01b03168352600194850194869450602090930192016116f4565b346102b85760806003193601126102b857611a7a613fe2565b611a82613ff8565b6064359167ffffffffffffffff83116102b857611aa661003e933690600401614164565b9160443591614875565b346102b85760206003193601126102b8576004355f5260026020526001600160a01b0360405f20541615611ae957602060405160018152f35b7fb1d04f08000000000000000000000000000000000000000000000000000000005f5260045ffd5b346102b85760206003193601126102b8576004356040517f6352211e0000000000000000000000000000000000000000000000000000000081528160048201526020816024816001600160a01b037f0000000000000000000000000000000000000000000000000000000000000000165afa908115610aac575f91611bc1575b506001600160a01b0333911603610a55575f52600960205260206001600160a01b0360405f205416604051908152f35b611bda915060203d602011610aa557610a9781836140ef565b82611b91565b346102b857611bee36614182565b905f52601060205260405f20905f52602052611c0c60405f2061484e565b8051602091820151604080516001600160a01b03909316835292820152f35b346102b85760406003193601126102b857611c44613fe2565b602435908115158092036102b8576001600160a01b0316908115611cd157335f52600560205260405f20825f5260205260405f207fffffffffffffffffffffffffffffffffffffffffffffffffffffffffffffff0081541660ff83161790556040519081527f17307eab39ab6107e8899845ad3d59bd9653f200f220920489ca2b5937696c3160203392a3005b507f5b08ba18000000000000000000000000000000000000000000000000000000005f5260045260245ffd5b346102b857611d0b366141c6565b90969591939294611d1a614d86565b611d2387614dbf565b6001600160a01b038516156114ff578142116105465760408051602081018981526001600160a01b038088169383019390935260608201899052918716608082015260a081018a90523360c082015260e0810193909352611d928361010081015b03601f1981018552846140ef565b875f52600960205260405f20925190209282549160428360a01c9560405160208101917f5fd4fde1cb878824d6e96eec97296c9e818ad783a10b7c9ede6e7f27eca7b06b83528c60408301528860608301526003608083015260a082015260a08152611dff60c0826140ef565b519020611e0a6159e5565b90604051917f19010000000000000000000000000000000000000000000000000000000000008352600283015260228201522080920361051e57611e5c926104216001600160a01b0393928493615b01565b169116036104f6576bffffffffffffffffffffffff82146104c9576001611eaa92016001600160a01b0373ffffffffffffffffffffffffffffffffffffffff1983549260a01b169116179055565b604051606082901b7fffffffffffffffffffffffffffffffffffffffff00000000000000000000000016602082019081526034820185905290611efa81605481015b03601f1981018352826140ef565b51902090845f52601060205260405f20825f526020526001600160a01b0360405f20541615611ff357611f536001600160a01b0392865f52601060205260405f20815f526020525f600160408220828155015586615700565b1691823b156102b8576040517f42842e0e0000000000000000000000000000000000000000000000000000000081523060048201526001600160a01b039290921660248301526044820152905f908290606490829084905af18015610aac57611fe3575b507f06f0d08c652a32f118304f762c3f388848b7653f7df433f67a48aa734675f0135f80a36001600a55005b5f611fed916140ef565b82611fb7565b7ff070cb6f000000000000000000000000000000000000000000000000000000005f5260045ffd5b346102b8575f6003193601126102b8576040515f60015461203b8161437f565b80845290600181169081156120c15750600114612063575b610b1483610b00818503826140ef565b60015f9081527fb10e2d527612073b26eecdfd717e6a320cf44b4afac2b0732d9fcbe2b7fa0cf6939250905b8082106120a757509091508101602001610b00612053565b91926001816020925483858801015201910190929161208f565b7fffffffffffffffffffffffffffffffffffffffffffffffffffffffffffffff001660208086019190915291151560051b84019091019150610b009050612053565b346102b85760206003193601126102b85760043567ffffffffffffffff81116102b857612134903690600401614164565b61213c6156c0565b6013546121488161437f565b6122ed5781519067ffffffffffffffff82116122c0576121679061437f565b601f8111612229575b50602091601f82116001146121ae5761219e925f91836121a3575b50505f198260011b9260031b1c19161790565b601355005b01519050838061218b565b601f1982169260135f527f66de8ffda797e3de9c05e8fc57b3bf0ec28a930d40b0d285d93c06501cf6a090915f5b858110612211575083600195106121f9575b505050811b01601355005b01515f1960f88460031b161c191690558280806121ee565b919260206001819286850151815501940192016121dc565b6122929060135f52601f830160051c7f66de8ffda797e3de9c05e8fc57b3bf0ec28a930d40b0d285d93c06501cf6a090019060208410612298575b601f0160051c7f66de8ffda797e3de9c05e8fc57b3bf0ec28a930d40b0d285d93c06501cf6a09001906146ba565b82612170565b7f66de8ffda797e3de9c05e8fc57b3bf0ec28a930d40b0d285d93c06501cf6a0909150612264565b7f4e487b71000000000000000000000000000000000000000000000000000000005f52604160045260245ffd5b7fe8cba6d8000000000000000000000000000000000000000000000000000000005f5260045ffd5b346102b8576101606003193601126102b85760443567ffffffffffffffff81116102b857612347903690600401614164565b60643560843567ffffffffffffffff81116102b85761236a90369060040161403a565b909160a43567ffffffffffffffff81116102b85761238c90369060040161403a565b9360c43567ffffffffffffffff81116102b8576123ad90369060040161403a565b92909160e43567ffffffffffffffff81116102b8576123d090369060040161403a565b96909761010435966001600160a01b038816908189036102b857610124359b610144356123fb614d86565b612406600435614dbf565b83156114ff57804211610546578486148015906129b4575b61298c5782868f8f938f948b958f8f908f8d6040519a8b9960208b019b6004358d5260408c015260608b0161014090526101608b019061245d926147a0565b90898203601f190160808b0152612473926147ed565b90878203601f190160a0890152612489926147a0565b90858203601f190160c087015261249f926147ed565b918860e08501526101008401523361012084015261014083015203601f19810183526124cb90836140ef565b6004355f52600960205260405f2091519020918154908160a01c9360405160208101917f5fd4fde1cb878824d6e96eec97296c9e818ad783a10b7c9ede6e7f27eca7b06b83526004356040830152866060830152608082016006905260a082015260a0815261253b60c0826140ef565b5190206125466159e5565b90604051917f19010000000000000000000000000000000000000000000000000000000000008352600283015260228201526042902090816024350361051e5761259e926104216001600160a01b0393928493615b01565b169116036104f6576bffffffffffffffffffffffff82146104c95760016125ec92016001600160a01b0373ffffffffffffffffffffffffffffffffffffffff1983549260a01b169116179055565b8061293e575b50506004355f52600c60205260405f20915f5b8181106128ed57505f5b81811061285a575050505050505f5b8281106127bc57505f5b82811061265e57866004357f06f0d08c652a32f118304f762c3f388848b7653f7df433f67a48aa734675f0135f80a36001600a55005b61267161266c82858561482a565b61483a565b611eec6126c461268284898b61482a565b3560405192839160208301958690917fffffffffffffffffffffffffffffffffffffffff00000000000000000000000060349360601b16825260148201520190565b5190206004355f52601060205260405f20815f526020526001600160a01b0360405f20541615611ff35761271a906004355f52601060205260405f20815f526020525f6001604082208281550155600435615700565b6001600160a01b0361273061266c83868661482a565b169061273d81878961482a565b3591803b156102b8576040517f42842e0e0000000000000000000000000000000000000000000000000000000081523060048201526001600160a01b038716602482015260448101939093525f908390606490829084905af1918215610aac576001926127ac575b5001612628565b5f6127b6916140ef565b886127a5565b60018101908181116104c957815b8481106127d857505061261e565b6127e661266c83878761482a565b6001600160a01b03806127fd61266c858a8a61482a565b169116148061283b575b612813576001016127ca565b7f357d0cc4000000000000000000000000000000000000000000000000000000005f5260045ffd5b5061284782888a61482a565b3561285382898b61482a565b3514612807565b61286861266c82848861482a565b9061287481858961482a565b356001600160a01b0383165f528560205260405f205490808210611487576001600160a01b038481165f90815260208990526040902082840390556001946128c7938e92919084146128cd575b166155a7565b0161260f565b8181165f52896020525f60408120556128e881600435615463565b6128c1565b60018101908181116104c957815b838110612909575050612605565b61291761266c83868a61482a565b6001600160a01b038061292e61266c85898d61482a565b16911614612813576001016128fb565b6004355f52600b60205260405f205491818310611440575f828194926129668395849561473f565b6004358452600b60205260408420555af161297f61474c565b5015610ea4578a806125f2565b7f469224f0000000000000000000000000000000000000000000000000000000005f5260045ffd5b508b8a141561241e565b346102b85760406003193601126102b85761003e6129da613ff8565b600435615039565b346102b8575f6003193601126102b85760206001600160a01b0360065416604051908152f35b346102b85760206003193601126102b8576004355f52600f602052602060405f2054604051908152f35b346102b8575f6003193601126102b857612aea612a6e7f000000000000000000000000000000000000000000000000000000000000000061593c565b612a977f00000000000000000000000000000000000000000000000000000000000000006159ae565b6020612af860405192612aaa83856140ef565b5f84525f3681376040519586957f0f00000000000000000000000000000000000000000000000000000000000000875260e08588015260e0870190613fbd565b908582036040870152613fbd565b4660608501523060808501525f60a085015283810360c08501528180845192838152019301915f5b828110612b2f57505050500390f35b835185528695509381019392810192600101612b20565b346102b85760406003193601126102b857612b5f613ff8565b6004355f52600c6020526001600160a01b0360405f2091165f52602052602060405f2054604051908152f35b346102b857612b9936614182565b905f52601160205260405f20905f52602052602060405f2054604051908152f35b346102b857612bc836614231565b939291612bd3614d86565b336001600160a01b03851603612cd2576001600160a01b03831615612caa576001600160a01b03811615612c8257612c27612c2d93612c216012548097612c19826146d0565b601255614f06565b85615039565b836152a1565b7f032bc66be43dbccb7487781d168eb7bda224628a3b2c3388bdf69b532a3a16116020604051838152a17f4fd35fc7cab0142e2b2e81414dbd72945bc0ae0131a46c03bd8c7073234817805f80a36001600a55005b7f6b093aad000000000000000000000000000000000000000000000000000000005f5260045ffd5b7ffbd849c6000000000000000000000000000000000000000000000000000000005f5260045ffd5b7fbaee6e49000000000000000000000000000000000000000000000000000000005f5260045ffd5b346102b857612d0836614231565b939291612d13614d86565b336001600160a01b03851603612cd2576001600160a01b03831615612caa576001600160a01b03811615612c825781156114d757612d5f612c2d93612c216012548097612c19826146d0565b836150b0565b346102b8575f6003193601126102b857612d7d6156c0565b5f6001600160a01b0360065473ffffffffffffffffffffffffffffffffffffffff198116600655167f8be0079c531659141344cd1fd0a4f28419497f9722a3daafe3b4186f6b6457e08280a3005b346102b85760206003193601126102b8576001600160a01b03612dec613fe2565b168015612e09575f526003602052602060405f2054604051908152f35b7f89c62b64000000000000000000000000000000000000000000000000000000005f525f60045260245ffd5b346102b85760206003193601126102b85761003e6004356155fc565b612e5a36614182565b90612e63614d86565b612e6c81614dbf565b34156114d757805f52600b60205260405f20612e8934825461477b565b90557f0131d4fe789c9eeb7c2dd7e32aa9393d395bef62f1f67e0ba2a76d33c6dcf5ee5f80a36001600a55005b346102b85760206003193601126102b8576020612ed4600435614d65565b6001600160a01b0360405191168152f35b346102b857612ef3366141c6565b90969591929394612f02614d86565b612f0b87614dbf565b6001600160a01b038416156114ff578142116105465760408051602081018981526001600160a01b03808a169383019390935260608201889052918616608082015260a081018a90523360c082015260e0810193909352612f70836101008101611d84565b875f52600960205260405f20925190209282549160428360a01c9560405160208101917f5fd4fde1cb878824d6e96eec97296c9e818ad783a10b7c9ede6e7f27eca7b06b83528c60408301528860608301526002608083015260a082015260a08152612fdd60c0826140ef565b519020612fe86159e5565b90604051917f19010000000000000000000000000000000000000000000000000000000000008352600283015260228201522080920361051e5761303a926104216001600160a01b0393928493615b01565b169116036104f6576bffffffffffffffffffffffff82146104c957600161308892016001600160a01b0373ffffffffffffffffffffffffffffffffffffffff1983549260a01b169116179055565b835f52600c60205260405f20926001600160a01b0381165f528360205260405f205490838210611487576001600160a01b038181165f90815260208790526040902085840390556130e3959092851461310e575b50166155a7565b7f06f0d08c652a32f118304f762c3f388848b7653f7df433f67a48aa734675f0135f80a36001600a55005b8282165f526020525f60408120556131268187615463565b876130dc565b60606003193601126102b857613140613fe2565b613148613ff8565b613150614d86565b336001600160a01b03831603612cd2576001600160a01b03811615612caa5734156114d7576131909061318a6012548094612c19826146d0565b82615039565b805f52600b60205260405f206131a734825461477b565b90557f032bc66be43dbccb7487781d168eb7bda224628a3b2c3388bdf69b532a3a16116020604051838152a1604435907f4fd35fc7cab0142e2b2e81414dbd72945bc0ae0131a46c03bd8c7073234817805f80a36001600a55005b346102b85760e06003193601126102b85760043560443567ffffffffffffffff81116102b857613236903690600401614164565b9060643561324261400e565b9060a435936001600160a01b0360c4359361325b614d86565b61326486614dbf565b169283156114ff57804211610546576040519060208201908682528460408401528560608401528760808401523360a084015260c083015260c082526132ab60e0836140ef565b855f52600960205260405f20915190209181549060428260a01c9460405160208101917f5fd4fde1cb878824d6e96eec97296c9e818ad783a10b7c9ede6e7f27eca7b06b83528a60408301528760608301526001608083015260a082015260a0815261331860c0826140ef565b5190206133236159e5565b90604051917f19010000000000000000000000000000000000000000000000000000000000008352600283015260228201522090816024350361051e57613378926104216001600160a01b0393928493615b01565b169116036104f6576bffffffffffffffffffffffff82146104c95760016133c692016001600160a01b0373ffffffffffffffffffffffffffffffffffffffff1983549260a01b169116179055565b825f52600b60205260405f205491818310611440575f828194926133ec8395849561473f565b878452600b60205260408420555af161340361474c565b5015610ea4577f06f0d08c652a32f118304f762c3f388848b7653f7df433f67a48aa734675f0135f80a36001600a55005b346102b85761344236614198565b92919061344d614d86565b61345683614dbf565b6001600160a01b038216156114ff5761346f91836152a1565b7f0131d4fe789c9eeb7c2dd7e32aa9393d395bef62f1f67e0ba2a76d33c6dcf5ee5f80a36001600a55005b346102b85760206003193601126102b8576004355f52600b602052602060405f2054604051908152f35b346102b85760406003193601126102b8576134dd613ff8565b6004355f52600c6020526001600160a01b0360405f2091165f52602052602060405f20541515604051908152f35b346102b85761351936614198565b929190613524614d86565b61352d83614dbf565b6001600160a01b038216156114ff5780156114d75761346f91836150b0565b346102b85761003e61355d36614099565b906040519261356d6020856140ef565b5f8452614875565b346102b857602061359861358836614182565b905f52600f835260405f206146fd565b90549060031b1c604051908152f35b346102b85760206003193601126102b8576004356040517f6352211e0000000000000000000000000000000000000000000000000000000081528160048201526020816024816001600160a01b037f0000000000000000000000000000000000000000000000000000000000000000165afa908115610aac575f91613651575b506001600160a01b0333911603610a55575f526009602052602060405f205460a01c604051908152f35b61366a915060203d602011610aa557610a9781836140ef565b82613627565b6101006003193601126102b857613685613fe2565b61368d613ff8565b60443560643567ffffffffffffffff81116102b8576136b090369060040161403a565b60849291923567ffffffffffffffff81116102b8576136d390369060040161403a565b60a49291923567ffffffffffffffff81116102b8576136f690369060040161403a565b93909260c43567ffffffffffffffff81116102b85761371990369060040161403a565b979096613724614d86565b336001600160a01b038c1603612cd2576001600160a01b038a1615612caa57848314801590613826575b6137fe578034036137d65761377761377d9a613771601254809e612c19826146d0565b8c615039565b8a614e5d565b7f032bc66be43dbccb7487781d168eb7bda224628a3b2c3388bdf69b532a3a16116020604051838152a160e435907f4fd35fc7cab0142e2b2e81414dbd72945bc0ae0131a46c03bd8c7073234817805f80a36001600a55005b7f42c0a68f000000000000000000000000000000000000000000000000000000005f5260045ffd5b7fa24a13a6000000000000000000000000000000000000000000000000000000005f5260045ffd5b508887141561374e565b346102b85760c06003193601126102b85760043560443567ffffffffffffffff81116102b857613864903690600401614164565b60643567ffffffffffffffff81116102b857613884903690600401614164565b916084359160a435613894614d86565b825f5260026020526001600160a01b0360405f20541615611ae9576138b883614d65565b6001600160a01b0333911603610a5557804211610546576040519061391382602081019286845260a060408301526138f360c083018a613fbd565b9088606084015233608084015260a083015203601f1981018452836140ef565b835f52600960205260405f20915190209181549060428260a01c9460405160208101917f5fd4fde1cb878824d6e96eec97296c9e818ad783a10b7c9ede6e7f27eca7b06b83528860408301528760608301526005608083015260a082015260a0815261398060c0826140ef565b51902061398b6159e5565b90604051917f19010000000000000000000000000000000000000000000000000000000000008352600283015260228201522090816024350361051e576139e0926104216001600160a01b0393928493615b01565b169116036104f6576bffffffffffffffffffffffff82146104c9576001613a2e92016001600160a01b0373ffffffffffffffffffffffffffffffffffffffff1983549260a01b169116179055565b805f52601460205260405f20835167ffffffffffffffff81116122c057613a55825461437f565b601f8111613b29575b50602094601f8211600114613ac857613a8f9293949582915f92613abd5750505f198260011b9260031b1c19161790565b90555b7fe6b029312a4fe660620d9aac173bc78279912103135fdd45fcb95684efee4bd65f80a36001600a55005b01519050868061218b565b601f19821695835f52805f20915f5b888110613b1157508360019596979810613af9575b505050811b019055613a92565b01515f1960f88460031b161c19169055858080613aec565b91926020600181928685015181550194019201613ad7565b613b5490835f5260205f20601f840160051c81019160208510613b5a575b601f0160051c01906146ba565b85613a5e565b9091508190613b47565b346102b85761003e613b7536614099565b91614470565b346102b85760406003193601126102b857613b94613ff8565b6004355f52600e6020526001600160a01b0360405f2091165f52602052602060405f2054604051908152f35b346102b85760806003193601126102b857613bd9613fe2565b50613be2613ff8565b5060643567ffffffffffffffff81116102b857613c0390369060040161406b565b505060206040517f150b7a02000000000000000000000000000000000000000000000000000000008152f35b60e06003193601126102b85760043560243560443567ffffffffffffffff81116102b857613c6190369060040161403a565b9060643567ffffffffffffffff81116102b857613c8290369060040161403a565b9060843567ffffffffffffffff81116102b857613ca390369060040161403a565b92909160a43567ffffffffffffffff81116102b857613cc690369060040161403a565b969095613cd1614d86565b881580613d75575b80613d6d575b6114d757613cec8a614dbf565b883403613d4557838214801590613d3b575b61298c57613d0c988a614e5d565b60c435907f0131d4fe789c9eeb7c2dd7e32aa9393d395bef62f1f67e0ba2a76d33c6dcf5ee5f80a36001600a55005b5087861415613cfe565b7fcfb73638000000000000000000000000000000000000000000000000000000005f5260045ffd5b508515613cdf565b508115613cd9565b346102b85760406003193601126102b857613d96613fe2565b602435613da281614d65565b33151580613e7c575b80613e49575b613e1d5781906001600160a01b0380851691167f8c5be1e5ebec7d5bd14f71427d1e84f3dd0314c0f7b2291e5b200ac8c7c3b9255f80a45f5260046020526001600160a01b0360405f20911673ffffffffffffffffffffffffffffffffffffffff198254161790555f80f35b7fa9fbf51f000000000000000000000000000000000000000000000000000000005f523360045260245ffd5b506001600160a01b0381165f52600560205260405f206001600160a01b0333165f5260205260ff60405f20541615613db1565b50336001600160a01b0382161415613dab565b346102b85760206003193601126102b857600435613eac81614d65565b505f52600460205260206001600160a01b0360405f205416604051908152f35b346102b8575f6003193601126102b8576040515f5f54613eeb8161437f565b80845290600181169081156120c15750600114613f1257610b1483610b00818503826140ef565b5f8080527f290decd9548b62a8d60345a988386fc84ba6bc95484008f6362f93160ef3e563939250905b808210613f5457509091508101602001610b00612053565b919260018160209254838588010152019101909291613f3c565b346102b85760206003193601126102b857600435907fffffffff00000000000000000000000000000000000000000000000000000000821682036102b857613fb7602092614283565b15158152f35b90601f19601f602080948051918291828752018686015e5f8582860101520116010190565b600435906001600160a01b03821682036102b857565b602435906001600160a01b03821682036102b857565b608435906001600160a01b03821682036102b857565b606435906001600160a01b03821682036102b857565b9181601f840112156102b85782359167ffffffffffffffff83116102b8576020808501948460051b0101116102b857565b9181601f840112156102b85782359167ffffffffffffffff83116102b857602083818601950101116102b857565b60031960609101126102b8576004356001600160a01b03811681036102b857906024356001600160a01b03811681036102b8579060443590565b6040810190811067ffffffffffffffff8211176122c057604052565b90601f601f19910116810190811067ffffffffffffffff8211176122c057604052565b67ffffffffffffffff81116122c057601f01601f191660200190565b92919261413a82614112565b9161414860405193846140ef565b8294818452818301116102b8578281602093845f960137010152565b9080601f830112156102b85781602061417f9335910161412e565b90565b60031960409101126102b8576004359060243590565b60031960809101126102b857600435906024356001600160a01b03811681036102b857906044359060643590565b6101006003198201126102b85760043591602435916044359067ffffffffffffffff82116102b8576141fa91600401614164565b906064356001600160a01b03811681036102b857906084359060a4356001600160a01b03811681036102b8579060c4359060e43590565b60031960a09101126102b8576004356001600160a01b03811681036102b857906024356001600160a01b03811681036102b857906044356001600160a01b03811681036102b857906064359060843590565b7fffffffff00000000000000000000000000000000000000000000000000000000167fb45a3c0e000000000000000000000000000000000000000000000000000000008114614379577f150b7a02000000000000000000000000000000000000000000000000000000008114614379577f80ac58cd00000000000000000000000000000000000000000000000000000000811490811561434f575b8115614328575090565b7f01ffc9a70000000000000000000000000000000000000000000000000000000091501490565b7f5b5e139f000000000000000000000000000000000000000000000000000000008114915061431e565b50600190565b90600182811c921680156143c6575b602083101461439957565b7f4e487b71000000000000000000000000000000000000000000000000000000005f52602260045260245ffd5b91607f169161438e565b5f92918154916143df8361437f565b808352926001811690811561443457506001146143fb57505050565b5f9081526020812093945091925b83831061441a575060209250010190565b600181602092949394548385870101520191019190614409565b905060209495507fffffffffffffffffffffffffffffffffffffffffffffffffffffffffffffff0091509291921683830152151560051b010190565b91906001600160a01b0316801561468e57815f5260026020526001600160a01b0360405f205416151580614686575b6119bf57815f5260026020526001600160a01b0360405f205416928233151592836145b8575b6001600160a01b03935085614574575b805f52600360205260405f2060018154019055815f52600260205260405f208173ffffffffffffffffffffffffffffffffffffffff19825416179055857fddf252ad1be2c89b69c2b068fc378daa952ba7f163c4a11628f55a4df523b3ef5f80a41680830361454357505050565b7f64283d7b000000000000000000000000000000000000000000000000000000005f5260045260245260445260645ffd5b6145a0825f52600460205260405f2073ffffffffffffffffffffffffffffffffffffffff198154169055565b855f52600360205260405f205f1981540190556144d5565b919290508061462f575b156145cf578282916144c5565b8284614600577f7e273289000000000000000000000000000000000000000000000000000000005f5260045260245ffd5b7f177e802f000000000000000000000000000000000000000000000000000000005f523360045260245260445ffd5b50338414801561465d575b806145c25750825f526004602052336001600160a01b0360405f205416146145c2565b50835f52600560205260405f206001600160a01b0333165f5260205260ff60405f20541661463a565b50600161449f565b7f64a0ae92000000000000000000000000000000000000000000000000000000005f525f60045260245ffd5b8181106146c5575050565b5f81556001016146ba565b5f1981146104c95760010190565b908160209103126102b857516001600160a01b03811681036102b85790565b8054821015614712575f5260205f2001905f90565b7f4e487b71000000000000000000000000000000000000000000000000000000005f52603260045260245ffd5b919082039182116104c957565b3d15614776573d9061475d82614112565b9161476b60405193846140ef565b82523d5f602084013e565b606090565b919082018092116104c957565b67ffffffffffffffff81116122c05760051b60200190565b916020908281520191905f905b8082106147ba5750505090565b9091928335906001600160a01b03821682036102b857602080916001600160a01b036001941681520194019201906147ad565b90918281527f07ffffffffffffffffffffffffffffffffffffffffffffffffffffffffffffff83116102b85760209260051b809284830137010190565b91908110156147125760051b0190565b356001600160a01b03811681036102b85790565b9060405161485b816140d3565b6020600182946001600160a01b0381541684520154910152565b90614881838284614470565b803b61488e575b50505050565b6020916148ed6001600160a01b038093169560405195869485947f150b7a020000000000000000000000000000000000000000000000000000000086523360048701521660248501526044840152608060648401526084830190613fbd565b03815f865af15f91816149c0575b50614942575061490961474c565b8051908161493d57827f64a0ae92000000000000000000000000000000000000000000000000000000005f5260045260245ffd5b602001fd5b7fffffffff000000000000000000000000000000000000000000000000000000007f150b7a020000000000000000000000000000000000000000000000000000000091160361499557505f808080614888565b7f64a0ae92000000000000000000000000000000000000000000000000000000005f5260045260245ffd5b9091506020813d602011614a15575b816149dc602093836140ef565b810103126102b857517fffffffff00000000000000000000000000000000000000000000000000000000811681036102b857905f6148fb565b3d91506149cf565b90815491680100000000000000008310156122c05782614a45916001614a64950181556146fd565b9091906001600160a01b038084549260031b9316831b921b1916179055565b565b805f5260026020526001600160a01b0360405f20541615611ae957805f526014602052614a9f614aa660405f20604051928380926143d0565b03826140ef565b8051614d4c5750601354614ab98161437f565b614ae5577f8714d516000000000000000000000000000000000000000000000000000000005f5260045ffd5b81825f937a184f03e93ff9f4daa797ed6e38ed64bf6a1f010000000000000000811015614d21575b50806d04ee2d6d415b85acef8100000000600a921015614d06575b662386f26fc10000811015614cf2575b6305f5e100811015614ce1575b612710811015614cd2575b6064811015614cc4575b1015614cba575b6001830190600a5f196021614b8e614b7886614112565b95614b8660405197886140ef565b808752614112565b96601f196020870198013689378501015b01917f30313233343536373839616263646566000000000000000000000000000000008282061a8353048015614bda575f19600a9192614b9f565b50506040519283915f90614bed8561437f565b9460018116908115614c7c5750600114614c1e575b61417f9450518092825e015f815203601f1981018352826140ef565b905060135f527f66de8ffda797e3de9c05e8fc57b3bf0ec28a930d40b0d285d93c06501cf6a090935f5b818110614c60575061417f9450830160200190614c02565b8554602082890181019190915260019096019587955001614c48565b602092935061417f9691507fffffffffffffffffffffffffffffffffffffffffffffffffffffffffffffff0016828601528015150284010190614c02565b9160010191614b61565b606460029104940193614b5a565b61271060049104940193614b50565b6305f5e10060089104940193614b45565b662386f26fc1000060109104940193614b38565b6d04ee2d6d415b85acef810000000060209104940193614b28565b604094507a184f03e93ff9f4daa797ed6e38ed64bf6a1f01000000000000000090049050600a614b0d565b905090565b80518210156147125760209160051b010190565b805f5260026020526001600160a01b0360405f20541690811561190d575090565b6002600a5414614d97576002600a55565b7f3ee5aeb5000000000000000000000000000000000000000000000000000000005f5260045ffd5b604051907f6352211e00000000000000000000000000000000000000000000000000000000825260048201526020816024816001600160a01b037f0000000000000000000000000000000000000000000000000000000000000000165afa908115610aac575f91614e3e575b506001600160a01b0333911603610a5557565b614e57915060203d602011610aa557610a9781836140ef565b5f614e2b565b9796949193929098959880614ee7575b505f5b818110614eba5750505050505f5b818110614e8d57505050505050565b80614eb4614ea161266c600194868b61482a565b614eac83878961482a565b3590886152a1565b01614e7e565b80614ee1614ece61266c600194868a61482a565b614ed983878961482a565b35908c6150b0565b01614e70565b885f52600b602052614efe60405f2091825461477b565b90555f614e6d565b6001600160a01b031690811561468e57805f5260026020526001600160a01b0360405f205416151580615031575b6119bf57805f5260026020526001600160a01b0360405f205416908115159283614fed575b805f52600360205260405f2060018154019055815f52600260205260405f208173ffffffffffffffffffffffffffffffffffffffff19825416179055827fddf252ad1be2c89b69c2b068fc378daa952ba7f163c4a11628f55a4df523b3ef5f80a450614fc157565b7f73c6ac6e000000000000000000000000000000000000000000000000000000005f525f60045260245ffd5b615019825f52600460205260405f2073ffffffffffffffffffffffffffffffffffffffff198154169055565b825f52600360205260405f205f198154019055614f59565b506001614f34565b90815f5260096020526001600160a01b0360405f205416615088575f918252600960205260409091206001600160a01b0390911674010000000000000000000000000000000000000000179055565b7f0dc149f0000000000000000000000000000000000000000000000000000000005f5260045ffd5b6040517f70a0823100000000000000000000000000000000000000000000000000000000815230600482015291926001600160a01b0384169290602082602481875afa918215610aac575f9261526b575b506040517f23b872dd0000000000000000000000000000000000000000000000000000000060208201523360248201523060448201526064810191909152615156906151508160848101611eec565b846158cf565b604051907f70a08231000000000000000000000000000000000000000000000000000000008252306004830152602082602481875afa8015610aac575f90615237575b6151a3925061473f565b9283156114d757815f52600c60205260405f20835f5260205260405f2054156151ec575b505f52600c60205260405f20905f526020526151e860405f2091825461477b565b9055565b815f52600d60205260405f205490600182018092116104c95761523191835f52600e60205260405f20855f5260205260405f2055825f52600d60205260405f20614a1d565b5f6151c7565b506020823d602011615263575b81615251602093836140ef565b810103126102b8576151a39151615199565b3d9150615244565b9091506020813d602011615299575b81615287602093836140ef565b810103126102b8575190611eec615101565b3d915061527a565b9060405160208101906152e981611eec87868690917fffffffffffffffffffffffffffffffffffffffff00000000000000000000000060349360601b16825260148201520190565b51902091805f52601060205260405f20835f526020526001600160a01b0360405f205416156153df575b6001906001600160a01b036040519361532b856140d3565b169384845260208401918683525f52601060205260405f20905f526020526001600160a01b038060405f209451161673ffffffffffffffffffffffffffffffffffffffff1984541617835551910155803b156102b8576040517f42842e0e00000000000000000000000000000000000000000000000000000000815233600482015230602482015260448101929092525f908290606490829084905af18015610aac576153d55750565b5f614a64916140ef565b805f52600f60205260405f2054600181018091116104c957815f52601160205260405f20845f5260205260405f2055805f52600f60205260405f2090815491680100000000000000008310156122c05761545a615444848793600180970181556146fd565b81939154905f199060031b92831b921b19161790565b90559050615313565b805f52600e60205260405f206001600160a01b0383165f5260205260405f205480156155a257815f52600d60205260405f2054808203615525575b5050805f52600d60205260405f20805480156154f8575f1901906154c282826146fd565b6001600160a01b0382549160031b1b19169055555f52600e6020526001600160a01b0360405f2091165f526020525f6040812055565b7f4e487b71000000000000000000000000000000000000000000000000000000005f52603160045260245ffd5b825f52600d60205260405f205f1982019182116104c9576001600160a01b039161554e916146fd565b90549060031b1c16825f52600d60205260405f205f1983018381116104c957614a45839161557b936146fd565b825f52600e6020526001600160a01b0360405f2091165f5260205260405f20555f8061549e565b505050565b6040517fa9059cbb0000000000000000000000000000000000000000000000000000000060208201526001600160a01b03929092166024830152604480830193909352918152614a64916112c36064836140ef565b604051907f6352211e00000000000000000000000000000000000000000000000000000000825260048201526020816024816001600160a01b037f0000000000000000000000000000000000000000000000000000000000000000165afa5f918161569f575b5061568f577fb1d04f08000000000000000000000000000000000000000000000000000000005f5260045ffd5b6001600160a01b031615611ae957565b6156b991925060203d602011610aa557610a9781836140ef565b905f615662565b6001600160a01b036006541633036156d457565b7f118cdaa7000000000000000000000000000000000000000000000000000000005f523360045260245ffd5b805f52601160205260405f20825f5260205260405f205480156155a257815f52600f60205260405f205480820361577d575b5050805f52600f60205260405f20805480156154f8575f19019061575682826146fd565b5f1982549160031b1b19169055555f52601160205260405f20905f526020525f6040812055565b825f52600f60205260405f20905f1981019081116104c95761579e916146fd565b90549060031b1c825f52600f60205260405f205f1983018381116104c9576154446157ca9184936146fd565b9055825f52601160205260405f20905f5260205260405f20555f80615732565b6040519060205f6001600160a01b03828501957f095ea7b300000000000000000000000000000000000000000000000000000000875216948560248601528160448601526044855261583d6064866140ef565b84519082855af15f513d826158aa575b50501561585957505050565b6112c3614a6493604051907f095ea7b300000000000000000000000000000000000000000000000000000000602083015260248201525f6044820152604481526158a46064826140ef565b826158cf565b9091506158c757506001600160a01b0381163b15155b5f8061584d565b6001146158c0565b905f602091828151910182855af115610aac575f513d61593357506001600160a01b0381163b155b6158fe5750565b6001600160a01b03907f5274afe7000000000000000000000000000000000000000000000000000000005f521660045260245ffd5b600114156158f7565b60ff811461599b5760ff811690601f821161597357604051916159606040846140ef565b6020808452838101919036833783525290565b7fb3512b0c000000000000000000000000000000000000000000000000000000005f5260045ffd5b5060405161417f81614a9f8160076143d0565b60ff81146159d25760ff811690601f821161597357604051916159606040846140ef565b5060405161417f81614a9f8160086143d0565b6001600160a01b037f000000000000000000000000000000000000000000000000000000000000000016301480615ad8575b15615a40577f000000000000000000000000000000000000000000000000000000000000000090565b60405160208101907f8b73c3c69bb8fe3d512ecc4cf759cc79239f7b179b0ffacaa9a75d522b39400f82527f000000000000000000000000000000000000000000000000000000000000000060408201527f000000000000000000000000000000000000000000000000000000000000000060608201524660808201523060a082015260a08152615ad260c0826140ef565b51902090565b507f00000000000000000000000000000000000000000000000000000000000000004614615a17565b8151919060418303615b3157615b2a9250602082015190606060408401519301515f1a90615c13565b9192909190565b50505f9160029190565b6004811015615be65780615b4d575050565b60018103615b7d577ff645eedf000000000000000000000000000000000000000000000000000000005f5260045ffd5b60028103615bb157507ffce698f7000000000000000000000000000000000000000000000000000000005f5260045260245ffd5b600314615bbb5750565b7fd78bce0c000000000000000000000000000000000000000000000000000000005f5260045260245ffd5b7f4e487b71000000000000000000000000000000000000000000000000000000005f52602160045260245ffd5b91907f7fffffffffffffffffffffffffffffff5d576e7357a4501ddfe92f46681b20a08411615c8a579160209360809260ff5f9560405194855216868401526040830152606082015282805260015afa15610aac575f516001600160a01b03811615615c8057905f905f90565b505f906001905f90565b5050505f916003919056fea2646970667358221220fb8147cc042aa8367150e192daca6ca2c743d65e19c5253291a5372c48c730fa64736f6c634300081e0033","linkReferences":{}},"methodIdentifiers":{"approve(address,uint256)":"095ea7b3","balanceOf(address)":"70a08231","batchDeposit(uint256,uint256,address[],uint256[],address[],uint256[],bytes32)":"0db54256","batchWithdraw(uint256,bytes32,bytes,uint256,address[],uint256[],address[],uint256[],address,bytes32,uint256)":"8f93f31b","burnLockbox(uint256,bytes32,bytes,bytes32,uint256)":"bb4ffa10","createLockboxWithBatch(address,address,uint256,address[],uint256[],address[],uint256[],bytes32)":"3b0320b0","createLockboxWithERC20(address,address,address,uint256,bytes32)":"748917dd","createLockboxWithERC721(address,address,address,uint256,bytes32)":"75463c4a","createLockboxWithETH(address,address,bytes32)":"5e4ed95d","depositERC20(uint256,address,uint256,bytes32)":"486c4b7f","depositERC721(uint256,address,uint256,bytes32)":"4d8af09e","depositETH(uint256,bytes32)":"65cd69a1","eip712Domain()":"84b0196e","getActiveLockboxPublicKeyForToken(uint256)":"aea5cf30","getApproved(uint256)":"081812fc","getERC20Bal(uint256,address)":"832d46cc","getErc20AddressAt(uint256,uint256)":"fa2bb376","getErc20ArrayLength(uint256)":"d0856eb4","getErc20Index(uint256,address)":"1c30dbb6","getErc20Known(uint256,address)":"490091fd","getEthBal(uint256)":"4bf7e15a","getFullLockbox(uint256)":"e124a17c","getNftIndex(uint256,bytes32)":"7b1f8f2e","getNftKeyAt(uint256,uint256)":"3df23e53","getNftKeysLength(uint256)":"8aedc644","getNftRecord(uint256,bytes32)":"ada09a30","getNonce(uint256)":"3d46b819","harnessInitialize(uint256,address)":"8f0ce30e","harnessRequireExists(uint256)":"6f2ec573","isApprovedForAll(address,address)":"e985e9c5","locked(uint256)":"b45a3c0e","name()":"06fdde03","onERC721Received(address,address,uint256,bytes)":"150b7a02","owner()":"8da5cb5b","ownerOf(uint256)":"6352211e","renounceOwnership()":"715018a6","rotateLockboxKey(uint256,bytes32,bytes,address,bytes32,uint256)":"f3eb9a16","safeTransferFrom(address,address,uint256)":"42842e0e","safeTransferFrom(address,address,uint256,bytes)":"b88d4fde","setApprovalForAll(address,bool)":"a22cb465","setDefaultMetadataURI(string)":"95480879","setTokenMetadataURI(uint256,bytes32,bytes,string,bytes32,uint256)":"2dbf9be6","supportsInterface(bytes4)":"01ffc9a7","swapInLockbox(uint256,bytes32,bytes,address,address,uint256,uint256,address,bytes,bytes32,uint256,address)":"bd1ca785","symbol()":"95d89b41","tokenURI(uint256)":"c87b56dd","transferFrom(address,address,uint256)":"23b872dd","transferOwnership(address)":"f2fde38b","withdrawERC20(uint256,bytes32,bytes,address,uint256,address,bytes32,uint256)":"6267699a","withdrawERC721(uint256,bytes32,bytes,address,uint256,address,bytes32,uint256)":"9b9900a9","withdrawETH(uint256,bytes32,bytes,uint256,address,bytes32,uint256)":"52dc033c"},"id":4}