{"abi":[{"type":"fallback","stateMutability":"nonpayable"},{"type":"receive","stateMutability":"payable"},{"type":"function","name":"SWAP_FEE_BP","inputs":[],"outputs":[{"name":"","type":"uint256","internalType":"uint256"}],"stateMutability":"view"},{"type":"function","name":"TREASURY_LOCKBOX_ID","inputs":[],"outputs":[{"name":"","type":"uint256","internalType":"uint256"}],"stateMutability":"view"},{"type":"function","name":"approve","inputs":[{"name":"to","type":"address","internalType":"address"},{"name":"tokenId","type":"uint256","internalType":"uint256"}],"outputs":[],"stateMutability":"nonpayable"},{"type":"function","name":"balanceOf","inputs":[{"name":"owner","type":"address","internalType":"address"}],"outputs":[{"name":"","type":"uint256","internalType":"uint256"}],"stateMutability":"view"},{"type":"function","name":"batchDeposit","inputs":[{"name":"tokenId","type":"uint256","internalType":"uint256"},{"name":"amountETH","type":"uint256","internalType":"uint256"},{"name":"tokenAddresses","type":"address[]","internalType":"address[]"},{"name":"tokenAmounts","type":"uint256[]","internalType":"uint256[]"},{"name":"nftContracts","type":"address[]","internalType":"address[]"},{"name":"nftTokenIds","type":"uint256[]","internalType":"uint256[]"},{"name":"referenceId","type":"bytes32","internalType":"bytes32"}],"outputs":[],"stateMutability":"payable"},{"type":"function","name":"batchWithdraw","inputs":[{"name":"tokenId","type":"uint256","internalType":"uint256"},{"name":"messageHash","type":"bytes32","internalType":"bytes32"},{"name":"signature","type":"bytes","internalType":"bytes"},{"name":"amountETH","type":"uint256","internalType":"uint256"},{"name":"tokenAddresses","type":"address[]","internalType":"address[]"},{"name":"tokenAmounts","type":"uint256[]","internalType":"uint256[]"},{"name":"nftContracts","type":"address[]","internalType":"address[]"},{"name":"nftTokenIds","type":"uint256[]","internalType":"uint256[]"},{"name":"recipient","type":"address","internalType":"address"},{"name":"referenceId","type":"bytes32","internalType":"bytes32"},{"name":"signatureExpiry","type":"uint256","internalType":"uint256"}],"outputs":[],"stateMutability":"nonpayable"},{"type":"function","name":"burnLockbox","inputs":[{"name":"tokenId","type":"uint256","internalType":"uint256"},{"name":"messageHash","type":"bytes32","internalType":"bytes32"},{"name":"signature","type":"bytes","internalType":"bytes"},{"name":"referenceId","type":"bytes32","internalType":"bytes32"},{"name":"signatureExpiry","type":"uint256","internalType":"uint256"}],"outputs":[],"stateMutability":"nonpayable"},{"type":"function","name":"createLockboxWithBatch","inputs":[{"name":"to","type":"address","internalType":"address"},{"name":"lockboxPublicKey","type":"address","internalType":"address"},{"name":"amountETH","type":"uint256","internalType":"uint256"},{"name":"tokenAddresses","type":"address[]","internalType":"address[]"},{"name":"tokenAmounts","type":"uint256[]","internalType":"uint256[]"},{"name":"nftContracts","type":"address[]","internalType":"address[]"},{"name":"nftTokenIds","type":"uint256[]","internalType":"uint256[]"},{"name":"referenceId","type":"bytes32","internalType":"bytes32"}],"outputs":[],"stateMutability":"payable"},{"type":"function","name":"createLockboxWithERC20","inputs":[{"name":"to","type":"address","internalType":"address"},{"name":"lockboxPublicKey","type":"address","internalType":"address"},{"name":"tokenAddress","type":"address","internalType":"address"},{"name":"amount","type":"uint256","internalType":"uint256"},{"name":"referenceId","type":"bytes32","internalType":"bytes32"}],"outputs":[],"stateMutability":"nonpayable"},{"type":"function","name":"createLockboxWithERC721","inputs":[{"name":"to","type":"address","internalType":"address"},{"name":"lockboxPublicKey","type":"address","internalType":"address"},{"name":"nftContract","type":"address","internalType":"address"},{"name":"externalNftTokenId","type":"uint256","internalType":"uint256"},{"name":"referenceId","type":"bytes32","internalType":"bytes32"}],"outputs":[],"stateMutability":"nonpayable"},{"type":"function","name":"createLockboxWithETH","inputs":[{"name":"to","type":"address","internalType":"address"},{"name":"lockboxPublicKey","type":"address","internalType":"address"},{"name":"referenceId","type":"bytes32","internalType":"bytes32"}],"outputs":[],"stateMutability":"payable"},{"type":"function","name":"depositERC20","inputs":[{"name":"tokenId","type":"uint256","internalType":"uint256"},{"name":"tokenAddress","type":"address","internalType":"address"},{"name":"amount","type":"uint256","internalType":"uint256"},{"name":"referenceId","type":"bytes32","internalType":"bytes32"}],"outputs":[],"stateMutability":"nonpayable"},{"type":"function","name":"depositERC721","inputs":[{"name":"tokenId","type":"uint256","internalType":"uint256"},{"name":"nftContract","type":"address","internalType":"address"},{"name":"nftTokenId","type":"uint256","internalType":"uint256"},{"name":"referenceId","type":"bytes32","internalType":"bytes32"}],"outputs":[],"stateMutability":"nonpayable"},{"type":"function","name":"depositETH","inputs":[{"name":"tokenId","type":"uint256","internalType":"uint256"},{"name":"referenceId","type":"bytes32","internalType":"bytes32"}],"outputs":[],"stateMutability":"payable"},{"type":"function","name":"eip712Domain","inputs":[],"outputs":[{"name":"fields","type":"bytes1","internalType":"bytes1"},{"name":"name","type":"string","internalType":"string"},{"name":"version","type":"string","internalType":"string"},{"name":"chainId","type":"uint256","internalType":"uint256"},{"name":"verifyingContract","type":"address","internalType":"address"},{"name":"salt","type":"bytes32","internalType":"bytes32"},{"name":"extensions","type":"uint256[]","internalType":"uint256[]"}],"stateMutability":"view"},{"type":"function","name":"getActiveLockboxPublicKeyForToken","inputs":[{"name":"tokenId","type":"uint256","internalType":"uint256"}],"outputs":[{"name":"","type":"address","internalType":"address"}],"stateMutability":"view"},{"type":"function","name":"getApproved","inputs":[{"name":"tokenId","type":"uint256","internalType":"uint256"}],"outputs":[{"name":"","type":"address","internalType":"address"}],"stateMutability":"view"},{"type":"function","name":"getERC20Bal","inputs":[{"name":"tokenId","type":"uint256","internalType":"uint256"},{"name":"token","type":"address","internalType":"address"}],"outputs":[{"name":"","type":"uint256","internalType":"uint256"}],"stateMutability":"view"},{"type":"function","name":"getErc20AddressAt","inputs":[{"name":"tokenId","type":"uint256","internalType":"uint256"},{"name":"index","type":"uint256","internalType":"uint256"}],"outputs":[{"name":"","type":"address","internalType":"address"}],"stateMutability":"view"},{"type":"function","name":"getErc20ArrayLength","inputs":[{"name":"tokenId","type":"uint256","internalType":"uint256"}],"outputs":[{"name":"","type":"uint256","internalType":"uint256"}],"stateMutability":"view"},{"type":"function","name":"getErc20Index","inputs":[{"name":"tokenId","type":"uint256","internalType":"uint256"},{"name":"token","type":"address","internalType":"address"}],"outputs":[{"name":"","type":"uint256","internalType":"uint256"}],"stateMutability":"view"},{"type":"function","name":"getErc20Known","inputs":[{"name":"tokenId","type":"uint256","internalType":"uint256"},{"name":"token","type":"address","internalType":"address"}],"outputs":[{"name":"","type":"bool","internalType":"bool"}],"stateMutability":"view"},{"type":"function","name":"getEthBal","inputs":[{"name":"tokenId","type":"uint256","internalType":"uint256"}],"outputs":[{"name":"","type":"uint256","internalType":"uint256"}],"stateMutability":"view"},{"type":"function","name":"getFullLockbox","inputs":[{"name":"tokenId","type":"uint256","internalType":"uint256"}],"outputs":[{"name":"lockboxETH","type":"uint256","internalType":"uint256"},{"name":"erc20Tokens","type":"tuple[]","internalType":"struct Withdrawals.erc20Balances[]","components":[{"name":"tokenAddress","type":"address","internalType":"address"},{"name":"balance","type":"uint256","internalType":"uint256"}]},{"name":"nftContracts","type":"tuple[]","internalType":"struct Deposits.nftBalances[]","components":[{"name":"nftContract","type":"address","internalType":"address"},{"name":"nftTokenId","type":"uint256","internalType":"uint256"}]}],"stateMutability":"view"},{"type":"function","name":"getNftIndex","inputs":[{"name":"tokenId","type":"uint256","internalType":"uint256"},{"name":"key","type":"bytes32","internalType":"bytes32"}],"outputs":[{"name":"","type":"uint256","internalType":"uint256"}],"stateMutability":"view"},{"type":"function","name":"getNftKeyAt","inputs":[{"name":"tokenId","type":"uint256","internalType":"uint256"},{"name":"index","type":"uint256","internalType":"uint256"}],"outputs":[{"name":"","type":"bytes32","internalType":"bytes32"}],"stateMutability":"view"},{"type":"function","name":"getNftKeysLength","inputs":[{"name":"tokenId","type":"uint256","internalType":"uint256"}],"outputs":[{"name":"","type":"uint256","internalType":"uint256"}],"stateMutability":"view"},{"type":"function","name":"getNftRecord","inputs":[{"name":"tokenId","type":"uint256","internalType":"uint256"},{"name":"key","type":"bytes32","internalType":"bytes32"}],"outputs":[{"name":"","type":"address","internalType":"address"},{"name":"","type":"uint256","internalType":"uint256"}],"stateMutability":"view"},{"type":"function","name":"getNonce","inputs":[{"name":"tokenId","type":"uint256","internalType":"uint256"}],"outputs":[{"name":"","type":"uint256","internalType":"uint256"}],"stateMutability":"view"},{"type":"function","name":"harnessInitialize","inputs":[{"name":"tokenId","type":"uint256","internalType":"uint256"},{"name":"lockboxPublicKey","type":"address","internalType":"address"}],"outputs":[],"stateMutability":"nonpayable"},{"type":"function","name":"harnessRequireExists","inputs":[{"name":"tokenId","type":"uint256","internalType":"uint256"}],"outputs":[],"stateMutability":"view"},{"type":"function","name":"isApprovedForAll","inputs":[{"name":"owner","type":"address","internalType":"address"},{"name":"operator","type":"address","internalType":"address"}],"outputs":[{"name":"","type":"bool","internalType":"bool"}],"stateMutability":"view"},{"type":"function","name":"locked","inputs":[{"name":"tokenId","type":"uint256","internalType":"uint256"}],"outputs":[{"name":"","type":"bool","internalType":"bool"}],"stateMutability":"view"},{"type":"function","name":"name","inputs":[],"outputs":[{"name":"","type":"string","internalType":"string"}],"stateMutability":"view"},{"type":"function","name":"onERC721Received","inputs":[{"name":"","type":"address","internalType":"address"},{"name":"","type":"address","internalType":"address"},{"name":"","type":"uint256","internalType":"uint256"},{"name":"","type":"bytes","internalType":"bytes"}],"outputs":[{"name":"","type":"bytes4","internalType":"bytes4"}],"stateMutability":"pure"},{"type":"function","name":"owner","inputs":[],"outputs":[{"name":"","type":"address","internalType":"address"}],"stateMutability":"view"},{"type":"function","name":"ownerOf","inputs":[{"name":"tokenId","type":"uint256","internalType":"uint256"}],"outputs":[{"name":"","type":"address","internalType":"address"}],"stateMutability":"view"},{"type":"function","name":"renounceOwnership","inputs":[],"outputs":[],"stateMutability":"nonpayable"},{"type":"function","name":"rotateLockboxKey","inputs":[{"name":"tokenId","type":"uint256","internalType":"uint256"},{"name":"messageHash","type":"bytes32","internalType":"bytes32"},{"name":"signature","type":"bytes","internalType":"bytes"},{"name":"newPublicKey","type":"address","internalType":"address"},{"name":"referenceId","type":"bytes32","internalType":"bytes32"},{"name":"signatureExpiry","type":"uint256","internalType":"uint256"}],"outputs":[],"stateMutability":"nonpayable"},{"type":"function","name":"safeTransferFrom","inputs":[{"name":"from","type":"address","internalType":"address"},{"name":"to","type":"address","internalType":"address"},{"name":"tokenId","type":"uint256","internalType":"uint256"}],"outputs":[],"stateMutability":"nonpayable"},{"type":"function","name":"safeTransferFrom","inputs":[{"name":"from","type":"address","internalType":"address"},{"name":"to","type":"address","internalType":"address"},{"name":"tokenId","type":"uint256","internalType":"uint256"},{"name":"data","type":"bytes","internalType":"bytes"}],"outputs":[],"stateMutability":"nonpayable"},{"type":"function","name":"setApprovalForAll","inputs":[{"name":"operator","type":"address","internalType":"address"},{"name":"approved","type":"bool","internalType":"bool"}],"outputs":[],"stateMutability":"nonpayable"},{"type":"function","name":"setDefaultMetadataURI","inputs":[{"name":"newDefaultURI","type":"string","internalType":"string"}],"outputs":[],"stateMutability":"nonpayable"},{"type":"function","name":"setTokenMetadataURI","inputs":[{"name":"tokenId","type":"uint256","internalType":"uint256"},{"name":"messageHash","type":"bytes32","internalType":"bytes32"},{"name":"signature","type":"bytes","internalType":"bytes"},{"name":"newMetadataURI","type":"string","internalType":"string"},{"name":"referenceId","type":"bytes32","internalType":"bytes32"},{"name":"signatureExpiry","type":"uint256","internalType":"uint256"}],"outputs":[],"stateMutability":"nonpayable"},{"type":"function","name":"supportsInterface","inputs":[{"name":"interfaceId","type":"bytes4","internalType":"bytes4"}],"outputs":[{"name":"","type":"bool","internalType":"bool"}],"stateMutability":"view"},{"type":"function","name":"swapInLockbox","inputs":[{"name":"tokenId","type":"uint256","internalType":"uint256"},{"name":"messageHash","type":"bytes32","internalType":"bytes32"},{"name":"signature","type":"bytes","internalType":"bytes"},{"name":"tokenIn","type":"address","internalType":"address"},{"name":"tokenOut","type":"address","internalType":"address"},{"name":"amountIn","type":"uint256","internalType":"uint256"},{"name":"minAmountOut","type":"uint256","internalType":"uint256"},{"name":"target","type":"address","internalType":"address"},{"name":"data","type":"bytes","internalType":"bytes"},{"name":"referenceId","type":"bytes32","internalType":"bytes32"},{"name":"signatureExpiry","type":"uint256","internalType":"uint256"},{"name":"recipient","type":"address","internalType":"address"}],"outputs":[],"stateMutability":"nonpayable"},{"type":"function","name":"symbol","inputs":[],"outputs":[{"name":"","type":"string","internalType":"string"}],"stateMutability":"view"},{"type":"function","name":"tokenURI","inputs":[{"name":"tokenId","type":"uint256","internalType":"uint256"}],"outputs":[{"name":"","type":"string","internalType":"string"}],"stateMutability":"view"},{"type":"function","name":"transferFrom","inputs":[{"name":"from","type":"address","internalType":"address"},{"name":"to","type":"address","internalType":"address"},{"name":"tokenId","type":"uint256","internalType":"uint256"}],"outputs":[],"stateMutability":"nonpayable"},{"type":"function","name":"transferOwnership","inputs":[{"name":"newOwner","type":"address","internalType":"address"}],"outputs":[],"stateMutability":"nonpayable"},{"type":"function","name":"withdrawERC20","inputs":[{"name":"tokenId","type":"uint256","internalType":"uint256"},{"name":"messageHash","type":"bytes32","internalType":"bytes32"},{"name":"signature","type":"bytes","internalType":"bytes"},{"name":"tokenAddress","type":"address","internalType":"address"},{"name":"amount","type":"uint256","internalType":"uint256"},{"name":"recipient","type":"address","internalType":"address"},{"name":"referenceId","type":"bytes32","internalType":"bytes32"},{"name":"signatureExpiry","type":"uint256","internalType":"uint256"}],"outputs":[],"stateMutability":"nonpayable"},{"type":"function","name":"withdrawERC721","inputs":[{"name":"tokenId","type":"uint256","internalType":"uint256"},{"name":"messageHash","type":"bytes32","internalType":"bytes32"},{"name":"signature","type":"bytes","internalType":"bytes"},{"name":"nftContract","type":"address","internalType":"address"},{"name":"nftTokenId","type":"uint256","internalType":"uint256"},{"name":"recipient","type":"address","internalType":"address"},{"name":"referenceId","type":"bytes32","internalType":"bytes32"},{"name":"signatureExpiry","type":"uint256","internalType":"uint256"}],"outputs":[],"stateMutability":"nonpayable"},{"type":"function","name":"withdrawETH","inputs":[{"name":"tokenId","type":"uint256","internalType":"uint256"},{"name":"messageHash","type":"bytes32","internalType":"bytes32"},{"name":"signature","type":"bytes","internalType":"bytes"},{"name":"amountETH","type":"uint256","internalType":"uint256"},{"name":"recipient","type":"address","internalType":"address"},{"name":"referenceId","type":"bytes32","internalType":"bytes32"},{"name":"signatureExpiry","type":"uint256","internalType":"uint256"}],"outputs":[],"stateMutability":"nonpayable"},{"type":"event","name":"Approval","inputs":[{"name":"owner","type":"address","indexed":true,"internalType":"address"},{"name":"approved","type":"address","indexed":true,"internalType":"address"},{"name":"tokenId","type":"uint256","indexed":true,"internalType":"uint256"}],"anonymous":false},{"type":"event","name":"ApprovalForAll","inputs":[{"name":"owner","type":"address","indexed":true,"internalType":"address"},{"name":"operator","type":"address","indexed":true,"internalType":"address"},{"name":"approved","type":"bool","indexed":false,"internalType":"bool"}],"anonymous":false},{"type":"event","name":"Deposited","inputs":[{"name":"tokenId","type":"uint256","indexed":true,"internalType":"uint256"},{"name":"referenceId","type":"bytes32","indexed":true,"internalType":"bytes32"}],"anonymous":false},{"type":"event","name":"EIP712DomainChanged","inputs":[],"anonymous":false},{"type":"event","name":"KeyRotated","inputs":[{"name":"tokenId","type":"uint256","indexed":true,"internalType":"uint256"},{"name":"referenceId","type":"bytes32","indexed":true,"internalType":"bytes32"}],"anonymous":false},{"type":"event","name":"LockboxBurned","inputs":[{"name":"tokenId","type":"uint256","indexed":true,"internalType":"uint256"},{"name":"referenceId","type":"bytes32","indexed":true,"internalType":"bytes32"}],"anonymous":false},{"type":"event","name":"Locked","inputs":[{"name":"tokenId","type":"uint256","indexed":false,"internalType":"uint256"}],"anonymous":false},{"type":"event","name":"Minted","inputs":[{"name":"tokenId","type":"uint256","indexed":true,"internalType":"uint256"},{"name":"referenceId","type":"bytes32","indexed":true,"internalType":"bytes32"}],"anonymous":false},{"type":"event","name":"OwnershipTransferred","inputs":[{"name":"previousOwner","type":"address","indexed":true,"internalType":"address"},{"name":"newOwner","type":"address","indexed":true,"internalType":"address"}],"anonymous":false},{"type":"event","name":"SwapExecuted","inputs":[{"name":"tokenId","type":"uint256","indexed":true,"internalType":"uint256"},{"name":"referenceId","type":"bytes32","indexed":true,"internalType":"bytes32"}],"anonymous":false},{"type":"event","name":"TokenMetadataURISet","inputs":[{"name":"tokenId","type":"uint256","indexed":true,"internalType":"uint256"},{"name":"referenceId","type":"bytes32","indexed":true,"internalType":"bytes32"}],"anonymous":false},{"type":"event","name":"Transfer","inputs":[{"name":"from","type":"address","indexed":true,"internalType":"address"},{"name":"to","type":"address","indexed":true,"internalType":"address"},{"name":"tokenId","type":"uint256","indexed":true,"internalType":"uint256"}],"anonymous":false},{"type":"event","name":"Withdrawn","inputs":[{"name":"tokenId","type":"uint256","indexed":true,"internalType":"uint256"},{"name":"referenceId","type":"bytes32","indexed":true,"internalType":"bytes32"}],"anonymous":false},{"type":"error","name":"AlreadyInitialized","inputs":[]},{"type":"error","name":"ArrayLengthMismatch","inputs":[]},{"type":"error","name":"DefaultURIAlreadySet","inputs":[]},{"type":"error","name":"DuplicateEntry","inputs":[]},{"type":"error","name":"ECDSAInvalidSignature","inputs":[]},{"type":"error","name":"ECDSAInvalidSignatureLength","inputs":[{"name":"length","type":"uint256","internalType":"uint256"}]},{"type":"error","name":"ECDSAInvalidSignatureS","inputs":[{"name":"s","type":"bytes32","internalType":"bytes32"}]},{"type":"error","name":"ERC721IncorrectOwner","inputs":[{"name":"sender","type":"address","internalType":"address"},{"name":"tokenId","type":"uint256","internalType":"uint256"},{"name":"owner","type":"address","internalType":"address"}]},{"type":"error","name":"ERC721InsufficientApproval","inputs":[{"name":"operator","type":"address","internalType":"address"},{"name":"tokenId","type":"uint256","internalType":"uint256"}]},{"type":"error","name":"ERC721InvalidApprover","inputs":[{"name":"approver","type":"address","internalType":"address"}]},{"type":"error","name":"ERC721InvalidOperator","inputs":[{"name":"operator","type":"address","internalType":"address"}]},{"type":"error","name":"ERC721InvalidOwner","inputs":[{"name":"owner","type":"address","internalType":"address"}]},{"type":"error","name":"ERC721InvalidReceiver","inputs":[{"name":"receiver","type":"address","internalType":"address"}]},{"type":"error","name":"ERC721InvalidSender","inputs":[{"name":"sender","type":"address","internalType":"address"}]},{"type":"error","name":"ERC721NonexistentToken","inputs":[{"name":"tokenId","type":"uint256","internalType":"uint256"}]},{"type":"error","name":"ETHMismatch","inputs":[]},{"type":"error","name":"EthTransferFailed","inputs":[]},{"type":"error","name":"EthValueMismatch","inputs":[]},{"type":"error","name":"FallbackNotAllowed","inputs":[]},{"type":"error","name":"InsufficientTokenBalance","inputs":[]},{"type":"error","name":"InvalidMessageHash","inputs":[]},{"type":"error","name":"InvalidRecipient","inputs":[]},{"type":"error","name":"InvalidShortString","inputs":[]},{"type":"error","name":"InvalidSignature","inputs":[]},{"type":"error","name":"InvalidSwap","inputs":[]},{"type":"error","name":"LockboxNotEmpty","inputs":[]},{"type":"error","name":"MismatchedInputs","inputs":[]},{"type":"error","name":"NFTNotFound","inputs":[]},{"type":"error","name":"NoETHBalance","inputs":[]},{"type":"error","name":"NoURI","inputs":[]},{"type":"error","name":"NonexistentToken","inputs":[]},{"type":"error","name":"NotOwner","inputs":[]},{"type":"error","name":"OwnableInvalidOwner","inputs":[{"name":"owner","type":"address","internalType":"address"}]},{"type":"error","name":"OwnableUnauthorizedAccount","inputs":[{"name":"account","type":"address","internalType":"address"}]},{"type":"error","name":"ReentrancyGuardReentrantCall","inputs":[]},{"type":"error","name":"RouterOverspent","inputs":[]},{"type":"error","name":"SafeERC20FailedOperation","inputs":[{"name":"token","type":"address","internalType":"address"}]},{"type":"error","name":"SelfMintOnly","inputs":[]},{"type":"error","name":"SignatureExpired","inputs":[]},{"type":"error","name":"SlippageExceeded","inputs":[]},{"type":"error","name":"StringTooLong","inputs":[{"name":"str","type":"string","internalType":"string"}]},{"type":"error","name":"SwapCallFailed","inputs":[]},{"type":"error","name":"TransfersDisabled","inputs":[]},{"type":"error","name":"UseDepositETH","inputs":[]},{"type":"error","name":"ZeroAddress","inputs":[]},{"type":"error","name":"ZeroAmount","inputs":[]},{"type":"error","name":"ZeroKey","inputs":[]},{"type":"error","name":"ZeroTokenAddress","inputs":[]}],"bytecode":{"object":"0x610180604052346104af576040516100186040826104b3565b60088152674c6f636b782e696f60c01b60208201526040519061003c6040836104b3565b6007825266098dec6d6c4def60cb1b602083015260405161005e6040826104b3565b60058152602081019064098dec6d6f60db1b8252604051936100816040866104b3565b60018552600d60fa1b60208601908152845190946001600160401b0382116103b6575f5490600182811c921680156104a5575b60208310146103985781601f849311610438575b50602090601f83116001146103d5575f926103ca575b50508160011b915f199060031b1c1916175f555b8051906001600160401b0382116103b65760015490600182811c921680156103ac575b60208310146103985781601f84931161032a575b50602090601f83116001146102c4575f926102b9575b50508160011b915f199060031b1c1916176001555b33156102a65760068054336001600160a01b0319821681179092556001600160a01b03167f8be0079c531659141344cd1fd0a4f28419497f9722a3daafe3b4186f6b6457e05f80a36101a5816104d6565b610120526101b28461065d565b61014052519020918260e05251902080610100524660a0526040519060208201927f8b73c3c69bb8fe3d512ecc4cf759cc79239f7b179b0ffacaa9a75d522b39400f8452604083015260608201524660808201523060a082015260a0815261021b60c0826104b3565b5190206080523060c05230610160526001600a55604051615d5a9081610796823960805181615aad015260a05181615b6a015260c05181615a7e015260e05181615afc01526101005181615b2201526101205181612aed01526101405181612b160152610160518181816106dd01528181611bd501528181612f2b0152818161372f0152614f490152f35b631e4fbdf760e01b5f525f60045260245ffd5b015190505f8061013f565b60015f9081528281209350601f198516905b81811061031257509084600195949392106102fa575b505050811b01600155610154565b01515f1960f88460031b161c191690555f80806102ec565b929360206001819287860151815501950193016102d6565b60015f529091507fb10e2d527612073b26eecdfd717e6a320cf44b4afac2b0732d9fcbe2b7fa0cf6601f840160051c8101916020851061038e575b90601f859493920160051c01905b8181106103805750610129565b5f8155849350600101610373565b9091508190610365565b634e487b7160e01b5f52602260045260245ffd5b91607f1691610115565b634e487b7160e01b5f52604160045260245ffd5b015190505f806100de565b5f8080528281209350601f198516905b8181106104205750908460019594939210610408575b505050811b015f556100f2565b01515f1960f88460031b161c191690555f80806103fb565b929360206001819287860151815501950193016103e5565b5f80529091507f290decd9548b62a8d60345a988386fc84ba6bc95484008f6362f93160ef3e563601f840160051c8101916020851061049b575b90601f859493920160051c01905b81811061048d57506100c8565b5f8155849350600101610480565b9091508190610472565b91607f16916100b4565b5f80fd5b601f909101601f19168101906001600160401b038211908210176103b657604052565b908151602081105f14610550575090601f815111610510576020815191015160208210610501571790565b5f198260200360031b1b161790565b604460209160405192839163305a27a960e01b83528160048401528051918291826024860152018484015e5f828201840152601f01601f19168101030190fd5b6001600160401b0381116103b657600754600181811c91168015610653575b602082101461039857601f8111610620575b50602092601f82116001146105bf57928192935f926105b4575b50508160011b915f199060031b1c19161760075560ff90565b015190505f8061059b565b601f1982169360075f52805f20915f5b86811061060857508360019596106105f0575b505050811b0160075560ff90565b01515f1960f88460031b161c191690555f80806105e2565b919260206001819286850151815501940192016105cf565b60075f52601f60205f20910160051c810190601f830160051c015b8181106106485750610581565b5f815560010161063b565b90607f169061056f565b908151602081105f14610688575090601f815111610510576020815191015160208210610501571790565b6001600160401b0381116103b657600854600181811c9116801561078b575b602082101461039857601f8111610758575b50602092601f82116001146106f757928192935f926106ec575b50508160011b915f199060031b1c19161760085560ff90565b015190505f806106d3565b601f1982169360085f52805f20915f5b8681106107405750836001959610610728575b505050811b0160085560ff90565b01515f1960f88460031b161c191690555f808061071a565b91926020600181928685015181550194019201610707565b60085f52601f60205f20910160051c810190601f830160051c015b81811061078057506106b9565b5f8155600101610773565b90607f16906106a756fe6080806040526004361015610049575b5036156100475734610043577fdeab4c30000000000000000000000000000000000000000000000000000000005f5260045ffd5b5f80fd5b005b5f3560e01c90816301ffc9a7146140bc5750806306fdde031461401a578063081812fc14613fdd578063095ea7b314613ecb5780630db5425614613d7d578063150b7a0214613d0e5780631c30dbb614613cc957806323b872dd14613cb25780632ca7bc8014613c985780632dbf9be6146139645780633b0320b0146137a85780633d46b819146136df5780633df23e53146136ad57806342842e0e14613684578063486c4b7f14613643578063490091fd146135fc5780634bf7e15a146135d25780634d8af09e1461356c57806352dc033c1461333a57806353861f141461331f5780635e4ed95d1461324c5780636267699a146130055780636352211e14612fd657806365cd69a114612f715780636f2ec57314612edc57806370a0823114612e72578063715018a614612e0c578063748917dd14612d9f57806375463c4a14612c5d5780637b1f8f2e14612c2e578063832d46cc14612be957806384b0196e14612ad55780638aedc64414612aab5780638da5cb5b14612a855780638f0ce30e14612a615780638f93f31b146123b857806395480879146121a657806395d89b41146120be5780639b9900a914611d71578063a22cb46514611c9f578063ada09a3014611c54578063aea5cf3014611b85578063b45a3c0e14611b24578063b88d4fde14611ad5578063bb4ffa1014611698578063bd1ca78514610b2a578063c87b56dd14610af3578063d0856eb414610ac9578063e124a17c1461068d578063e985e9c514610634578063f2fde38b14610589578063f3eb9a16146102d75763fa2bb3761461029c575f61000f565b346100435760206001600160a01b036102c76102b7366142d0565b905f52600d845260405f2061484b565b90549060031b1c16604051908152f35b346100435760c06003193601126100435760043560443567ffffffffffffffff81116100435761030b9036906004016142b2565b90610314614172565b6084359260a43590610324614ed4565b61032d84614f0d565b81421161056157604051926001600160a01b036020850191868352169283604086015286606086015233608086015260a085015260a0845261037060c08561423d565b845f52600960205260405f20935190209083549060428260a01c9360405160208101917f5fd4fde1cb878824d6e96eec97296c9e818ad783a10b7c9ede6e7f27eca7b06b83528960408301528660608301525f608083015260a082015260a081526103dc60c08261423d565b5190206103e7615a74565b90604051917f190100000000000000000000000000000000000000000000000000000000000083526002830152602282015220908160243503610539576104459261043c6001600160a01b0393928493615b90565b90959195615bca565b16911603610511576bffffffffffffffffffffffff81146104e45782546001600160a01b031660019190910160a01b73ffffffffffffffffffffffffffffffffffffffff1916178255806104c1575b50507f984cbcf51cba481417bc4c1f7faacf7392a4cbcd6c7fb7888b24ed2e50a0be775f80a36001600a55005b73ffffffffffffffffffffffffffffffffffffffff198254161790558280610494565b7f4e487b71000000000000000000000000000000000000000000000000000000005f52601160045260245ffd5b7f8baa579f000000000000000000000000000000000000000000000000000000005f5260045ffd5b7f8b56642d000000000000000000000000000000000000000000000000000000005f5260045ffd5b7f0819bdcd000000000000000000000000000000000000000000000000000000005f5260045ffd5b34610043576020600319360112610043576001600160a01b036105aa614130565b6105b261574f565b168015610608576001600160a01b036006548273ffffffffffffffffffffffffffffffffffffffff19821617600655167f8be0079c531659141344cd1fd0a4f28419497f9722a3daafe3b4186f6b6457e05f80a3005b7f1e4fbdf7000000000000000000000000000000000000000000000000000000005f525f60045260245ffd5b346100435760406003193601126100435761064d614130565b6001600160a01b0361065d614146565b91165f5260056020526001600160a01b0360405f2091165f52602052602060ff60405f2054166040519015158152f35b34610043576020600319360112610043576004356040517f6352211e0000000000000000000000000000000000000000000000000000000081528160048201526020816024816001600160a01b037f0000000000000000000000000000000000000000000000000000000000000000165afa908115610abe575f91610a8f575b506001600160a01b0333911603610a6757805f52600b60205260405f2054815f52600d60205260405f20918254610743816148d6565b93610751604051958661423d565b818552601f19610760836148d6565b015f5b818110610a3b5750505f5b8281106109b457505050805f52600f60205260405f205f915f918054925b83811061095b5750601f196107b96107a3866148d6565b956107b1604051978861423d565b8087526148d6565b015f5b81811061092f5750505f905f5b84811061089657878787604051928392606084019084526060602085015281518091526020608085019201905f5b81811061085d575050508281036040840152602080835192838152019201905f5b818110610826575050500390f35b91935091602060408261084f6001948851602080916001600160a01b0381511684520151910152565b019401910191849392610818565b919394509160206040826108876001948851602080916001600160a01b0381511684520151910152565b019401910191859493926107f7565b600190845f9997989952601060205260405f206108b3828561484b565b90549060031b1c5f526020526001600160a01b0360405f2054166108dc575b01969594966107c9565b845f52601060205260405f206108f2828561484b565b90549060031b1c5f5260205261092960405f20946109186109128261481e565b9661499c565b610922828c614e9f565b5289614e9f565b506108d2565b604051969795966020919061094381614221565b5f81525f8382015282828a01015201969594966107bc565b825f9795969752601060205260405f20610975828461484b565b90549060031b1c5f526020526001600160a01b0360405f2054166109a0575b6001019594939561078c565b946109ac60019161481e565b959050610994565b806001600160a01b036109cd600193859997989961484b565b90549060031b1c16865f52600c60205260405f206001600160a01b03806109f4858861484b565b90549060031b1c16165f5260205260405f205460405191610a1483614221565b82526020820152610a258287614e9f565b52610a308186614e9f565b50019493929461076e565b6040519596949560209190610a4f81614221565b5f81525f838201528282880101520195949395610763565b7f30cd7471000000000000000000000000000000000000000000000000000000005f5260045ffd5b610ab1915060203d602011610ab7575b610aa9818361423d565b81019061482c565b8261070d565b503d610a9f565b6040513d5f823e3d90fd5b34610043576020600319360112610043576004355f52600d602052602060405f2054604051908152f35b3461004357602060031936011261004357610b26610b12600435614bb4565b60405191829160208352602083019061410b565b0390f35b34610043576101806003193601126100435760043560443567ffffffffffffffff811161004357610b5f9036906004016142b2565b90610b68614172565b91610b7161415c565b60a4359060c4359260e435926001600160a01b03841692838503610043576101043567ffffffffffffffff811161004357610bb09036906004016141b9565b9290956101243599610144359061016435976001600160a01b038916998a8a0361004357610bdc614ed4565b610be58d614f0d565b834211610561578115611670578515611648576001600160a01b038716986001600160a01b038416948a8614611620578f8f908f8f909389928f958f90610c2f8f9236908c61427c565b60208151910120916040519860208a019789895260408b015260608a0152608089015260a08801528960c088015260e0870152610100860152336101208601526101408501526101608401526101608352610c8c6101808461423d565b815f52600960205260405f20925190209260428354928360a01c956040519060208201927f5fd4fde1cb878824d6e96eec97296c9e818ad783a10b7c9ede6e7f27eca7b06b845260408301528760608301526007608083015260a082015260a08152610cf960c08261423d565b519020610d04615a74565b90604051917f19010000000000000000000000000000000000000000000000000000000000008352600283015260228201522090816024350361053957610d599261043c6001600160a01b0393928493615b90565b16911603610511576bffffffffffffffffffffffff82146104e4576001610da792016001600160a01b0373ffffffffffffffffffffffffffffffffffffffff1983549260a01b169116179055565b83159182156115d9578d5f52600b6020528660405f2054106115b1575b82156115355747955b8a15998a156114b75747935b85159384611308575b505f918291908715611301578b915b81604051928392833781018481520391855af191610e0d61489a565b506112f1575b50156112c957811561124d5747905b88156111c757610e36610e3c92479761488d565b9561488d565b9460148602868104601414871517156104e457612710610e5e9104809761488d565b9b8c1061119f5784116111775715611105575050885f52600b602052610e8960405f2091825461488d565b90555b80610fd0575b508415610f1b575015610f0b5750505f80809381935af1610eb161489a565b5015610ee3575b7ffa44886bdf29041e45bda3924c838d5a6ed302e301c579f52acb4c3aa9aef77a5f80a36001600a55005b7f6d963f88000000000000000000000000000000000000000000000000000000005f5260045ffd5b610f169392506156f5565b610eb8565b92509092505f14610f46575050815f52600b602052610f3f60405f209182546148c9565b9055610eb8565b835f52600e60205260405f20825f5260205260405f205415610f85575b50825f52600c60205260405f20905f52602052610f3f60405f209182546148c9565b835f52600d60205260405f205490600182018092116104e457610fca91855f52600e60205260405f20845f5260205260405f2055845f52600d60205260405f20614b6b565b84610f63565b8215610ff6575f8052600b602052610fed60405f209182546148c9565b90555b88610e92565b5f8481527fe710864318d4a32f37d6ce54cb3fadbef648dd12d8dbdf53973564d56b7f881c602052604090205415611069575b5f8481527f13649b2456f1b42fef0f0040b3aaeabcd21a76a0f3f5defd4f583839455116e86020526040902080549091611062916148c9565b9055610ff0565b5f8052600d6020527f81955a0a11e65eac625c29e8882660bae4e165a75d72780094acae8ece9a29ee54600181019081106104e4575f8581527fe710864318d4a32f37d6ce54cb3fadbef648dd12d8dbdf53973564d56b7f881c602090815260408220929092558052600d9052611100827f81955a0a11e65eac625c29e8882660bae4e165a75d72780094acae8ece9a29ee614b6b565b611029565b90918a5f52600c60205260405f20835f5260205261112860405f2091825461488d565b9055895f52600c60205260405f20825f5260205260405f20541561114e575b5050610e8c565b611170918a5f52600c60205260405f20905f526020525f6040812055896155b1565b8980611147565b7fdcc0d279000000000000000000000000000000000000000000000000000000005f5260045ffd5b7f8199f5f3000000000000000000000000000000000000000000000000000000005f5260045ffd5b6040517f70a082310000000000000000000000000000000000000000000000000000000081523060048201526020816024818e5afa908115610abe575f91611219575b50610e3c92610e36919761488d565b90506020813d602011611245575b816112346020938361423d565b810103126100435751610e3c61120a565b3d9150611227565b6040517f70a08231000000000000000000000000000000000000000000000000000000008152306004820152602081602481885afa908115610abe575f91611297575b5090610e22565b90506020813d6020116112c1575b816112b26020938361423d565b8101031261004357518f611290565b3d91506112a5565b7f03a40bc4000000000000000000000000000000000000000000000000000000005f5260045ffd5b6112fb9086615879565b8f610e13565b8291610df1565b6040517fdd62ed3e0000000000000000000000000000000000000000000000000000000081523060048201528160248201526020816044818d5afa8015610abe578c86918c935f91611474575b505f809794819796946113c76113b995602095611465575b604051968791878301947f095ea7b300000000000000000000000000000000000000000000000000000000865260248401602090939291936001600160a01b0360408201951681520152565b03601f19810187528661423d565b828551925af185513d82611446575b5050156113e8575b5050925090610de2565b61143961143f92604051907f095ea7b300000000000000000000000000000000000000000000000000000000602083015260248201528660448201526044815261143360648261423d565b8d61595e565b8b61595e565b5f806113de565b90915015861461145d57508b3b15155b5f806113d6565b600114611456565b61146f8385615879565b61136d565b95949693505050506020833d6020116114af575b816114956020938361423d565b8101031261004357915191929091899085908d905f611355565b3d9150611488565b602460208d604051928380927f70a082310000000000000000000000000000000000000000000000000000000082523060048301525afa908115610abe575f91611503575b5093610dd9565b90506020813d60201161152d575b8161151e6020938361423d565b8101031261004357515f6114fc565b3d9150611511565b6040517f70a08231000000000000000000000000000000000000000000000000000000008152306004820152602081602481895afa908115610abe575f9161157f575b5095610dcd565b90506020813d6020116115a9575b8161159a6020938361423d565b8101031261004357515f611578565b3d915061158d565b7ffcc00b30000000000000000000000000000000000000000000000000000000005f5260045ffd5b8d5f52600c60205260405f20855f526020528660405f20541015610dc4575b7fe4455cae000000000000000000000000000000000000000000000000000000005f5260045ffd5b7f11157667000000000000000000000000000000000000000000000000000000005f5260045ffd5b7f1f2a2005000000000000000000000000000000000000000000000000000000005f5260045ffd5b7fd92e233d000000000000000000000000000000000000000000000000000000005f5260045ffd5b346100435760a06003193601126100435760043560443567ffffffffffffffff8111610043576116cc9036906004016142b2565b90606435916084356116dc614ed4565b6116e583614f0d565b8042116105615760405190602082019084825285604084015233606084015260808301526080825261171860a08361423d565b835f52600960205260405f20915190209181549060428260a01c9460405160208101917f5fd4fde1cb878824d6e96eec97296c9e818ad783a10b7c9ede6e7f27eca7b06b83528860408301528760608301526004608083015260a082015260a0815261178560c08261423d565b519020611790615a74565b90604051917f190100000000000000000000000000000000000000000000000000000000000083526002830152602282015220908160243503610539576117e59261043c6001600160a01b0393928493615b90565b16911603610511576bffffffffffffffffffffffff82146104e457600161183392016001600160a01b0373ffffffffffffffffffffffffffffffffffffffff1983549260a01b169116179055565b805f52600b60205260405f2054611aad57805f52600d60205260405f2054611aad57805f52600f60205260405f2054611aad57805f52600b6020525f6040812055805f52600d60205260405f2080545f825580611a93575b5050805f52600f60205260405f208054905f815581611a75575b5050805f5260026020526001600160a01b0360405f205416151580611a6e575b611a4657805f52601460205260405f206118df81546144cd565b9081611a03575b5050805f5260026020526001600160a01b0360405f20541680159081156119bf575b825f52600260205260405f2073ffffffffffffffffffffffffffffffffffffffff198154169055825f827fddf252ad1be2c89b69c2b068fc378daa952ba7f163c4a11628f55a4df523b3ef8280a45061199457805f5260096020525f60408120557fceed1806179edada6c648f6c52838ceac0b9c18cf04e6fca0712bda6fcf82c185f80a36001600a55005b7f7e273289000000000000000000000000000000000000000000000000000000005f5260045260245ffd5b6119eb835f52600460205260405f2073ffffffffffffffffffffffffffffffffffffffff198154169055565b805f52600360205260405f205f198154019055611908565b81601f5f9311600114611a1a5750555b82806118e6565b81835260208320611a3691601f0160051c810190600101614808565b8082528160208120915555611a13565b7f8574adcf000000000000000000000000000000000000000000000000000000005f5260045ffd5b505f6118c5565b5f5260205f20908101905b818110156118a5575f8155600101611a80565b611aa6915f5260205f2090810190614808565b828061188b565b7f41963379000000000000000000000000000000000000000000000000000000005f5260045ffd5b3461004357608060031936011261004357611aee614130565b611af6614146565b6064359167ffffffffffffffff831161004357611b1a6100479336906004016142b2565b91604435916149c3565b34610043576020600319360112610043576004355f5260026020526001600160a01b0360405f20541615611b5d57602060405160018152f35b7fb1d04f08000000000000000000000000000000000000000000000000000000005f5260045ffd5b34610043576020600319360112610043576004356040517f6352211e0000000000000000000000000000000000000000000000000000000081528160048201526020816024816001600160a01b037f0000000000000000000000000000000000000000000000000000000000000000165afa908115610abe575f91611c35575b506001600160a01b0333911603610a67575f52600960205260206001600160a01b0360405f205416604051908152f35b611c4e915060203d602011610ab757610aa9818361423d565b82611c05565b3461004357611c62366142d0565b905f52601060205260405f20905f52602052611c8060405f2061499c565b8051602091820151604080516001600160a01b03909316835292820152f35b3461004357604060031936011261004357611cb8614130565b60243590811515809203610043576001600160a01b0316908115611d4557335f52600560205260405f20825f5260205260405f207fffffffffffffffffffffffffffffffffffffffffffffffffffffffffffffff0081541660ff83161790556040519081527f17307eab39ab6107e8899845ad3d59bd9653f200f220920489ca2b5937696c3160203392a3005b507f5b08ba18000000000000000000000000000000000000000000000000000000005f5260045260245ffd5b3461004357611d7f36614314565b90969591939294611d8e614ed4565b611d9787614f0d565b6001600160a01b0385168015611670573014612096578142116105615760408051602081018981526001600160a01b038088169383019390935260608201899052918716608082015260a081018a90523360c082015260e0810193909352611e0d8361010081015b03601f19810185528461423d565b875f52600960205260405f20925190209282549160428360a01c9560405160208101917f5fd4fde1cb878824d6e96eec97296c9e818ad783a10b7c9ede6e7f27eca7b06b83528c60408301528860608301526003608083015260a082015260a08152611e7a60c08261423d565b519020611e85615a74565b90604051917f19010000000000000000000000000000000000000000000000000000000000008352600283015260228201522080920361053957611ed79261043c6001600160a01b0393928493615b90565b16911603610511576bffffffffffffffffffffffff82146104e4576001611f2592016001600160a01b0373ffffffffffffffffffffffffffffffffffffffff1983549260a01b169116179055565b604051606082901b7fffffffffffffffffffffffffffffffffffffffff00000000000000000000000016602082019081526034820185905290611f7581605481015b03601f19810183528261423d565b51902090845f52601060205260405f20825f526020526001600160a01b0360405f2054161561206e57611fce6001600160a01b0392865f52601060205260405f20815f526020525f60016040822082815501558661578f565b1691823b15610043576040517f42842e0e0000000000000000000000000000000000000000000000000000000081523060048201526001600160a01b039290921660248301526044820152905f908290606490829084905af18015610abe5761205e575b507f06f0d08c652a32f118304f762c3f388848b7653f7df433f67a48aa734675f0135f80a36001600a55005b5f6120689161423d565b82612032565b7ff070cb6f000000000000000000000000000000000000000000000000000000005f5260045ffd5b7f9c8d2cd2000000000000000000000000000000000000000000000000000000005f5260045ffd5b34610043575f600319360112610043576040515f6001546120de816144cd565b80845290600181169081156121645750600114612106575b610b2683610b128185038261423d565b60015f9081527fb10e2d527612073b26eecdfd717e6a320cf44b4afac2b0732d9fcbe2b7fa0cf6939250905b80821061214a57509091508101602001610b126120f6565b919260018160209254838588010152019101909291612132565b7fffffffffffffffffffffffffffffffffffffffffffffffffffffffffffffff001660208086019190915291151560051b84019091019150610b1290506120f6565b346100435760206003193601126100435760043567ffffffffffffffff8111610043576121d79036906004016142b2565b6121df61574f565b6013546121eb816144cd565b6123905781519067ffffffffffffffff82116123635761220a906144cd565b601f81116122cc575b50602091601f821160011461225157612241925f9183612246575b50505f198260011b9260031b1c19161790565b601355005b01519050838061222e565b601f1982169260135f527f66de8ffda797e3de9c05e8fc57b3bf0ec28a930d40b0d285d93c06501cf6a090915f5b8581106122b45750836001951061229c575b505050811b01601355005b01515f1960f88460031b161c19169055828080612291565b9192602060018192868501518155019401920161227f565b6123359060135f52601f830160051c7f66de8ffda797e3de9c05e8fc57b3bf0ec28a930d40b0d285d93c06501cf6a09001906020841061233b575b601f0160051c7f66de8ffda797e3de9c05e8fc57b3bf0ec28a930d40b0d285d93c06501cf6a0900190614808565b82612213565b7f66de8ffda797e3de9c05e8fc57b3bf0ec28a930d40b0d285d93c06501cf6a0909150612307565b7f4e487b71000000000000000000000000000000000000000000000000000000005f52604160045260245ffd5b7fe8cba6d8000000000000000000000000000000000000000000000000000000005f5260045ffd5b34610043576101606003193601126100435760443567ffffffffffffffff8111610043576123ea9036906004016142b2565b60643560843567ffffffffffffffff81116100435761240d903690600401614188565b909160a43567ffffffffffffffff81116100435761242f903690600401614188565b9360c43567ffffffffffffffff811161004357612450903690600401614188565b92909160e43567ffffffffffffffff811161004357612473903690600401614188565b96909761010435966001600160a01b0388169081890361004357610124359b6101443561249e614ed4565b6124a9600435614f0d565b83156116705780421161056157848614801590612a57575b612a2f5782868f8f938f948b958f8f908f8d6040519a8b9960208b019b6004358d5260408c015260608b0161014090526101608b0190612500926148ee565b90898203601f190160808b01526125169261493b565b90878203601f190160a089015261252c926148ee565b90858203601f190160c08701526125429261493b565b918860e08501526101008401523361012084015261014083015203601f198101835261256e908361423d565b6004355f52600960205260405f2091519020918154908160a01c9360405160208101917f5fd4fde1cb878824d6e96eec97296c9e818ad783a10b7c9ede6e7f27eca7b06b83526004356040830152866060830152608082016006905260a082015260a081526125de60c08261423d565b5190206125e9615a74565b90604051917f190100000000000000000000000000000000000000000000000000000000000083526002830152602282015260429020908160243503610539576126419261043c6001600160a01b0393928493615b90565b16911603610511576bffffffffffffffffffffffff82146104e457600161268f92016001600160a01b0373ffffffffffffffffffffffffffffffffffffffff1983549260a01b169116179055565b806129e1575b50506004355f52600c60205260405f20915f5b81811061299057505f5b8181106128fd575050505050505f5b82811061285f57505f5b82811061270157866004357f06f0d08c652a32f118304f762c3f388848b7653f7df433f67a48aa734675f0135f80a36001600a55005b61271461270f828585614978565b614988565b611f6761276761272584898b614978565b3560405192839160208301958690917fffffffffffffffffffffffffffffffffffffffff00000000000000000000000060349360601b16825260148201520190565b5190206004355f52601060205260405f20815f526020526001600160a01b0360405f2054161561206e576127bd906004355f52601060205260405f20815f526020525f600160408220828155015560043561578f565b6001600160a01b036127d361270f838686614978565b16906127e0818789614978565b3591803b15610043576040517f42842e0e0000000000000000000000000000000000000000000000000000000081523060048201526001600160a01b038716602482015260448101939093525f908390606490829084905af1918215610abe5760019261284f575b50016126cb565b5f6128599161423d565b88612848565b60018101908181116104e457815b84811061287b5750506126c1565b61288961270f838787614978565b6001600160a01b03806128a061270f858a8a614978565b16911614806128de575b6128b65760010161286d565b7f357d0cc4000000000000000000000000000000000000000000000000000000005f5260045ffd5b506128ea82888a614978565b356128f682898b614978565b35146128aa565b61290b61270f828488614978565b90612917818589614978565b356001600160a01b0383165f528560205260405f2054908082106115f8576001600160a01b038481165f908152602089905260409020828403905560019461296a938e9291908414612970575b166156f5565b016126b2565b8181165f52896020525f604081205561298b816004356155b1565b612964565b60018101908181116104e457815b8381106129ac5750506126a8565b6129ba61270f83868a614978565b6001600160a01b03806129d161270f85898d614978565b169116146128b65760010161299e565b6004355f52600b60205260405f2054918183106115b1575f82819492612a098395849561488d565b6004358452600b60205260408420555af1612a2261489a565b5015610ee3578a80612695565b7f469224f0000000000000000000000000000000000000000000000000000000005f5260045ffd5b508b8a14156124c1565b3461004357604060031936011261004357610047612a7d614146565b600435615054565b34610043575f6003193601126100435760206001600160a01b0360065416604051908152f35b34610043576020600319360112610043576004355f52600f602052602060405f2054604051908152f35b34610043575f60031936011261004357612b8d612b117f00000000000000000000000000000000000000000000000000000000000000006159cb565b612b3a7f0000000000000000000000000000000000000000000000000000000000000000615a3d565b6020612b9b60405192612b4d838561423d565b5f84525f3681376040519586957f0f00000000000000000000000000000000000000000000000000000000000000875260e08588015260e087019061410b565b90858203604087015261410b565b4660608501523060808501525f60a085015283810360c08501528180845192838152019301915f5b828110612bd257505050500390f35b835185528695509381019392810192600101612bc3565b3461004357604060031936011261004357612c02614146565b6004355f52600c6020526001600160a01b0360405f2091165f52602052602060405f2054604051908152f35b3461004357612c3c366142d0565b905f52601160205260405f20905f52602052602060405f2054604051908152f35b3461004357612c6b3661437f565b939291612c76614ed4565b336001600160a01b03851603612d77576001600160a01b03831615612d4f576001600160a01b03811615612d2757612ccc612cd293612cc795601254968792612cbe8461481e565b60125583615054565b6150cb565b836153ef565b7f032bc66be43dbccb7487781d168eb7bda224628a3b2c3388bdf69b532a3a16116020604051838152a17f4fd35fc7cab0142e2b2e81414dbd72945bc0ae0131a46c03bd8c7073234817805f80a36001600a55005b7f6b093aad000000000000000000000000000000000000000000000000000000005f5260045ffd5b7ffbd849c6000000000000000000000000000000000000000000000000000000005f5260045ffd5b7fbaee6e49000000000000000000000000000000000000000000000000000000005f5260045ffd5b3461004357612dad3661437f565b939291612db8614ed4565b336001600160a01b03851603612d77576001600160a01b03831615612d4f576001600160a01b03811615612d2757811561164857612e06612cd293612cc795601254968792612cbe8461481e565b836151fe565b34610043575f60031936011261004357612e2461574f565b5f6001600160a01b0360065473ffffffffffffffffffffffffffffffffffffffff198116600655167f8be0079c531659141344cd1fd0a4f28419497f9722a3daafe3b4186f6b6457e08280a3005b34610043576020600319360112610043576001600160a01b03612e93614130565b168015612eb0575f526003602052602060405f2054604051908152f35b7f89c62b64000000000000000000000000000000000000000000000000000000005f525f60045260245ffd5b34610043576020600319360112610043576040517f6352211e00000000000000000000000000000000000000000000000000000000815260043560048201526020816024816001600160a01b037f0000000000000000000000000000000000000000000000000000000000000000165afa8015610abe57612f5957005b6100479060203d602011610ab757610aa9818361423d565b612f7a366142d0565b90612f83614ed4565b612f8c81614f0d565b341561164857805f52600b60205260405f20612fa93482546148c9565b90557f0131d4fe789c9eeb7c2dd7e32aa9393d395bef62f1f67e0ba2a76d33c6dcf5ee5f80a36001600a55005b34610043576020600319360112610043576020612ff4600435614eb3565b6001600160a01b0360405191168152f35b346100435761301336614314565b90969591929394613022614ed4565b61302b87614f0d565b6001600160a01b03841615611670578142116105615760408051602081018981526001600160a01b03808a169383019390935260608201889052918616608082015260a081018a90523360c082015260e0810193909352613090836101008101611dff565b875f52600960205260405f20925190209282549160428360a01c9560405160208101917f5fd4fde1cb878824d6e96eec97296c9e818ad783a10b7c9ede6e7f27eca7b06b83528c60408301528860608301526002608083015260a082015260a081526130fd60c08261423d565b519020613108615a74565b90604051917f1901000000000000000000000000000000000000000000000000000000000000835260028301526022820152208092036105395761315a9261043c6001600160a01b0393928493615b90565b16911603610511576bffffffffffffffffffffffff82146104e45760016131a892016001600160a01b0373ffffffffffffffffffffffffffffffffffffffff1983549260a01b169116179055565b835f52600c60205260405f20926001600160a01b0381165f528360205260405f2054908382106115f8576001600160a01b038181165f9081526020879052604090208584039055613203959092851461322e575b50166156f5565b7f06f0d08c652a32f118304f762c3f388848b7653f7df433f67a48aa734675f0135f80a36001600a55005b8282165f526020525f604081205561324681876155b1565b876131fc565b606060031936011261004357613260614130565b613268614146565b90613271614ed4565b336001600160a01b03821603612d77576001600160a01b03821615612d4f57341561164857612cc7916132ad91601254938492612cbe8461481e565b805f52600b60205260405f206132c43482546148c9565b90557f032bc66be43dbccb7487781d168eb7bda224628a3b2c3388bdf69b532a3a16116020604051838152a1604435907f4fd35fc7cab0142e2b2e81414dbd72945bc0ae0131a46c03bd8c7073234817805f80a36001600a55005b34610043575f60031936011261004357602060405160148152f35b346100435760e06003193601126100435760043560443567ffffffffffffffff81116100435761336e9036906004016142b2565b9060643561337a61415c565b9060a435936001600160a01b0360c43593613393614ed4565b61339c86614f0d565b1692831561167057804211610561576040519060208201908682528460408401528560608401528760808401523360a084015260c083015260c082526133e360e08361423d565b855f52600960205260405f20915190209181549060428260a01c9460405160208101917f5fd4fde1cb878824d6e96eec97296c9e818ad783a10b7c9ede6e7f27eca7b06b83528a60408301528760608301526001608083015260a082015260a0815261345060c08261423d565b51902061345b615a74565b90604051917f190100000000000000000000000000000000000000000000000000000000000083526002830152602282015220908160243503610539576134b09261043c6001600160a01b0393928493615b90565b16911603610511576bffffffffffffffffffffffff82146104e45760016134fe92016001600160a01b0373ffffffffffffffffffffffffffffffffffffffff1983549260a01b169116179055565b825f52600b60205260405f2054918183106115b1575f828194926135248395849561488d565b878452600b60205260408420555af161353b61489a565b5015610ee3577f06f0d08c652a32f118304f762c3f388848b7653f7df433f67a48aa734675f0135f80a36001600a55005b346100435761357a366142e6565b929190613585614ed4565b61358e83614f0d565b6001600160a01b03821615611670576135a791836153ef565b7f0131d4fe789c9eeb7c2dd7e32aa9393d395bef62f1f67e0ba2a76d33c6dcf5ee5f80a36001600a55005b34610043576020600319360112610043576004355f52600b602052602060405f2054604051908152f35b3461004357604060031936011261004357613615614146565b6004355f52600c6020526001600160a01b0360405f2091165f52602052602060405f20541515604051908152f35b3461004357613651366142e6565b92919061365c614ed4565b61366583614f0d565b6001600160a01b03821615611670578015611648576135a791836151fe565b3461004357610047613695366141e7565b90604051926136a560208561423d565b5f84526149c3565b346100435760206136d06136c0366142d0565b905f52600f835260405f2061484b565b90549060031b1c604051908152f35b34610043576020600319360112610043576004356040517f6352211e0000000000000000000000000000000000000000000000000000000081528160048201526020816024816001600160a01b037f0000000000000000000000000000000000000000000000000000000000000000165afa908115610abe575f91613789575b506001600160a01b0333911603610a67575f526009602052602060405f205460a01c604051908152f35b6137a2915060203d602011610ab757610aa9818361423d565b8261375f565b610100600319360112610043576137bd614130565b6137c5614146565b60443560643567ffffffffffffffff8111610043576137e8903690600401614188565b60849291923567ffffffffffffffff81116100435761380b903690600401614188565b60a49291923567ffffffffffffffff81116100435761382e903690600401614188565b93909260c43567ffffffffffffffff811161004357613851903690600401614188565b97909661385c614ed4565b336001600160a01b038c1603612d77576001600160a01b038a1615612d4f5784831480159061395a575b6139325780340361390a576138ab6138b19a612cc79c6012549d8e92612cbe8461481e565b8a614fab565b7f032bc66be43dbccb7487781d168eb7bda224628a3b2c3388bdf69b532a3a16116020604051838152a160e435907f4fd35fc7cab0142e2b2e81414dbd72945bc0ae0131a46c03bd8c7073234817805f80a36001600a55005b7f42c0a68f000000000000000000000000000000000000000000000000000000005f5260045ffd5b7fa24a13a6000000000000000000000000000000000000000000000000000000005f5260045ffd5b5088871415613886565b346100435760c06003193601126100435760043560443567ffffffffffffffff8111610043576139989036906004016142b2565b60643567ffffffffffffffff8111610043576139b89036906004016142b2565b916084359160a4356139c8614ed4565b825f5260026020526001600160a01b0360405f20541615611b5d576139ec83614eb3565b6001600160a01b0333911603610a67578042116105615760405190613a4782602081019286845260a06040830152613a2760c083018a61410b565b9088606084015233608084015260a083015203601f19810184528361423d565b835f52600960205260405f20915190209181549060428260a01c9460405160208101917f5fd4fde1cb878824d6e96eec97296c9e818ad783a10b7c9ede6e7f27eca7b06b83528860408301528760608301526005608083015260a082015260a08152613ab460c08261423d565b519020613abf615a74565b90604051917f19010000000000000000000000000000000000000000000000000000000000008352600283015260228201522090816024350361053957613b149261043c6001600160a01b0393928493615b90565b16911603610511576bffffffffffffffffffffffff82146104e4576001613b6292016001600160a01b0373ffffffffffffffffffffffffffffffffffffffff1983549260a01b169116179055565b805f52601460205260405f20835167ffffffffffffffff811161236357613b8982546144cd565b601f8111613c5d575b50602094601f8211600114613bfc57613bc39293949582915f92613bf15750505f198260011b9260031b1c19161790565b90555b7fe6b029312a4fe660620d9aac173bc78279912103135fdd45fcb95684efee4bd65f80a36001600a55005b01519050868061222e565b601f19821695835f52805f20915f5b888110613c4557508360019596979810613c2d575b505050811b019055613bc6565b01515f1960f88460031b161c19169055858080613c20565b91926020600181928685015181550194019201613c0b565b613c8890835f5260205f20601f840160051c81019160208510613c8e575b601f0160051c0190614808565b85613b92565b9091508190613c7b565b34610043575f6003193601126100435760206040515f8152f35b3461004357610047613cc3366141e7565b916145be565b3461004357604060031936011261004357613ce2614146565b6004355f52600e6020526001600160a01b0360405f2091165f52602052602060405f2054604051908152f35b3461004357608060031936011261004357613d27614130565b50613d30614146565b5060643567ffffffffffffffff811161004357613d519036906004016141b9565b505060206040517f150b7a02000000000000000000000000000000000000000000000000000000008152f35b60e06003193601126100435760043560243560443567ffffffffffffffff811161004357613daf903690600401614188565b9060643567ffffffffffffffff811161004357613dd0903690600401614188565b9060843567ffffffffffffffff811161004357613df1903690600401614188565b92909160a43567ffffffffffffffff811161004357613e14903690600401614188565b969095613e1f614ed4565b881580613ec3575b80613ebb575b61164857613e3a8a614f0d565b883403613e9357838214801590613e89575b612a2f57613e5a988a614fab565b60c435907f0131d4fe789c9eeb7c2dd7e32aa9393d395bef62f1f67e0ba2a76d33c6dcf5ee5f80a36001600a55005b5087861415613e4c565b7fcfb73638000000000000000000000000000000000000000000000000000000005f5260045ffd5b508515613e2d565b508115613e27565b3461004357604060031936011261004357613ee4614130565b602435613ef081614eb3565b33151580613fca575b80613f97575b613f6b5781906001600160a01b0380851691167f8c5be1e5ebec7d5bd14f71427d1e84f3dd0314c0f7b2291e5b200ac8c7c3b9255f80a45f5260046020526001600160a01b0360405f20911673ffffffffffffffffffffffffffffffffffffffff198254161790555f80f35b7fa9fbf51f000000000000000000000000000000000000000000000000000000005f523360045260245ffd5b506001600160a01b0381165f52600560205260405f206001600160a01b0333165f5260205260ff60405f20541615613eff565b50336001600160a01b0382161415613ef9565b3461004357602060031936011261004357600435613ffa81614eb3565b505f52600460205260206001600160a01b0360405f205416604051908152f35b34610043575f600319360112610043576040515f5f54614039816144cd565b8084529060018116908115612164575060011461406057610b2683610b128185038261423d565b5f8080527f290decd9548b62a8d60345a988386fc84ba6bc95484008f6362f93160ef3e563939250905b8082106140a257509091508101602001610b126120f6565b91926001816020925483858801015201910190929161408a565b3461004357602060031936011261004357600435907fffffffff0000000000000000000000000000000000000000000000000000000082168203610043576141056020926143d1565b15158152f35b90601f19601f602080948051918291828752018686015e5f8582860101520116010190565b600435906001600160a01b038216820361004357565b602435906001600160a01b038216820361004357565b608435906001600160a01b038216820361004357565b606435906001600160a01b038216820361004357565b9181601f840112156100435782359167ffffffffffffffff8311610043576020808501948460051b01011161004357565b9181601f840112156100435782359167ffffffffffffffff8311610043576020838186019501011161004357565b6003196060910112610043576004356001600160a01b038116810361004357906024356001600160a01b0381168103610043579060443590565b6040810190811067ffffffffffffffff82111761236357604052565b90601f601f19910116810190811067ffffffffffffffff82111761236357604052565b67ffffffffffffffff811161236357601f01601f191660200190565b92919261428882614260565b91614296604051938461423d565b829481845281830111610043578281602093845f960137010152565b9080601f83011215610043578160206142cd9335910161427c565b90565b6003196040910112610043576004359060243590565b600319608091011261004357600435906024356001600160a01b038116810361004357906044359060643590565b6101006003198201126100435760043591602435916044359067ffffffffffffffff821161004357614348916004016142b2565b906064356001600160a01b038116810361004357906084359060a4356001600160a01b0381168103610043579060c4359060e43590565b60031960a0910112610043576004356001600160a01b038116810361004357906024356001600160a01b038116810361004357906044356001600160a01b038116810361004357906064359060843590565b7fffffffff00000000000000000000000000000000000000000000000000000000167fb45a3c0e0000000000000000000000000000000000000000000000000000000081146144c7577f150b7a020000000000000000000000000000000000000000000000000000000081146144c7577f80ac58cd00000000000000000000000000000000000000000000000000000000811490811561449d575b8115614476575090565b7f01ffc9a70000000000000000000000000000000000000000000000000000000091501490565b7f5b5e139f000000000000000000000000000000000000000000000000000000008114915061446c565b50600190565b90600182811c92168015614514575b60208310146144e757565b7f4e487b71000000000000000000000000000000000000000000000000000000005f52602260045260245ffd5b91607f16916144dc565b5f929181549161452d836144cd565b8083529260018116908115614582575060011461454957505050565b5f9081526020812093945091925b838310614568575060209250010190565b600181602092949394548385870101520191019190614557565b905060209495507fffffffffffffffffffffffffffffffffffffffffffffffffffffffffffffff0091509291921683830152151560051b010190565b91906001600160a01b031680156147dc57815f5260026020526001600160a01b0360405f2054161515806147d4575b611a4657815f5260026020526001600160a01b0360405f20541692823315159283614706575b6001600160a01b039350856146c2575b805f52600360205260405f2060018154019055815f52600260205260405f208173ffffffffffffffffffffffffffffffffffffffff19825416179055857fddf252ad1be2c89b69c2b068fc378daa952ba7f163c4a11628f55a4df523b3ef5f80a41680830361469157505050565b7f64283d7b000000000000000000000000000000000000000000000000000000005f5260045260245260445260645ffd5b6146ee825f52600460205260405f2073ffffffffffffffffffffffffffffffffffffffff198154169055565b855f52600360205260405f205f198154019055614623565b919290508061477d575b1561471d57828291614613565b828461474e577f7e273289000000000000000000000000000000000000000000000000000000005f5260045260245ffd5b7f177e802f000000000000000000000000000000000000000000000000000000005f523360045260245260445ffd5b5033841480156147ab575b806147105750825f526004602052336001600160a01b0360405f20541614614710565b50835f52600560205260405f206001600160a01b0333165f5260205260ff60405f205416614788565b5060016145ed565b7f64a0ae92000000000000000000000000000000000000000000000000000000005f525f60045260245ffd5b818110614813575050565b5f8155600101614808565b5f1981146104e45760010190565b9081602091031261004357516001600160a01b03811681036100435790565b8054821015614860575f5260205f2001905f90565b7f4e487b71000000000000000000000000000000000000000000000000000000005f52603260045260245ffd5b919082039182116104e457565b3d156148c4573d906148ab82614260565b916148b9604051938461423d565b82523d5f602084013e565b606090565b919082018092116104e457565b67ffffffffffffffff81116123635760051b60200190565b916020908281520191905f905b8082106149085750505090565b9091928335906001600160a01b038216820361004357602080916001600160a01b036001941681520194019201906148fb565b90918281527f07ffffffffffffffffffffffffffffffffffffffffffffffffffffffffffffff83116100435760209260051b809284830137010190565b91908110156148605760051b0190565b356001600160a01b03811681036100435790565b906040516149a981614221565b6020600182946001600160a01b0381541684520154910152565b906149cf8382846145be565b803b6149dc575b50505050565b602091614a3b6001600160a01b038093169560405195869485947f150b7a02000000000000000000000000000000000000000000000000000000008652336004870152166024850152604484015260806064840152608483019061410b565b03815f865af15f9181614b0e575b50614a905750614a5761489a565b80519081614a8b57827f64a0ae92000000000000000000000000000000000000000000000000000000005f5260045260245ffd5b602001fd5b7fffffffff000000000000000000000000000000000000000000000000000000007f150b7a0200000000000000000000000000000000000000000000000000000000911603614ae357505f8080806149d6565b7f64a0ae92000000000000000000000000000000000000000000000000000000005f5260045260245ffd5b9091506020813d602011614b63575b81614b2a6020938361423d565b8101031261004357517fffffffff000000000000000000000000000000000000000000000000000000008116810361004357905f614a49565b3d9150614b1d565b90815491680100000000000000008310156123635782614b93916001614bb29501815561484b565b9091906001600160a01b038084549260031b9316831b921b1916179055565b565b805f5260026020526001600160a01b0360405f20541615611b5d57805f526014602052614bed614bf460405f206040519283809261451e565b038261423d565b8051614e9a5750601354614c07816144cd565b614c33577f8714d516000000000000000000000000000000000000000000000000000000005f5260045ffd5b81825f937a184f03e93ff9f4daa797ed6e38ed64bf6a1f010000000000000000811015614e6f575b50806d04ee2d6d415b85acef8100000000600a921015614e54575b662386f26fc10000811015614e40575b6305f5e100811015614e2f575b612710811015614e20575b6064811015614e12575b1015614e08575b6001830190600a5f196021614cdc614cc686614260565b95614cd4604051978861423d565b808752614260565b96601f196020870198013689378501015b01917f30313233343536373839616263646566000000000000000000000000000000008282061a8353048015614d28575f19600a9192614ced565b50506040519283915f90614d3b856144cd565b9460018116908115614dca5750600114614d6c575b6142cd9450518092825e015f815203601f19810183528261423d565b905060135f527f66de8ffda797e3de9c05e8fc57b3bf0ec28a930d40b0d285d93c06501cf6a090935f5b818110614dae57506142cd9450830160200190614d50565b8554602082890181019190915260019096019587955001614d96565b60209293506142cd9691507fffffffffffffffffffffffffffffffffffffffffffffffffffffffffffffff0016828601528015150284010190614d50565b9160010191614caf565b606460029104940193614ca8565b61271060049104940193614c9e565b6305f5e10060089104940193614c93565b662386f26fc1000060109104940193614c86565b6d04ee2d6d415b85acef810000000060209104940193614c76565b604094507a184f03e93ff9f4daa797ed6e38ed64bf6a1f01000000000000000090049050600a614c5b565b905090565b80518210156148605760209160051b010190565b805f5260026020526001600160a01b0360405f205416908115611994575090565b6002600a5414614ee5576002600a55565b7f3ee5aeb5000000000000000000000000000000000000000000000000000000005f5260045ffd5b604051907f6352211e00000000000000000000000000000000000000000000000000000000825260048201526020816024816001600160a01b037f0000000000000000000000000000000000000000000000000000000000000000165afa908115610abe575f91614f8c575b506001600160a01b0333911603610a6757565b614fa5915060203d602011610ab757610aa9818361423d565b5f614f79565b9796949193929098959880615035575b505f5b8181106150085750505050505f5b818110614fdb57505050505050565b80615002614fef61270f600194868b614978565b614ffa838789614978565b3590886153ef565b01614fcc565b8061502f61501c61270f600194868a614978565b615027838789614978565b35908c6151fe565b01614fbe565b885f52600b60205261504c60405f209182546148c9565b90555f614fbb565b90815f5260096020526001600160a01b0360405f2054166150a3575f918252600960205260409091206001600160a01b0390911674010000000000000000000000000000000000000000179055565b7f0dc149f0000000000000000000000000000000000000000000000000000000005f5260045ffd5b6001600160a01b03169081156147dc57805f5260026020526001600160a01b0360405f2054161515806151f6575b611a4657805f5260026020526001600160a01b0360405f2054169081151592836151b2575b805f52600360205260405f2060018154019055815f52600260205260405f208173ffffffffffffffffffffffffffffffffffffffff19825416179055827fddf252ad1be2c89b69c2b068fc378daa952ba7f163c4a11628f55a4df523b3ef5f80a45061518657565b7f73c6ac6e000000000000000000000000000000000000000000000000000000005f525f60045260245ffd5b6151de825f52600460205260405f2073ffffffffffffffffffffffffffffffffffffffff198154169055565b825f52600360205260405f205f19815401905561511e565b5060016150f9565b6040517f70a0823100000000000000000000000000000000000000000000000000000000815230600482015291926001600160a01b0384169290602082602481875afa918215610abe575f926153b9575b506040517f23b872dd00000000000000000000000000000000000000000000000000000000602082015233602482015230604482015260648101919091526152a49061529e8160848101611f67565b8461595e565b604051907f70a08231000000000000000000000000000000000000000000000000000000008252306004830152602082602481875afa8015610abe575f90615385575b6152f1925061488d565b92831561164857815f52600e60205260405f20835f5260205260405f20541561533a575b505f52600c60205260405f20905f5260205261533660405f209182546148c9565b9055565b815f52600d60205260405f205490600182018092116104e45761537f91835f52600e60205260405f20855f5260205260405f2055825f52600d60205260405f20614b6b565b5f615315565b506020823d6020116153b1575b8161539f6020938361423d565b81010312610043576152f191516152e7565b3d9150615392565b9091506020813d6020116153e7575b816153d56020938361423d565b81010312610043575190611f6761524f565b3d91506153c8565b90604051602081019061543781611f6787868690917fffffffffffffffffffffffffffffffffffffffff00000000000000000000000060349360601b16825260148201520190565b51902091805f52601060205260405f20835f526020526001600160a01b0360405f2054161561552d575b6001906001600160a01b036040519361547985614221565b169384845260208401918683525f52601060205260405f20905f526020526001600160a01b038060405f209451161673ffffffffffffffffffffffffffffffffffffffff1984541617835551910155803b15610043576040517f42842e0e00000000000000000000000000000000000000000000000000000000815233600482015230602482015260448101929092525f908290606490829084905af18015610abe576155235750565b5f614bb29161423d565b805f52600f60205260405f2054600181018091116104e457815f52601160205260405f20845f5260205260405f2055805f52600f60205260405f209081549168010000000000000000831015612363576155a86155928487936001809701815561484b565b81939154905f199060031b92831b921b19161790565b90559050615461565b805f52600e60205260405f206001600160a01b0383165f5260205260405f205480156156f057815f52600d60205260405f2054808203615673575b5050805f52600d60205260405f2080548015615646575f190190615610828261484b565b6001600160a01b0382549160031b1b19169055555f52600e6020526001600160a01b0360405f2091165f526020525f6040812055565b7f4e487b71000000000000000000000000000000000000000000000000000000005f52603160045260245ffd5b825f52600d60205260405f205f1982019182116104e4576001600160a01b039161569c9161484b565b90549060031b1c16825f52600d60205260405f205f1983018381116104e457614b9383916156c99361484b565b825f52600e6020526001600160a01b0360405f2091165f5260205260405f20555f806155ec565b505050565b6040517fa9059cbb0000000000000000000000000000000000000000000000000000000060208201526001600160a01b03929092166024830152604480830193909352918152614bb29161574a60648361423d565b61595e565b6001600160a01b0360065416330361576357565b7f118cdaa7000000000000000000000000000000000000000000000000000000005f523360045260245ffd5b805f52601160205260405f20825f5260205260405f205480156156f057815f52600f60205260405f205480820361580c575b5050805f52600f60205260405f2080548015615646575f1901906157e5828261484b565b5f1982549160031b1b19169055555f52601160205260405f20905f526020525f6040812055565b825f52600f60205260405f20905f1981019081116104e45761582d9161484b565b90549060031b1c825f52600f60205260405f205f1983018381116104e45761559261585991849361484b565b9055825f52601160205260405f20905f5260205260405f20555f806157c1565b6040519060205f6001600160a01b03828501957f095ea7b30000000000000000000000000000000000000000000000000000000087521694856024860152816044860152604485526158cc60648661423d565b84519082855af15f513d82615939575b5050156158e857505050565b61574a614bb293604051907f095ea7b300000000000000000000000000000000000000000000000000000000602083015260248201525f60448201526044815261593360648261423d565b8261595e565b90915061595657506001600160a01b0381163b15155b5f806158dc565b60011461594f565b905f602091828151910182855af115610abe575f513d6159c257506001600160a01b0381163b155b61598d5750565b6001600160a01b03907f5274afe7000000000000000000000000000000000000000000000000000000005f521660045260245ffd5b60011415615986565b60ff8114615a2a5760ff811690601f8211615a0257604051916159ef60408461423d565b6020808452838101919036833783525290565b7fb3512b0c000000000000000000000000000000000000000000000000000000005f5260045ffd5b506040516142cd81614bed81600761451e565b60ff8114615a615760ff811690601f8211615a0257604051916159ef60408461423d565b506040516142cd81614bed81600861451e565b6001600160a01b037f000000000000000000000000000000000000000000000000000000000000000016301480615b67575b15615acf577f000000000000000000000000000000000000000000000000000000000000000090565b60405160208101907f8b73c3c69bb8fe3d512ecc4cf759cc79239f7b179b0ffacaa9a75d522b39400f82527f000000000000000000000000000000000000000000000000000000000000000060408201527f000000000000000000000000000000000000000000000000000000000000000060608201524660808201523060a082015260a08152615b6160c08261423d565b51902090565b507f00000000000000000000000000000000000000000000000000000000000000004614615aa6565b8151919060418303615bc057615bb99250602082015190606060408401519301515f1a90615ca2565b9192909190565b50505f9160029190565b6004811015615c755780615bdc575050565b60018103615c0c577ff645eedf000000000000000000000000000000000000000000000000000000005f5260045ffd5b60028103615c4057507ffce698f7000000000000000000000000000000000000000000000000000000005f5260045260245ffd5b600314615c4a5750565b7fd78bce0c000000000000000000000000000000000000000000000000000000005f5260045260245ffd5b7f4e487b71000000000000000000000000000000000000000000000000000000005f52602160045260245ffd5b91907f7fffffffffffffffffffffffffffffff5d576e7357a4501ddfe92f46681b20a08411615d19579160209360809260ff5f9560405194855216868401526040830152606082015282805260015afa15610abe575f516001600160a01b03811615615d0f57905f905f90565b505f906001905f90565b5050505f916003919056fea26469706673582212208db779f36d988da12c63c5fe53f48f9399113f55659a1679b2c6c1102df7a43564736f6c634300081e0033","linkReferences":{}},"methodIdentifiers":{"SWAP_FEE_BP()":"53861f14","TREASURY_LOCKBOX_ID()":"2ca7bc80","approve(address,uint256)":"095ea7b3","balanceOf(address)":"70a08231","batchDeposit(uint256,uint256,address[],uint256[],address[],uint256[],bytes32)":"0db54256","batchWithdraw(uint256,bytes32,bytes,uint256,address[],uint256[],address[],uint256[],address,bytes32,uint256)":"8f93f31b","burnLockbox(uint256,bytes32,bytes,bytes32,uint256)":"bb4ffa10","createLockboxWithBatch(address,address,uint256,address[],uint256[],address[],uint256[],bytes32)":"3b0320b0","createLockboxWithERC20(address,address,address,uint256,bytes32)":"748917dd","createLockboxWithERC721(address,address,address,uint256,bytes32)":"75463c4a","createLockboxWithETH(address,address,bytes32)":"5e4ed95d","depositERC20(uint256,address,uint256,bytes32)":"486c4b7f","depositERC721(uint256,address,uint256,bytes32)":"4d8af09e","depositETH(uint256,bytes32)":"65cd69a1","eip712Domain()":"84b0196e","getActiveLockboxPublicKeyForToken(uint256)":"aea5cf30","getApproved(uint256)":"081812fc","getERC20Bal(uint256,address)":"832d46cc","getErc20AddressAt(uint256,uint256)":"fa2bb376","getErc20ArrayLength(uint256)":"d0856eb4","getErc20Index(uint256,address)":"1c30dbb6","getErc20Known(uint256,address)":"490091fd","getEthBal(uint256)":"4bf7e15a","getFullLockbox(uint256)":"e124a17c","getNftIndex(uint256,bytes32)":"7b1f8f2e","getNftKeyAt(uint256,uint256)":"3df23e53","getNftKeysLength(uint256)":"8aedc644","getNftRecord(uint256,bytes32)":"ada09a30","getNonce(uint256)":"3d46b819","harnessInitialize(uint256,address)":"8f0ce30e","harnessRequireExists(uint256)":"6f2ec573","isApprovedForAll(address,address)":"e985e9c5","locked(uint256)":"b45a3c0e","name()":"06fdde03","onERC721Received(address,address,uint256,bytes)":"150b7a02","owner()":"8da5cb5b","ownerOf(uint256)":"6352211e","renounceOwnership()":"715018a6","rotateLockboxKey(uint256,bytes32,bytes,address,bytes32,uint256)":"f3eb9a16","safeTransferFrom(address,address,uint256)":"42842e0e","safeTransferFrom(address,address,uint256,bytes)":"b88d4fde","setApprovalForAll(address,bool)":"a22cb465","setDefaultMetadataURI(string)":"95480879","setTokenMetadataURI(uint256,bytes32,bytes,string,bytes32,uint256)":"2dbf9be6","supportsInterface(bytes4)":"01ffc9a7","swapInLockbox(uint256,bytes32,bytes,address,address,uint256,uint256,address,bytes,bytes32,uint256,address)":"bd1ca785","symbol()":"95d89b41","tokenURI(uint256)":"c87b56dd","transferFrom(address,address,uint256)":"23b872dd","transferOwnership(address)":"f2fde38b","withdrawERC20(uint256,bytes32,bytes,address,uint256,address,bytes32,uint256)":"6267699a","withdrawERC721(uint256,bytes32,bytes,address,uint256,address,bytes32,uint256)":"9b9900a9","withdrawETH(uint256,bytes32,bytes,uint256,address,bytes32,uint256)":"52dc033c"},"id":8}