{"abi":[{"type":"receive","stateMutability":"payable"},{"type":"function","name":"swap","inputs":[{"name":"tokenIn","type":"address","internalType":"address"},{"name":"tokenOut","type":"address","internalType":"address"},{"name":"amountIn","type":"uint256","internalType":"uint256"},{"name":"minAmountOut","type":"uint256","internalType":"uint256"},{"name":"recipient","type":"address","internalType":"address"}],"outputs":[],"stateMutability":"payable"},{"type":"function","name":"swapETHForTokens","inputs":[{"name":"tokenOut","type":"address","internalType":"address"},{"name":"minAmountOut","type":"uint256","internalType":"uint256"},{"name":"recipient","type":"address","internalType":"address"}],"outputs":[],"stateMutability":"payable"},{"type":"function","name":"swapTokensForETH","inputs":[{"name":"tokenIn","type":"address","internalType":"address"},{"name":"amountIn","type":"uint256","internalType":"uint256"},{"name":"minAmountOut","type":"uint256","internalType":"uint256"},{"name":"recipient","type":"address","internalType":"address"}],"outputs":[],"stateMutability":"nonpayable"}],"bytecode":{"object":"0x60808060405234601557610b21908161001a8239f35b5f80fdfe6080604052600436101561001a575b3615610018575f80fd5b005b5f3560e01c80634acd95cf146108865780635014cb2e146104745763d5bcb9b50361000e5760a07ffffffffffffffffffffffffffffffffffffffffffffffffffffffffffffffffc36011261047057610071610980565b60243573ffffffffffffffffffffffffffffffffffffffff8116809103610470576044356064359160843573ffffffffffffffffffffffffffffffffffffffff811680820361047057610454575073ffffffffffffffffffffffffffffffffffffffff33945b168061023357508134036101d5576103b68202918083046103b614901517156101a8576101659361010c6020948410156109a3565b5f6040518096819582947fa9059cbb000000000000000000000000000000000000000000000000000000008452600484016020909392919373ffffffffffffffffffffffffffffffffffffffff60408201951681520152565b03925af1801561019d5761017557005b6100189060203d602011610196575b61018e8183610a08565b810190610a76565b503d610184565b6040513d5f823e3d90fd5b7f4e487b71000000000000000000000000000000000000000000000000000000005f52601160045260245ffd5b60646040517f08c379a000000000000000000000000000000000000000000000000000000000815260206004820152601360248201527f45544820616d6f756e74206d69736d61746368000000000000000000000000006044820152fd5b9293929190806103b257506040517f23b872dd0000000000000000000000000000000000000000000000000000000081523360048201523060248201526044810182905291602090839060649082905f905af190811561019d576102a492606492610395575b5004928310156109a3565b814710610337575f80809373ffffffffffffffffffffffffffffffffffffffff8294165af16102d1610a8e565b50156102d957005b60646040517f08c379a000000000000000000000000000000000000000000000000000000000815260206004820152601360248201527f455448207472616e73666572206661696c6564000000000000000000000000006044820152fd5b60646040517f08c379a000000000000000000000000000000000000000000000000000000000815260206004820152601060248201527f496e73756666696369656e7420455448000000000000000000000000000000006044820152fd5b6103ad9060203d6020116101965761018e8183610a08565b610299565b6040517f23b872dd00000000000000000000000000000000000000000000000000000000815233600482015230602482015260448101839052939491939192909190602090829060649082905f905af1801561019d57610437575b50605f830292808404605f14901517156101a8576101659361010c606460209504938410156109a3565b61044f9060203d6020116101965761018e8183610a08565b61040d565b73ffffffffffffffffffffffffffffffffffffffff90946100d7565b5f80fd5b346104705760807ffffffffffffffffffffffffffffffffffffffffffffffffffffffffffffffffc360112610470576104ab610980565b6024356064359073ffffffffffffffffffffffffffffffffffffffff82168092036104705760648104926044358410610828578347106107ca5773ffffffffffffffffffffffffffffffffffffffff166040517fdd62ed3e000000000000000000000000000000000000000000000000000000008152336004820152306024820152602081604481855afa801561019d5783915f91610795575b5010610737576040517f70a08231000000000000000000000000000000000000000000000000000000008152336004820152602081602481855afa801561019d5783915f91610702575b501061067e576040517f23b872dd0000000000000000000000000000000000000000000000000000000081523360048201523060248201526044810192909252602090829060649082905f905af1801561019d575f93849384938493610661575b505af16105fb610a8e565b501561060357005b60646040517f08c379a000000000000000000000000000000000000000000000000000000000815260206004820152601b60248201527f526f757465723a20455448207472616e73666572206661696c656400000000006044820152fd5b6106799060203d6020116101965761018e8183610a08565b6105f0565b60846040517f08c379a000000000000000000000000000000000000000000000000000000000815260206004820152602360248201527f526f757465723a20496e73756666696369656e742073656e6465722062616c6160448201527f6e636500000000000000000000000000000000000000000000000000000000006064820152fd5b9150506020813d60201161072f575b8161071e60209383610a08565b81010312610470578290518661058f565b3d9150610711565b60646040517f08c379a000000000000000000000000000000000000000000000000000000000815260206004820152601e60248201527f526f757465723a20496e73756666696369656e7420616c6c6f77616e636500006044820152fd5b9150506020813d6020116107c2575b816107b160209383610a08565b810103126104705782905186610545565b3d91506107a4565b60646040517f08c379a000000000000000000000000000000000000000000000000000000000815260206004820152601860248201527f526f757465723a20496e73756666696369656e742045544800000000000000006044820152fd5b60646040517f08c379a000000000000000000000000000000000000000000000000000000000815260206004820152601b60248201527f526f757465723a20536c6970706167652070726f74656374696f6e00000000006044820152fd5b60607ffffffffffffffffffffffffffffffffffffffffffffffffffffffffffffffffc360112610470576108b8610980565b60443573ffffffffffffffffffffffffffffffffffffffff81168103610470576103b634023481046103b614341517156101a85761096f926020926109016024358410156109a3565b5f73ffffffffffffffffffffffffffffffffffffffff6040518097819682957fa9059cbb000000000000000000000000000000000000000000000000000000008452600484016020909392919373ffffffffffffffffffffffffffffffffffffffff60408201951681520152565b0393165af1801561019d5761017557005b6004359073ffffffffffffffffffffffffffffffffffffffff8216820361047057565b156109aa57565b60646040517f08c379a000000000000000000000000000000000000000000000000000000000815260206004820152600860248201527f536c6970706167650000000000000000000000000000000000000000000000006044820152fd5b90601f7fffffffffffffffffffffffffffffffffffffffffffffffffffffffffffffffe0910116810190811067ffffffffffffffff821117610a4957604052565b7f4e487b71000000000000000000000000000000000000000000000000000000005f52604160045260245ffd5b90816020910312610470575180151581036104705790565b3d15610ae6573d9067ffffffffffffffff8211610a495760405191610adb60207fffffffffffffffffffffffffffffffffffffffffffffffffffffffffffffffe0601f8401160184610a08565b82523d5f602084013e565b60609056fea2646970667358221220c3edd3a7a6fdb9ce44451b414aa1e0198ea399b3f7479f1104e9c4459e01a0fd64736f6c634300081e0033","linkReferences":{}},"methodIdentifiers":{"swap(address,address,uint256,uint256,address)":"d5bcb9b5","swapETHForTokens(address,uint256,address)":"4acd95cf","swapTokensForETH(address,uint256,uint256,address)":"5014cb2e"},"id":13}