{"abi":[{"type":"receive","stateMutability":"payable"},{"type":"function","name":"swap","inputs":[{"name":"tokenIn","type":"address","internalType":"address"},{"name":"tokenOut","type":"address","internalType":"address"},{"name":"amountIn","type":"uint256","internalType":"uint256"},{"name":"minAmountOut","type":"uint256","internalType":"uint256"},{"name":"recipient","type":"address","internalType":"address"}],"outputs":[],"stateMutability":"nonpayable"},{"type":"function","name":"swapETHForTokens","inputs":[{"name":"tokenOut","type":"address","internalType":"address"},{"name":"minAmountOut","type":"uint256","internalType":"uint256"},{"name":"recipient","type":"address","internalType":"address"}],"outputs":[],"stateMutability":"payable"},{"type":"function","name":"swapTokensForETH","inputs":[{"name":"tokenIn","type":"address","internalType":"address"},{"name":"amountIn","type":"uint256","internalType":"uint256"},{"name":"minAmountOut","type":"uint256","internalType":"uint256"},{"name":"recipient","type":"address","internalType":"address"}],"outputs":[],"stateMutability":"nonpayable"}],"bytecode":{"object":"0x608080604052346015576108f2908161001a8239f35b5f80fdfe6080604052600436101561001a575b3615610018575f80fd5b005b5f3560e01c80634acd95cf146106e15780635014cb2e1461023d5763d5bcb9b50361000e57346102395760a07ffffffffffffffffffffffffffffffffffffffffffffffffffffffffffffffffc360112610239576100766107db565b6024359073ffffffffffffffffffffffffffffffffffffffff821680920361023957604435906084359073ffffffffffffffffffffffffffffffffffffffff82168203610239576040517f23b872dd0000000000000000000000000000000000000000000000000000000081523360048201523060248201526044810184905290602090829060649082905f9073ffffffffffffffffffffffffffffffffffffffff165af180156101e45761021c575b50605f820291808304605f14901517156101ef576101ac92606460209304916101536064358410156107fe565b5f6040518096819582947fa9059cbb000000000000000000000000000000000000000000000000000000008452600484016020909392919373ffffffffffffffffffffffffffffffffffffffff60408201951681520152565b03925af180156101e4576101bc57005b6100189060203d6020116101dd575b6101d58183610863565b8101906108a4565b503d6101cb565b6040513d5f823e3d90fd5b7f4e487b71000000000000000000000000000000000000000000000000000000005f52601160045260245ffd5b6102349060203d6020116101dd576101d58183610863565b610126565b5f80fd5b346102395760807ffffffffffffffffffffffffffffffffffffffffffffffffffffffffffffffffc360112610239576102746107db565b6024356064359073ffffffffffffffffffffffffffffffffffffffff82168092036102395760098102818104600914821517156101ef576127109004926044358410610683578347106106255773ffffffffffffffffffffffffffffffffffffffff166040517fdd62ed3e000000000000000000000000000000000000000000000000000000008152336004820152306024820152602081604481855afa80156101e45783915f916105f0575b5010610592576040517f70a08231000000000000000000000000000000000000000000000000000000008152336004820152602081602481855afa80156101e45783915f9161055d575b50106104d9576040517f23b872dd0000000000000000000000000000000000000000000000000000000081523360048201523060248201526044810192909252602090829060649082905f905af180156101e4575f938493849384936104bc575b505af13d156104b7573d67ffffffffffffffff811161048a576040519061041b60207fffffffffffffffffffffffffffffffffffffffffffffffffffffffffffffffe0601f8401160183610863565b81525f60203d92013e5b1561042c57005b60646040517f08c379a000000000000000000000000000000000000000000000000000000000815260206004820152601b60248201527f526f757465723a20455448207472616e73666572206661696c656400000000006044820152fd5b7f4e487b71000000000000000000000000000000000000000000000000000000005f52604160045260245ffd5b610425565b6104d49060203d6020116101dd576101d58183610863565b6103cc565b60846040517f08c379a000000000000000000000000000000000000000000000000000000000815260206004820152602360248201527f526f757465723a20496e73756666696369656e742073656e6465722062616c6160448201527f6e636500000000000000000000000000000000000000000000000000000000006064820152fd5b9150506020813d60201161058a575b8161057960209383610863565b81010312610239578290518661036b565b3d915061056c565b60646040517f08c379a000000000000000000000000000000000000000000000000000000000815260206004820152601e60248201527f526f757465723a20496e73756666696369656e7420616c6c6f77616e636500006044820152fd5b9150506020813d60201161061d575b8161060c60209383610863565b810103126102395782905186610321565b3d91506105ff565b60646040517f08c379a000000000000000000000000000000000000000000000000000000000815260206004820152601860248201527f526f757465723a20496e73756666696369656e742045544800000000000000006044820152fd5b60646040517f08c379a000000000000000000000000000000000000000000000000000000000815260206004820152601b60248201527f526f757465723a20536c6970706167652070726f74656374696f6e00000000006044820152fd5b60607ffffffffffffffffffffffffffffffffffffffffffffffffffffffffffffffffc360112610239576107136107db565b60443573ffffffffffffffffffffffffffffffffffffffff81168103610239576103b634023481046103b614341517156101ef576107ca9260209261075c6024358410156107fe565b5f73ffffffffffffffffffffffffffffffffffffffff6040518097819682957fa9059cbb000000000000000000000000000000000000000000000000000000008452600484016020909392919373ffffffffffffffffffffffffffffffffffffffff60408201951681520152565b0393165af180156101e4576101bc57005b6004359073ffffffffffffffffffffffffffffffffffffffff8216820361023957565b1561080557565b60646040517f08c379a000000000000000000000000000000000000000000000000000000000815260206004820152600860248201527f536c6970706167650000000000000000000000000000000000000000000000006044820152fd5b90601f7fffffffffffffffffffffffffffffffffffffffffffffffffffffffffffffffe0910116810190811067ffffffffffffffff82111761048a57604052565b9081602091031261023957518015158103610239579056fea26469706673582212209b4eb0a136686c714088732e2aea2c1839681c2510c6282bd76186799f45249264736f6c634300081e0033","linkReferences":{}},"methodIdentifiers":{"swap(address,address,uint256,uint256,address)":"d5bcb9b5","swapETHForTokens(address,uint256,address)":"4acd95cf","swapTokensForETH(address,uint256,uint256,address)":"5014cb2e"},"id":9}