{"abi":[{"type":"receive","stateMutability":"payable"},{"type":"function","name":"getAmountOut","inputs":[{"name":"tokenIn","type":"address","internalType":"address"},{"name":"tokenOut","type":"address","internalType":"address"},{"name":"amountIn","type":"uint256","internalType":"uint256"}],"outputs":[{"name":"","type":"uint256","internalType":"uint256"}],"stateMutability":"pure"},{"type":"function","name":"setShouldRevert","inputs":[{"name":"_shouldRevert","type":"bool","internalType":"bool"}],"outputs":[],"stateMutability":"nonpayable"},{"type":"function","name":"shouldRevert","inputs":[],"outputs":[{"name":"","type":"bool","internalType":"bool"}],"stateMutability":"view"},{"type":"function","name":"swap","inputs":[{"name":"tokenIn","type":"address","internalType":"address"},{"name":"tokenOut","type":"address","internalType":"address"},{"name":"amountIn","type":"uint256","internalType":"uint256"},{"name":"minAmountOut","type":"uint256","internalType":"uint256"},{"name":"recipient","type":"address","internalType":"address"}],"outputs":[],"stateMutability":"payable"},{"type":"function","name":"swapETHForTokens","inputs":[{"name":"tokenOut","type":"address","internalType":"address"},{"name":"minAmountOut","type":"uint256","internalType":"uint256"},{"name":"recipient","type":"address","internalType":"address"}],"outputs":[],"stateMutability":"payable"},{"type":"function","name":"swapTokensForETH","inputs":[{"name":"tokenIn","type":"address","internalType":"address"},{"name":"amountIn","type":"uint256","internalType":"uint256"},{"name":"minAmountOut","type":"uint256","internalType":"uint256"},{"name":"recipient","type":"address","internalType":"address"}],"outputs":[],"stateMutability":"nonpayable"}],"bytecode":{"object":"0x60808060405234601d5760ff195f54165f55610ca890816100228239f35b5f80fdfe6080604052600436101561001a575b3615610018575f80fd5b005b5f3560e01c80634aa0665214610a3f5780634acd95cf146109e25780635014cb2e146105ee5780636813d787146105a1578063d3072d82146105805763d5bcb9b50361000e5760a060031936011261057c57610074610a76565b61007c610a99565b6044356064359160843573ffffffffffffffffffffffffffffffffffffffff811680820361057c5760ff5f54166104f8576104dc575073ffffffffffffffffffffffffffffffffffffffff33945b168061023c57508134036101de576103b68202918083046103b614901517156101b15761016d936100ff602094841015610b2a565b5f73ffffffffffffffffffffffffffffffffffffffff6040518097819682957fa9059cbb000000000000000000000000000000000000000000000000000000008452600484016020909392919373ffffffffffffffffffffffffffffffffffffffff60408201951681520152565b0393165af180156101a65761017e57005b6100189060203d60201161019f575b6101978183610b8f565b810190610bfd565b503d61018d565b6040513d5f823e3d90fd5b7f4e487b71000000000000000000000000000000000000000000000000000000005f52601160045260245ffd5b60646040517f08c379a000000000000000000000000000000000000000000000000000000000815260206004820152601360248201527f45544820616d6f756e74206d69736d61746368000000000000000000000000006044820152fd5b929392919073ffffffffffffffffffffffffffffffffffffffff16806103d157506040517f23b872dd0000000000000000000000000000000000000000000000000000000081523360048201523060248201526044810182905291602090839060649082905f905af19081156101a6576102c3926064926103b4575b500492831015610b2a565b814710610356575f80809373ffffffffffffffffffffffffffffffffffffffff8294165af16102f0610c15565b50156102f857005b60646040517f08c379a000000000000000000000000000000000000000000000000000000000815260206004820152601360248201527f455448207472616e73666572206661696c6564000000000000000000000000006044820152fd5b60646040517f08c379a000000000000000000000000000000000000000000000000000000000815260206004820152601060248201527f496e73756666696369656e7420455448000000000000000000000000000000006044820152fd5b6103cc9060203d60201161019f576101978183610b8f565b6102b8565b6040517f23b872dd00000000000000000000000000000000000000000000000000000000815233600482015230602482015260448101839052939491939192909190602090829060649082905f905af180156101a6576104bf575b50605f830292808404605f14901517156101b1576104af9361045660646020950493841015610b2a565b5f6040518096819582947fa9059cbb000000000000000000000000000000000000000000000000000000008452600484016020909392919373ffffffffffffffffffffffffffffffffffffffff60408201951681520152565b03925af180156101a65761017e57005b6104d79060203d60201161019f576101978183610b8f565b61042c565b73ffffffffffffffffffffffffffffffffffffffff90946100ca565b60846040517f08c379a000000000000000000000000000000000000000000000000000000000815260206004820152602160248201527f526f757465723a20466f726365642072657665727420666f722074657374696e60448201527f67000000000000000000000000000000000000000000000000000000000000006064820152fd5b5f80fd5b3461057c575f60031936011261057c57602060ff5f54166040519015158152f35b3461057c57602060031936011261057c5760043580151580910361057c5760ff7fffffffffffffffffffffffffffffffffffffffffffffffffffffffffffffff005f54169116175f555f80f35b3461057c57608060031936011261057c57610607610a76565b6024356064359073ffffffffffffffffffffffffffffffffffffffff821680920361057c5760648104926044358410610984578347106109265773ffffffffffffffffffffffffffffffffffffffff166040517fdd62ed3e000000000000000000000000000000000000000000000000000000008152336004820152306024820152602081604481855afa80156101a65783915f916108f1575b5010610893576040517f70a08231000000000000000000000000000000000000000000000000000000008152336004820152602081602481855afa80156101a65783915f9161085e575b50106107da576040517f23b872dd0000000000000000000000000000000000000000000000000000000081523360048201523060248201526044810192909252602090829060649082905f905af180156101a6575f938493849384936107bd575b505af1610757610c15565b501561075f57005b60646040517f08c379a000000000000000000000000000000000000000000000000000000000815260206004820152601b60248201527f526f757465723a20455448207472616e73666572206661696c656400000000006044820152fd5b6107d59060203d60201161019f576101978183610b8f565b61074c565b60846040517f08c379a000000000000000000000000000000000000000000000000000000000815260206004820152602360248201527f526f757465723a20496e73756666696369656e742073656e6465722062616c6160448201527f6e636500000000000000000000000000000000000000000000000000000000006064820152fd5b9150506020813d60201161088b575b8161087a60209383610b8f565b8101031261057c57829051866106eb565b3d915061086d565b60646040517f08c379a000000000000000000000000000000000000000000000000000000000815260206004820152601e60248201527f526f757465723a20496e73756666696369656e7420616c6c6f77616e636500006044820152fd5b9150506020813d60201161091e575b8161090d60209383610b8f565b8101031261057c57829051866106a1565b3d9150610900565b60646040517f08c379a000000000000000000000000000000000000000000000000000000000815260206004820152601860248201527f526f757465723a20496e73756666696369656e742045544800000000000000006044820152fd5b60646040517f08c379a000000000000000000000000000000000000000000000000000000000815260206004820152601b60248201527f526f757465723a20536c6970706167652070726f74656374696f6e00000000006044820152fd5b606060031936011261057c576109f6610a76565b60443573ffffffffffffffffffffffffffffffffffffffff8116810361057c576103b634023481046103b614341517156101b15761016d926020926100ff602435841015610b2a565b3461057c57606060031936011261057c576020610a6e610a5d610a76565b610a65610a99565b60443591610abc565b604051908152f35b6004359073ffffffffffffffffffffffffffffffffffffffff8216820361057c57565b6024359073ffffffffffffffffffffffffffffffffffffffff8216820361057c57565b73ffffffffffffffffffffffffffffffffffffffff16610aef57506103b68102908082046103b614901517156101b15790565b73ffffffffffffffffffffffffffffffffffffffff16610b10576064900490565b605f810290808204605f14901517156101b1576064900490565b15610b3157565b60646040517f08c379a000000000000000000000000000000000000000000000000000000000815260206004820152600860248201527f536c6970706167650000000000000000000000000000000000000000000000006044820152fd5b90601f7fffffffffffffffffffffffffffffffffffffffffffffffffffffffffffffffe0910116810190811067ffffffffffffffff821117610bd057604052565b7f4e487b71000000000000000000000000000000000000000000000000000000005f52604160045260245ffd5b9081602091031261057c5751801515810361057c5790565b3d15610c6d573d9067ffffffffffffffff8211610bd05760405191610c6260207fffffffffffffffffffffffffffffffffffffffffffffffffffffffffffffffe0601f8401160184610b8f565b82523d5f602084013e565b60609056fea2646970667358221220ab3de8ed476a6066fd859ecaabac39c5326eb577e1427fcce74ea1550c8428ba64736f6c634300081e0033","linkReferences":{}},"methodIdentifiers":{"getAmountOut(address,address,uint256)":"4aa06652","setShouldRevert(bool)":"6813d787","shouldRevert()":"d3072d82","swap(address,address,uint256,uint256,address)":"d5bcb9b5","swapETHForTokens(address,uint256,address)":"4acd95cf","swapTokensForETH(address,uint256,uint256,address)":"5014cb2e"},"id":14}